:020000041000EA
:10000000002008205D0100101B0100101D010010E0
:100010001101001011010010110100101101001058
:100020001901001019010010190100101F01001022
:10003000110100101901001021010010230100100E
:100040001101001011010010110100101101001028
:100050001101001011010010110100101101001018
:100060001101001011010010110100101101001008
:1000700011010010110100101101001011010010F8
:1000800011010010110100101101001011010010E8
:1000900011010010110100101101001011010010D8
:1000A00011010010110100101101001011010010C8
:1000B00011010010110100101101001011010010B8
:1000C00011010010110100101101001011010010A8
:1000D0001101001011010010110100101101001098
:1000E0001101001011010010110100101101001088
:1000F0001101001011010010110100101101001078
:100100001101001011010010110100101101001067
:10011000EFF30580103800BE00BE00BE00BE00BE7A
:1001200000BE00BEF2EB8871748001109480011053
:10013000A001001090A31AE7D3DEFFFF42012110B7
:10014000FF01000070960100793512AB4FF00000FE
:100150001E49086006C881F3088810474FF05040D8
:10016000006810B14FF00000F2E70DA40ECC00299A
:1001700002D000F012F8F9E71549164A002000E015
:1001800001C19142FCD11449884714498847144958
:10019000884700BEFDE701C901C29A42FBD3704700
:1001A000948001101001002024180020A89701104D
:1001B0000000082000000820A89701100010082067
:1001C00000100820000000007047000008ED00E06B
:1001D000241800205C30002041310010350200104E
:1001E0000B310010F8B500BF064B0749C91A89103A
:1001F00048BF0131491003D0044B0BB101481847E7
:10020000704700BF241800202418002000000000C0
:1002100008B5054B1BB105490548AFF30080BDE8A3
:100220000840FFF7E1BF00BF00000000B826002033
:10023000B43D011008B500F047F800F02BF9FCE7D9
:10024000704770470346C06A28B15A6A914201D18B
:10025000986A704700207047014808F063BA00BFF1
:10026000D81900202DE9F04105460F460646002426
:10027000D0F82080A04501D100200CE0B369202BEC
:100280000BD13946F06911F085FB30B9644204F0B6
:100290001C0404342819BDE8F08101341C36E9E758
:1002A0002029034606D0006A28B19A69914201D1FB
:1002B000181D704700207047024B9A699206FCD4C3
:1002C0001860704700800740F0B54FF4E1318DB001
:1002D000564801F0B1F802211A2000F0B9F90221C4
:1002E0001B2000F0B5F900235149524D11F8014B84
:1002F000BCB900F09FF9504B504F1968CA185B58B1
:100300003A60D31A198804291CD9998811B1515817
:10031000032919D003224A480DB0BDE8F04008F087
:10032000CBBF3BB12046FFF7C7FFA4F10D025342FC
:100330005341DBE7B5F90230A342F3D10D20FFF7BB
:10034000BBFFEFE72146E5E73E4A3F4E136813F057
:10035000010308D13362F36201233C493C48316018
:1003600013600DF07DFE05A805F08AFE09213648D0
:10037000FFF796FF60B1374808F09EFF0921364825
:1003800008F09AFF35480DB0BDE8F04008F094BF82
:10039000336A33B10921324808F08EFF0121314818
:1003A000EEE7314D05AC0FCC0FC594E8070085E8AA
:1003B000070009220124F36AB26106EB83014A6255
:1003C0002A4903F10A022344F362346246F82210F8
:1003D000274E3368234010D1CDE9023301934FF407
:1003E000FA6300933968234B2348A5F1140208F0FF
:1003F000D3F8224834600DF033FE1F48204D2860AA
:1004000008F0ABFA044608B11E48BCE7014628686C
:1004100008F04FF91C4B21461860286808F06BF96A
:100420001A4B18601A4B1C600DB0F0BD00800740DD
:10043000604801102C270020D03D0110D019002069
:1004400068480110BC190020A81A00204874011047
:1004500043020010AF480110DE480110434901106B
:10046000FF48011030490110AC1A00205B6C0010ED
:10047000B819002030270020D81900205902001098
:10048000C019002058490110CC190020D4190020AF
:10049000C41900202E4B30B51B682E4D07EE103AC4
:1004A000D5ED007AB8EEC77AF8EEE77A2DED028B3B
:1004B00087EE878ADFED287A83B00193274B28EEF9
:1004C000278A1B6893ED027AC8EE077A93ED037AC8
:1004D000B8EEC77A77EE877AFDEEE77A1A6917EEFB
:1004E000903A13701E4B186808F02EFB044668B152
:1004F00018EE100A13F018FC02460B46194803B018
:10050000BDEC028BBDE8304008F0D6BE164B18EEAD
:10051000100A1A681369D16893F9003092ED027AD3
:100520005B1A07EE903AF8EEE77A67EE877A17EEF5
:10053000901A00F031F82B68019A01339A42D4BF27
:1005400022461A462A6003B0BDEC028B30BD00BFC4
:10055000C03D0110C4190020DB0FC940CC19002098
:10056000C019002071490110D41900201022074B36
:10057000C3F8F420064ADB6D128812FB02F283EA0C
:100580000243044A6FF30F03D365704700800A40AB
:10059000C819002000900A4070B51F4E2DED028B47
:1005A000357808EE101AEDB90421192000F050F842
:1005B00010231A4C1A4AC4F8F4300820C2F8F83054
:1005C000184900F07BF90121082000F031F94FF6BD
:1005D000FF732565A565E5652366402363650123F3
:1005E00023653370F7EE007A38EE278ADFED0E7A56
:1005F00028EE278AFDEEC87A0C4B0D4817EE901AAC
:10060000C3ED007A08F058FEBDEC028BBDE87040E7
:100610000A2000F022BE00BF002F002000800A4008
:1006200000A00A406D0500100000FF42C81900201C
:100630004F5C011002F0A0BE034B0A461B68014646
:10064000D86810F023BB00BFD016002002F0E2BC37
:100650000C4B10B503EB800253F8203002F58054A8
:1006600083F0400303F0C00323604FF48073C000A5
:1006700000F1804000F5203002F5405241601360E7
:1006800010BD00BF048003400FB407B5049C0748A9
:1006900002F082FE3CB105A92046019102F0C8FC9F
:1006A000034802F079FE012002F0E5FC89490110BF
:1006B00043690110EFF3108072B6064BD3E8CF1FE9
:1006C00001220029FAD1C3E8412F0029F6D1BFF356
:1006D0005F8F70470F2F00200023034AC2E88F3F2F
:1006E00080F31088704700BF0F2F0020CB08C05C3C
:1006F000012301F007018B401840003818BF01208A
:100700007047F8B505460C461746FFF7D3FF21465C
:1007100006462846FFF7EAFF18B121463846FFF79C
:10072000B3FF0123E208A95C04F00704A3400B43D4
:10073000AB543046BDE8F840FFF7CEBFF8B51446DD
:1007400005460E461F46FFF7B5FF0246BC4202D9DA
:100750004FF0FF340CE021462846FFF7C7FF80B971
:100760000123E10804F007008340685C03436B54F5
:100770001046FFF7B1FF002C05DA26B10698FFF707
:1007800083FF0134E2E72046F8BD0000044A1078F8
:10079000431CDBB2182B28BF10231370704700BF17
:1007A000A810002007B5054B0146009318221F230F
:1007B0000348FFF7C3FF03B05DF804FB994901103C
:1007C0006C2200204FF0E022936843F000539360C6
:1007D0007047000000231A4603481918C1E88F2FFC
:1007E0000133202BF9D17047042F0020064B103025
:1007F0009B6843F82010BFF35F8F00230349C1E8D3
:100800008F3F82F31088704700ED00E00D2F00202D
:100810004FF08030044B054A194604339342086078
:10082000FAD162B6704700BF00E400E034E400E0B3
:100830000122430900F01F00824041B19B0003F1F7
:10084000604303F56143C3F880211A607047024991
:10085000203341F82320704700E100E0064B4209B5
:1008600053F82220012300F01F0003FA00F010408B
:10087000003818BF0120704700E100E00122430961
:10088000034900F01F008240403341F823207047A5
:1008900000E100E0024B10309B6853F820007047E5
:1008A00000ED00E008B5FFF7F5FF034BC01A2F2855
:1008B0008CBF0020012008BDAC10002070B505469B
:1008C0000C46EFF3108672B60D4BD3E8CF1F012212
:1008D0000029FAD1C3E8412F0029F6D1BFF35F8F79
:1008E000FFF7D8FF074B984203D0A04201D000F099
:1008F00041FF324621462846BDE87040FFF776BFEB
:100900000D2F0020110100102DE9F74F80468A4677
:100910009146EFF3108372B60193674BD3E8CF1F74
:1009200001220029FAD1C3E8412F0029F6D1BFF3F3
:100930005F8FDFF8A0B19BF90030002B01DA00F0E7
:1009400019FF4FF00C0C9BF900605C4D08F1100290
:100950000CFB06539B7906EB46048BF80030584B92
:10096000A7009B6805EB840453F822104B1B2F2B28
:1009700022D9544B994201D000F0FCFE0C234FF4D5
:1009800021417343EA18E9524F4B02372F44043B8D
:10099000DB1BC3F34A036FEAC3436FEAD3435380BD
:1009A0004BF601539380FF2382F807909371C2F8AE
:1009B00008A044F0010140E021F0010003460022BC
:1009C00093F807E0CE453FD8DFF80CC1002A46D0A7
:1009D00092F906E002F1040BBEF1000F3DDB6FF06F
:1009E00007009388C01B5B0542BF03F5FF1303F5A7
:1009F000FF531F335B1502330BEB4303401B0344D0
:100A0000C3F34A036FEAC3436FEAD343043CA4EB46
:100A10000B04C4F34A046FEAC4440C206FEAD444C4
:100A20007043948096712A1845F800C0938082F82C
:100A300006E082F80790C2F808A04046019A03B089
:100A4000BDE8F04FFFF7D2BE93F906E01A46BEF1BB
:100A5000000FB9DB0CFB0E53B2E71C4BD6E74AF68E
:100A6000AA2103465B1B5B415943090D0C235E43DE
:100A70004FF42143144AAB53BB1C2B44043AD21A03
:100A8000134BC2F34A0205EB060E1A43AEF80220DE
:100A90006FF00702D21B521B0244C2F34A021A43F0
:100AA000AEF804208EF806108EF80790CEF808A055
:100AB000C0F800C07DE700BF0D2F0020AC10002063
:100AC00000ED00E011010010DC10002001BDFFFF6F
:100AD00000E0FFFF3D30002001488047F0B5EFF314
:100AE0000586F6B2EFF3108772B6214CD4E8CF2F0B
:100AF0000123002AFAD1C4E8423F002AF6D1BFF30D
:100B00005F8F4AF6AA2301461A4A891A49414B4384
:100B10001B0D59B2184B40F00105D3F808C05CF822
:100B200026C0AC4525460DD19B68144A43F82620C3
:100B3000134B1A78197082710023C5E88F3F87F331
:100B40001088F0BD1446002394F906608E4208D147
:100B50000C2404FB0323FF229A714BF601529A8066
:100B6000E6E70133042B04F10C04EDD1E0E700BF0C
:100B70000D2F0020AC10002000ED00E0110100104E
:100B80003D30002007B5074B0146009300220523A6
:100B90000548FFF7D3FD0028A8BFC0F1330003B01C
:100BA0005DF804FBB44901105A300020014B0B449E
:100BB00003607047042F002010B50446FFF7E6FDE0
:100BC00001462046FFF7F2FFFF232371BFF35F8F3B
:100BD00010BD10B50446FFF7D9FD01462046FFF7CA
:100BE000E5FFFF23A380BFF35F8F10BD38B5084832
:100BF000084DA84200D338BD044654F8083B1BB149
:100C0000FFF7E7FF2046F4E7FFF7D6FFFAE700BF5C
:100C10001C1800202418002010B504460120FFF7FE
:100C2000C1FD034B03442360BFF35F8F10BD00BFC2
:100C3000042F0020024B0B440360BFF35F8F70470B
:100C4000042F00200D4B10B51A68EFF3108172B617
:100C5000D2E8CF4F0120002CFAD1C2E8440F002C7B
:100C6000F6D1BFF35F8F1A680023C2E88F3F81F38C
:100C7000108840BF0020002110BD00BFF8260020D2
:100C80002DE9F04F2DED028B85B0EFF30582D2B246
:100C9000A34B103A9108A34D18BF1D46E81A4342D2
:100CA00002F00302434102EB830301929E4A9FED4F
:100CB0009A8B52F823400123019A93400293029A9F
:100CC00005F541535A60029BEB63B4F90830002BE1
:100CD000009352DB18265E436769284607EB060837
:100CE000D8E902A900F014FB504571EB090144DB7F
:100CF000B9F1000F6FDBD8E9043B8C4A934255D120
:100D00005846DBF810309847002864D0DBE9003BF8
:100D100053EA0B025FD0BBF1000F53DABAEB0300CA
:100D200069EB0B0137F906C0C8E90201BCF1000FFD
:100D300023DB4FF0180BD4F814900BFB0C93D3E982
:100D40000223904271EB030317DBA6462EF808CF6F
:100D50000BFB0CFA09EB0A08D8E90223904271EB6D
:100D6000030305DB39F90AC0C646BCF1000FEFDA10
:100D7000009B27F806C0AEF80030A388190446D5BA
:100D8000A37943B10023A371B4F9083004F1080634
:100D90005A1C40F08180B4F90820002A80F2978024
:100DA00040BF05B0BDEC028BBDE8F08FB8F8022063
:100DB000B4F9080092B2594642EA00409847034607
:100DC0008B46A5E72846039300F0A2FA039BC018C0
:100DD0004BEB0101A6E7BB5B23812369EFF3108294
:100DE00072B6D3E8CF0F01210028FAD1C3E8401F23
:100DF0000028F6D1BFF35F8F63880021BB53009BAF
:100E000063802369C3E88F1F82F31088B5E72369E5
:100E1000EFF3108172B6D3E8CF0F01220028FAD188
:100E2000C3E8402F0028F6D1BFF35F8F4FF6FF7263
:100E3000A3880020A2801BB22269C2E88F0F81F331
:100E40001088182704F10809002B99DBCE4607FB10
:100E500003F06269B4F908C01118D1E902BABCF113
:100E6000000F0FDBBEF9001001EB410102EBC108DE
:100E7000D8F80C600096D8F80860B345009E7AEB6D
:100E8000060605DAAEF80030135E22F800C0DBE794
:100E9000C64632F931C0E2E7616903EB430001EB7A
:100EA000C002B2F802C031F930701CF4004F0CD00F
:100EB000B4F908C082ED028B634504D037802289E3
:100EC00021F8302023813B4662E71646FBE71821D4
:100ED000636901FB0233D3E90267B7F1FF3F08BF43
:100EE000B6F1FF3F0FD0019BA96A05EB830213699E
:100EF000701A5B1A984205D301230198296A83402E
:100F00000B4200D11661284600F002FAB042B94106
:100F1000BFF6D9AE44E700BFFFFFFFFFFFFFFFFFB3
:100F200000800B4000000B40D8260020810C0010F0
:100F3000F8B504461646C1601F460D46FFF726FC6D
:100F40004FF0504226701268184B62704FF6FF72D5
:100F500003442361BBB26381013B2281A280638091
:100F600000221823BA4218D1114F1249EB1B5F42DD
:100F70005F41114B06EB870743F82740012404FA31
:100F800006F638462E62FFF799FC05F50155214615
:100F90003846FFF74DFC2E60F8BD03FB02F1606997
:100FA00002F1FF3C20F801C00132DBE7042F0020F2
:100FB00000800B40810C0010D826002010B5094C91
:100FC00023694BB90321084800F090F9102303224C
:100FD00020460549FFF7ACFFBDE810400A21034851
:100FE000FFF7E4BDF410002000000B40F8260020BD
:100FF000074A536A994206D8926A824205D2C81AB1
:1010000018BF01207047002070470120704700BFC3
:1010100000000B4000487047F41000200146F0B576
:101020000069EFF3108E72B6D0E8CF5F0124002D77
:10103000FAD1C0E8454F002DF6D1BFF35F8FB1F96B
:1010400002504E6905EB45044FEAC40C002DA8BFC1
:1010500036F80C004FF00007A8BF488006EBC40428
:101060000869C0E88F7F8EF31088BD4231DB059898
:10107000C4E90223206106980B6960616088013031
:10108000C0F30E00012838BF0120608040EA05400F
:10109000EFF3108272B6D3E8CFEF0124BEF1000F58
:1010A000F9D1C3E84E4FBEF1000FF4D1BFF35F8F0B
:1010B0008B8826F80C308D800B69C3E88F7F82F314
:1010C000108801220B789A40CB6803F501535A60CF
:1010D000F0BD4FF0FF30FBE72DE9F0479DF8287099
:1010E0000646DDE9088915461C4647B12A462346CF
:1010F0003046CDE90889BDE8F047FFF78FBF00F023
:1011000031F9854264EB01010029EFDA3846BDE888
:10111000F0870346408970B5B0EB214F4FEA21427A
:1011200001DC002070BD1824586904FB02001A6914
:10113000EFF3108472B6D2E8CF6F0125002EFAD1FA
:10114000C2E8465F002EF6D1BFF35F8F428889B2B6
:1011500092B28A4214D142F4004242800120987136
:1011600000221969C1E88F2F84F310880028D8D095
:1011700001221978DB688A4003F501535A60D1E7F0
:101180000020EDE7407870472DE9FF41851F41F1D0
:10119000FF37A84271EB070338BF0025044638BF6C
:1011A0002F460E4600F0DEF8281A67EB01030128EF
:1011B00073F1000306DA2046314604B0BDE8F04181
:1011C00000F0DEB80023CDE90133154B2A46009329
:1011D00014483B46FFF780FF0130ECD0DFF8488031
:1011E00028463946FFF704FF0028E4D1D8F800303C
:1011F000EFF3108272B6D3E8CFCF0121BCF1000F1C
:10120000F9D1C3E84C1FBCF1000FF4D1BFF35F8FDD
:10121000D8F80030C3E88F0F82F3108820BFDFE7D3
:10122000450C0010F4100020F826002038B50446C4
:101230000D4600F097F84FF0FF326FF00043201892
:1012400045EB0101824273EB010438BF1946BDE84A
:10125000384038BF1046FFF797BF4FF47A71A0FBB4
:101260000101FFF7E3BF00002DE9F04304460D46FE
:1012700085B0EFF30587FFB227B105B0BDE8F043B5
:10128000FFF7B6BE174ED6F80C9096F80080484689
:1012900000F03EF808F1040859F82830221AA3EBB0
:1012A000000365EB01019A4271F1000103DB20BFED
:1012B00020462946E1E70C4B3046009322462B4658
:1012C000CDE90177FFF708FF061E29462046D4DD49
:1012D000FFF78EFE00B920BF31460248FFF719FF25
:1012E000E6E700BFF4100020450C001010B4054BD9
:1012F000054C064AA04214BF1846581C5DF8044B22
:10130000FFF7FFB93B30002000800B40CF490110B0
:101310000346416A0A46986A596A8A42FAD1704776
:10132000416A9942FCD3994202D1816A914200D329
:101330007047416AF7E72DE9F04116461D4604461D
:10134000FFF7E6FF821951EB05034FF0000728BFB6
:10135000012717B14FF0FF3213462046BDE8F04198
:10136000FFF7DEBF0148FFF7D3BF00BF00000B400F
:1013700002460B460148FFF7DEBF00BF00000B40EE
:1013800002460B460148FFF7CBBF00BF00000B40F1
:101390002DE9F041076B0446FB070D46904615D535
:1013A00040F2013200F540531A63436A866A062010
:1013B00006EB831600F0D2F840F64E63B0FBF3F074
:1013C000B602B6FBF0F00021FFF7D2FF234653F838
:1013D0002C2F554005EA080503F580531D6027634F
:1013E000BDE8F08170B5054606200C4600F0B6F861
:1013F000C300B3FBF4F30133DC0916D04FF6FE72E1
:10140000944214D82646C3F34504002228461146C8
:101410006E62AC62FFF7BCFF062000F09FF804EBA1
:1014200086148000B0FBF4F070BD0126EDE70024C7
:101430004FF6FF76E9E7000038B5044606200D4672
:1014400000F08CF860B3174A0123944214BF1A22AB
:101450001B229340144A1549136002F58052136011
:101460008A6833EA0202FBD14FF480710D4B2046AB
:10147000E21A534253410E4A22F813102946FFF74D
:10148000B1FF234653F82C2F82F0700203F58053EE
:1014900002F07E021A6040F2013323630323A36447
:1014A00038BD00BF0080074000200240000002401D
:1014B0002C270020F0B50C24444304F1804404F5AB
:1014C0008034059E94466268071FB242FFB238BF5F
:1014D0006660012F04F5405224D8012922D103254A
:1014E0001560A268D207FCD5226804F5805582EA0F
:1014F0004C1202F0E002012F2A6009D822684A400B
:1015000002F003022A6001228A40A1681142FCD045
:101510004FF4006104F5005211600B4A666042F816
:101520002030F0BD4FF400651560074D55F82020C0
:10153000002AD9D06D69B5FBF2F5013505EB4505FB
:10154000033DFDD2D0E700BF7022002013B54FF459
:1015500080340094FFF7AEFF02B010BD014B53F88A
:10156000200070477022002070B51D4CB4FBF1F4D0
:10157000B2FBF4F2049C240344EA03430468002C05
:101580000EDA046804F03F048C4209D18468C4F385
:101590000B04944204D1C46804F4EE249C421DD090
:1015A000104D0124A84214BF0E250F25AC400E4D4E
:1015B0000E4E2C6005F580552C60B56834EA0505A3
:1015C000FBD101602121826000F54052043211609C
:1015D00001680029FCDAC3600823136070BD00BFF6
:1015E000001BB700008005400020024000000240C0
:1015F000024B1A68024B5A60704700BFB0260020A9
:1016000000800D404FF08043114A10B5114C13601B
:1016100003F5D0339C604FF0E06403F5402329B11B
:101620001C6028B94FF000421A6010BD1460F8E742
:101630004FF47A736FF07F425843074B904294BF48
:1016400018601A60FFF7D4FF4FF08042034BEBE7BE
:1016500000B00D40F3FFFF01B026002000A00D40B8
:1016600010B403464FF0804410460A4A146004F553
:1016700058246BB1084A43F00103E261074A5A401B
:1016800022626162A36200215DF8044BFFF7BABFDA
:10169000E361F8E700B00D40D3C007B02D3FF84F2D
:1016A0000C235843012300F1804000F58410416071
:1016B00003607047002370B5DB8A05460E460022A2
:1016C00042E800F2520254BF1021042144F2522099
:1016D0009847044633462A46A446BDE870400A218E
:1016E0004FF4817060470023DB8A002242E800F259
:1016F000520254BF10210421184708B50B46011EA1
:1017000002DB22B943F020031846FFF7D3FF43F072
:101710003003F9E7034AD2F82838002BFBD0BFF397
:101720005F8F704700000E400021044B044ABFF356
:101730005F8F43F8041B9342F9D170470C080E40A9
:101740002C080E40FFF7F0BF4FF42A62054B064904
:101750001A604FF48D72DA60044A11605A68002AE8
:10176000FCDA70470080044000B0FA0000A004409A
:101770007047000008B50148FEF786FFF1490110E7
:1017800038B5044C044DAC4200D338BD54F8043B8A
:101790009847F8E7683D0110A83D0110054B064A3F
:1017A00006491A60064B074A13608A6833EA020248
:1017B000FBD17047002002407F3BEFEF000002406A
:1017C000F6FFF30300300240044BDB6CB3F5004F2F
:1017D00002BF4FF48022024BDA64704700001150C0
:1017E000002011504FF0E022044BD2F8881D0B432B
:1017F000C2F8883D10EE3004704700BF030330008C
:101800006FF06042044B1A60044A9368DB4333F084
:101810006043FAD1704700BF003002400000024030
:1018200010B545F25320FFF75EFFBDE810400346B8
:101830000420184710B545F25320FFF754FFBDE8C8
:101840001040034601201847FEF7C4BF10B50B49EE
:101850000B4C0C48641AA410442C224628BF442286
:10186000920010F0B5F9074B074A432C02D9074AFA
:10187000936010BD43F824200134F6E70000001007
:1018800010010010000000201101001000ED00E028
:10189000002373B5294DC5F88430FFF755FF0122A9
:1018A000274BDA636A6C012AFCD103221A63AC6B02
:1018B000012CFCD10226052521460523214A224878
:1018C0000096FFF751FE2B462146204A20480095FE
:1018D000FFF74AFE0022314604201E4BFFF736FE7A
:1018E0002146284600221C4BFFF730FE002208202C
:1018F00011461A4BFFF72AFE002209201146174B0A
:10190000FFF724FE002206201146134BFFF71EFEB0
:10191000002207201146104BFFF718FE0420FFF7A6
:101920001DFE0F4D0024B0FBF5F5E0B22946013451
:10193000FFF7B6FE062CF8D102B070BD00000140E2
:1019400000300140002F685900000540008C864798
:1019500000800540001BB70080D1F008006CDC025D
:1019600040420F00C1F30A53A3F2FF335A1C30B5B3
:1019700005460C4603DA002001F0004130BD07D1D6
:1019800001F0004444F07F51002041F44011F5E79C
:10199000342BF3DA0122C3F13300C3F11301133BFB
:1019A00022FA03F302FA01F1194302FA00F30222C8
:1019B0005B1944EB0104C0F12005A0F1200122FADB
:1019C00005F502FA01F182402943524261EB4105DB
:1019D00002EA030005EA0401D0E70000C1F30A525D
:1019E000F0B506460D461AB9104601F00041F0BDAB
:1019F000A2F2FF32002A05DA00294FF0000024DAB3
:101A00001349F4E7C2F13402002AF0DD0123A2F108
:101A10002000C2F1200123FA01F103FA00F0934003
:101A200008435A1E4FEAD571A2FB012440F1FF374B
:101A300001FB0744921944EB05045B4260EB40054F
:101A400004EA050102EA0300D1E70021CFE700BF65
:101A50000000F0BF86B003B451FC0804CDE90201D8
:101A600051FC0904CDE9040151EC0A04CDE9060159
:101A700003BCF047BDE800504EEC00C4BDE8005088
:101A80004EEC01C4BDE800504EEC02C400BD0000A5
:101A900000B5FFF7DFFF02E010FE30F4F8D441ECB0
:101AA000100443EC112400EE010410EE010480EE5A
:101AB000200451EC1004704700B5FFF7CBFF02E0A3
:101AC00010FE30F4F8D441EC100443EC112400EE85
:101AD000010410EE210480EE200451EC3004704724
:101AE00000B5FFF7B7FF02E010FE30F4F8D410B5F0
:101AF00041EC100443EC112451EC040453EC052494
:101B0000A0FB024C5FF0000EE0FB03CEE1FB02CE37
:101B10004CEC20440024E1FB03E444EC30E480EE90
:101B2000200451EC5004BDE81040704700B5FFF7A9
:101B300091FF02E010FE30F4F8D441EC100443ECC5
:101B4000112451EC2104A0FB01126FEA820252FB26
:101B5000100052FB12F252FB1000A0EBD07C53ECB1
:101B600004245CFB13F153EC1524A1FB022001FBC0
:101B7000030053EC4424A2EB000050FB1CF24FEA9C
:101B8000111312EB017043EBE27140EA515020EA6D
:101B9000915020F0070053EC7524A0FB023C53EC5D
:101BA000752400FB03CC01FB02CC53EC0424ACEB0A
:101BB000824C40EA5C70A0F1010041EC400480EEF0
:101BC000200451EC7004704700B5FFF743FF02E0BA
:101BD00010FE30F4F8D441EC100480EE220410EE34
:101BE000B204704700B5FFF735FF02E010FE30F495
:101BF000F8D440EC700400EE010410EE210480EEF5
:101C0000200451EC3004704700B5FFF723FF02E0D9
:101C100010FE30F4F8D440EC600400EE010410EE45
:101C2000210480EE200451EC3004704700B5FFF72A
:101C300011FF02E010FE30F4F8D441EC800400EE15
:101C4000010410EE010480EE400410EE130470470E
:101C500000B5FFF7FFFE02E010FE30F4F8D441ECCF
:101C6000800400EE010410EE010480EE400410EE4A
:101C70003304704700B5FFF7EDFE02E010FE30F4CC
:101C8000F8D441EC100443EC112400EE010410EEF2
:101C90003004C0F30070704700B5FFF7DBFE02E0D0
:101CA00010FE30F4F8D441EC100443EC112400EEA3
:101CB000010410EE3004C0F38070704700B5FFF7E8
:101CC000C9FE02E010FE30F4F8D443EC102441ECDD
:101CD000110400EE010410EE30F48CBF012000204E
:101CE000704700BF00B5FFF7B5FE02E010FE30F40C
:101CF000F8D443EC102441EC110400EE010410EE82
:101D000030F42CBF01200020704700BF00B5FFF762
:101D1000A1FE02E010FE30F4F8D441EC100443ECD4
:101D2000112400EE010410EE30F42CBF012000203D
:101D3000704700BF00B5FFF78DFE02E010FE30F4E3
:101D4000F8D441EC100443EC112400EE010410EE31
:101D500030F48CBF01200020704700BF0022002912
:101D600050DA404261EB4101C9B1B1FA81F30B3B5A
:101D700017D4D3F1200C30FA0CFC9840994051EA6A
:101D80000C011A44524202F2324201EB025141F07C
:101D9000004140F2FE739A4238BF704721E011467D
:101DA0007EE003F1210310FA03FCA3F1010301FA21
:101DB00003FCC3F1200320FA03F021FA03F140EA07
:101DC0000C00A3EB020202F2324214D050F10000E8
:101DD00041EB025141F0004140F2FE739A4238BF9C
:101DE00070474FF00001A8BFC7F6F0714FF0000038
:101DF000704700217047EBD350F1000020F0010044
:101E0000E6E70022B9B1B1FA81F30B3B16D4D3F166
:101E1000200C30FA0CFC9840994051EA0C011A440D
:101E2000524202F2324201EB025140F2FE739A42F8
:101E300038BF704720E0114600F066B803F1210377
:101E400010FA03FCA3F1010301FA03FCC3F1200320
:101E500020FA03F021FA03F140EA0C00A3EB02029E
:101E600002F2324212D050F1000041EB025140F236
:101E7000FE739A4238BF70474FF00001A8BFC7F603
:101E8000F0714FF00000704700217047EDD350F122
:101E9000000020F00100E8E7002880F23580404291
:101EA000B0FA80F30B3B11D4984001EB030252428D
:101EB00002F2124200EB025141F000414FF00000EB
:101EC00040F2FE739A4238BF704713E0C3F100033B
:101ED00030FA03FCC3F120029040A3EB010202F2AE
:101EE00012420CEB025141F0004140F2FE739A4263
:101EF00038BF70474FF00041A8BFCFF6F0714FF0E8
:101F0000000070470021704760B3B0FA80F30B3BCC
:101F10000FD4984001EB0302524202F2124200EB4E
:101F200002514FF0000040F2FE739A4238BF7047F2
:101F300010E05B4230FA03FCC3F120029040A3EBB7
:101F4000010202F212420CEB025140F2FE739A427D
:101F500038BF70474FF00001A8BFC7F6F0714FF0CF
:101F600000007047002170470022A2F232425FEA6F
:101F7000215CACF10103A1EB03515B0513F5800F6C
:101F800032D212EB535210D40B2A36DA9140D2F1EE
:101F9000200330FA03F319439040BCF1000FA8BFAF
:101FA0007047404261EB4101704720320EDD01FA7B
:101FB00002F3D2F12002D140D0401843BCF1000F0F
:101FC000A8BF7047404261EB41017047524282F323
:101FD000050231FA02F00021BCF1000FA8BF7047E2
:101FE000404261EB4101704702D000200021704760
:101FF00050EA013118BF4FF0000C6FF0004101EBC7
:10200000DC716FEAEC707047B0F1FF4F3ED2C11542
:102010003ED04FF0010262F3DF5038BF400026A3EC
:1020200093EC034AAFF21C0303EB104323F00703C6
:10203000D3E9002300FB02F040EC103AFAEEC00AAC
:1020400020EEA01A61F17E0160EE811AC90521EE31
:10205000012A40F6FC3221EE041AC5F6B90261EEFF
:10206000A41A51FB12F122EE052A03EE901A71EE2A
:10207000C21AFAEEC53A31EE611A70EEC10A30EEBC
:10208000200A30EE230A10EE100A704705DC0BD050
:1020900010F1FF4F09D310F5000F40F4800003D872
:1020A00040F20000CFF6C070704740F20000CFF65B
:1020B00080707047AFF300800000003FABAAAA3EDB
:1020C0000000803E000000005501000001CB92BEE0
:1020D00048010000C3C87DBE3B010000685F54BEDC
:1020E0002F010000C7992CBE250100002C3C0ABE20
:1020F0001A0100002F1AC6BD11010000C2AC83BD39
:1021000008010000D814FCBC000100000000000021
:10211000F8000000EC0A023DF10000008E51773D0E
:10212000EA0000009806B83DE40000003B39ED3DB0
:10213000DD000000088B163ED800000003FA2D3E9B
:10214000D2000000D7D24A3ECD000000DE7F633EC1
:10215000C8000000E3C87C3EC3000000E65A8B3E86
:10216000BF00000084F7953EBA0000006E8CA33ECD
:10217000B6000000EFADAE3EB2000000C40EBA3EA5
:10218000AE000000CDB1C53EAB0000005F99CE3E71
:102190009A4238BF8854704770472DE9F84F9846E7
:1021A000DDE90B490D9B15469A0706460F4623D0DD
:1021B0002A460A9B03EB040A1444A24220D10D9B39
:1021C0009B0705D5A2EB050AD14505EB0A0420D8EB
:1021D0002046BDE8F88F434639462020B0470AF133
:1021E000010ACA450AEB0B02F5D3A9EB04024C45E0
:1021F00088BF00222A44DCE7A246A5EB040BF0E7E7
:1022000002F1010B434639461AF8010DB0475A4610
:10221000D3E74346224639462020B0470AF1010A57
:10222000D2E72DE9F047DDE90D7616F0020F9DF8B3
:102230002880DDE90854DDE90BCE1FD106F0010945
:102240004FB1B9F1000F06D0B8F1000F02D116F06E
:102250000C0F00D0013F4FF0300A02E005F804A057
:102260000134A64501D9202CF8D1B9F1000F05D0D1
:102270004FF03009BC4201D2202C2DD116F0100FA6
:102280001FD016F4806F2CD15CB3744501D0BC42D2
:1022900027D1B4F1010E23D0BCF1100F46D1023C7E
:1022A00016F0200F28D1202C28D04FF0780C05F8FC
:1022B00004C00134202C21D04FF0300C05F804C0AC
:1022C0000134202C1AD0B8F1000F23D04FF02D0C80
:1022D00005F804C0013412E005F804900134C9E7A0
:1022E0007446BCF1100FDBD0BCF1020FE2D1202C00
:1022F00004D04FF0620CDAE7202C08D12024CDE97D
:102300000A76CDE90854BDE8F047FFF746BF4FF025
:10231000580CCCE716F0040F02D04FF02B0CD7E787
:1023200016F0080FEBD04FF0200CD1E7BCF1020FF4
:102330007446C1D1DDE72DE9F04391B0189D1A9E96
:102340001D9F0DB927F010077C0500D515B317F0B8
:10235000200F14BF4FF0410E4FF0610EAC46002528
:102360000DF12008AEF10A0EBCFBF6F906FB19C907
:102370005FFA89F4B9F1090F94BF30347444E4B2C0
:10238000B44508F8014B05F10105BCFBF6F401D397
:10239000202D10D11C9C069705941B9CCDE903644D
:1023A0009DF86440CDE9015408AC0094FFF739FF73
:1023B00011B0BDE8F083A446D6E72DE9F04F95B003
:1023C000269ECDE90A23DDE91E74DDE9229B57EA4A
:1023D000040308BF26F010067205CDE9080102D5F6
:1023E00057EA040337D016F0200F14BF41236123AE
:1023F00000250DF1300AA3F10A0821464A465B4642
:10240000384611F095FCD2B2092A94BF30324244CA
:102410004F45D2B274EB0B0405F101050AF8012B0C
:1024200001D3202D14D1259B06960593249BDDE92D
:102430000801CDE903939DF88030CDE901530CAB41
:102440000093DDE90A23FFF7ECFE15B0BDE8F08F3D
:1024500007460C46D1E70025E5E700000000000034
:102460002DE9F04F93B09DED1C7BCDE90C32DDE9F9
:102470001E630E9353EC172BCDE908011046194645
:102480008DED067B209DFFF7F9FB80B9DDE90601A4
:102490004FF0FF320E4BFFF751FC40B9DDE906016A
:1024A0004FF0FF326FF48013FFF70CFC90B1DDE9C1
:1024B00008019DED067B0E9B8DED1C7BCDE91E6317
:1024C000DDE90C32209513B0BDE8F04F00F090B973
:1024D000FFFFEF7F0022DDE906010023FFF7F2FB9B
:1024E000002800F04581DDE906A303F1004B15F457
:1024F000806308BF06260F935AEA0B03D046D946DD
:1025000000F03981CBF30A50A0F2FF30FFF76EFBE9
:10251000B3A3D3E90023FFF7E7FAB3A3D3E900237A
:10252000FFF7BAFACBF31303CDE90A0143F07F5169
:102530000022A54B504641F44011FFF7C1FA96A383
:10254000D3E90023FFF7D0FA02460B46DDE90A0182
:10255000FFF7A2FAFFF76EFB0446FFF747FB90A3D5
:10256000D3E9002380468946FFF7BEFA0022974B45
:10257000FFF792FAFFF75EFB8BA3D3E90023074630
:1025800049464046FFF7B0FA804638468946FFF78D
:102590002DFB87A3D3E90023FFF7A6FA02460B46DB
:1025A00040464946FFF78CFA02460B46CDE90A231E
:1025B000FFF79AFADDE90A23804689461046194654
:1025C000FFF76AFA0022CDE91001814B40464946E7
:1025D000FFF7B0FA00227F4BFFF75EFA02460B4688
:1025E00040464946FFF7A6FA00227B4BFFF754FA14
:1025F00002460B4640464946FFF79CFADDE90A23AE
:102600008046894600204FF08041FFF759FA024684
:102610000B4640464946FFF73FFA02460B46DDE9C6
:102620001001FFF787FA07F2FF3700226B4BFFF725
:1026300033FA00223B05FFF757FA52465B468046C5
:102640008946FFF77BFB40B1404649460022614B7B
:10265000FFF770FA80468946013C04F16303C62BFC
:102660008CBF05270427290521D558EA090311D075
:1026700051A3D3E9002350465946FFF74BFB0028EE
:102680007CD04FA3D3E9002350465946FFF71AFBED
:10269000002873D0A642D8BF00244FF00007C4BF63
:1026A000341B04F1FF3426463C4645F480650E9BFE
:1026B0009F422CBF0023DB1B0A9315F002030F93EC
:1026C00004D0002F0A9B18BF00230A933CB1504648
:1026D000594642464B46FFF72DFA82468B46DDE9C6
:1026E000060100220023FFF7EDFA10B10BF10043C1
:1026F0009B46DDE9080125F4006304930A9BCDE9BC
:1027000000ABCDE90263DDE90C3200F071F802465E
:1027100057B315F0200F0C9B00F1010509990CBF70
:1027200065204520089EB047DDE908010523002209
:1027300005930A23002CCDE9023207F1FF374FEA57
:10274000D473B8BF64422A46019304970C9B00944B
:10275000FFF7F1FD0F9B024633B10D9BC41A0D9B91
:102760001A190E9BA34210D8104613B0BDE8F08F83
:10277000DDE906ABBBE60024042774E7002E96D003
:102780000F9B002B93D0013E91E720200C9B0999D1
:10279000089DA8470134E2E761436F63A787D23FF2
:1027A00071A379094F930A401655B5BBB16B02402E
:1027B000EF39FAFE422EE63F2D431CEBE2361A3F7C
:1027C0000000000080842E410000F83F0000E03F40
:1027D00000002C4000002440000018400000F03FA2
:1027E000FB799F501344D33FB3C8608B288AC63F00
:1027F0002DE9F04F97B0DDE920ABCDE90501DDE92A
:102800002247CDE90723504652465B465946249E4F
:10281000FFF734FA70B10323CDE922762193AE4B52
:102820002093DDE90501DDE9072317B0BDE8F04F8E
:10283000FFF7B3BC4FF0FF326FF480135046594698
:10284000FFF740FA28B10423CDE922762193A34B68
:10285000E6E74FF0FF3250465946A14BFFF76EFABC
:1028600050B170074CBF04220322CDE922764CBF41
:102870009C4B9D4B2192D3E7504693A3D3E9002371
:102880005946FFF75BFA38B991A3D3E900235046C4
:102890005946FFF717FA68B1DDE90723DDE90501BD
:1028A000CDE92376CDE920AB229417B0BDE8F04FF7
:1028B000FFF7D6BD0022002350465946FFF702FA23
:1028C000B8B15B46524600200021FFF7F9F801231A
:1028D00082468B46099316F4806F08BF0624302188
:1028E00023460EAAA4F12009092B04D89946E41A1C
:1028F00007E00990EFE7013B4B4502F8011BF3D1DC
:10290000202459465046FFF795F9784B054603EBCE
:10291000C90393ED007B8DED0A7BFFF767F9024653
:102920000B4650465946FFF7CBF8DDE90A23FFF77F
:10293000DBF802460B46CDE90C23FFF78DF9804604
:10294000FFF766F902460B46DDE90C01FFF7B8F820
:1029500002460B46CDE90C230022654BFFF7EEF94A
:10296000C8B108F101084046FFF752F902460B468C
:10297000DDE90A01FFF7BAF910B14FF0000801359F
:10298000B9F1000F18D00A210EAB2344202C4BD1F3
:102990003022A1445CE00022DDE90C01544BFFF73A
:1029A00091F90028ECD1B8F1000F02D018F0010F16
:1029B000E6D008F10108E3E72846FFF717F90246D9
:1029C0000B4650465946FFF77BF80022484B80469D
:1029D0008946FFF777F948B9002240464946444BFB
:1029E000FFF7ACF910B9013525F001050A210EAB4E
:1029F0001A19202C0AD095FBF1F001FB1055303547
:102A000002F8015B013405460028F2D106F003020A
:102A1000012A3FD1002F3DD0099A12B916F00C0FB0
:102A200000D0013F302224E0B8FBF1F001FB10821E
:102A3000B8F1090F02F1300209F1FF3904F1010484
:102A400003F8012BA4D98046A0E70EA90A551C461D
:102A5000202CCBD04C4504F10103F6D104F15802EF
:102A60000DEB02042E2204F8202C1C46BEE71A555A
:102A70000134A7420ED9202CF9D1CDE90034DDE98B
:102A80000501DDE90723CDE90276FFF786FB17B0E4
:102A9000BDE8F08F202CF0D0099A3AB12D2104F135
:102AA00058026A4402F8201C0134E6E7710704D595
:102AB00004F158022B216A44F4E73207DDD504F112
:102AC000580220216A44EDE70000000065CDCD41A9
:102AD0000000000065CDCDC1404A0110444A0110FC
:102AE000FFFFEF7F374A01103C4A0110C07401100C
:102AF0000000E03F08B100F041BC70472DE9F04F05
:102B000090469B46AF4AB04B91B01A600B1E0A9399
:102B1000AE4B14BF8146994600251A9E9BF80000D3
:102B200070B9454538BF2A4643464FF000000A9920
:102B300028BF08F1FF32C847284611B0BDE8F08F22
:102B400025280BF1010B06D02A4643460A996C1C36
:102B5000C8472546E2E700230CE02D2A1FD0302A83
:102B600005D0A2F1300009280ED8002729E043F053
:102B700001038B46594611F8012B2B2A12D0ECD8B1
:102B8000202A12D0232A13D02A2A33D156F8047BC4
:102B90008B46002FBCBF43F002037F4218E043F096
:102BA0000203E6E743F00403E3E743F00803E0E74A
:102BB00043F01003DDE70A208B4600FB0722A2F159
:102BC0003007594611F8012BA2F130000928F2D93B
:102BD0009BF800202E2A44D19BF801100BF1010232
:102BE000A1F13000092843F4806331D800244FF06C
:102BF0000A0C06E00027EBE702460CFB0411A1F1EA
:102C00003004104610F8011BA1F1300EBEF1090F7F
:102C1000F2D9114611F8010B6C282CD024D8682861
:102C200030D06A2837D011468B461BF8010B672835
:102C30005CD8572832D8452807D085D9462800F0D7
:102C4000E980472880D143F4006343F02003F7E094
:102C50002A2907D156F8044B0BF1020224EAE47446
:102C6000D7E75A460024D4E7742801D07A28DAD16D
:102C700043F48073D8E750786C28F9D143F440735B
:102C8000911CD1E75078682802D043F08003CBE74D
:102C900043F0C003F4E743F40073C5E7A0F1580222
:102CA0000F2A3FF651AF01A151F822F0432D001039
:102CB000492B0010492B0010492B0010492B001004
:102CC000492B0010492B0010492B0010492B0010F4
:102CD000492B0010432D0010692E0010432D0010C9
:102CE0003D2E0010192E00103D2E0010A0F169019C
:102CF000C9B20F293FF628AF012249F2410C8A40A0
:102D000012EA0C0218D10A2900F0EA8007297FF4A0
:102D10001BAF43F0210305930823CDE903431023A0
:102D2000CDE9012356F8043B2A4600934846434622
:102D30000A99FFF700FB7FE06F2840F035810822F9
:102D40000BE0582810D0622800F02C8123F01003EB
:102D500064284FF00A0200F02F8123F00C032BE1CE
:102D60007828F3D11022F8E743F02003FAE7D905D9
:102D700006F1040A01D5316802E058060CD5317815
:102D8000CDE90224CDE9047300294FEAD173019300
:102D9000B8BF4942009126E01906ECD5B6F90010FB
:102DA000EEE7A9B1CDE907730023CDE9042306F1CD
:102DB000070A2AF0070A06940293FAE80223CDE9EB
:102DC00000231EE1FD2A0010AC26002099210010EE
:102DD000D80506F1040A0DD5CDE90473CDE9022426
:102DE00001913368009343462A4648460A99FFF703
:102DF000A2FA0CE1590607D53178CDE90473002316
:102E0000CDE902240193C5E7316813F0800F18BFA4
:102E100089B2F2E743F02003CDE90373073626F0C9
:102E200007060294F6E802234846CDE900230A99F2
:102E300043462A46FFF7DCFC05466FE6672810D0BC
:102E4000CDE90373073626F007060294F6E802235D
:102E50004846CDE900230A9943462A46FFF700FB7E
:102E6000EAE743F40063EBE713F0020423D04FF0EA
:102E7000010A6B1C0B932A4643460A9916F8040B69
:102E8000C8475CB354460B9A1EE0434620200A997B
:102E9000C84705EB0A020AF1010A5745F5D8002F89
:102EA00007F1FF3308BF002307F1010A1D4408BFE3
:102EB0004FF0020ADDE7A246EBE7551C434620200F
:102EC0000A99C8472A460134A742F6D8A7EB0A0355
:102ED000574538BF00230B9A1A440B920B9D1DE6F1
:102EE0003246002C52F8046B14BF21464FF0FF31DC
:102EF0000B9232463144107808B1914211D1A2EBC5
:102F0000060A13F480620D9202D0A24528BFA246A1
:102F100013F002030E931BD1AAEB05032A460C9370
:102F200008E00132E7E7531C0F93202043460A993B
:102F3000C8470F9A0C9BD318BB42F4D3A7EB0A03E4
:102F4000574538BF00230AF1010202EB030A1D4472
:102F5000AB1B0C9304E01C4643462A460A99C8471B
:102F60000C9B9D1916F8010B28B10D9B002BF3D07B
:102F7000631E002CEFD10E9B93B12A46AAEB0504E9
:102F800005E0561C434620200A99C84732461319CB
:102F90009F42F6D8A7EB0A03574538BF00231D44CC
:102FA0000B9EBBE50222D8E63FF6DAAE692823F095
:102FB00010037FF4CDAE0A22590548BF23F0010368
:102FC000692803F4007102D064287FF4EAAE002976
:102FD0003FF4CDAE073626F00706B24670685AF8C1
:102FE000081BCDE9077300230593C30F0028029344
:102FF00006940B46049202DA4B4260EB4000CDE9A6
:10300000003043462A4648460A99FFF7D6F9054656
:10301000564683E507B5009313460A460146034822
:10302000FFF76CFD03B05DF804FB00BF91210010B9
:103030001FB5084A0346146844B100914FF0FF32AF
:10304000054803A9A047012004B010BD00F0A4F971
:103050002046F9E7AC260020F52A00100FB407B58A
:1030600004A951F8040B0191FFF7E2FF03B05DF8EA
:1030700004EB04B0704700BEFDE70000064A0346BB
:10308000106808B905481060054903448B4294BF95
:1030900013604FF0FF307047A82200205C30002002
:1030A00000000820002070474FF0FF3070470000FC
:1030B00003460846114623B9034BD3E9002300F029
:1030C000FFB84FF0FF307047607401100346013BBA
:1030D000012B10B50846144606D8012300222146CC
:1030E00000F0AAF8204610BD4FF0FF34FAE74FF089
:1030F000FF3070474FF0FF3070474FF0FF307047A0
:1031000002288CBF00200120704708B5FFF7B3FFED
:103110000C4607B5194652B1064BCDE900320246BE
:1031200023460548FFF79AFF0120FFF7A4FF034B52
:103130001A46F2E7494A0110564A01104469011043
:1031400038B5FEF71DFB044C044DAC4200D338BD2E
:1031500054F8043B9847F8E7A83D0110B43D01102E
:10316000034608461B68114618470000437D2DE9B9
:10317000F04104460D461646A3B101F1FF38002187
:1031800008468E4214DC86422EDD311A236828441C
:103190009847354415F8013CA3F10D0253425341C1
:1031A000237523E0036811462846BDE8F04118471F
:1031B000C1B198F80030A3F10D077B427B4118F8AC
:1031C000012F4F1C0A2A0BD153B9814203DD091A82
:1031D00023682844984706480221236898473846C0
:1031E0003946CEE7237DEAE7002ED2DCBDE8F08148
:1031F0001075011010B5FEF7B5F80A4A82184FF0A5
:10320000FF3041F100036FF00041904271EB030485
:1032100038BF0246BDE8104038BF0B46024810F0E8
:1032200097BD00BF40420F001C180020014810F05D
:1032300083BD00BF1C1800202DE9F74F0C461D462A
:1032400007469146FFF7D6FF631C804603D13846F8
:103250000EF034FD04464FF00A0B154B154EDFF807
:103260005CA0002D18BF1E46134B1D6845B9B8F170
:10327000000F01D0FFF7DAFF204603B0BDE8F08F62
:103280002B6893B1DAF800300BB1AB420DD1224676
:1032900039462846B047B9F1000F06D0012228462A
:1032A0000DF107018DF807B0B0472D69DEE700BFCB
:1032B0006D3100106131001098220020A4220020FE
:1032C0002DE9F04705460E4617461C46DFF85C80A0
:1032D000DFF85C90D8F800A0BAF1000F0DD1124AC7
:1032E000536A9C4204D8926ABA4219D29C4217D1BE
:1032F00001200021FEF73CF8ECE7D9F8003023B1BB
:10330000534502D0DAF810A0E6E7DAF80830002BCF
:10331000F8D03146284698470028F3DDBDE8F0870D
:103320006FF00100FAE700BF00000B409822002078
:10333000A4220020094B1A6812B901B11860704725
:103340001A68824205D10029F9D102691A60016127
:10335000704702F110031269EEE700BF98220020C7
:10336000044B10B51C6804B910BD636803B19847DD
:103370002469F8E79822002000F060B9012313B512
:1033800004468DF80700002219460DF10700FFF7EB
:1033900053FF204602B010BD38B505460EF08EFC36
:1033A0000123044601461A462846FFF745FFFFF76A
:1033B000D7FF204638BD70470022014B1A70704776
:1033C0003E3000204B79FF2B0BD1887948B9CB795F
:1033D000012B07D1082A05D98A78034B09201A70D6
:1033E00070470020704700BF3E300020012070472A
:1033F000012908B51BD1104B91881B78994218D12F
:103400005378012B0CD15188CB0548BF480AC1F332
:10341000402258BF4FF0FF3001F07F01FEF76DF9F9
:10342000022B06D1002164220846FEF719F901207B
:1034300008BD0020FCE700BF3E3000200048704778
:10344000DA7501100B46012B114609D15378012B77
:1034500008D19388072B05D1A623034A01F022B98E
:10346000012070470020704734750110012303705C
:10347000004870471475011008B50B68B3F5966FD6
:1034800005D100224FF0FF301146FEF736F908BD96
:10349000024B1860024B1960704700BF6422002085
:1034A00068220020164B70B51A681AB3EFF310812A
:1034B00072B6D2E8CF4F0120002CFAD1C2E8440FF7
:1034C000002CF6D1BFF35F8F00220E4859600270C6
:1034D0001B68C3E88F2F81F3108800240A4E002553
:1034E0003078FDF7BBF940B13078FDF7C7F92046D9
:1034F000294670BD4FF47A74F0E700240025F6E702
:10350000D0260020403000203F300020014B1878AA
:10351000FDF7B4B93F30002010B5FDF723FF114A85
:1035200082184FF0FF3041F100036FF000419042EC
:1035300071EB03043CBF02460B460B4810F008FC3D
:1035400070B14FF0FF30002100F02EFD002001F09F
:10355000B1F90028F5D1BDE81040034810F0ECBBEC
:1035600010BD00BF40420F00FC26002030B50021F6
:1035700085B02C4810F0F0FBB8B100214FF0FF30BF
:1035800000F012FD002001F075F90446254810F006
:10359000D3FB002C43D0244B1B68002B3FD0234A85
:1035A000106805B0BDE830401847214A1368002B69
:1035B00035D0EFF3108172B6D3E8CF5F0124002D30
:1035C000FAD1C3E8454F002DF6D1BFF35F8F012537
:1035D000184C516023781268DBB22570C2E88F0F57
:1035E00081F31088DBB9FDF715FD0446FDF7BAFE3F
:1035F00010F57A724FF0FF3041F100036FF0004197
:10360000904271EB03053CBF02460B4601200021AE
:10361000CDE90110084920460091FDF75DFD05B098
:1036200030BD00BFFC26002064220020682200205C
:10363000D026002040300020A53400104FF0504329
:1036400030B585B01C68FDF7E5FCFDF79BFDA04299
:1036500002D0002005B030BD0021274B08461B7862
:1036600001F032FC254803680BB9FDF7A5FA0120EB
:10367000FDF788FA224C23492070C0B2FDF71EF9ED
:1036800020780121FDF7D4F80E20FDF70BF988B161
:103690000120FDF787F801461B48FDF7CBFA002211
:1036A0000E201A49FDF730F919480121FFF742FEB3
:1036B0000120CFE7144BC3E90000FDF7ABFC044643
:1036C000FDF750FE10F57A724FF0FF3041F1000324
:1036D0006FF00041904271EB03053CBF02460B4680
:1036E00001200021CDE901100A4920460091FDF793
:1036F000F3FC0028ADDBD7E790800110FC2600200A
:103700003F3000206D350010D02600200D35001010
:103710000C110020A5340010002001F095B8000025
:1037200070B504460D46FFF7F7FF18B96FF00204B5
:10373000204670BD002001F09DF80028F6D0FDF76E
:1037400011FE164A82184FF0FF3041F100036FF06E
:103750000041904271EB03063CBF02460B46104805
:1037600010F0F6FA0028E1D0FFF7D6FF80B1002074
:1037700001F080F860B121462A46002001F084F86B
:10378000044608B96FF00204054810F0D5FACFE7F7
:1037900000214FF0FF3000F007FCF3E740420F003C
:1037A000FC2600202DE9F84380460F46FDF7DAFDA0
:1037B000304A82184FF0FF3041F100036FF00041B2
:1037C000904271EB03043CBF02460B462A4810F0BE
:1037D000BFFA00284CD0FFF79FFF002843D10020FC
:1037E0000021264BC3E9000138E0002001F0BEF8BB
:1037F0007C1B8442A8BF0446B4B1224608EB0501F5
:10380000002001F097F8002104464FF0FF3000F04F
:10381000CBFB002001F04EF8FDF7A4FDC9E9000143
:103820002544AF42E1DC19E021464FF0FF3000F0C3
:10383000BBFB204601F03EF8FFF76EFF70B120465B
:1038400001F094F80028ECD1FDF78CFDD9E90032A5
:103850009B1942F1000283428A41E2D20648BDE848
:10386000F84310F069BA0025DFF81090044ED8E74D
:10387000BDE8F88340420F00FC260020A819002074
:1038800020A1070000487047747601100048704777
:103890002076011010B504461348037813B911219E
:1038A00000F042F864B940F20942104B5A800123FB
:1038B0000133DBB20D485B0043F44073038010BD5D
:1038C000052C0ED80A4B094953F824000023C25C8A
:1038D0000AB9DBB2ECE70133132B21F8022FF6D142
:1038E000E6E70020EBE700BF493000200427002076
:1038F0000876011000B545F247308BB0FDF7F3FEB6
:1039000001220346092101A898470823054A05A971
:1039100011F8010D013B02F8010BF9D10BB05DF874
:1039200004FB00BF41300020002230B50C4D0139AE
:10393000914201D9102A02D10023835430BDD443CF
:103940005308EB5C04F00104A400234103F00F04CE
:103950002346092CD4BF3033373383540132E7E791
:103960004130002000F07F03F0B51A4C5E0006EBFA
:10397000D01504EB4515C709A87087F001006870E1
:10398000002029839901E870EA761348DA00651867
:1039900077B10244AA6200203E4404EB4616B268A6
:1039A00010604BB904EB471463600C4BE360F0BD4F
:1039B00004320244AA60EEE7013B094ADB001FB172
:1039C000214413444B62F2E704330C441344636014
:1039D000EDE700BFAC220020800010500001105025
:1039E00008001050038BC27E08493F33022A23F09F
:1039F0003F030A6808BF5B001344C260044A0B60BF
:103A0000934201D9FDF7B6BE704700BFB42600202F
:103A1000FF0F105010B500F0C3F80C23124CFF221A
:103A2000A3670E201149FCF76FFF402200211048C8
:103A30000DF026FE002240211046FFF793FF0022E2
:103A400040218020FFF78EFF10F07AF901204FF01F
:103A500000534FF480322064E364064BC4F8903086
:103A6000054BDA6410BD00BF000011501D0300209B
:103A7000AC22002010D001000020115001210E20A6
:103A8000FCF7D6BE00220248114600F0A9B800BFDC
:103A9000CC220020044B197021B14FF40032034BAB
:103AA000C3F89020704700BF032F00200020115062
:103AB0000B785B0606D14B78052B01BF4B88024A79
:103AC000DBB21360704700BF00001150CA7838B5F0
:103AD00002F00302012A20D08D78898805F07F0446
:103AE0002846C1F30A01FFF73DFFA4B1640004EBCF
:103AF000D5100B4C04EB40142046FFF773FFE3682E
:103B0000E27E83F0A04383F4801343EA8263626819
:103B100043F000431360012038BD0020FCE700BFE4
:103B2000AC22002010F00CB9084608B5114600F090
:103B30007F02C00900EB42001A46034B03EB401022
:103B400000F04EF8012008BDAC22002011F07F03E8
:103B500005D100290CBF02200120064A9066C90940
:103B600001EB4300044B4FF40062002103EB4010D3
:103B700010F0EAB800201150AC22002011F07F03B1
:103B80000BD0002205485B0003EBD11100EB411084
:103B90006FF40061C27010F0D7B87047AC220020FB
:103BA00008B54FF080530A4A136002F58052136043
:103BB000084B9968C94311F08051FAD14FF48052F3
:103BC00005480DF05DFD0922044B5A6708BD00BF92
:103BD0000020024000000240000010500000115080
:103BE000002310B5C38201238282837601610446DB
:103BF00010F08AF820B14FF40032074BC3F8902040
:103C0000204610F08DF810B10123237710BD204617
:103C1000BDE8104010F080B8002011502DE9F041AF
:103C200005460024184E194FDFF870803278E3B251
:103C3000511C994210DA5422002115480DF020FD44
:103C40001022FF2113480DF01BFDBDE8F04120229A
:103C5000FF2111480DF014BD9A420DD9D8F800206B
:103C600012EB43130BD14FF0E023D3F8F03DDB0709
:103C700000D500BEBDE8F0819B1A07EB4313284630
:103C8000DB6898470134D1E7012F002088760110C6
:103C9000262F00202A2F00203A2F0020E81D002088
:103CA00070B50C4605461646486900F02DFD3246B3
:103CB000284663690121BDE8704018477047704786
:103CC000002070470020704770477047704770476A
:103CD000024B5878003818BF01207047262F00206B
:103CE000024B1878C0F38000704700BF262F0020D9
:103CF0002DE9F0472C4F04463B780D46FF2B3FD172
:103D000049B94FF0E023D3F8F03DDB0700D500BE02
:103D10000020BDE8F0870021542224480DF0B0FCBB
:103D20000022234E234B30461A70FCF745FF224BEE
:103D300022481E60224EFCF76FFF304601F03FFC28
:103D4000204B1E60204B23B12048FFF78FFB204BF8
:103D500018600026DFF87480DFF87890DFF870A034
:103D600098F80020F3B2511C99420BDA29462046FC
:103D70003C70FFF74FFE0028C3D02046FFF77EFEC1
:103D80000120C6E79A420AD9DAF8002012EB431361
:103D9000B7D05B680136002BB3D09847E0E79B1A99
:103DA00009EB4313F5E700BF40110020262F002048
:103DB000881F00203A300020901F0020381100207A
:103DC00024110020941F00206D340010012F0020CA
:103DD000E81D00208876011038B58B780C4613F06A
:103DE000700F08D04FF0E023D3F8F03DDB0700D58B
:103DF00000BE002038BD074B20461D78064B997841
:103E000001F0D5F80028EDD021462846BDE838401D
:103E1000FFF75CBE40110020262F00202DE9F0475F
:103E20008146DDE908670C4690469A460025A8457C
:103E300001DC01200AE06378052B09D04FF0E02374
:103E4000D3F8F03DDB0700D500BE0020BDE8F087C9
:103E5000E37803F003035345F0D121464846FFF7CA
:103E6000BBFF0028EAD0A3780135DA0914BF3B7004
:103E7000337023781C44DAE7CB0901F07F02343336
:103E800003EB42030248034A1844116801F04EB89C
:103E9000262F0020901F0020CB0901F07F02343331
:103EA00003EB42030248034A1844116801F064B866
:103EB000262F0020901F002038B5144C01F07F05FC
:103EC00004EB450404EBD11494F834003034C007FB
:103ED00008D54FF0E023D3F8F03DDB0700D500BE56
:103EE000002038BD207940F001002071084800789A
:103EF000FFF71AFE0028F4D1227960F30002227144
:103F0000227960F382022271E3E700BF262F0020AE
:103F10004011002010B50C460B4B1878FFF716FE29
:103F20000A4904F07F0301EB430101EBD41191F83E
:103F3000343043F0020381F8343091F8343043F0E8
:103F4000010381F8343010BD40110020262F0020DD
:103F500010B50C460B4B1878FFF710FE0A4904F019
:103F60007F0301EB430101EBD41191F8343023F0CE
:103F7000020381F8343091F8343023F0010381F8E2
:103F8000343010BD40110020262F0020054B01F0D9
:103F90007F0203EB420303EBD11191F83400C0F32D
:103FA00040007047262F00202DE9F04FA44B87B02A
:103FB0001B78FF2B4DD0DFF89492A24B1C686369ED
:103FC000EFF3108272B6D3E8CF0F01210028FAD1A7
:103FD000C3E8401F0028F6D1BFF35F8FA2612046DF
:103FE00003A901F0F6F900236269C2E88F3FA369D3
:103FF00083F3108868B39DF80D30013B072B00F266
:10400000F982DFE813F008001300EE02D302DF02AA
:104010001C008F02E7029DF80C00FFF7FFFD00F087
:104020006BFB9DF8103089F80230C6E79DF80C0054
:10403000FFF7F4FD00F060FBFFF747FEBDE7824AA3
:1040400013784BB94FF0E023D3F8F03DDC0700D5EF
:1040500000BE07B0BDE8F08F1378013BDBB21370F0
:10406000137803F0FF00002BA7D1784C9DF80C507B
:10407000237843F00103237094F8343060F3000395
:1040800084F8343094F8343060F3820384F83430A8
:1040900094F8353060F3000384F8353094F8353007
:1040A00060F3820384F8353000F02EFB9DF8102079
:1040B00002F06003602B07D14FF0E023D3F8F03D0E
:1040C000DD072AD500BE28E0402B0BD1604800F068
:1040D0001BFB0121284604AAFFF7B4F900287FF44E
:1040E0006CAF1AE002F01F02012A00F09281022A4E
:1040F00000F0C681002ADFD1202B25D19DF8143095
:104100000F2B0AD8534A23441B79127893420FD2BB
:10411000514A116811EB431111D19DF80C00002197
:10412000FFF714FD80219DF80C00FFF70FFD44E719
:10413000511C9942F1DB49499B1A01EB431104AA36
:104140002846FFF7ADFDC9E7002BB5D19DF811302A
:10415000092BB1D801A252F823F000BFF14300109F
:10416000DF430010B9400010CB430010B9400010ED
:104170008541001023430010B94000109F410010FA
:10418000A941001004A800F0C5FA28469DF81210B5
:10419000FFF778FC237843F0020323700DE7637880
:1041A0008DF80A3001232DE19DF8126063789E425C
:1041B00041D063785BB100212846FFF76BFC2846AD
:1041C000FFF7B0FCA7782846FFF728FDA7706670B8
:1041D000002E00F0A380701EC0B2FFF757FB10B195
:1041E0004378022B10D04FF0E023D3F8F03DDB07EB
:1041F00000F192804FF0E023D3F8F03DDF0700D5C7
:1042000000BE0023637088E7C37900F10906C3F399
:104210008012C3F340131B0143EA4213227822F0B9
:104220003002134323704388C3180093009BB342AA
:1042300016D8FFF749FD284604A900F021FABCE68C
:1042400040110020941F00203A300020262F00202B
:1042500045340010012F0020E81D00208876011051
:1042600073780B2B02BF337896F803A0F618737897
:1042700018BF4FF0010A042BB5D14FF0000B009B83
:104280009B1B9BB2B64A5FFA8BF817787A1C904555
:10429000A9DC47452BD9B34A176817EB4817A2D0BA
:1042A0001A46019331463B6928469847082802463A
:1042B000019B2ED983422CD3BAF1010F05D1396964
:1042C000A94B994208BF4FF0020A0021CBB29A4590
:1042D00013D843463146A548019200F097FEA04B03
:1042E000019A1B781644013398459FDD7BE7A04A6D
:1042F000A8EB070702EB4717D2E7B0780131034478
:1043000054FA83F31879FF287FF46DAF83F80480A3
:10431000DCE70BF1010BB5E700BE6BE7FFF7D5FC5F
:1043200089E7BDF812301A0AD8B2531E0E2B3FF699
:10433000F4AE01A151F823F075430010974300102B
:10434000B14300101B4100101B410010C543001079
:10435000974300101B4100101B4100101B4100102F
:104360001B4100101B4100101B4100101B4100109D
:104370008D430010FFF786FA024600283FF49CAEFA
:104380001223284604A900F08DF9A7E6FFF756F896
:10439000024640B9C1E6022A07D1FFF777FA024682
:1043A00000283FF489AE5388EBE7FFF78BFCEFE77B
:1043B000BDF81410FFF76EFA024600283FF4ADAEC8
:1043C0000378DEE7FFF77CFCF6E7BDF81230012B3F
:1043D0007FF4A3AE237843F0080323702BE7BDF8E6
:1043E0001230012B7FF499AE237823F00803F4E711
:1043F0002378C3F340129B0803F002031343ADF884
:104400000A30022328460DF10A0204A900F04AF9F5
:10441000D3E59DF814300F2B3FF67FAE504A23446E
:104420001B791278934222D24E4A116811EB431144
:104430003FF473AE284604AAFFF732FC00287FF44D
:10444000BCAD9DF8103013F060047FF466AE9DF8AB
:1044500011300A3B012B3FF660AE00F055F99DF894
:1044600011300A2B7FF4E7AE8DF80A409AE6511C12
:104470009942FFF652AE3E499B1A01EB4311D9E730
:104480009DF8141011F0700F7FF416AE01F07F024A
:10449000334804EB420202EBD112127D00788242D3
:1044A00013D23048066806EB4216DBB99DF811308E
:1044B00003F0FD02012A19D0002B7FF4FDAD284640
:1044C000FFF764FDADF80A009BE7461C9642C0F278
:1044D0009A80274E121A06EB4216002BE6D0314680
:1044E00004AA2DE6002E3FF418AEF8E7BDF812201E
:1044F00022B9012B284612D1FFF72AFD002E3FF4E6
:104500005CAD314604AA2846FFF7CAFB002000F044
:10451000FBF894F83530DE073FF54FAD8BE6FFF73B
:10452000F9FCEBE79DF8101001F07F0409EB440261
:1045300002EBD11292F8343023F0010382F83430C8
:1045400092F8343023F0040382F8343094B9059B98
:104550009DF811209DF80C0000F0EAF82DE500BF51
:10456000012F0020E81D0020514A00103A2F0020A2
:1045700088760110264B127D1B789A420DD2254B6E
:104580001B6813EB42133FF45DAD9C699DF811204D
:10459000059B9DF80C00A0470FE5581C9042FFF6C4
:1045A00051ADD21A1C4B03EB4213EEE799F80030E1
:1045B000D8077FF502AD99F80000C0F3C000FFF7FF
:1045C00085FBFAE499F80030D9077FF5F6ACFFF7E0
:1045D0007EFBF2E4049B002B3FF4EFAC0598984778
:1045E000EBE499F80330DA077FF5E7AC0498FFF7BE
:1045F00066FBE2E44FF0E023D3F8F03DDB077FF504
:10460000DCAC00BED9E4002B7FF487AD00264DE77B
:10461000012F0020E81D002088760110124B70B594
:104620009989DA8905468C1AA4B293F90000402CC6
:1046300028BF402400280EDA914212D09968224601
:104640000A480DF0C5FA8021084A23462846BDE8ED
:104650007040FFF731BC91424FF00001F4D10A469F
:10466000F3E780210022F0E7741F0020341F0020B0
:10467000C943002301F080011A46FFF71DBC00006A
:1046800030B4074C0546224608680B46496803C209
:1046900000222846C4E9022230BC1978FFF7E8BF9F
:1046A000741F0020F8B5134E0C46374605460868BF
:1046B0004968B26003C70021F181E1888B4228BFBD
:1046C0000B46B38189B14BB142B94FF0E023D3F827
:1046D000F03DDB0700D500BE002005E02846FFF7CF
:1046E0009DFF0028F1D00120F8BD28462178FFF772
:1046F000BFFFF6E7741F00201422002101480CF0D0
:10470000BFBF00BF741F0020014B1861704700BF7E
:10471000741F002010B50246044C006823465168FF
:1047200003C30023C4E9023310BD00BF741F00207F
:1047300070B5284C1E462378C909B1EBD31F054636
:1047400013D03EB14FF0E023D3F8F03DDB073FD468
:10475000002070BD2146FFF7ABF923691BB122464B
:104760000321284698470120F3E794F90030002BF5
:1047700006DBA0680028EBD0324617490DF028FA76
:10478000A268E38932443344A260E2889BB29A4231
:10479000E38101D03F2E17D8236933B92846217809
:1047A000FFF766FF0028DED1CCE702212846094A40
:1047B000984701460028F1D12846FFF7C7F9802124
:1047C0002846FFF7C3F9CEE72846FFF727FFE9E7BA
:1047D00000BEBDE7741F0020341F00202DE9F0410A
:1047E0000646FFF775FA48B3FFF77AFA054628BB85
:1047F000C8247443124B1F19FA78FAB110341C44C0
:10480000204600F0D4FD3F2818D92846F978FFF754
:1048100033FB98B1204600F0CAFD3F28F97808D94B
:10482000084A284602EBC6124023BDE8F041FFF7D4
:1048300043BB2846BDE8F041FFF72EBBBDE8F08141
:104840006C1E0020EC1D002010B50446FFF740FA56
:1048500008B9002010BDFFF743FA0028F9D1C8229B
:10486000034802FB0400007900F00100F2E700BFFA
:104870006C1E0020C82208B5024B02FB003000F07D
:104880006CFD08BD7C1E002038B54FF6FF739A42C0
:1048900028BF1A460446C820054B92B200FB0430DC
:1048A00000F0B6FD05462046FFF798FF284638BDC4
:1048B0007C1E00202DE9F0418046FFF709FA60B325
:1048C000FFF70EFA054640BBC82606FB08F6174C54
:1048D00006F124072744384600F03FFDE8B1344490
:1048E0002846A178FFF7C8FAB8B1114E402206EB6E
:1048F000C8163146384600F08BFDA178044688B1D1
:10490000034632462846FFF7D7FA48B94FF0E0236E
:10491000D3F8F03DDB0700D500BE0020BDE8F081F4
:104920002046FBE7FFF7B8FAF7E700BF6C1E002050
:104930002C1E0020C82370B50B4D044603FB005508
:104940004FF6FF739A4228BF1A46284692B200F0EB
:10495000B1FD0646284600F000FD3F2802D920465A
:10496000FFF7A8FF304670BD901E0020C82208B592
:10497000024B02FB003000F01AFD08BD901E002023
:10498000F7B50024C822002117480CF079FE174B18
:10499000154F1C70FF237B714FF4E133BB6008237C
:1049A00007F13801BB7340220123009407F1100086
:1049B00000F0A6FC01234022009307F1780107F1E3
:1049C000B80607F1240000F09BFC07F1C005304653
:1049D000FCF7F2F82846FCF7EFF8C7E90746C7E905
:1049E0000C5403B0F0BD00BF6C1E0020022F00204D
:1049F000074B1A6A196B12B10022DA61012211B158
:104A00000021C3E90C110AB100221A62012070478B
:104A10006C1E0020002310B50A480B4C0360037184
:104A20002378DA0702D4103000F0C9FD23789B0701
:104A300002D4064800F0C3FDBDE810400121034840
:104A400000F0D8BD6C1E0020022F0020901E002018
:104A5000F7B54B790646022B0DD18B79022B0AD183
:104A6000234FBB78002B3DD04FF0E023D3F8F03D2F
:104A7000DB0700D500BE0025284603B0F0BD237833
:104A80001D44ADB21C446378242B1CD19542F6D949
:104A90006378042B13D163790A2B10D1154B277837
:104AA000019301330093022330461A46E119FFF7C0
:104AB000B5F90028D8D00E3517FA85F5ADB200202B
:104AC000FFF78CFED8E7052BE2D121463046FFF7F1
:104AD00083F90028C8D0A3787B7023781D44ADB239
:104AE0001C44D5E78B7809253B700B78CC18CAE7B6
:104AF0006C1E00206E1E00200B461146127870B509
:104B000002F06002202A04D1284D8A882C78944231
:104B10003CD0002006E0012B05D10723244AFFF7F3
:104B2000C1FD012070BD032BFBD1224B002BF8D01F
:104B300000201F49FEF7A0FCF3E7012BF1D1ECE7C1
:104B4000012B02D1FFF79CFDEBE7032BE9D14C8849
:104B5000194804F0010686F001012C7100F04AFDAD
:104B6000164B002BDDD031460020C4F34002AFF3DA
:104B70000080D6E7012BE5D0032BD2D1104B002BC0
:104B8000CFD000204988AFF30080CAE74A78203AA6
:104B9000032ABED801A454F822F000BF174B00101E
:104BA0003B4B0010414B0010754B00106C1E002059
:104BB000741E002079340010901E002000000000B8
:104BC000000000002DE9F843324C1D46E378804692
:104BD0008B420F460CD0A3788B4216D04FF0E023C7
:104BE000D3F8F03DDB0700D500BE0020BDE8F88318
:104BF0002949AAB204F1100000F05CFC274B4BB924
:104C0000274BEBB90020FFF7E9FDA378BB421FD08B
:104C10000120EBE76379FF2BF2D01F4E06EB05096D
:104C20004E45EDD016F8013B62799A42F8D11D4805
:104C300000F0A4FB0028F3D16179AFF30080EFE727
:104C4000184800F09BFB0028DCD1AFF30080D9E7C7
:104C5000154B13B10020AFF300800020FFF72AFEB0
:104C60000028D5D1114800F078FB0028D0D1002DC4
:104C7000CED015F03F05CBD14046A178FFF7FCF828
:104C80000028C5D02B462A464046A178FFF714F9E4
:104C9000BEE700BF6C1E0020EC1D002000000000DD
:104CA000000000007C1E002000000000901E00207C
:104CB00010B9024900F017BA002070471C200020EC
:104CC000F0B5144F85B04FF41372002111480CF069
:104CD000D7FC07F5A67340264FF480750093002398
:104CE0000D4C1A46194602940396019507F59470E7
:104CF00000F09EF907F1280300933846002334445E
:104D000001221946CDE901540396043000F090F9D0
:104D100005B0F0BD18200020981F002008B50548F8
:104D200000F0ABF9034BA3F5927000F0A6F9012057
:104D300008BD00BF4021002038B50025064C04F511
:104D40009870257000F03BFC04F10C0000F037FC7B
:104D500084F82951657138BD182000202DE9F843E9
:104D60004B798146FF2B0E4650D00020BDE8F883DA
:104D700023781C446378052B04D0BC42F8D3A01BD5
:104D800080B2F3E7BC42FAD221464846FFF724F846
:104D900038B94FF0E023D3F8F03DD807E5D500BE91
:104DA000E3E7A378DB0917D0224800F008FCA378DA
:104DB0002A796B71A3880020C3F30A03A3F500715D
:104DC0004B424B4163F341022A71FFF771FF237895
:104DD00008F101081C4427E0174800F0F0FBA37815
:104DE000484685F82931A3881449C3F30A03A3F57B
:104DF00000725342534195F8282163F3410285F82C
:104E0000282100F0A7F90028E1D1C2E70C4D95F860
:104E10002931002BA9D16B79002BA6D19846347883
:104E20003444A718B2782A7032795FFA88F39A422C
:104E3000A0D8A4E724200020482100204021002001
:104E40001820002038B5054619481C4690F829312D
:104E50008B4204D043798B4218D0002038BDB0F883
:104E6000343133B1D0F82C11A2B200F5987000F0B3
:104E700021FB104B23B100200F49A2B2AFF30080F9
:104E800028460E4900F066F90120E7E70C4B1BB1FC
:104E90000020A1B2AFF3008028460A4900F023F9B0
:104EA0000028F1D122462846064900F0E8F8EBE751
:104EB0001820002000000000981F00204021002042
:104EC000000000001C2000200B4613B599B90124F6
:104ED000184601A9ADF80440FEF70AFF40B94FF0AB
:104EE000E023D3F8F03DDA0700D500BE02B010BDD4
:104EF0000D4B1C70FAE7012801D80B7843B94FF02D
:104F0000E023D3F8F03DDB0700D500BE0020EDE73D
:104F1000054C012B235401D00120E7E7FEF7E8FE02
:104F20000028F9D1EBE700BF242F0020F8B5047862
:104F3000054614F001040E461CD103785A07C3F34A
:104F4000800713D44FF0FF3130460EF0E1FE2C788D
:104F500014F001040CD12B785B0704D401242B78C6
:104F600043F004032B7030460EF0E6FE2046F8BDF9
:104F70003C46F8E70024F9E770B50D4604464FF0CB
:104F8000FF3128460EF0C4FE2378C3F380065B078A
:104F900008D5237813F0010211BF0026237862F3AD
:104FA0008203237028460EF0C7FE304670BD83880A
:104FB000C078C3F30A0300F00300022814D00328CA
:104FC0001CD001280ED1022940F2FF3208BF4FF455
:104FD00080629A420ED24FF0E023D3F8F03DDB0717
:104FE00000D500BE00207047022904D1B3F5007F30
:104FF000F1D101207047402BFBD9ECE7022914BF07
:1050000040224FF480629A42F3D2E4E730B50A447A
:10501000914200D330BD4C78052C06D18C7804F039
:105020007F0500EB4505E4092B550C782144EFE79B
:10503000F7B515460278089FBDF8246061F30002B9
:105040000446394600F8082B00933246012300F04D
:1050500057F957B14EB104F11C063046FBF7ACFDD1
:105060000DB135460026C4E9055601200A9B636050
:10507000BDF82C30638003B0F0BD01207047F8B557
:105080000546084610F8083B0C4613F0020F0CBF0B
:1050900040274FF40077164600F05FF908B1002072
:1050A000F8BD002EFBD0013F3742F8D12378DA0754
:1050B000F5D428466178FEF7DFFE0028EFD023788C
:1050C00013F0010307D04FF0E023D3F8F03DDB07E6
:1050D000E5D500BEE3E71A4628466178FEF7ECFE08
:1050E0000028DDD1EFE770B501F108050646284636
:1050F0000C4600F032F9C0B12378DA0715D43046F7
:105100006178FEF7B9FE80B128466288616800F0D8
:105110007FF92378054603F00103A0B13BB14FF0BE
:10512000E023D3F8F03DDB070BD4002070BD03462D
:10513000626830466178FEF7BFFE0028EFD028464F
:10514000F4E700BEF1E7002BEFD130466178FEF7BF
:10515000A3FEEAE78A89F8B506460C460B78F2B951
:10516000DD070DD44978FEF787FE48B12378D907CB
:1051700008D54FF0E023D3F8F03DDB0700D500BEA3
:105180000020F8BD638861783BB162683046FEF765
:1051900093FE0028EDD06088F3E71A46F6E701F1A8
:1051A000080713F0020F38460CBF40254FF4007576
:1051B00000F0FDF88542E3D82378DA07E0D43046E2
:1051C0006178FEF759FE0028DAD0384600F0EFF893
:1051D0002378854203F0010315D8002BC9D16D4215
:1051E00063880540ADB29D4228BF1D46617845B138
:1051F00062682B463046FEF75FFE0028B9D028468D
:10520000BFE72A46F5E7002BBAD130466178FEF7B2
:1052100043FEB5E70A4492B291424FEA400001D8FA
:10522000824201DB121A92B21046704738B5054629
:10523000D41A0846A988A4B29A423CBF04EB4104A0
:10524000A4B2B4B1A14205D2914294BF521A5218ED
:1052500093B26B81994209D9EA882968C2F30E0298
:1052600002FB03110CF0B4FC012038BD5B1A9BB2A9
:10527000F0E72046F9E72DE9F047BDF820408688A1
:105280001D1BADB2A3423CBF05EB4605ADB20746C0
:105290008846F5B1AE4206D235469E4294BF9B1B6E
:1052A0009B199CB24481954228BF1546A64213D94A
:1052B000FA88A6EB040939681FFA89F9C2F30E0AC5
:1052C0004D4552460AFB041109D840466A430CF08A
:1052D0007FFC2846BDE8F087A41BA4B2E6E719FBD3
:1052E0000AF91FFA89F94A464046AE1B0CF070FCD9
:1052F000A21912FB0AF2396892B208EB0900E6E73C
:10530000B2F5004FF8B504460F4616461D4622D8A2
:10531000C06818B14FF0FF310EF0FAFC206918B1E7
:105320004FF0FF310EF0F4FC9DF81830C5F30E0578
:1053300045EAC3350023E06863812760A680E580E5
:10534000238108B10EF0F8FC206908B90120F8BDEE
:105350000EF0F2FCFAE70020F9E7024613895289C1
:10536000808892B29BB2934236BFC2EB40029B1A36
:105370009B189BB2984228BF184670470289438900
:1053800092B29BB2D31A584258417047038942895E
:10539000818892B29BB2934236BFC2EB41029B1A04
:1053A0009B189BB299428CBF002001207047038953
:1053B0004189828889B29BB28B4236BFC1EB4201E0
:1053C0005B1A5B189BB29A4286BFD01A80B200204B
:1053D000704738B5044600690D4618B14FF0FF31EB
:1053E0000EF096FC22896389294692B220469BB230
:1053F000FFF71CFF61890246054689B2A088FFF7C6
:1054000009FF6081206908B10EF096FC284638BD7E
:1054100073B5044600690D46164618B14FF0FF31CA
:105420000EF076FC23896289294692B200922046CA
:1054300032469BB2FFF71FFF61890246054689B2DB
:10544000A088FFF7E7FE6081206908B10EF074FCC8
:10545000284602B070BDF8B50446C0680F4618B1C2
:105460004FF0FF310EF054FC26892046B6B2FFF70C
:105470008DFF10B1E579ED0913D03046A388834242
:1054800015D9E2882368C2F30E02394602FB0030C8
:105490000CF09EFB01223146A088FFF7BBFE0125E0
:1054A0002081E06808B10EF047FC2846F8BDC01A1C
:1054B00080B2E4E72DE9F84F05460E469046002AF3
:1054C0003FD0C06818B14FF0FF310EF021FCEB79EE
:1054D0002F896989DB09AC88BFB289B234D18F4288
:1054E00035BFC1EB4403791ADB198BB238BF9BB2CD
:1054F000A34262D2E31A9BB2434528BF43461FFA38
:1055000083F8B946A14540D2EA88A4EB090A286885
:105510001FFA8AFAC2F30E0BC2450BFB090039D3FE
:1055200031460BFB08F20CF053FB42463946A88883
:10553000FFF770FE44462881E86808B10EF0FCFBD6
:10554000A0464046BDE8F88FA0450BD3002CF3D011
:10555000EB88A8EB0408C3F30E0303FB08660F46B1
:10556000A046CEE78F424FEA440236BF531A7B1A59
:10557000DB199BB243449342C3DBA4EB08022046F1
:1055800092B2FFF747FE0746BBE7A9EB04091FFAF3
:1055900089F9B7E71AFB0BFA1FFA8AFA5246314625
:1055A000A8EB04040CF014FB09EB040212FB0BF251
:1055B000286892B206EB0A01B5E70024BCE710B5F3
:1055C0000446C06818B14FF0FF310EF0A1FB20690E
:1055D00018B14FF0FF310EF09BFB0023E0686381B0
:1055E000238108B10EF0A8FB206908B10EF0A4FBDE
:1055F000012010BD38B50446C0680D4618B14FF003
:10560000FF310EF085FB206918B14FF0FF310EF02D
:105610007FFBE379E06865F3C713E37108B10EF02F
:105620008BFB206908B10EF087FB012038BD00001C
:105630004821836B18472DE9F04FD1E90359C6681B
:105640008E4B04461A6830469DB08A4602F02BFF06
:10565000074640B98A4B0093412365692046894A31
:105660008949A8473FE0894B514630461A6802F005
:105670001AFF804620B9864B009365694423EDE705
:10568000844B51461A68304602F00DFF824B51465A
:1056900005901A68304602F01BFF824620B97F4B06
:1056A000009365694923D9E73B7F027F93420CD081
:1056B000CDE902327A4B01937A4B00934B23656913
:1056C0002046704A7849A8470DE05A1ED2B2082AEF
:1056D00005D840F2411121FA02F2D10706D46369DC
:1056E0007249204698474FF0010997E0012B98F83E
:1056F0001C2004D1012A08D063696D49F1E7072B0A
:1057000001D1092AF7E7122AFBD141460EA802F07F
:105710002FFA514615A802F02BFA0E9B1CAA02EB99
:105720008303DDF854B053F8382C01230BF1FF3C10
:105730001CA901EB8C0151F8180C0021CDE90733AD
:1057400006922A64099015AA8B4523DCEB634FF07F
:10575000FF33C5E90C33059B99F8001068643A7F64
:105760002046CDE90083CDE902A53B4602F048FA88
:105770008146002852D195F82C303A7FABB1092AE6
:1057800003D198F81C20122A4CD14A4B009365692A
:10579000742363E78C450CBF4FF0010ED2F804E090
:1057A00001310EFB03F30432CEE7072A23D1FA6856
:1057B00042B1CDE90223404B0193404B0093656910
:1057C0007C237DE7DAF80C3043B1CDE902323A4B65
:1057D00001933B4B009365697D2371E706A804F0B4
:1057E00057F8002809DD0146236C204605F13402F4
:1057F000984710B129E0092A14D033685146304641
:105800009B6998473368394630469B6998473368A7
:1058100041469B6930469847059B4BBB48461DB0A7
:10582000BDE8F08F98F81C20122AE6D0BBF1020FD9
:1058300018DD2A6C920715D14BB9696C2046236C90
:1058400005F13002C900984708B18146E6E7EB6BE5
:105850000AA80A930123CDE90B332B6C0D9303F0B7
:1058600087FFBEE706A804F01EF80023AB63B8E785
:10587000336830469B6905999847CFE73477011024
:10588000954B0110144B01107E4B01103077011025
:10589000A64B01102C77011028770110B84B01108E
:1058A000E44B0110975B0110CA4B0110F14B011042
:1058B000794C0110144D0110855B0110A54D0110AC
:1058C000BE4D01102DE9F04F0C46B3B0DDE93C7A36
:1058D0000546514621A89146984602F09FFA236852
:1058E000226C0A936368CDE914220B930123626C46
:1058F000CDE91233CDE91633CDE91823CDE91A33BA
:10590000CDE91E330023E16BCDE90C33CDE91C2139
:105910001191616B219E9942209203DB28466B6CAA
:1059200098470C9007B13F686369022ED4F81CE0D9
:1059300094F82C10C3F10003D4E902C069DD266C91
:1059400016F0030665D10122CDE9283ECDE92E22CD
:10595000CDE92A22CDE92C66CDE930C0002944D01A
:10596000636A0E93A36A0F930DF1740BDAF800309B
:10597000CDE9047B19AE06930396D8F8003015AC38
:1059800002930194D9F800300EAA009328A911AB14
:105990000CA803F0A6FE002800F096806B690EAA02
:1059A0000993DAF80030CDE90367CDE905B3D8F8FB
:1059B000003028A9CDE90143D9F800300CA80093A4
:1059C00011AB03F08EFE0023CDE902033F4B0193A0
:1059D0003F4B00934FF4A17328463E4A3E49099C31
:1059E000A047012033B0BDE8F08F6B6C2846216BD7
:1059F0009847636C0E9000EB83030F93626C9642A2
:105A0000B2DA0A9A40F826200B9A43F8262001368B
:105A1000F4E7A269CDE92BC05242CDE9292E2893A3
:105A2000109100293FD0616A0E91A16A0F91A16B7C
:105A300000293CD00C910DF1740BDAF80030CDE95F
:105A4000047B19AE06930396D8F8003015AC029388
:105A50000194D9F800300EAA009328A911AB0CA824
:105A600003F08BFF00282FD06B690EAA0993DAF898
:105A70000030CDE90367CDE905B3D8F8003028A997
:105A8000CDE90143D9F800300CA8009311AB03F025
:105A900074FF0023CDE902030C4B01930F4B0093DD
:105AA0004FF4B47398E70AA90E910BA9BEE70C98BE
:105AB0000028C0D0CDE901270093D8F80030626CEF
:105AC000159903F089FFB6E700208BE7D84D011048
:105AD000ED4D0110144B0110CA4B0110FF4E011087
