:020000041000EA
:10000000002008205D0100101B0100101D010010E0
:100010001101001011010010110100101101001058
:100020001901001019010010190100101F01001022
:10003000110100101901001021010010230100100E
:100040001101001011010010110100101101001028
:100050001101001011010010110100101101001018
:100060001101001011010010110100101101001008
:1000700011010010110100101101001011010010F8
:1000800011010010110100101101001011010010E8
:1000900011010010110100101101001011010010D8
:1000A00011010010110100101101001011010010C8
:1000B00011010010110100101101001011010010B8
:1000C00011010010110100101101001011010010A8
:1000D0001101001011010010110100101101001098
:1000E0001101001011010010110100101101001088
:1000F0001101001011010010110100101101001078
:100100001101001011010010110100101101001067
:10011000EFF30580103800BE00BE00BE00BE00BE7A
:1001200000BE00BEF2EB8871047501102C75011041
:10013000A001001090A31AE7D3DEFFFF42012110B7
:10014000FF010000DC830100793512AB4FF00000A5
:100150001E49086006C881F3088810474FF05040D8
:10016000006810B14FF00000F2E70DA40ECC00299A
:1001700002D000F012F8F9E71549164A002000E015
:1001800001C19142FCD11449884714498847144958
:10019000884700BEFDE701C901C29A42FBD3704700
:1001A0002C75011010010020F8100020148501109A
:1001B000000008200000082014850110001008200D
:1001C00000100820000000007047000008ED00E06B
:1001D000F8100020A4140020213200103D06001069
:1001E000EB310010F8B500BF064B0749C91A89105A
:1001F00048BF0131491003D0044B0BB101481847E7
:10020000704700BFF8100020F81000200000000028
:1002100008B5054B1BB105490548AFF30080BDE8A3
:100220000840FFF7E1BF00BF000000003C140020C1
:100230009C24011070470346C06A28B15A6A914253
:1002400001D1986A7047002070472DE9F0410546BA
:100250000F4606460024D0F82080A04501D100209A
:100260000CE0B369202B0BD13946F0690FF086FF03
:1002700030B9644204F01C0404342819BDE8F0814C
:1002800001341C36E9E72029034606D0006A28B16C
:100290009A69914201D1181D7047002070470000F3
:1002A000F0B5054689B001A803F0FEFE09212846F5
:1002B000FFF7E9FF48B1144807F00AF8092113488D
:1002C00007F006F8012009B0F0BD2F6A37B1092107
:1002D0000F4806F0FDFF01210E48F1E72E1D01AC8D
:1002E0000FCC0FC694E80700012386E80700092118
:1002F0002B62EB6AA96105EB830251620649013367
:1003000091623846EB62DEE7903B0110BF3B011083
:10031000E03B0110113C0110834C00100368C01A2F
:1003200003888B428CBF405A0020704710B50421CF
:100330000446FFF7F3FF00B1205810BD2DE9F0414E
:100340000024ADF5A63D3F4BB6B0CDF8D03C0DF541
:100350004C400DF54C4321464FF40042D830D43385
:100360001C600FF081FD05AB374A18461C62DC6249
:100370001A60FFF795FF0446002859D140F6B831BE
:1003800046A807F0EDFA314B1821D3F80080044657
:10039000984407F029F911AB03930DF54D672346F7
:1003A0004146CDE9000705AA039806F036F90398FF
:1003B000459406F0DEFA11AD0446002835D1D5F893
:1003C000008008214046FFF7A9FF002836D058F8E2
:1003D000003008EB00061E447368062104331E44F7
:1003E0003046FFF79BFF321850B33358D358012BD8
:1003F00001D00CF027FA2146039806F066F94FF079
:100400007E52036903981A6006F0AAFB044660B99D
:100410000F4806F05DFF384607F083F80C4806F0F9
:1004200057FFD5F8D00007F0F9FA039806F086F9DF
:1004300020460DF5A63D36B0BDE8F0814368FFDEED
:100440000368FCE7E86E01108C690110A02401101C
:10045000625B01102DE9F0412DED028B304BADF6C2
:10046000D84D1D681D442846FFF760FF032801D0C2
:100470000CF0E8F92B4B08A8089300231093139372
:10048000FFF70EFF0446002842D140F6B833294654
:10049000CDE902000190009308AA48AB14A806F029
:1004A00087F814A806F065FA044670BB26469FED4F
:1004B0001E8A1E4B04AD0FCB85E80F00002114A847
:1004C00055F8048B06F001F9036914A8C3F80080FD
:1004D00006F046FB0446C0B9014614A806F017F919
:1004E0000746404601F0A4FD3B6907EE900A93EDF4
:1004F000007A77EEC77AF0EEE77AF4EEC87AF1EE9A
:1005000010FAB5D80136042ED8D114A806F016F981
:1005100020460DF6D84DBDEC028BBDE8F08100BF42
:10052000A02401108C690110CDCC4C3DA0690110B4
:100530002DE9F0472DED028B3B4BADF54E6D1D685F
:100540001D442846FFF7F2FE032801D00CF07AF98B
:10055000364B0AA80A93002312931593FFF7A0FEC7
:100560000446002859D140F6B8332946CDE90200A7
:10057000019000930AAA4AAB16A806F019F816A82B
:1005800006F0F7F90446002844D1014616A806F003
:100590009CF880460028D9D0214616A806F0B7F866
:1005A00005460028D2D02646DFED218A214B06AF32
:1005B00090ED028AD0F80CA00FCB87E80F001E4BFD
:1005C0000DF11409C9F80030D8F8103019F80620D8
:1005D00016A81A7006F0C4FA0446D8B907EB8603C9
:1005E000186801F025FD2B6907EE900A93F9003099
:1005F000A3EB0A0307EE103AB8EEC77AE7EE487AA3
:10060000F0EEE77AF4EEE87AF1EE10FA9ED80136D1
:10061000042ED9D116A806F091F820460DF54E6D9E
:10062000BDEC028BBDE8F087003101108C69011030
:10063000CDCC4C3DB0690110A0C1DE0010B500F07A
:100640001DF8FFF77BFE38B9FFF704FF20B9FFF76D
:100650006FFF044608B1204610BD024806F038FE80
:10066000F9E700BF243C01100048704740420F00EA
:10067000014B986A704700BF00000B4002F0ECBECF
:10068000034B0A461B680146D8680EF0F3BE00BF54
:10069000A80F002002F02EBD0C4B10B503EB80021A
:1006A00053F8203002F5805483F0400303F0C00378
:1006B00023604FF48073C00000F1804000F52030CB
:1006C00002F540524160136010BD00BF048003403A
:1006D0000FB407B5049C074802F0D1FE3CB105A950
:1006E0002046019102F014FD034802F0C8FE0120EB
:1006F00002F031FD3C3C0110615B0110EFF3108012
:1007000072B6064BD3E8CF1F01220029FAD1C3E805
:10071000412F0029F6D1BFF35F8F70478B14002063
:100720000023034AC2E88F3F80F31088704700BF60
:100730008B140020CB08C05C012301F007018B4023
:100740001840003818BF01207047F8B505460C4620
:100750001746FFF7D3FF214606462846FFF7EAFF74
:1007600018B121463846FFF7B3FF0123E208A95C20
:1007700004F00704A3400B43AB543046BDE8F840F7
:10078000FFF7CEBF044A1078431CDBB2182B28BFFA
:1007900010231370704700BFA00900204FF0E02223
:1007A000936843F0005393607047000000231A469B
:1007B00003481918C1E88F2F0133202BF9D1704756
:1007C00080140020064B10309B6843F82010BFF3C4
:1007D0005F8F00230349C1E88F3F82F31088704781
:1007E00000ED00E0891400204FF08030044B054AF2
:1007F0001946043393420860FAD162B6704700BFCD
:1008000000E400E034E400E00122430900F01F00AE
:10081000824041B19B0003F1604303F56143C3F89B
:1008200080211A6070470249203341F82320704725
:1008300000E100E0064B420953F82220012300F0BA
:100840001F0003FA00F01040003818BF0120704765
:1008500000E100E0024B10309B6853F82000704725
:1008600000ED00E070B505460C46EFF3108672B659
:100870000D4BD3E8CF1F01220029FAD1C3E8412F45
:100880000029F6D1BFF35F8FFFF7E4FF074B9842D3
:1008900003D0A04201D000F0EDFD324621462846AB
:1008A000BDE87040FFF78EBF8914002011010010D1
:1008B0002DE9F84F04468946EFF3108672B6524B85
:1008C000D3E8CF1F01220029FAD1C3E8412F002924
:1008D000F6D1BFF35F8F4D4B00F1100B9B6853F8BF
:1008E0002B704B4B9F4273D04F4500F08B80DFF84D
:1008F0003481A7EB08032F2B6AD8FFF79BFF002159
:1009000005462046FFF780FFBFF35F8FEFF30583B7
:10091000DBB29A461BB19B4501D000F0ABFD002134
:100920004FF00C0C27F001039A6893F906009145EB
:1009300017D100281BDABAF1000F54D1002950D08A
:10094000FF228A714BF601528A80324940460A786A
:100950009A714AF6AA221B1A5B415A43120D0A7079
:1009600032E0002830DB19460CFB0083DCE70C2169
:1009700001FB00818A689A60CA79DA7191F90620D0
:10098000002A9A712BDB8A88520542BF02F5FF12BA
:1009900002F5FF521F3251150C22424302EB410275
:1009A0006FF0070108324244C91A0A44C2F34A02EE
:1009B0006FEAC2426FEAD2429A800C23154A03FBC7
:1009C000008311781070997129462046FFF71CFFAB
:1009D000324639462046BDE8F84FFFF7F3BE0E4ACF
:1009E000EAE70B4FB1E70D4AD21A083AC2F30A31CF
:1009F0006FEA01516FEA11519980094941EA5202A7
:100A0000DA80E1E71F46E3E78914002000ED00E00B
:100A100011010010A214002001BDFFFFDE0900201B
:100A200000F8FFFFA4090020F0B5EFF30586F6B249
:100A3000EFF3108772B6214CD4E8CF2F0123002AA0
:100A4000FAD1C4E8423F002AF6D1BFF35F8F4AF6DD
:100A5000AA2301461A4A891A49414B431B0D59B230
:100A6000184B40F00105D3F808C05CF826C0AC452F
:100A700025460DD19B68144A43F82620134B1A785B
:100A8000197082710023C5E88F3F87F31088F0BD8D
:100A90001446002394F906608E4208D10C2404FB0E
:100AA0000323FF229A714BF601529A80E6E7013345
:100AB000042B04F10C04EDD1E0E700BF8914002001
:100AC000A409002000ED00E011010010A214002094
:100AD000014B0B44036070478014002010B504469E
:100AE000FFF750FE01462046FFF7F2FFFF23237178
:100AF000BFF35F8F10BD10B50446FFF743FE0146FC
:100B00002046FFF7E5FFFF23A380BFF35F8F10BDF3
:100B100038B50848084DA84200D338BD044654F8FB
:100B2000083B1BB1FFF7E7FF2046F4E7FFF7D6FFCE
:100B3000FAE700BFF0100020F81000200D4B10B5B0
:100B40001A68EFF3108172B6D2E8CF4F0120002C63
:100B5000FAD1C2E8440F002CF6D1BFF35F8F1A68B8
:100B60000023C2E88F3F81F3108840BF002000219E
:100B700010BD00BF741400202DE9F04F2DED028B45
:100B800085B0EFF30582D2B2A34B103A9108A34D82
:100B900018BF1D46E81A434202F00302434102EB2C
:100BA000830301929E4A9FED9A8B52F823400123C2
:100BB000019A93400293029A05F541535A60029BB1
:100BC000EB63B4F90830002B009352DB18265E4328
:100BD0006769284607EB0608D8E902A900F09EFAE3
:100BE000504571EB090144DBB9F1000F6FDBD8E927
:100BF000043B8C4A934255D15846DBF81030984755
:100C0000002864D0DBE9003B53EA0B025FD0BBF164
:100C1000000F53DABAEB030069EB0B0137F906C09A
:100C2000C8E90201BCF1000F23DB4FF0180BD4F828
:100C300014900BFB0C93D3E90223904271EB030356
:100C400017DBA6462EF808CF0BFB0CFA09EB0A08B7
:100C5000D8E90223904271EB030305DB39F90AC09E
:100C6000C646BCF1000FEFDA009B27F806C0AEF8CD
:100C70000030A388190446D5A37943B10023A3719A
:100C8000B4F9083004F108065A1C40F08180B4F928
:100C90000820002A80F2978040BF05B0BDEC028B8F
:100CA000BDE8F08FB8F80220B4F9080092B25946B6
:100CB00042EA0040984703468B46A5E7284603933F
:100CC00000F02CFA039BC0184BEB0101A6E7BB5BBD
:100CD00023812369EFF3108272B6D3E8CF0F01218D
:100CE0000028FAD1C3E8401F0028F6D1BFF35F8F78
:100CF00063880021BB53009B63802369C3E88F1F77
:100D000082F31088B5E72369EFF3108172B6D3E858
:100D1000CF0F01220028FAD1C3E8402F0028F6D1D6
:100D2000BFF35F8F4FF6FF72A3880020A2801BB233
:100D30002269C2E88F0F81F31088182704F108098F
:100D4000002B99DBCE4607FB03F06269B4F908C0BB
:100D50001118D1E902BABCF1000F0FDBBEF9001087
:100D600001EB410102EBC108D8F80C600096D8F8FD
:100D70000860B345009E7AEB060605DAAEF800304F
:100D8000135E22F800C0DBE7C64632F931C0E2E765
:100D9000616903EB430001EBC002B2F802C031F914
:100DA00030701CF4004F0CD0B4F908C082ED028BF7
:100DB000634504D03780228921F8302023813B46C7
:100DC00062E71646FBE71821636901FB0233D3E9AA
:100DD0000267B7F1FF3F08BFB6F1FF3F0FD0019B9D
:100DE000A96A05EB83021369701A5B1A984205D34E
:100DF00001230198296A83400B4200D116612846DD
:100E000000F08CF9B042B941BFF6D9AE44E700BF5B
:100E1000FFFFFFFFFFFFFFFF00800B4000000B40C4
:100E200054140020790B0010F8B504461646C16032
:100E30001F460D46FFF7A6FC4FF050422670126881
:100E4000184B62704FF6FF7203442361BBB263819B
:100E5000013B2281A280638000221823BA4218D16C
:100E6000114F1249EB1B5F425F41114B06EB8707A5
:100E700043F82740012404FA06F638462E62FFF7AD
:100E8000F1FC05F5015521463846FFF7BDFC2E6003
:100E9000F8BD03FB02F1606902F1FF3C20F801C0DC
:100EA0000132DBE78014002000800B40790B00103A
:100EB0005414002010B5094C23694BB9032108488C
:100EC00000F01AF91023032220460549FFF7ACFF72
:100ED000BDE810400A210348FFF7FABDEC090020E5
:100EE00000000B4074140020074A536A994206D848
:100EF000926A824205D2C81A18BF012070470020AA
:100F000070470120704700BF00000B400146F0B55C
:100F10000069EFF3108E72B6D0E8CF5F0124002D88
:100F2000FAD1C0E8454F002DF6D1BFF35F8FB1F97C
:100F300002504E6905EB45044FEAC40C002DA8BFD2
:100F400036F80C004FF00007A8BF488006EBC40439
:100F50000869C0E88F7F8EF31088BD4231DB0598A9
:100F6000C4E90223206106980B6960616088013042
:100F7000C0F30E00012838BF0120608040EA054020
:100F8000EFF3108272B6D3E8CFEF0124BEF1000F69
:100F9000F9D1C3E84E4FBEF1000FF4D1BFF35F8F1C
:100FA0008B8826F80C308D800B69C3E88F7F82F325
:100FB000108801220B789A40CB6803F501535A60E0
:100FC000F0BD4FF0FF30FBE72DE9F0479DF82870AA
:100FD0000646DDE9088915461C4647B12A462346E0
:100FE0003046CDE90889BDE8F047FFF78FBF00F034
:100FF000BFF8854264EB01010029EFDA3846BDE80D
:10100000F0870346408970B5B0EB214F4FEA21428B
:1010100001DC002070BD1824586904FB02001A6925
:10102000EFF3108472B6D2E8CF6F0125002EFAD10B
:10103000C2E8465F002EF6D1BFF35F8F428889B2C7
:1010400092B28A4214D142F4004242800120987147
:1010500000221969C1E88F2F84F310880028D8D0A6
:1010600001221978DB688A4003F501535A60D1E701
:101070000020EDE72DE9F04304460D4685B0EFF37F
:101080000587FFB227B105B0BDE8F043FFF72CBFDD
:10109000174ED6F80C9096F80080484600F03EF8BF
:1010A00008F1040859F82830221AA3EB000365EB75
:1010B00001019A4271F1000103DB20BF204629465D
:1010C000E1E70C4B3046009322462B46CDE90177F1
:1010D000FFF77AFF061E29462046D4DDFFF704FFFE
:1010E00000B920BF31460248FFF78BFFE6E700BF9B
:1010F000EC0900203D0B001010B4054B054C064ACE
:10110000A04214BF1846581C5DF8044BFFF71DBBE6
:10111000A014002000800B404C3C01100346416AA3
:101120000A46986A596A8A42FAD17047416A9942D6
:10113000FCD3994202D1816A914200D37047416A3F
:10114000F7E72DE9F04116461D460446FFF7E6FF96
:10115000821951EB05034FF0000728BF012717B193
:101160004FF0FF3213462046BDE8F041FFF7DEBFE7
:101170000148FFF7D3BF00BF00000B4002460B46FB
:101180000148FFF7DEBF00BF00000B402DE9F04132
:10119000076B0446FB070D46904615D540F2013219
:1011A00000F540531A63436A866A062006EB8316ED
:1011B00000F0D2F840F64E63B0FBF3F0B602B6FB97
:1011C000F0F00021FFF7DAFF234653F82C2F5540AB
:1011D00005EA080503F580531D602763BDE8F0812B
:1011E00070B5054606200C4600F0B6F8C300B3FB08
:1011F000F4F30133DC0916D04FF6FE72944214D892
:101200002646C3F345040022284611466E62AC62AE
:10121000FFF7BCFF062000F09FF804EB8614800067
:10122000B0FBF4F070BD0126EDE700244FF6FF7629
:10123000E9E7000038B5044606200D4600F08CF8BA
:1012400060B3174A0123944214BF1A221B22934011
:10125000144A1549136002F5805213608A6833EA14
:101260000202FBD14FF480710D4B2046E21A53422B
:1012700053410E4A22F813102946FFF7B1FF2346C7
:1012800053F82C2F82F0700203F5805302F07E0297
:101290001A6040F2013323630323A36438BD00BF07
:1012A0000080074000200240000002407C14002023
:1012B000F0B50C24444304F1804404F58034059EC9
:1012C00094466268071FB242FFB238BF6660012FC2
:1012D00004F5405224D8012922D103251560A268C3
:1012E000D207FCD5226804F5805582EA4C1202F040
:1012F000E002012F2A6009D822684A4002F0030266
:101300002A6001228A40A1681142FCD04FF400619A
:1013100004F5005211600B4A666042F82030F0BDBF
:101320004FF400651560074D55F82020002AD9D0EC
:101330006D69B5FBF2F5013505EB4505033DFDD2C1
:10134000D0E700BF0014002013B54FF480340094A0
:10135000FFF7AEFF02B010BD014B53F820007047FD
:101360000014002070B51D4CB4FBF1F4B2FBF4F294
:10137000049C240344EA03430468002C0EDA046846
:1013800004F03F048C4209D18468C4F30B049442F6
:1013900004D1C46804F4EE249C421DD0104D0124F5
:1013A000A84214BF0E250F25AC400E4D0E4E2C60EA
:1013B00005F580552C60B56834EA0505FBD1016060
:1013C0002121826000F54052043211600168002939
:1013D000FCDAC3600823136070BD00BF001BB700B8
:1013E0000080054000200240000002400C235843CA
:1013F000012300F1804000F58410416003607047D4
:101400000023DB8A002242E800F2520254BF10217E
:1014100004211847034AD2F82838002BFBD0BFF329
:101420005F8F704700000E400021044B044ABFF359
:101430005F8F43F8041B9342F9D170470C080E40AC
:101440002C080E40FFF7F0BF4FF42A62054B064907
:101450001A604FF48D72DA60044A11605A68002AEB
:10146000FCDA70470080044000B0FA0000A004409D
:101470007047000008B50148FFF72AF96E3C0110DB
:1014800038B5044C044DAC4200D338BD54F8043B8D
:101490009847F8E75824011098240110054B064A94
:1014A00006491A60064B074A13608A6833EA02024B
:1014B000FBD17047002002407F3BEFEF000002406D
:1014C000F6FFF30300300240044BDB6CB3F5004F32
:1014D00002BF4FF48022024BDA64704700001150C3
:1014E000002011504FF0E022044BD2F8881D0B432E
:1014F000C2F8883D10EE3004704700BF030330008F
:101500006FF06042044B1A60044A9368DB4333F087
:101510006043FAD1704700BF003002400000024033
:1015200010B545F25320FFF76BFFBDE810400346AE
:101530000420184710B545F25320FFF761FFBDE8BE
:101540001040034601201847FFF730B910B50B498A
:101550000B4C0C48641AA410442C224628BF442289
:1015600092000EF029FF074B074A432C02D9074A85
:10157000936010BD43F824200134F6E7000000100A
:1015800010010010000000201101001000ED00E02B
:10159000002373B5294DC5F88430FFF755FF0122AC
:1015A000274BDA636A6C012AFCD103221A63AC6B05
:1015B000012CFCD10226052521460523214A22487B
:1015C0000096FFF7CFFE2B462146204A2048009583
:1015D000FFF7C8FE0022314604201E4BFFF7B4FE81
:1015E0002146284600221C4BFFF7AEFE00220820B1
:1015F00011461A4BFFF7A8FE002209201146174B8F
:10160000FFF7A2FE002206201146134BFFF79CFEB7
:10161000002207201146104BFFF796FE0420FFF72B
:101620009BFE0F4D0024B0FBF5F5E0B229460134D6
:10163000FFF7DCFE062CF8D102B070BD00000140BF
:1016400000300140002F685900000540008C86479B
:1016500000800540001BB70080D1F008006CDC0260
:1016600040420F00C1F30A53A3F2FF335A1C30B5B6
:1016700005460C4603DA002001F0004130BD07D1D9
:1016800001F0004444F07F51002041F44011F5E79F
:10169000342BF3DA0122C3F13300C3F11301133BFE
:1016A00022FA03F302FA01F1194302FA00F30222CB
:1016B0005B1944EB0104C0F12005A0F1200122FADE
:1016C00005F502FA01F182402943524261EB4105DE
:1016D00002EA030005EA0401D0E70000C1F30A5260
:1016E000F0B506460D461AB9104601F00041F0BDAE
:1016F000A2F2FF32002A05DA00294FF0000024DAB6
:101700001349F4E7C2F13402002AF0DD0123A2F10B
:101710002000C2F1200123FA01F103FA00F0934006
:1017200008435A1E4FEAD571A2FB012440F1FF374E
:1017300001FB0744921944EB05045B4260EB400552
:1017400004EA050102EA0300D1E70021CFE700BF68
:101750000000F0BF86B003B451FC0804CDE90201DB
:1017600051FC0904CDE9040151EC0A04CDE906015C
:1017700003BCF047BDE800504EEC00C4BDE800508B
:101780004EEC01C4BDE800504EEC02C400BD0000A8
:1017900000B5FFF7DFFF02E010FE30F4F8D441ECB3
:1017A000100443EC112400EE010410EE010480EE5D
:1017B000200451EC1004704700B5FFF7CBFF02E0A6
:1017C00010FE30F4F8D441EC100443EC112400EE88
:1017D000010410EE210480EE200451EC3004704727
:1017E00000B5FFF7B7FF02E010FE30F4F8D410B5F3
:1017F00041EC100443EC112451EC040453EC052497
:10180000A0FB024C5FF0000EE0FB03CEE1FB02CE3A
:101810004CEC20440024E1FB03E444EC30E480EE93
:10182000200451EC5004BDE81040704700B5FFF7AC
:1018300091FF02E010FE30F4F8D441EC100443ECC8
:10184000112451EC2104A0FB01126FEA820252FB29
:10185000100052FB12F252FB1000A0EBD07C53ECB4
:1018600004245CFB13F153EC1524A1FB022001FBC3
:10187000030053EC4424A2EB000050FB1CF24FEA9F
:10188000111312EB017043EBE27140EA515020EA70
:10189000915020F0070053EC7524A0FB023C53EC60
:1018A000752400FB03CC01FB02CC53EC0424ACEB0D
:1018B000824C40EA5C70A0F1010041EC400480EEF3
:1018C000200451EC7004704700B5FFF743FF02E0BD
:1018D00010FE30F4F8D441EC100480EE220410EE37
:1018E000B204704700B5FFF735FF02E010FE30F498
:1018F000F8D440EC700400EE010410EE210480EEF8
:10190000200451EC3004704700B5FFF723FF02E0DC
:1019100010FE30F4F8D440EC600400EE010410EE48
:10192000210480EE200451EC3004704700B5FFF72D
:1019300011FF02E010FE30F4F8D441EC800400EE18
:10194000010410EE010480EE400410EE1304704711
:1019500000B5FFF7FFFE02E010FE30F4F8D441ECD2
:10196000800400EE010410EE010480EE400410EE4D
:101970003304704700B5FFF7EDFE02E010FE30F4CF
:10198000F8D441EC100443EC112400EE010410EEF5
:101990003004C0F30070704700B5FFF7DBFE02E0D3
:1019A00010FE30F4F8D441EC100443EC112400EEA6
:1019B000010410EE3004C0F38070704700B5FFF7EB
:1019C000C9FE02E010FE30F4F8D443EC102441ECE0
:1019D000110400EE010410EE30F48CBF0120002051
:1019E000704700BF00B5FFF7B5FE02E010FE30F40F
:1019F000F8D443EC102441EC110400EE010410EE85
:101A000030F42CBF01200020704700BF00B5FFF765
:101A1000A1FE02E010FE30F4F8D441EC100443ECD7
:101A2000112400EE010410EE30F42CBF0120002040
:101A3000704700BF00B5FFF78DFE02E010FE30F4E6
:101A4000F8D441EC100443EC112400EE010410EE34
:101A500030F48CBF01200020704700BF0022002915
:101A600050DA404261EB4101C9B1B1FA81F30B3B5D
:101A700017D4D3F1200C30FA0CFC9840994051EA6D
:101A80000C011A44524202F2324201EB025141F07F
:101A9000004140F2FE739A4238BF704721E0114680
:101AA0007EE003F1210310FA03FCA3F1010301FA24
:101AB00003FCC3F1200320FA03F021FA03F140EA0A
:101AC0000C00A3EB020202F2324214D050F10000EB
:101AD00041EB025141F0004140F2FE739A4238BF9F
:101AE00070474FF00001A8BFC7F6F0714FF000003B
:101AF000704700217047EBD350F1000020F0010047
:101B0000E6E70022B9B1B1FA81F30B3B16D4D3F169
:101B1000200C30FA0CFC9840994051EA0C011A4410
:101B2000524202F2324201EB025140F2FE739A42FB
:101B300038BF704720E0114600F066B803F121037A
:101B400010FA03FCA3F1010301FA03FCC3F1200323
:101B500020FA03F021FA03F140EA0C00A3EB0202A1
:101B600002F2324212D050F1000041EB025140F239
:101B7000FE739A4238BF70474FF00001A8BFC7F606
:101B8000F0714FF00000704700217047EDD350F125
:101B9000000020F00100E8E7002880F23580404294
:101BA000B0FA80F30B3B11D4984001EB0302524290
:101BB00002F2124200EB025141F000414FF00000EE
:101BC00040F2FE739A4238BF704713E0C3F100033E
:101BD00030FA03FCC3F120029040A3EB010202F2B1
:101BE00012420CEB025141F0004140F2FE739A4266
:101BF00038BF70474FF00041A8BFCFF6F0714FF0EB
:101C0000000070470021704760B3B0FA80F30B3BCF
:101C10000FD4984001EB0302524202F2124200EB51
:101C200002514FF0000040F2FE739A4238BF7047F5
:101C300010E05B4230FA03FCC3F120029040A3EBBA
:101C4000010202F212420CEB025140F2FE739A4280
:101C500038BF70474FF00001A8BFC7F6F0714FF0D2
:101C600000007047002170470022A2F232425FEA72
:101C7000215CACF10103A1EB03515B0513F5800F6F
:101C800032D212EB535210D40B2A36DA9140D2F1F1
:101C9000200330FA03F319439040BCF1000FA8BFB2
:101CA0007047404261EB4101704720320EDD01FA7E
:101CB00002F3D2F12002D140D0401843BCF1000F12
:101CC000A8BF7047404261EB41017047524282F326
:101CD000050231FA02F00021BCF1000FA8BF7047E5
:101CE000404261EB4101704702D000200021704763
:101CF00050EA013118BF4FF0000C6FF0004101EBCA
:101D0000DC716FEAEC70704700000000000000001A
:101D100000000000DB60BE284A059193F4D5097FDE
:101D200070374D7D66A5D83610E4104FAFF224020F
:101D30004B1102EB830201F01F034FF001049C40A2
:101D4000A4FB0034D568A5FB0456956805FB046622
:101D5000E5FB0356556805FB03667047000000006D
:101D6000B0F1FF4F3ED2C1153ED04FF0010262F3F9
:101D7000DF5038BF400026A393EC034AAFF21C03A8
:101D800003EB104323F00703D3E9002300FB02F029
:101D900040EC103AFAEEC00A20EEA01A61F17E0182
:101DA00060EE811AC90521EE012A40F6FC3221EECF
:101DB000041AC5F6B90261EEA41A51FB12F122EE23
:101DC000052A03EE901A71EEC21AFAEEC53A31EE08
:101DD000611A70EEC10A30EE200A30EE230A10EECE
:101DE000100A704705DC0BD010F1FF4F09D310F536
:101DF000000F40F4800003D840F20000CFF6C0701E
:101E0000704740F20000CFF680707047AFF300805B
:101E10000000003FABAAAA3E0000803E0000000088
:101E20005501000001CB92BE48010000C3C87DBE31
:101E30003B010000685F54BE2F010000C7992CBE13
:101E4000250100002C3C0ABE1A0100002F1AC6BD55
:101E500011010000C2AC83BD08010000D814FCBC15
:101E60000001000000000000F8000000EC0A023D44
:101E7000F10000008E51773DEA0000009806B83D61
:101E8000E40000003B39ED3DDD000000088B163E0C
:101E9000D800000003FA2D3ED2000000D7D24A3EFF
:101EA000CD000000DE7F633EC8000000E3C87C3E3A
:101EB000C3000000E65A8B3EBF00000084F7953E49
:101EC000BA0000006E8CA33EB6000000EFADAE3E3F
:101ED000B2000000C40EBA3EAE000000CDB1C53E57
:101EE000AB0000005F99CE3E410201D150F00040AE
:101EF00050F480007047F0B5012363F3DF50C1F167
:101F000009014FF07E07FFF711FFB30F53F10003F4
:101F10009C44B6EB8376B20028BF5242B2F1805F98
:101F20000BD20231FFF702FF96EA260242F10002CD
:101F3000B2F1805F01D2023FF3D50A4CA2FB042428
:101F4000B4FA84F29440240AA7EB020244EBC25094
:101F5000C10DD1F17F01F60F00EBC673BDE8F04073
:101F600073E00000A2DA0FC911F1800FBCD030EA93
:101F7000CC7248BF0CF1020C20F0004000EE100AB9
:101F80000DA2F2EC032A22EE802A11F1080FB9FE0D
:101F9000422AB0DDA2EE630AA2EE430A10EE103A26
:101FA000FDEEC21AC3F3C752782AA4D3D2F17F013F
:101FB00011EE902A944448E083F9223F7A7795B64F
:101FC0000010C93F07B5C0F3C751FF2925D000F065
:101FD00032F8BDE80640CEF800000ED2C9438CEAC4
:101FE000D17C63EEA02AE1EE032A73EE622A12EEA0
:101FF000900A80EACC70106000BD8CEAD17C21EEA2
:10200000232AA3EE602A8CEAD37133EEC22A12EEA1
:10201000100A80EAC170106000BD4102BDE80E40A8
:1020200001D150F0004050F48000106018607047FB
:102030005FF0000C01E05FF0010CC0F3C751A1B3E9
:10204000D1F17F0190D920EACC7323F0004000EE5B
:10205000100AC0F38440203030FA01F1834A51F174
:102060000001B2EC024A02EB810202EBC102D2ECA7
:10207000032A70EE620A20EEA01A5FEA5C0C61EEA1
:10208000201A15D221EE041A61EEA41A70EEE10AAC
:1020900021EE232AA3EE602A8CEAD37133EEC22A02
:1020A00012EE100A80EAC170704700F00040C7E7E6
:1020B00061EEA41A70EEE10A21EE041A63EEA02A82
:1020C000E1EE032A73EE622A12EE900A80EACC70E7
:1020D000704700BFAFF30080C1FEFF3E25AA2A3E35
:1020E000000000000000803F0000000061C9FC3CCF
:1020F000CDE07F3F1CBFFC3C7605813DFE7D7F3FF0
:102100009EEF803D090CBF3D0FE37E3F22C5BE3DE3
:10211000B624FF3D14047E3FE27BFE3D13071F3EC5
:1021200048EB7C3FA0631E3E6D30403E1D817B3FEF
:1021300015103F3EA2AD603ECFDC793F3EE15E3EF2
:102140007B0D803EFA08783F96717D3E6E988F3EFB
:1021500065FF753F68B88D3EF4E19F3E939E733FE7
:10216000FD4B9D3EC654B03EAEF7703FB3DDAC3E76
:10217000C589BF3E604B6E3F0A1ABB3E26C4CF3EA8
:10218000CA356B3F631CCA3EF254E03E66D1673FDE
:102190000739D93EDDF0EF3E4B66643F1641E73E1E
:1021A000312B003F8894603F0FC3F53E07E4073FA3
:1021B000A2C55C3F2B99013FC51F103F8F7D583F43
:1021C00065A1083F8AF6173FB534543FCA310F3F27
:1021D000E2FF1F3F599B4F3FD7C8153F4606283F98
:1021E0006BCF4A3FC4371C3F4130303FE0B9453FD9
:1021F000E49A223FA71D383FCA98403F20A6283FB7
:102200002FC73F3FAC763B3F4A562E3FDB13483F3C
:10221000CCB6353F6B52343F79C74F3F2F35303FF7
:10222000D0B4393F52DD573F70412A3F912D3F3F97
:1022300026CE5F3F9F3E243FC35D443FF125683F6C
:1022400050C21D3F1C9D493FE13B703F4150173F2D
:10225000BF7E4E3F7810783F71ED103FAF06533F81
:10226000D4F47F3FA75A0A3F9B64573FD820001001
:102270009A4238BF8854704770472DE9F84F984606
:10228000DDE90B490D9B15469A0706460F4623D0FC
:102290002A460A9B03EB040A1444A24220D10D9B58
:1022A0009B0705D5A2EB050AD14505EB0A0420D80A
:1022B0002046BDE8F88F434639462020B0470AF152
:1022C000010ACA450AEB0B02F5D3A9EB04024C45FF
:1022D00088BF00222A44DCE7A246A5EB040BF0E706
:1022E00002F1010B434639461AF8010DB0475A4630
:1022F000D3E74346224639462020B0470AF1010A77
:10230000D2E72DE9F047DDE90D7616F0020F9DF8D2
:102310002880DDE90854DDE90BCE1FD106F0010964
:102320004FB1B9F1000F06D0B8F1000F02D116F08D
:102330000C0F00D0013F4FF0300A02E005F804A076
:102340000134A64501D9202CF8D1B9F1000F05D0F0
:102350004FF03009BC4201D2202C2DD116F0100FC5
:102360001FD016F4806F2CD15CB3744501D0BC42F1
:1023700027D1B4F1010E23D0BCF1100F46D1023C9D
:1023800016F0200F28D1202C28D04FF0780C05F81B
:1023900004C00134202C21D04FF0300C05F804C0CB
:1023A0000134202C1AD0B8F1000F23D04FF02D0C9F
:1023B00005F804C0013412E005F804900134C9E7BF
:1023C0007446BCF1100FDBD0BCF1020FE2D1202C1F
:1023D00004D04FF0620CDAE7202C08D12024CDE99C
:1023E0000A76CDE90854BDE8F047FFF746BF4FF045
:1023F000580CCCE716F0040F02D04FF02B0CD7E7A7
:1024000016F0080FEBD04FF0200CD1E7BCF1020F13
:102410007446C1D1DDE72DE9F04391B0189D1A9EB5
:102420001D9F0DB927F010077C0500D515B317F0D7
:10243000200F14BF4FF0410E4FF0610EAC46002547
:102440000DF12008AEF10A0EBCFBF6F906FB19C926
:102450005FFA89F4B9F1090F94BF30347444E4B2DF
:10246000B44508F8014B05F10105BCFBF6F401D3B6
:10247000202D10D11C9C069705941B9CCDE903646C
:102480009DF86440CDE9015408AC0094FFF739FF92
:1024900011B0BDE8F083A446D6E72DE9F04F95B022
:1024A000269ECDE90A23DDE91E74DDE9229B57EA69
:1024B000040308BF26F010067205CDE9080102D515
:1024C00057EA040337D016F0200F14BF41236123CD
:1024D00000250DF1300AA3F10A0821464A465B4661
:1024E00038460FF0A9FFD2B2092A94BF30324244D5
:1024F0004F45D2B274EB0B0405F101050AF8012B2C
:1025000001D3202D14D1259B06960593249BDDE94C
:102510000801CDE903939DF88030CDE901530CAB60
:102520000093DDE90A23FFF7ECFE15B0BDE8F08F5C
:1025300007460C46D1E70025E5E700000000000053
:102540002DE9F04F93B09DED1C7BCDE90C32DDE918
:102550001E630E9353EC172BCDE908011046194664
:102560008DED067B209DFFF709FA80B9DDE90601B4
:102570004FF0FF320E4BFFF761FA40B9DDE906017B
:102580004FF0FF326FF48013FFF71CFA90B1DDE9D2
:1025900008019DED067B0E9B8DED1C7BCDE91E6336
:1025A000DDE90C32209513B0BDE8F04F00F090B992
:1025B000FFFFEF7F0022DDE906010023FFF702FAAB
:1025C000002800F04581DDE906A303F1004B15F476
:1025D000806308BF06260F935AEA0B03D046D946FC
:1025E00000F03981CBF30A50A0F2FF30FFF77EF9FB
:1025F000B3A3D3E90023FFF7F7F8B3A3D3E900238C
:10260000FFF7CAF8CBF31303CDE90A0143F07F517A
:102610000022A54B504641F44011FFF7D1F896A394
:10262000D3E90023FFF7E0F802460B46DDE90A0193
:10263000FFF7B2F8FFF77EF90446FFF757F990A3CA
:10264000D3E9002380468946FFF7CEF80022974B56
:10265000FFF7A2F8FFF76EF98BA3D3E90023074633
:1026600049464046FFF7C0F8804638468946FFF79E
:102670003DF987A3D3E90023FFF7B6F802460B46DE
:1026800040464946FFF79CF802460B46CDE90A232F
:10269000FFF7AAF8DDE90A23804689461046194665
:1026A000FFF77AF80022CDE91001814B40464946F8
:1026B000FFF7C0F800227F4BFFF76EF802460B468B
:1026C00040464946FFF7B6F800227B4BFFF764F817
:1026D00002460B4640464946FFF7ACF8DDE90A23BF
:1026E0008046894600204FF08041FFF769F8024696
:1026F0000B4640464946FFF74FF802460B46DDE9D8
:102700001001FFF797F807F2FF3700226B4BFFF736
:1027100043F800223B05FFF767F852465B468046C8
:102720008946FFF78BF940B1404649460022614B8C
:10273000FFF780F880468946013C04F16303C62B0D
:102740008CBF05270427290521D558EA090311D094
:1027500051A3D3E9002350465946FFF75BF90028FF
:102760007CD04FA3D3E9002350465946FFF72AF9FE
:10277000002873D0A642D8BF00244FF00007C4BF82
:10278000341B04F1FF3426463C4645F480650E9B1D
:102790009F422CBF0023DB1B0A9315F002030F930B
:1027A00004D0002F0A9B18BF00230A933CB1504667
:1027B000594642464B46FFF73DF882468B46DDE9D7
:1027C000060100220023FFF7FDF810B10BF10043D2
:1027D0009B46DDE9080125F4006304930A9BCDE9DB
:1027E00000ABCDE90263DDE90C3200F071F802467E
:1027F00057B315F0200F0C9B00F1010509990CBF90
:1028000065204520089EB047DDE908010523002228
:1028100005930A23002CCDE9023207F1FF374FEA76
:10282000D473B8BF64422A46019304970C9B00946A
:10283000FFF7F1FD0F9B024633B10D9BC41A0D9BB0
:102840001A190E9BA34210D8104613B0BDE8F08FA2
:10285000DDE906ABBBE60024042774E7002E96D022
:102860000F9B002B93D0013E91E720200C9B0999F0
:10287000089DA8470134E2E761436F63A787D23F11
:1028800071A379094F930A401655B5BBB16B02404D
:10289000EF39FAFE422EE63F2D431CEBE2361A3F9B
:1028A0000000000080842E410000F83F0000E03F5F
:1028B00000002C4000002440000018400000F03FC1
:1028C000FB799F501344D33FB3C8608B288AC63F1F
:1028D0002DE9F04F97B0DDE920ABCDE90501DDE949
:1028E0002247CDE90723504652465B465946249E6F
:1028F000FFF744F870B10323CDE922762193AE4B64
:102900002093DDE90501DDE9072317B0BDE8F04FAD
:10291000FFF7B3BC4FF0FF326FF4801350465946B7
:10292000FFF750F828B10423CDE922762193A34B79
:10293000E6E74FF0FF3250465946A14BFFF77EF8CD
:1029400050B170074CBF04220322CDE922764CBF60
:102950009C4B9D4B2192D3E7504693A3D3E9002390
:102960005946FFF76BF838B991A3D3E900235046D5
:102970005946FFF727F868B1DDE90723DDE90501CE
:10298000CDE92376CDE920AB229417B0BDE8F04F16
:10299000FFF7D6BD0022002350465946FFF712F834
:1029A000B8B15B46524600200021FEF709FF012323
:1029B00082468B46099316F4806F08BF06243021A7
:1029C00023460EAAA4F12009092B04D89946E41A3B
:1029D00007E00990EFE7013B4B4502F8011BF3D1FB
:1029E000202459465046FEF7A5FF784B054603EBD9
:1029F000C90393ED007B8DED0A7BFEF777FF02465E
:102A00000B4650465946FEF7DBFEDDE90A23FEF78A
:102A1000EBFE02460B46CDE90C23FEF79DFF8046F8
:102A2000FEF776FF02460B46DDE90C01FEF7C8FE15
:102A300002460B46CDE90C230022654BFEF7FEFF54
:102A4000C8B108F101084046FEF762FF02460B4696
:102A5000DDE90A01FEF7CAFF10B14FF000080135A9
:102A6000B9F1000F18D00A210EAB2344202C4BD112
:102A70003022A1445CE00022DDE90C01544BFEF75A
:102A8000A1FF0028ECD1B8F1000F02D018F0010F1F
:102A9000E6D008F10108E3E72846FEF727FF0246E3
:102AA0000B4650465946FEF78BFE0022484B8046A7
:102AB0008946FEF787FF48B9002240464946444B05
:102AC000FEF7BCFF10B9013525F001050A210EAB58
:102AD0001A19202C0AD095FBF1F001FB1055303566
:102AE00002F8015B013405460028F2D106F003022A
:102AF000012A3FD1002F3DD0099A12B916F00C0FD0
:102B000000D0013F302224E0B8FBF1F001FB10823D
:102B1000B8F1090F02F1300209F1FF3904F10104A3
:102B200003F8012BA4D98046A0E70EA90A551C463C
:102B3000202CCBD04C4504F10103F6D104F158020E
:102B40000DEB02042E2204F8202C1C46BEE71A5579
:102B50000134A7420ED9202CF9D1CDE90034DDE9AA
:102B60000501DDE90723CDE90276FFF786FB17B003
:102B7000BDE8F08F202CF0D0099A3AB12D2104F154
:102B800058026A4402F8201C0134E6E7710704D5B4
:102B900004F158022B216A44F4E73207DDD504F131
:102BA000580220216A44EDE70000000065CDCD41C8
:102BB0000000000065CDCDC1C23C0110C63C011033
:102BC000FFFFEF7FB93C0110BE3C0110206A0110ED
:102BD0000000E03F08B100F044BC70472DE9F04F21
:102BE00090469B46AF4AB04B91B01A600B1E0A93B9
:102BF000AE4B14BF8146994600251A9E9BF80000F3
:102C000070B9454538BF2A4643464FF000000A993F
:102C100028BF08F1FF32C847284611B0BDE8F08F41
:102C200025280BF1010B06D02A4643460A996C1C55
:102C3000C8472546E2E700230CE02D2A1FD0302AA2
:102C400005D0A2F1300009280ED8002729E043F072
:102C500001038B46594611F8012B2B2A12D0ECD8D0
:102C6000202A12D0232A13D02A2A33D156F8047BE3
:102C70008B46002FBCBF43F002037F4218E043F0B5
:102C80000203E6E743F00403E3E743F00803E0E769
:102C900043F01003DDE70A208B4600FB0722A2F178
:102CA0003007594611F8012BA2F130000928F2D95A
:102CB0009BF800202E2A44D19BF801100BF1010251
:102CC000A1F13000092843F4806331D800244FF08B
:102CD0000A0C06E00027EBE702460CFB0411A1F109
:102CE0003004104610F8011BA1F1300EBEF1090F9F
:102CF000F2D9114611F8010B6C282CD024D8682881
:102D000030D06A2837D011468B461BF8010B672854
:102D10005CD8572832D8452807D085D9462800F0F6
:102D2000E980472880D143F4006343F02003F7E0B3
:102D30002A2907D156F8044B0BF1020224EAE47465
:102D4000D7E75A460024D4E7742801D07A28DAD18C
:102D500043F48073D8E750786C28F9D143F440737A
:102D6000911CD1E75078682802D043F08003CBE76C
:102D700043F0C003F4E743F40073C5E7A0F1580241
:102D80000F2A3FF651AF01A151F822F0232E001077
:102D9000292C0010292C0010292C0010292C00109F
:102DA000292C0010292C0010292C0010292C00108F
:102DB000292C0010232E0010492F0010232E001064
:102DC0001D2F0010F92E00101D2F0010A0F1690119
:102DD000C9B20F293FF628AF012249F2410C8A40BF
:102DE00012EA0C0218D10A2900F0EA8007297FF4C0
:102DF0001BAF43F0210305930823CDE903431023C0
:102E0000CDE9012356F8043B2A4600934846434641
:102E10000A99FFF700FB7FE06F2840F03581082218
:102E20000BE0582810D0622800F02C8123F010030A
:102E300064284FF00A0200F02F8123F00C032BE1ED
:102E40007828F3D11022F8E743F02003FAE7D905F8
:102E500006F1040A01D5316802E058060CD5317834
:102E6000CDE90224CDE9047300294FEAD17301931F
:102E7000B8BF4942009126E01906ECD5B6F900101A
:102E8000EEE7A9B1CDE907730023CDE9042306F1EC
:102E9000070A2AF0070A06940293FAE80223CDE90A
:102EA00000231EE1DD2B00103814002079220010D1
:102EB000D80506F1040A0DD5CDE90473CDE9022445
:102EC00001913368009343462A4648460A99FFF722
:102ED000A2FA0CE1590607D53178CDE90473002335
:102EE000CDE902240193C5E7316813F0800F18BFC4
:102EF00089B2F2E743F02003CDE90373073626F0E9
:102F000007060294F6E802234846CDE900230A9911
:102F100043462A46FFF7DCFC05466FE6672810D0DB
:102F2000CDE90373073626F007060294F6E802237C
:102F30004846CDE900230A9943462A46FFF700FB9D
:102F4000EAE743F40063EBE713F0020423D04FF009
:102F5000010A6B1C0B932A4643460A9916F8040B88
:102F6000C8475CB354460B9A1EE0434620200A999A
:102F7000C84705EB0A020AF1010A5745F5D8002FA8
:102F800007F1FF3308BF002307F1010A1D4408BF02
:102F90004FF0020ADDE7A246EBE7551C434620202E
:102FA0000A99C8472A460134A742F6D8A7EB0A0374
:102FB000574538BF00230B9A1A440B920B9D1DE610
:102FC0003246002C52F8046B14BF21464FF0FF31FB
:102FD0000B9232463144107808B1914211D1A2EBE4
:102FE000060A13F480620D9202D0A24528BFA246C1
:102FF00013F002030E931BD1AAEB05032A460C9390
:1030000008E00132E7E7531C0F93202043460A995A
:10301000C8470F9A0C9BD318BB42F4D3A7EB0A0303
:10302000574538BF00230AF1010202EB030A1D4491
:10303000AB1B0C9304E01C4643462A460A99C8473A
:103040000C9B9D1916F8010B28B10D9B002BF3D09A
:10305000631E002CEFD10E9B93B12A46AAEB050408
:1030600005E0561C434620200A99C84732461319EA
:103070009F42F6D8A7EB0A03574538BF00231D44EB
:103080000B9EBBE50222D8E63FF6DAAE692823F0B4
:1030900010037FF4CDAE0A22590548BF23F0010387
:1030A000692803F4007102D064287FF4EAAE002995
:1030B0003FF4CDAE073626F00706B24670685AF8E0
:1030C000081BCDE9077300230593C30F0028029363
:1030D00006940B46049202DA4B4260EB4000CDE9C5
:1030E000003043462A4648460A99FFF7D6F9054676
:1030F000564683E507B5009313460A460146034842
:10310000FFF76CFD03B05DF804FB00BF71220010F7
:103110001FB5084A0346146844B100914FF0FF32CE
:10312000054803A9A047012004B010BD00F0A7F98D
:103130002046F9E738140020D52B00100FB407B54E
:1031400004A951F8040B0191FFF7E2FF03B05DF809
:1031500004EB04B0704700BEFDE70000064A0346DA
:10316000106808B905481060054903448B4294BFB4
:1031700013604FF0FF30704734140020A414002077
:1031800000000820002070474FF0FF30704700001B
:1031900003460846114623B9034BD3E9002300F048
:1031A000FFB84FF0FF307047C06901100346013B84
:1031B000012B10B50846144606D8012300222146EB
:1031C00000F0AAF8204610BD4FF0FF34FAE74FF0A8
:1031D000FF3070474FF0FF3070474FF0FF307047BF
:1031E00002288CBF00200120704708B5FFF7B3FF0D
:1031F0000C4607B5194652B1064BCDE900320246DE
:1032000023460548FFF79AFF0120FFF7A4FF034B71
:103210001A46F2E7CB3C0110D83C0110625B01106A
:1032200038B5FEF72DF9044C044DAC4200D338BD3F
:1032300054F8043B9847F8E7982401109C240110A7
:10324000034608461B68114618470000437D2DE9D8
:10325000F04104460D461646A3B101F1FF380021A6
:1032600008468E4214DC86422EDD311A236828443B
:103270009847354415F8013CA3F10D0253425341E0
:10328000237523E0036811462846BDE8F04118473E
:10329000C1B198F80030A3F10D077B427B4118F8CB
:1032A000012F4F1C0A2A0BD153B9814203DD091AA1
:1032B00023682844984706480221236898473846DF
:1032C0003946CEE7237DEAE7002ED2DCBDE8F08167
:1032D000706A011010B5FDF74BFF0A4A82184FF0D3
:1032E000FF3041F100036FF00041904271EB0304A5
:1032F00038BF0246BDE8104038BF0B4602480FF009
:10330000A3B800BF40420F00F010002001480FF0AA
:1033100097B800BFF01000202DE9F74F0C461D466E
:1033200007469146FFF7D6FF631C804603D1384617
:103330000DF0B8F804464FF00A0B154B154EDFF8A8
:103340005CA0002D18BF1E46134B1D6845B9B8F18F
:10335000000F01D0FFF7DAFF204603B0BDE8F08F81
:103360002B6893B1DAF800300BB1AB420DD1224695
:1033700039462846B047B9F1000F06D00122284649
:103380000DF107018DF807B0B0472D69DEE700BFEA
:103390004D3200104132001028140020301400205B
:1033A0002DE9F04705460E4617461C46DFF85C80BF
:1033B000DFF85C90D8F800A0BAF1000F0DD1124AE6
:1033C000536A9C4204D8926ABA4219D29C4217D1DD
:1033D00001200021FDF7D2FEECE7D9F8003023B13F
:1033E000534502D0DAF810A0E6E7DAF80830002BEF
:1033F000F8D03146284698470028F3DDBDE8F0872D
:103400006FF00100FAE700BF00000B402814002015
:1034100030140020094B1A6812B901B118607047C6
:103420001A68824205D10029F9D102691A60016146
:10343000704702F110031269EEE700BF2814002064
:10344000044B10B51C6804B910BD636803B19847FC
:103450002469F8E72814002008B500F0E7F80120F7
:1034600008BD012313B504468DF807000022194654
:103470000DF10700FFF750FF204602B010BD38B530
:1034800005460DF00FF80123044601461A4628466A
:10349000FFF742FFFFF7D4FF204638BD054B1B68FE
:1034A00033B10021044A12689163044A1068184736
:1034B000704700BFF813002078140020FC13002090
:1034C000024B1A6893691B07FCD4704778140020DC
:1034D000F8B5184F184D3B68184EAB4214BF212564
:1034E000222504463268B0B1A2B9154B306019608C
:1034F00028461449FDF7B6F901212846FDF784F95D
:1035000050223B689A6353F8342F02F0380203F5D7
:1035100080531A60F8BD002AFCD098630146284603
:10352000FDF772F928460749FDF7C2F9044B3460EC
:103530001C60EFE77814002000800740F81300209B
:10354000FC1300209D340010002210B50F4B1B68A7
:103550008A4202DA9C69E40611D50D49096841B135
:103560005021996353F8341F01F0380103F580535B
:103570001960002A14BF10466FF0020010BD9C694C
:10358000E406FCD41C6884540132E1E7781400207E
:10359000F81300200F4BF0B51B680F4C0D271A1BBA
:1035A0005442544100220D4E8A4200DBF0BD855C3E
:1035B00036F914C0AC4505D1D3F818C01CF0200F63
:1035C000FAD11F60D3F818C01CF0200FFAD11D608B
:1035D0000132E9E778140020008007407C140020C5
:1035E00070B5104E0D463060101E1C4606DB10F004
:1035F000020F0CBF02210B21FDF74EF8002C07DB58
:1036000014F0020F0CBF02210B212046FDF744F8F5
:1036100029463068FDF70EFEBDE8704001210248E2
:10362000FFF7F8BE78140020040A0020064B0022A1
:103630001B78064B4FF4E1311B78054B05481B788E
:103640000123FFF7CDBF00BF2875011024750110BD
:1036500020750110000007404821836B18472DE9B1
:10366000F04FD1E90359C6688E4B04461A683046BC
:103670009DB08A4602F023FF074640B98A4B00936B
:10368000412365692046894A8949A8473FE0894B1B
:10369000514630461A6802F012FF804620B9864B28
:1036A000009365694423EDE7844B51461A68304620
:1036B00002F005FF824B514605901A68304602F031
:1036C00013FF824620B97F4B009365694923D9E7F0
:1036D0003B7F027F93420CD0CDE902327A4B0193BB
:1036E0007A4B00934B2365692046704A7849A84776
:1036F0000DE05A1ED2B2082A05D840F2411121FA33
:1037000002F2D10706D463697249204698474FF008
:10371000010997E0012B98F81C2004D1012A08D058
:1037200063696D49F1E7072B01D1092AF7E7122AEE
:10373000FBD141460EA802F027FA514615A802F027
:1037400023FA0E9B1CAA02EB8303DDF854B053F856
:10375000382C01230BF1FF3C1CA901EB8C0151F823
:10376000180C0021CDE9073306922A64099015AAA6
:103770008B4523DCEB634FF0FF33C5E90C33059B2E
:1037800099F8001068643A7F2046CDE90083CDE9BE
:1037900002A53B4602F040FA8146002852D195F836
:1037A0002C303A7FABB1092A03D198F81C20122A99
:1037B0004CD14A4B00936569742363E78C450CBF79
:1037C0004FF0010ED2F804E001310EFB03F3043296
:1037D000CEE7072A23D1FA6842B1CDE90223404B54
:1037E0000193404B009365697C237DE7DAF80C3048
:1037F00043B1CDE902323A4B01933B4B00936569EB
:103800007D2371E706A804F08DFB002809DD014641
:10381000236C204605F13402984710B129E0092AAB
:1038200014D03368514630469B699847336839460F
:1038300030469B699847336841469B6930469847B4
:10384000059B4BBB48461DB0BDE8F08F98F81C2087
:10385000122AE6D0BBF1020F18DD2A6C920715D1AF
:103860004BB9696C2046236C05F13002C9009847BA
:1038700008B18146E6E7EB6B0AA80A930123CDE97C
:103880000B332B6C0D9304F0BDFABEE706A804F0D1
:1038900054FB0023AB63B8E7336830469B69059956
:1038A0009847CFE7FC6A0110B33D0110323D01108B
:1038B0009C3D0110F86A0110C43D0110F46A01102A
:1038C000F06A0110D63D0110023E0110B54D011005
:1038D000E83D01100F3E0110973E0110323F0110EC
:1038E000A34D0110C33F0110DC3F01102DE9F04F43
:1038F0000C46B3B0DDE93C7A0546514621A8914615
:10390000984602F097FA2368226C0A936368CDE91F
:1039100014220B930123626CCDE91233CDE91633E7
:10392000CDE91823CDE91A33CDE91E330023E16B2D
:10393000CDE90C33CDE91C211191616B219E994297
:10394000209203DB28466B6C98470C9007B13F68C8
:103950006369022ED4F81CE094F82C10C3F1000324
:10396000D4E902C069DD266C16F0030665D1012298
:10397000CDE9283ECDE92E22CDE92A22CDE92C66DB
:10398000CDE930C0002944D0636A0E93A36A0F9337
:103990000DF1740BDAF80030CDE9047B19AE069313
:1039A0000396D8F8003015AC02930194D9F8003092
:1039B0000EAA009328A911AB0CA804F0DCF900288A
:1039C00000F096806B690EAA0993DAF80030CDE911
:1039D0000367CDE905B3D8F8003028A9CDE9014344
:1039E000D9F800300CA8009311AB04F0C4F90023FF
:1039F000CDE902033F4B01933F4B00934FF4A1737A
:103A000028463E4A3E49099CA047012033B0BDE804
:103A1000F08F6B6C2846216B9847636C0E9000EB1F
:103A200083030F93626C9642B2DA0A9A40F826201A
:103A30000B9A43F826200136F4E7A269CDE92BC0A2
:103A40005242CDE9292E2893109100293FD0616A76
:103A50000E91A16A0F91A16B00293CD00C910DF140
:103A6000740BDAF80030CDE9047B19AE06930396A7
:103A7000D8F8003015AC02930194D9F800300EAAA2
:103A8000009328A911AB0CA804F0C1FA00282FD08C
:103A90006B690EAA0993DAF80030CDE90367CDE926
:103AA00005B3D8F8003028A9CDE90143D9F8003092
:103AB0000CA8009311AB04F0AAFA0023CDE902038D
:103AC0000C4B01930F4B00934FF4B47398E70AA982
:103AD0000E910BA9BEE70C980028C0D0CDE90127B4
:103AE0000093D8F80030626C159904F0BFFAB6E77D
:103AF00000208BE7F63F01100B400110323D011012
:103B0000E83D01101D4101101A4B2DE9F3411A68DF
:103B100004460D4602F07DF9174B06461A68294601
:103B2000204602F076F9154B29461A6807462046CA
:103B300002F06FF9124B80461A682946204602F0BF
:103B40006AF90346307A09280AD001F0B5FF327AC3
:103B500001460C4803F0BCFB012002B0BDE8F08137
:103B6000CDE9008332463B462046E968FFF7BEFEBA
:103B7000F3E700BFFC6A0110F86A0110F46A011053
:103B8000F06A0110354401102DE9F04F88461F46B8
:103B90000B68A5B00B934B681646DDE92E5A0C93C3
:103BA0000123D8F84020CDE91033CDE91222D8F80E
:103BB0004420CDE91433CDE91623CDE91833CDE9FE
:103BC0001C330023C96B0446CDE91A210F91D8F8A4
:103BD0003410CDE90D3399421E9202DB436C9847B5
:103BE0000D9005B12D684FF0000BD8F814300DF191
:103BF0006C095B421F93D8F81C300BAA2193D8F8AC
:103C000008301FA92293D8F80C300DF15C082393DB
:103C1000DAF80030CDE904590693CDF80C803B6802
:103C20000DA8029313AB01933368CDF880B00093D5
:103C30000FAB04F085F908B363690BAA0993DAF8AE
:103C40000030CDE90385CDE905933B681FA90293B8
:103C500013AB019333680DA800930FAB04F070F918
:103C6000084BCDE9020B0193074B20460093074A0E
:103C70004FF4C7730649099CA047012025B0BDE851
:103C8000F08F00BFF63F011027420110323D0110B6
:103C9000E83D01101A4B2DE9F3411A6804460D4620
:103CA00002F0B7F8174B06461A682946204602F07C
:103CB000B0F8154B29461A680746204602F0A9F8C5
:103CC000124B80461A682946204602F0A4F80346A3
:103CD000307A07280AD001F0EFFE327A01460C480C
:103CE00003F0F6FA012002B0BDE8F081CDE90083CF
:103CF00032463B462046E968FFF746FFF3E700BF40
:103D0000FC6A0110F86A0110F46A0110F06A0110EF
:103D1000354401102DE9F04F8946ABB0DDE9345848
:103D20000446414623A816461F4602F083F8D9F8F8
:103D30000030D9F840200A93D9F80430CDE9112297
:103D40000B930123D9F84420CDE90F33CDE9133388
:103D5000CDE91523CDE91733CDE91B330023D9F87D
:103D60003C10CDE90C33CDE919210E91D9F834106E
:103D70001D92994203DB2046636C98470C9005B175
:103D80002D684FF0000BD9F814300DF1680A5B4232
:103D90001E93D9F81C300AAA2093D9F808301EA91E
:103DA0002193D9F80C300DF158092293D8F800303E
:103DB000CDE9045A0693CDF80C903B680CA8029309
:103DC00012AB01933368CDF87CB000930EAB04F0D6
:103DD000EFF800B363690AAA0993D8F80030CDE977
:103DE0000395CDE905A33B681EA9029312AB01938D
:103DF00033680CA800930EAB04F0DAF8074BCDE95A
:103E0000020B0193064B20460093064AFF23064906
:103E1000099CA04701202BB0BDE8F08FF63F0110B0
:103E20002C430110323D0110E83D01101B4B2DE9E0
:103E3000F3411A6804460D4601F0EBFF184B0646A5
:103E40001A682946204601F0E4FF164B29461A68F5
:103E50000746204601F0DDFF134B80461A682946CD
:103E6000204601F0D8FF0346307A09280DD03A7A6F
:103E7000122A0AD001F020FE327A01460B4803F0E4
:103E800027FA012002B0BDE8F081CDE90083324677
:103E90003B462046E968FFF73DFFF3E7FC6A011067
:103EA000F86A0110F46A0110F06A0110354401103B
:103EB0002DE9F04F754BADB01A6888460546D1F82C
:103EC00010A001F0A6FF724B04461A68414628462E
:103ED00001F09FFF6F4B41461A680646284601F0E5
:103EE00098FF6D4B414607461A68284601F093FF3C
:103EF0008146207AD8F80C10072800F0B8800928ED
:103F000000F09780012840F0BA80002F4CD03D6827
:103F10009AF8001022A801F064FE214606A801F0DC
:103F200089FF236831460DA8039301F083FF3368AE
:103F3000394614A8049301F07DFF49461BA801F0FF
:103F400079FF9DED297ADDED2A6A00204FF0010C02
:103F5000D9F800301B9C0D9A0593611E1BAB84425F
:103F600024DC2CA82CAB03EB820300EB810153F87B
:103F7000800C51F8403CDFED495A9842A8BF1846E2
:103F80002CAB03EB820200231C461F4652F87C6CCC
:103F90000290674549DA0021059A02EB8409039AE9
:103FA00002EB83080A462CE03D46B1E781420CBF94
:103FB00001265E68013006FB0CFC0433CFE7BAEC47
:103FC000015ABBEC016AE5EE067A0EF1010E764568
:103FD000F5DC15B305EB820E9EED006A77EE867A6E
:103FE000B4EEE77AF1EE10FA77FE277AF4EEE76A9C
:103FF000F1EE10FA48BFF0EE667AE9EC017A013290
:104000003144029890420BDD0498C2464FF0000EF6
:10401000DFED227A00EB810BD9E7B0EE656ADDE7D0
:10402000029A013714443344B3E700202DB0BDE8B1
:10403000F08F307A092809D012280FD13346224652
:104040002846CDE90079FFF765FEEFE733462246C3
:104050002846CDE90079FFF749FCE7E701F02CFDA0
:10406000327A01460E4803F033F90120DEE7334689
:1040700022462846CDE90079FFF786FDD6E701F014
:104080001BFD227A01460748EDE700BFFC6A0110DC
:10409000F86A0110F46A0110F06A011000000000D3
:1040A0002E44011035440110002313B50446CDE918
:1040B0000033044A044B054901F086FE204602B055
:1040C00010BD00BF5F360010B13E00105936001021
:1040D000002313B50446CDE90033044A044B0549D7
:1040E00001F072FE204602B010BD00BF5F36001026
:1040F0002D3E001059360010002313B50446CDE9BB
:104100000033044A044B054901F05EFE204602B02C
:1041100010BD00BF5F360010093B0010593600107B
:10412000002313B50446CDE90033044A044B054986
:1041300001F04AFE204602B010BD00BF5F360010FD
:10414000953C00105936001010B504460022024973
:1041500001F046FE204610BDB13E001020B1431EC6
:1041600058425841400070470120704770B50646DC
:1041700014461846049A21B90B4904F0B6FF0120F1
:1041800070BD0D68B5EB960F06D8221F01EB8505B3
:10419000A94203D10020F3E70449EEE751F8043FB8
:1041A00042F8043FF4E700BF514401107F4401107E
:1041B000F8B5064614461846069A21B90B4904F08C
:1041C00094FF0120F8BD0D68B5EBD60F07D8224645
:1041D000043904EBC505AA4203D10020F2E70449E3
:1041E000EDE7F1E90267E2E80267F4E75144011004
:1041F0007F44011073B5054608461146094A1E461C
:104200002B6800921B6802464020FFF7D1FF04464E
:1042100028B12B6832460449186804F066FF20462E
:1042200002B070BDC0440110CE4401102DE9F34D21
:10423000DDE90CAB0E46DDE90A8507461446194652
:104240009BB11B688BB102681068D5B9114B32461F
:10425000009303462046FFF7ABFF58B13B68424648
:104260000D49186804F041FF12E024F007043444BB
:10427000B44203D1002002B0BDE8F08DE6E802AB05
:10428000F6E79D42E2D042460449009504F02DFF36
:104290000120F0E7E8440110CE4401100045011070
:1042A00003685B68184708B503461046142B38D8D6
:1042B000DFE803F0110B191D21252715291F132BEA
:1042C000232D2F1B17310F3335000A2300200B70CD
:1042D00008BD1323FAE70123F8E70B23F6E70723CA
:1042E000F4E71123F2E70223F0E71023EEE70323BC
:1042F000ECE70923EAE70423E8E70D23E6E70523D3
:10430000E4E70623E2E70823E0E70C23DEE70E23D9
:10431000DCE70F23DAE71223D8E71423D6E71523C7
:10432000D4E700220A701A46024904F0DEFE01209A
:10433000CEE700BF5C4501100020704700207047A9
:104340000020704700207047002070470020704711
:104350000020704700207047002070470020704701
:1043600000207047002070470020704700207047F1
:1043700000207047002070470020704700207047E1
:1043800000207047002070470020704700207047D1
:1043900000207047002070470020704700207047C1
:1043A00000207047002070470020704700207047B1
:1043B00000207047002070470020704700207047A1
:1043C0000020704700207047002070470020704791
:1043D0000020704700207047002070470020704781
:1043E0000020704700207047002070470020704771
:1043F0000020704700207047002070470020704761
:104400000020704700207047002070470020704750
:104410000020704700207047002070470020704740
:10442000002070470020704708B51046024904F08C
:104430005CFE012008BD00BF80450110F8B50546AF
:104440001E461046136804221B6811469847002731
:1044500004460760284601F0C5FA672808D12846B7
:1044600001F09AFA20B13A46042101F0A9FA20603D
:1044700000203460F8BDF8B505461E4610461368A6
:1044800004221B6811469847002704460760284607
:1044900001F0A8FA5E2808D1284601F07DFA20B183
:1044A0003A46042101F08CFA206000203460F8BD07
:1044B000F8B51F4613680546082110461B680422FC
:1044C000984700260446C0E90066284601F08AFAAB
:1044D00017280FD1284601F05FFA054650B1324641
:1044E000042101F06DFA324620600621284601F0D1
:1044F00067FA606000203C60F8BDF8B51F4613689D
:104500000546082110461B680422984700260446E9
:10451000C0E90066284601F065FA5C280FD12846FC
:1045200001F03AFA054650B13246042101F048FA4A
:10453000324620600621284601F042FA60600020E1
:104540003C60F8BDF8B51F461368054608211046C3
:104550001B680422984700260446C0E900662846E6
:1045600001F040FA3B280FD1284601F015FA054624
:1045700050B13246042101F023FA32462060062170
:10458000284601F01DFA606000203C60F8BDF8B5D7
:1045900005461E461046136804221B6811469847BC
:1045A000002704460760284601F01CFA132808D1AA
:1045B000284601F0F1F920B13A46042101F000FA51
:1045C000206000203460F8BDF8B505461E46104650
:1045D000136804221B6811469847002704460760A9
:1045E000284601F0FFF9232808D1284601F0D4F924
:1045F00020B13A46042101F0E3F920600020346044
:10460000F8BDF8B505461E461046136804221B681F
:1046100011469847002704460760284601F0E2F952
:104620004F2808D1284601F0B7F920B13A460421B5
:1046300001F0C6F9206000203460F8BDF8B51F46CF
:1046400013680546082110461B6804229847002677
:104650000446C0E90066284601F0C4F940280FD19D
:10466000284601F099F9054650B13246042101F07F
:10467000A7F9324620600621284601F0A1F96060C2
:1046800000203C60F8BDF8B51F46136805460821B8
:1046900010461B680422984700260446C0E90066BD
:1046A000284601F09FF95D280FD1284601F074F9E2
:1046B000054650B13246042101F082F932462060AD
:1046C0000621284601F07CF9606000203C60F8BDBE
:1046D000F8B51F4613680646032110461B680122E1
:1046E000984700250446057045708570304601F0F6
:1046F00079F965281ED1304601F04EF90646C8B159
:104700002A46042101F065F9401B18BF01202A4602
:1047100006212070304601F05CF9401B18BF0120D3
:104720002A4660700821304601F053F9401B18BF3B
:104730000120A07000203C60F8BDF8B51F4613684A
:104740000546022110461B680122984700260446B0
:1047500006704670284601F045F9662815D12846AE
:1047600001F01AF9054680B13246042101F031F911
:10477000801B18BF0120324620700621284601F018
:1047800028F9801B18BF0120607000203C60F8BD34
:10479000F8B505461E461046136801221B681146EF
:1047A0009847002704460770284601F01BF91B288C
:1047B0000BD1284601F0F0F838B13A46042101F057
:1047C00008F9C01B18BF0120207000203460F8BD1C
:1047D000F8B51F4613680546022110461B680122E2
:1047E00098470026044606704670284601F0FAF8FD
:1047F0000F2815D1284601F0CFF8054680B1324682
:10480000082101F0E6F8801B18BF01203246207015
:104810000A21284601F0DDF8801B18BF01206070D6
:1048200000203C60F8BDF8B51F461368054602211C
:1048300010461B6801229847002604460670467001
:10484000284601F0CFF84A2815D1284601F0A4F8EF
:10485000054680B13246042101F0BBF8801B18BF29
:104860000120324620700621284601F0B2F8801B54
:1048700018BF0120607000203C60F8BD70B51E4676
:10488000136805461B681046182104229847182211
:10489000002104460BF0E8FA284601F0A3F820288E
:1048A0002AD1284601F078F8054628B300220421D1
:1048B00001F086F8002206212060284601F080F8E9
:1048C000002208216060284601F07AF800220A21BF
:1048D000A060284601F074F800220C21E060284610
:1048E00001F06EF8002220610E21284601F071F8D7
:1048F000003818BF012020750020346070BDF8B565
:104900001E4613680546022110461B68012298477F
:104910000027044607704770284601F063F80B280B
:1049200017D1284601F038F8054690B13A460421DF
:1049300001F064F8C2B2531E042B88BF3A46062128
:1049400022702846012201F044F8C01B18BF012044
:10495000607000203460F8BD2DE9F8431646984693
:104960001368012205461B680F46304611469847DA
:104970004FF00009044680F80090284601F032F814
:10498000282805D00025C8F800402846BDE8F8834F
:10499000284601F001F80028F4D04A46042101F02D
:1049A0002DF83A462146FFF77EFC05460028E9D05F
:1049B00021463046FFF774FCE7E72DE9F843164639
:1049C00098461368012205461B680F46304611467B
:1049D00098474FF00009044680F80090284601F0FF
:1049E00001F8392805D00025C8F800402846BDE860
:1049F000F883284600F0D0FF0028F4D04A4604216E
:104A000000F0FCFF3A462146FFF74DFC0546002822
:104A1000E9D021463046FFF743FCE7E72DE9F843AC
:104A2000154698461368074601221B680E4628461D
:104A3000022198474FF00009044680F8009080F862
:104A40000190384600F0CEFF252804D00020C8F899
:104A50000040BDE8F883384600F09EFF0746002876
:104A6000F4D04A46042100F0C9FF32462146FFF740
:104A70001AFC024648B90621384600F0BFFF32460C
:104A8000611CFFF710FC0028E0D028462146FFF704
:104A900007FC0120DDE7F8B51F461368054608212D
:104AA00010461B68042298470026044606600671DB
:104AB000284600F097FF0A2814D1284600F06CFF22
:104AC000054678B13246062100F098FFC2B2531E67
:104AD000042B88BF3246042122712846324600F05A
:104AE0006FFF206000203C60F8BD2DE9F0471746BD
:104AF0009846136805461B6804228A4638461C21DE
:104B000098471C22002104460BF0AEF9284600F01D
:104B100069FF0128814605D00025C8F800402846D5
:104B2000BDE8F087284600F037FF05460028F3D09F
:104B30000022042100F062FFFFF710FB0022062193
:104B40002070284600F03CFF0022082160602846C3
:104B500000F036FF00220A21A060284600F04EFF38
:104B6000C6B2731E042B88BF00264A460C21284675
:104B7000267300F025FF4A460E212061284600F0EA
:104B80001FFF002210216061284600F037FF5246C7
:104B900004F11801FFF787FB05460028BCD0214629
:104BA0003846FFF77DFBBAE770B51E461368054629
:104BB0001B6810461C21042298471C220021044631
:104BC0000BF052F9284600F00DFF022834D1284698
:104BD00000F0E2FE054678B30022042100F00EFF4B
:104BE000FFF7BCFA002206212070284600F0E8FEFC
:104BF000002208216060284600F0E2FE00220A211F
:104C0000A060284600F0DCFE00220C21E06028466F
:104C100000F0F4FEC0B2431E042B88BF0020012226
:104C20000E212074284600F0CBFE01226061102185
:104C3000284600F0C5FEA0610020346070BDF8B5C4
:104C400005461E461046136801221B681146984708
:104C5000002704460770284600F0C4FE1D280DD129
:104C6000284600F099FE48B13A46042100F0C6FEFD
:104C7000C2B2531E042B88BF3A4622700020346013
:104C8000F8BD2DE9F04717469946136805460122FD
:104C90001B6888463846052198470026044606606A
:104CA0000671284600F09EFE082882463DD128461F
:104CB00000F072FE0546C0B33246042100F09EFEAD
:104CC000C3B25A1E042A88BF334632462370514667
:104CD000284600F07EFE801B18BF012032460A21C4
:104CE000A070284600F075FE801B18BF01203246D8
:104CF0000C21E070284600F081FE4246211DFFF79E
:104D0000D2FA024650B90621284600F077FE58B183
:104D1000012809D04046074904F0E7F93846214602
:104D2000FFF7BEFA012003E060700020C9F80040E0
:104D3000BDE8F087F3450110F8B505461E4610465C
:104D4000136801221B681146984700270446077024
:104D5000284600F047FE0C280DD1284600F01CFE26
:104D600048B13A46042100F049FEC2B2531E042B5A
:104D700088BF3A46227000203460F8BDF8B5054679
:104D80001E461046136801221B68114698470027EB
:104D900004460770284600F025FE4D280AD1284613
:104DA00000F0FAFD30B13A46042100F027FEFFF78B
:104DB000D5F9207000203460F8BDF8B505461E46D0
:104DC0001046136801221B681146984700270446C5
:104DD0000770284600F006FE15280DD1284600F081
:104DE000DBFD48B13A46042100F008FEC2B2531E72
:104DF000042B88BF3A46227000203460F8BD70B59D
:104E00001E46136805461B68104628210422984751
:104E10002822002104460BF027F8284600F0E2FD86
:104E200005282ED1284600F0B7FD054648B30022DC
:104E3000042100F0E3FDFFF791F900220621207024
:104E4000284600F0BDFD002208216060284600F0E1
:104E5000B7FD00220A21A060284600F0B1FD002223
:104E60000C21E060284600F0ABFD002220610E21FD
:104E7000284600F0C3FDC0B2431E042B88BF0020AB
:104E800020750020346070BDF8B506461F461046F8
:104E9000136801221B6811469847002405460470D8
:104EA000304600F0A5FD13280DD1304600F07EFD00
:104EB00048B12246042100F0A1FDC2B2022A9CBFE3
:104EC0000132D4B22C7000203D60F8BD2DE9F843CA
:104ED000164698461368012205461B680F46304661
:104EE000114698474FF00009044680F80090284684
:104EF00000F078FD372805D00025C8F80040284686
:104F0000BDE8F883284600F047FD0028F4D04A4663
:104F1000042100F073FD3A462146FFF7C4F9054627
:104F20000028E9D021463046FFF7BAF9E7E7F8B59F
:104F30001E4613680546022110461B680122984749
:104F40000027044607704770284600F04BFD1C28D8
:104F500017D1284600F020FD054690B13A460421BD
:104F600000F04CFDC2B2531E042B88BF3A46062106
:104F700022702846012200F02CFDC01B18BF012022
:104F8000607000203460F8BD2DE9F0419846136848
:104F90000546082110461B6804229847002604464F
:104FA00006608680284600F01DFD062807461DD1B4
:104FB000284600F0F1FC0546C0B13246042100F05D
:104FC000FFFC324639462060284600F017FDC2B289
:104FD000531E042B88BF32460821227128463246D0
:104FE00000F0F7FC801B18BF012060710020C8F89A
:104FF0000040BDE8F0812DE9F04116461F461368D8
:1050000005461B6804228846304610219847102226
:10501000002104460AF028FF284600F0E3FC31286E
:1050200004D000253C602846BDE8F081284600F009
:10503000B3FC05460028F4D00022042100F0DEFC79
:10504000FFF78CF8002206212070284600F0B8FCFB
:10505000002208216060284600F0B2FC00220A21EC
:10506000A060284600F0CAFCC0B2431E042B88BFD3
:10507000002000220C212073284600F0BFFC42468D
:1050800004F10D01FFF70FF905460028C9D02146AC
:105090003046FFF705F9C6E7F8B505461E46104647
:1050A000136804221B6811469847002704460760CE
:1050B000284600F097FC4B2808D1284600F06CFCED
:1050C00020B13A46042100F0A2FC206000203460A8
:1050D000F8BD2DE9F84317469946136805461B6845
:1050E00004228846384610219847102200210446A1
:1050F0000AF0BAFE284600F075FC0E283CD128467E
:1051000000F04AFC0546B8B30022042100F076FC0A
:10511000C6B2731E042B88BF002600220621284633
:10512000267000F074FC002208216060284600F020
:105130006EFC0022A0600A21284600F05FFC0246B7
:1051400010B101280ED1207300220C21284600F056
:1051500040FC003818BF012060730020C9F80040EF
:10516000BDE8F8834046074903F0BFFF38462146B3
:10517000FFF796F80120F3E74046034903F0B5FF37
:10518000F4E700BF1D4601103C460110F8B5054686
:105190001E461046136804221B68114698470027D4
:1051A00004460760284600F01DFC092808D128465F
:1051B00000F0F2FB20B13A46042100F028FC206008
:1051C00000203460F8BD70B51E46136805461B68A4
:1051D00010461021042298471022002104460AF0AC
:1051E00043FE284600F0FEFB472835D1284600F054
:1051F000D3FB054680B30022042100F0FFFBC0B2C0
:10520000431E042B88BF0020002206212070284660
:1052100000F0FDFB002208216060284600F0F7FB4B
:1052200000220A21A060284600F0D3FB003818BFF6
:10523000012000220C212073284600F0CAFB003810
:1052400018BF0120002260730E21284600F0C1FB28
:10525000003818BF0120A0730020346070BD2DE914
:10526000F04D17469846136888B01B68054608221B
:10527000059138464FF4C47198474FF4C472002129
:1052800004460AF0F1FD284600F0B2FB0D2840F07C
:105290008580284600F08AFB054600287ED0042140
:1052A00000F0BFFB08B106684EB93D49059803F010
:1052B0001CFF21463846FEF7F3FF01266AE005ABE6
:1052C0000421284607934FF0010A00F0AAFB4FF093
:1052D000000B344A0346009221464022CDE902AB3E
:1052E000019607A8FEF7A2FF0028E2D10621284672
:1052F00000F097FB2C4A034600924022CDE902AB16
:105300000196A11807A8FEF791FF0028D1D1082126
:10531000284600F086FB254A03460092CDE902AB01
:105320004022019604F1800107A8FEF77FFF0028C4
:10533000BFD10A21284600F074FB1D4A03460092A3
:10534000CDE902AB4022019604F1C00107A8FEF7A7
:105350006DFF0028ADD10C21284600F062FB002132
:1053600003460020134A7600CDE90201019600921F
:1053700004F58071802207A8FEF758FF0646002832
:1053800097D102460E21284600F01AFBC4F880018E
:10539000C8F80040304608B0BDE8F08D064985E702
:1053A00060460110C1460110D3460110E2460110CB
:1053B000F14601107E470110024701102DE9F3412B
:1053C00016461F46136805461B6808228846304665
:1053D000F0219847F022002104460AF045FD2846B6
:1053E00000F006FB07286ED1284600F0DFFA0546DC
:1053F000002868D00022042100F0EBFA003818BF22
:10540000012006212070284600F00BFB014680B1E8
:105410000068344B04F108020093C0004346FEF7D5
:10542000C7FE002857D10621284600F0FAFA036883
:10543000A3640821284600F0F4FA014688B1006808
:10544000284B04F150020093C0004346FEF7B0FE23
:10545000002840D10821284600F0E3FA0368C4F888
:1054600090300A21284600F0DCFA014680B100683D
:105470001C4B04F198020093C0004346FEF798FECF
:1054800048BB0A21284600F0CCFA0368C4F8D8309B
:105490000C212846FAF742FFD0B12844D0E9002376
:1054A000C4E938230E210022284600F092FA003881
:1054B00018BF0120002284F8E8001021284600F0DF
:1054C0007FFAC4F8EC0000203C6002B0BDE8F08137
:1054D00000220023E4E730462146FEF7E1FE0120EA
:1054E000F3E700BF404701102DE9F0431746984607
:1054F000136885B01B680446082201913846C02114
:105500009847C022002105460AF0AEFC204600F074
:105510006FFA0A284ED1204600F048FA04460028C7
:1055200048D001AB0421039300F07BFA29460246E0
:10553000214B03A8FEF75EFE80BB0621204600F04B
:1055400070FA1E4B024605F1400103A8FEF752FE19
:1055500020BB0821204600F064FA194B024605F1F1
:10556000800103A8FEF746FE0646B8B9042120468E
:1055700000F057FA0621D0F80090204600F051FACA
:105580000368994506D10821204600F04AFA0368CD
:105590004B4509D00B49019803F0A7FD2946384631
:1055A000FEF77EFE012601E0C8F80050304605B047
:1055B000BDE8F0830449EEE752470110634701104C
:1055C0007547011086470110CA4701102DE9F743BE
:1055D00017469946136805461B6808220E4638464A
:1055E0004FF4947198474FF49472002104460AF0E6
:1055F0003BFC284600F0FCF9102874D1284600F046
:10560000D5F9054600286ED0042100F00AFADFF82B
:10561000F4800146006833462246CDF80080C00081
:10562000FEF7C6FD002867D10421284600F0F9F9ED
:10563000036806212364284600F0F3F90146006858
:105640003346CDF8008004F14802C000FEF7B0FDFB
:10565000002851D10621284600F0E3F9036808210B
:10566000C4F88830284600F0DCF90146006833466B
:10567000CDF8008004F19002C000FEF799FD0028EB
:105680003AD10821284600F0CCF903680A212846BF
:10569000C4F8D030FAF742FE58B32844D0E90023CA
:1056A000C4E936230C21284600F0BBF90146006806
:1056B0003346CDF8008004F1E002C000FEF778FD2B
:1056C0000646C8B90C21284600F0ABF903683246FB
:1056D0000E212846C4F8203100F07BF9003818BFAD
:1056E000012084F824010020C9F8004003B0BDE87F
:1056F000F08300220023D3E738462146FEF7D0FD91
:105700000120F3E7FE4701102DE9F74316469846BE
:10571000136805461B6804228946304624219847B1
:105720002422002104460AF09FFB284600F05AF983
:10573000112814D1284600F02FF980B1042100F07F
:1057400079F9074658B10C4B0146009322464B4667
:105750002020FEF70BFD054640B93B68236200257B
:10576000C8F80040284603B0BDE8F0832146304623
:10577000FEF796FDF6E700BF0F4801102DE9F7434D
:1057800016469846136805461B680422894630462B
:10579000242198472422002104460AF065FB28466C
:1057A00000F020F91E2814D1284600F0F5F880B149
:1057B000042100F03FF9074658B10C4B0146009315
:1057C00022464B462020FEF7D1FC054640B93B68F7
:1057D00023620025C8F80040284603B0BDE8F083E6
:1057E00021463046FEF75CFDF6E700BF1748011082
:1057F0002DE9F74316469946136805461B680422AF
:105800000F463046542198475422002104460AF09E
:105810002BFB284600F0ECF8172828D1284600F08A
:10582000C5F8804618B3042100F004F9124B014674
:10583000009322463B465020FEF798FC054650B1A7
:1058400038460E4A0E4903F050FC21463046FEF71A
:1058500027FD012507E00421404600F0EBF803682E
:105860002365C9F80040284603B0BDE8F0833846F8
:10587000044903F03AFCE8E71F4801102E480110E4
:10588000CE440110464801102DE9F84317469946C9
:10589000136805461B680422884638461421984739
:1058A0001422002104460AF0DFFA284600F0A0F88E
:1058B000152836D1284600F079F8054688B304212A
:1058C00000F0C1F8064648B91749404603F00DFC00
:1058D00038462146FEF7E4FC012020E0284600F08F
:1058E00051F808B91149F0E7043600220C21284686
:1058F000266000F065F800220621A060284600F02E
:105900005FF86060284600F03DF80430E06028460B
:1059100000F038F8036800202361C9F80040BDE8B2
:10592000F8830349D1E700BF7B480110B14801105B
:10593000F748011070B51D46136806460821104649
:105940001B680422984700230446C0E90033304610
:1059500000F048F86F2811D1304600F01DF80646D7
:1059600060B1042100F06FF808B104302060062116
:10597000304600F068F808B10430606000202C6008
:1059800070BD00BF10B508210446FAF7C7FC10B17E
:1059900023182058184410BD10B50C210446FAF7FE
:1059A000BDFC10B123182058184410BD10B51C219F
:1059B0000446FAF7B3FC10B123182058184410BD60
:1059C00038B505461446FAF7A9FC00B12C58204614
:1059D00038BD38B505461446FAF7A0FC00B12C5C7A
:1059E000204638BD08B500220A21FFF7F2FF08BDA6
:1059F00008B500221A21FFF7ECFF08BD38B50546AF
:105A00001446FAF78BFC00B12C56204638BD38B549
:105A100004461546FAF782FC08B104442568284676
:105A200038BD10B50446FAF779FC10B12318205898
:105A3000184410BD10B50446FAF770FC10B12318D5
:105A40002058184410BD10B50446FAF767FC10B191
:105A500023182058184410BD013080007047884238
:105A600008B50ED060B171B103680A689A420AD1D4
:105A70009200043104300AF04BF9B0FA80F040098A
:105A800008BD0120FCE70020FAE708B50B461146E7
:105A900018B9B3FA83F0400908BD0268934206D1F1
:105AA0009A0004300AF034F9B0FA80F0F3E70020ED
:105AB000F2E701308000704715289ABF024B53F877
:105AC00020000248704700BF906A01103149011060
:105AD00010B50446282200210AF0C6F9204610BD60
