:020000041000EA
:10000000002008205D0100101B0100101D010010E0
:100010001101001011010010110100101101001058
:100020001901001019010010190100101F01001022
:10003000110100101901001021010010230100100E
:100040001101001011010010110100101101001028
:100050001101001011010010110100101101001018
:100060001101001011010010110100101101001008
:1000700011010010110100101101001011010010F8
:1000800011010010110100101101001011010010E8
:1000900011010010110100101101001011010010D8
:1000A00011010010110100101101001011010010C8
:1000B00011010010110100101101001011010010B8
:1000C00011010010110100101101001011010010A8
:1000D0001101001011010010110100101101001098
:1000E0001101001011010010110100101101001088
:1000F0001101001011010010110100101101001078
:100100001101001011010010110100101101001067
:10011000EFF30580103800BE00BE00BE00BE00BE7A
:1001200000BE00BEF2EB8871F48A00101C8B001038
:10013000A001001090A31AE7D3DEFFFF42012110B7
:10014000FF010000E4950000793512AB4FF000008C
:100150001E49086006C881F3088810474FF05040D8
:10016000006810B14FF00000F2E70DA40ECC00299A
:1001700002D000F012F8F9E71549164A002000E015
:1001800001C19142FCD11449884714498847144958
:10019000884700BEFDE701C901C29A42FBD3704700
:1001A0001C8B001010010020100D00201C97001067
:1001B00000000820000008201C97001000100820F4
:1001C00000100820000000007047000008ED00E06B
:1001D000100D0020C4100020FD2600103502001074
:1001E000C7260010F8B500BF064B0749C91A891089
:1001F00048BF0131491003D0044B0BB101481847E7
:10020000704700BF100D0020100D002000000000FE
:1002100008B5054B1BB105490548AFF30080BDE8A3
:100220000840FFF7E1BF00BF0000000058100020A9
:100230002C8500102DE9F84300261C4D1C4C1D4F49
:10024000DFF884802E60266000F0A4F81A4802F0DF
:1002500089FC4FF001093E7088F8006000263B7869
:100260006BB12268296815480A4402F07BFC2468B7
:10027000B4B9134802F076FC2046BDE8F883314655
:10028000002000F039F898F800202B6882F0010176
:100290000B442B60236887F8009013442360DEE74B
:1002A000084802F05FFC0124E6E700BF940E00203E
:1002B000900E00209D100020308500104885001011
:1002C0005B850010738500109C1000201022074BE6
:1002D000C3F8F420064ADB6D128812FB02F283EAAF
:1002E0000243044A6FF30F03D365704700800A404E
:1002F000980E002000900A4070B51F4E2DED028B25
:10030000357808EE101AEDB90421192000F050F8E4
:1003100010231A4C1A4AC4F8F4300820C2F8F830F6
:10032000184900F02BF90121082000F0F9F84FF6E8
:10033000FF732565A565E565236640236365012395
:1003400023653370F7EE007A38EE278ADFED0E7AF8
:1003500028EE278AFDEEC87A0C4B0D4817EE901A4E
:10036000C3ED007A02F0FEFBBDEC028BBDE87040ED
:100370000A2000F074BD00BF9E10002000800A40DB
:1003800000A00A40CD0200100000FF42980E00209D
:100390008C85001002F0CEBA034B0A461B6801465A
:1003A000D86805F00BBA00BFC00B002002F016B9E8
:1003B0000C4B10B503EB800253F8203002F580544B
:1003C00083F0400303F0C00323604FF48073C00048
:1003D00000F1804000F5203002F54052416013608A
:1003E00010BD00BF048003400FB407B5049C07484C
:1003F00002F0B3FA3CB105A92046019102F0FCF8E5
:10040000034802F0AAFA012002F019F990850010C1
:100410008A860010EFF3108072B6064BD3E8CF1F28
:1004200001220029FAD1C3E8412F0029F6D1BFF3F8
:100430005F8F7047AA1000200023034AC2E88F3F55
:1004400080F31088704700BFAA100020CB08C05C62
:10045000012301F007018B401840003818BF01202C
:100460007047F8B505460C461746FFF7D3FF2146FF
:1004700006462846FFF7EAFF18B121463846FFF73F
:10048000B3FF0123E208A95C04F00704A3400B4377
:10049000AB543046BDE8F840FFF7CEBF044A1078B1
:1004A000431CDBB2182B28BF10231370704700BF0A
:1004B000B80500204FF0E022936843F000539360AA
:1004C0007047000000231A4603481918C1E88F2F0F
:1004D0000133202BF9D170479F100020064B1030BC
:1004E0009B6843F82010BFF35F8F00230349C1E8E6
:1004F0008F3F82F31088704700ED00E0A8100020C5
:100500004FF08030044B054A19460433934208608B
:10051000FAD162B6704700BF00E400E034E400E0C6
:100520000122430900F01F00824041B19B0003F10A
:10053000604303F56143C3F880211A6070470249A4
:10054000203341F82320704700E100E0064B4209C8
:1005500053F82220012300F01F0003FA00F010409E
:10056000003818BF0120704700E100E0024B103056
:100570009B6853F82000704700ED00E070B5054619
:100580000C46EFF3108672B60D4BD3E8CF1F012255
:100590000029FAD1C3E8412F0029F6D1BFF35F8FBC
:1005A000FFF7E4FF074B984203D0A04201D000F0D0
:1005B00065FE324621462846BDE87040FFF78EBFF3
:1005C000A8100020110100102DE9F84F04468946BB
:1005D000EFF3108672B6524BD3E8CF1F01220029E9
:1005E000FAD1C3E8412F0029F6D1BFF35F8F4D4BFD
:1005F00000F1100B9B6853F82B704B4B9F4273D04C
:100600004F4500F08B80DFF83481A7EB08032F2BD8
:100610006AD8FFF79BFF002105462046FFF780FFC1
:10062000BFF35F8FEFF30583DBB29A461BB19B45A7
:1006300001D000F023FE00214FF00C0C27F0010345
:100640009A6893F90600914517D100281BDABAF190
:10065000000F54D1002950D0FF228A714BF601526D
:100660008A80324940460A789A714AF6AA221B1AB1
:100670005B415A43120D0A7032E0002830DB194604
:100680000CFB0083DCE70C2101FB00818A689A6087
:10069000CA79DA7191F90620002A9A712BDB8A88CF
:1006A000520542BF02F5FF1202F5FF521F325115EB
:1006B0000C22424302EB41026FF007010832424430
:1006C000C91A0A44C2F34A026FEAC2426FEAD2422E
:1006D0009A800C23154A03FB0083117810709971DE
:1006E00029462046FFF71CFF324639462046BDE822
:1006F000F84FFFF7F3BE0E4AEAE70B4FB1E70D4A9A
:10070000D21A083AC2F30A316FEA01516FEA115165
:100710009980094941EA5202DA80E1E71F46E3E79E
:10072000A810002000ED00E011010010C110002011
:1007300001BDFFFFF605002000F8FFFFBC0500200B
:10074000F0B5EFF30586F6B2EFF3108772B6214CE1
:10075000D4E8CF2F0123002AFAD1C4E8423F002A6F
:10076000F6D1BFF35F8F4AF6AA2301461A4A891AC7
:1007700049414B431B0D59B2184B40F00105D3F8CA
:1007800008C05CF826C0AC4525460DD19B68144ACC
:1007900043F82620134B1A78197082710023C5E89C
:1007A0008F3F87F31088F0BD1446002394F906604C
:1007B0008E4208D10C2404FB0323FF229A714BF6CE
:1007C00001529A80E6E70133042B04F10C04EDD1C9
:1007D000E0E700BFA8100020BC05002000ED00E00D
:1007E00011010010C1100020014B0B440360704741
:1007F0009F10002010B50446FFF750FE014620462A
:10080000FFF7F2FFFF232371BFF35F8F10BD10B519
:100810000446FFF743FE01462046FFF7E5FFFF23AE
:10082000A380BFF35F8F10BD38B50848084DA842BC
:1008300000D338BD044654F8083B1BB1FFF7E7FF6F
:100840002046F4E7FFF7D6FFFAE700BF080D0020C7
:10085000100D00200D4B10B51A68EFF3108172B621
:10086000D2E8CF4F0120002CFAD1C2E8440F002C6F
:10087000F6D1BFF35F8F1A680023C2E88F3F81F380
:10088000108840BF0020002110BD00BF9010002044
:100890002DE9F04F2DED028B85B0EFF30582D2B23A
:1008A000A34B103A9108A34D18BF1D46E81A4342C6
:1008B00002F00302434102EB830301929E4A9FED43
:1008C0009A8B52F823400123019A93400293029A93
:1008D00005F541535A60029BEB63B4F90830002BD5
:1008E000009352DB18265E436769284607EB06082B
:1008F000D8E902A900F00EFB504571EB090144DB79
:10090000B9F1000F6FDBD8E9043B8C4A934255D113
:100910005846DBF810309847002864D0DBE9003BEC
:1009200053EA0B025FD0BBF1000F53DABAEB0300BE
:1009300069EB0B0137F906C0C8E90201BCF1000FF1
:1009400023DB4FF0180BD4F814900BFB0C93D3E976
:100950000223904271EB030317DBA6462EF808CF63
:100960000BFB0CFA09EB0A08D8E90223904271EB61
:10097000030305DB39F90AC0C646BCF1000FEFDA04
:10098000009B27F806C0AEF80030A388190446D5AE
:10099000A37943B10023A371B4F9083004F1080628
:1009A0005A1C40F08180B4F90820002A80F2978018
:1009B00040BF05B0BDEC028BBDE8F08FB8F8022057
:1009C000B4F9080092B2594642EA004098470346FB
:1009D0008B46A5E72846039300F09CFA039BC018BA
:1009E0004BEB0101A6E7BB5B23812369EFF3108288
:1009F00072B6D3E8CF0F01210028FAD1C3E8401F17
:100A00000028F6D1BFF35F8F63880021BB53009BA2
:100A100063802369C3E88F1F82F31088B5E72369D9
:100A2000EFF3108172B6D3E8CF0F01220028FAD17C
:100A3000C3E8402F0028F6D1BFF35F8F4FF6FF7257
:100A4000A3880020A2801BB22269C2E88F0F81F325
:100A50001088182704F10809002B99DBCE4607FB04
:100A600003F06269B4F908C01118D1E902BABCF107
:100A7000000F0FDBBEF9001001EB410102EBC108D2
:100A8000D8F80C600096D8F80860B345009E7AEB61
:100A9000060605DAAEF80030135E22F800C0DBE788
:100AA000C64632F931C0E2E7616903EB430001EB6E
:100AB000C002B2F802C031F930701CF4004F0CD003
:100AC000B4F908C082ED028B634504D037802289D7
:100AD00021F8302023813B4662E71646FBE71821C8
:100AE000636901FB0233D3E90267B7F1FF3F08BF37
:100AF000B6F1FF3F0FD0019BA96A05EB8302136992
:100B0000701A5B1A984205D301230198296A834021
:100B10000B4200D11661284600F0FCF9B042B94101
:100B2000BFF6D9AE44E700BFFFFFFFFFFFFFFFFFA7
:100B300000800B4000000B40701000209108001056
:100B4000F8B504461646C1601F460D46FFF7A6FCE1
:100B50004FF0504226701268184B62704FF6FF72C9
:100B600003442361BBB26381013B2281A280638085
:100B700000221823BA4218D1114F1249EB1B5F42D1
:100B80005F41114B06EB870743F82740012404FA25
:100B900006F638462E62FFF7F1FC05F501552146B1
:100BA0003846FFF7BDFC2E60F8BD03FB02F160691B
:100BB00002F1FF3C20F801C00132DBE79F1000206A
:100BC00000800B40910800107010002010B5094CF7
:100BD00023694BB90321084800F08AF91023032246
:100BE00020460549FFF7ACFFBDE810400A21034845
:100BF000FFF7FABD0406002000000B409010002013
:100C0000074A536A994206D8926A824205D2C81AA4
:100C100018BF01207047002070470120704700BFB7
:100C200000000B400146F0B50069EFF3108E72B67C
:100C3000D0E8CF5F0124002DFAD1C0E8454F002D48
:100C4000F6D1BFF35F8FB1F902504E6905EB450451
:100C50004FEAC40C002DA8BF36F80C004FF0000777
:100C6000A8BF488006EBC4040869C0E88F7F8EF3F4
:100C70001088BD4231DB0598C4E902232061069843
:100C80000B69606160880130C0F30E00012838BF35
:100C90000120608040EA0540EFF3108272B6D3E88D
:100CA000CFEF0124BEF1000FF9D1C3E84E4FBEF1E2
:100CB000000FF4D1BFF35F8F8B8826F80C308D8046
:100CC0000B69C3E88F7F82F3108801220B789A406A
:100CD000CB6803F501535A60F0BD4FF0FF30FBE7DE
:100CE0002DE9F0479DF828700646DDE9088915468C
:100CF0001C4647B12A4623463046CDE90889BDE85F
:100D0000F047FFF78FBF00F02FF9854264EB010138
:100D10000029EFDA3846BDE8F0870346408970B510
:100D2000B0EB214F4FEA214201DC002070BD1824B6
:100D3000586904FB02001A69EFF3108472B6D2E816
:100D4000CF6F0125002EFAD1C2E8465F002EF6D102
:100D5000BFF35F8F428889B292B28A4214D142F4C3
:100D6000004242800120987100221969C1E88F2F4A
:100D700084F310880028D8D001221978DB688A40D3
:100D800003F501535A60D1E70020EDE72DE9FF415B
:100D9000851F41F1FF37A84271EB070338BF0025DB
:100DA000044638BF2F460E4600F0DEF8281A67EBDF
:100DB0000103012873F1000306DA2046314604B02E
:100DC000BDE8F04100F0DEB80023CDE90133154B5A
:100DD0002A46009314483B46FFF782FF0130ECD0CF
:100DE000DFF8488028463946FFF70AFF0028E4D19B
:100DF000D8F80030EFF3108272B6D3E8CFCF0121DC
:100E0000BCF1000FF9D1C3E84C1FBCF1000FF4D1C5
:100E1000BFF35F8FD8F80030C3E88F0F82F31088DC
:100E200020BFDFE7550800100406002090100020C6
:100E300038B504460D4600F097F84FF0FF326FF0DA
:100E40000043201845EB0101824273EB010438BFD7
:100E50001946BDE8384038BF1046FFF797BF4FF43A
:100E60007A71A0FB0101FFF7E3BF00002DE9F04319
:100E700004460D4685B0EFF30587FFB227B105B0F4
:100E8000BDE8F043FFF7BCBE174ED6F80C9096F8BD
:100E90000080484600F03EF808F1040859F8283070
:100EA000221AA3EB000365EB01019A4271F10001E4
:100EB00003DB20BF20462946E1E70C4B3046009378
:100EC00022462B46CDE90177FFF70AFF061E294689
:100ED0002046D4DDFFF794FE00B920BF314602481A
:100EE000FFF71BFFE6E700BF0406002055080010CF
:100EF00010B4054B054C064AA04214BF1846581CB6
:100F00005DF8044BFFF7ADBABF10002000800B4026
:100F1000A08500100346416A0A46986A596A8A42C7
:100F2000FAD17047416A9942FCD3994202D1816A51
:100F3000914200D37047416AF7E72DE9F041164628
:100F40001D460446FFF7E6FF821951EB05034FF0FB
:100F5000000728BF012717B14FF0FF321346204684
:100F6000BDE8F041FFF7DEBF0148FFF7D3BF00BF88
:100F700000000B4002460B460148FFF7DEBF00BFF2
:100F800000000B4002460B460148FFF7CBBF00BFF5
:100F900000000B402DE9F041076B0446FB070D46AE
:100FA000904615D540F2013200F540531A63436A6A
:100FB000866A062006EB831600F0D2F840F64E63F0
:100FC000B0FBF3F0B602B6FBF0F00021FFF7D2FF62
:100FD000234653F82C2F554005EA080503F58053A6
:100FE0001D602763BDE8F08170B5054606200C46FC
:100FF00000F0B6F8C300B3FBF4F30133DC0916D0FC
:101000004FF6FE72944214D82646C3F345040022DC
:10101000284611466E62AC62FFF7BCFF062000F066
:101020009FF804EB86148000B0FBF4F070BD01263D
:10103000EDE700244FF6FF76E9E7000038B50446F7
:1010400006200D4600F08CF860B3174A0123944245
:1010500014BF1A221B229340144A1549136002F54B
:10106000805213608A6833EA0202FBD14FF4807128
:101070000D4B2046E21A534253410E4A22F81310F8
:101080002946FFF7B1FF234653F82C2F82F0700258
:1010900003F5805302F07E021A6040F201332363AD
:1010A0000323A36438BD00BF008007400020024036
:1010B0000000024098100020F0B50C24444304F1D5
:1010C000804404F58034059E94466268071FB2424E
:1010D000FFB238BF6660012F04F5405224D80129C1
:1010E00022D103251560A268D207FCD5226804F539
:1010F000805582EA4C1202F0E002012F2A6009D8E2
:1011000022684A4002F003022A6001228A40A16854
:101110001142FCD04FF4006104F5005211600B4AFB
:10112000666042F82030F0BD4FF400651560074D51
:1011300055F82020002AD9D06D69B5FBF2F50135AC
:1011400005EB4505033DFDD2D0E700BF1C10002094
:1011500013B54FF480340094FFF7AEFF02B010BD1A
:10116000014B53F8200070471C10002070B51D4C37
:10117000B4FBF1F4B2FBF4F2049C240344EA03430D
:101180000468002C0EDA046804F03F048C4209D194
:101190008468C4F30B04944204D1C46804F4EE24BC
:1011A0009C421DD0104D0124A84214BF0E250F25CE
:1011B000AC400E4D0E4E2C6005F580552C60B56888
:1011C00034EA0505FBD101602121826000F540521F
:1011D0000432116001680029FCDAC360082313603F
:1011E00070BD00BF001BB70000800540002002401A
:1011F000000002400C235843012300F1804000F519
:1012000084104160036070470023DB8A002242E8BB
:1012100000F2520254BF102104211847034AD2F8A9
:101220002838002BFBD0BFF35F8F704700000E40C3
:101230000021044B044ABFF35F8F43F8041B934221
:10124000F9D170470C080E402C080E40FFF7F0BF94
:101250004FF42A62054B06491A604FF48D72DA602A
:10126000044A11605A68002AFCDA70470080044082
:1012700000B0FA0000A004407047000008B5014823
:10128000FFF7B2F8C285001038B5044C044DAC42EB
:1012900000D338BD54F8043B9847F8E7E8840010C1
:1012A00028850010054B064A06491A60064B074A76
:1012B00013608A6833EA0202FBD1704700200240C3
:1012C0007F3BEFEF00000240F6FFF30300300240E7
:1012D000044BDB6CB3F5004F02BF4FF48022024B8E
:1012E000DA64704700001150002011504FF0E022E6
:1012F000044BD2F8881D0B43C2F8883D10EE300431
:10130000704700BF030330006FF06042044B1A6067
:10131000044A9368DB4333F06043FAD1704700BF5F
:10132000003002400000024010B545F25320FFF7A4
:101330006BFFBDE8104003460420184710B545F286
:101340005320FFF761FFBDE8104003460120184716
:10135000FFF7B8B810B50B490B4C0C48641AA41031
:10136000442C224628BF4422920005F03FF8074B48
:10137000074A432C02D9074A936010BD43F8242042
:101380000134F6E7000000101001001000000020FA
:101390001101001000ED00E0002373B5294DC5F8E0
:1013A0008430FFF755FF0122274BDA636A6C012A6C
:1013B000FCD103221A63AC6B012CFCD1022605255B
:1013C00021460523214A22480096FFF7CFFE2B46EF
:1013D0002146204A20480095FFF7C8FE00223146EA
:1013E00004201E4BFFF7B4FE2146284600221C4B6A
:1013F000FFF7AEFE0022082011461A4BFFF7A8FEA9
:10140000002209201146174BFFF7A2FE00220620FA
:101410001146134BFFF79CFE002207201146104B8C
:10142000FFF796FE0420FFF79BFE0F4D0024B0FB54
:10143000F5F5E0B229460134FFF7DCFE062CF8D1C1
:1014400002B070BD0000014000300140002F68591B
:1014500000000540008C864700800540001BB70057
:1014600080D1F008006CDC0240420F0086B003B46B
:1014700051FC0804CDE9020151FC0904CDE9040145
:1014800051EC0A04CDE9060103BCF047BDE8005069
:101490004EEC00C4BDE800504EEC01C4BDE8005065
:1014A0004EEC02C400BD000000B5FFF7DFFF02E014
:1014B00010FE30F4F8D441EC100443EC112400EE9B
:1014C000010410EE010480EE200451EC100470477A
:1014D00000B5FFF7CBFF02E010FE30F4F8D441EC8A
:1014E000100443EC112400EE010410EE210480EE00
:1014F000200451EC3004704700B5FFF7B7FF02E05D
:1015000010FE30F4F8D410B541EC100443EC112473
:1015100051EC040453EC0524A0FB024C5FF0000ED8
:10152000E0FB03CEE1FB02CE4CEC20440024E1FBC7
:1015300003E444EC30E480EE200451EC5004BDE8B8
:101540001040704700B5FFF791FF02E010FE30F445
:10155000F8D441EC100443EC112451EC2104A0FB1D
:1015600001126FEA820252FB100052FB12F252FB90
:101570001000A0EBD07C53EC04245CFB13F153EC83
:101580001524A1FB022001FB030053EC4424A2EB31
:10159000000050FB1CF24FEA111312EB017043EBF9
:1015A000E27140EA515020EA915020F0070053ECDC
:1015B0007524A0FB023C53EC752400FB03CC01FB1B
:1015C00002CC53EC0424ACEB824C40EA5C70A0F1FA
:1015D000010041EC400480EE200451EC700470479F
:1015E00000B5FFF743FF02E010FE30F4F8D440EC02
:1015F000700400EE010410EE210480EE200451EC92
:101600003004704700B5FFF731FF02E010FE30F400
:10161000F8D440EC600400EE010410EE210480EEEA
:10162000200451EC3004704700B5FFF71FFF02E0C3
:1016300010FE30F4F8D441EC800400EE010410EE0A
:10164000010480EE400410EE1304704700B5FFF76C
:101650000DFF02E010FE30F4F8D441EC800400EEFF
:10166000010410EE010480EE400410EE33047047D4
:1016700000B5FFF7FBFE02E010FE30F4F8D441ECB9
:10168000100443EC112400EE010410EE3004C0F30A
:101690000070704700B5FFF7E9FE02E010FE30F47D
:1016A000F8D441EC100443EC112400EE010410EED8
:1016B0003004C0F38070704700B5FFF7D7FE02E03A
:1016C00010FE30F4F8D443EC102441EC110400EE89
:1016D000010410EE30F48CBF01200020704700BFE1
:1016E00000B5FFF7C3FE02E010FE30F4F8D443EC7F
:1016F000102441EC110400EE010410EE30F42CBF74
:1017000001200020704700BF00B5FFF7AFFE02E0E8
:1017100010FE30F4F8D441EC100443EC112400EE38
:10172000010410EE30F42CBF01200020704700BFF0
:1017300000B5FFF79BFE02E010FE30F4F8D441EC58
:10174000100443EC112400EE010410EE30F48CBFC1
:1017500001200020704700BF9A4238BF885470476C
:1017600070472DE9F84F9846DDE90B490D9B15466A
:101770009A0706460F4623D02A460A9B03EB040A23
:101780001444A24220D10D9B9B0705D5A2EB050A6C
:10179000D14505EB0A0420D82046BDE8F88F434622
:1017A00039462020B0470AF1010ACA450AEB0B026C
:1017B000F5D3A9EB04024C4588BF00222A44DCE79C
:1017C000A246A5EB040BF0E702F1010B43463946B4
:1017D0001AF8010DB0475A46D3E743462246394628
:1017E0002020B0470AF1010AD2E72DE9F047DDE9F0
:1017F0000D7616F0020F9DF82880DDE90854DDE92A
:101800000BCE1FD106F001094FB1B9F1000F06D080
:10181000B8F1000F02D116F00C0F00D0013F4FF0CD
:10182000300A02E005F804A00134A64501D9202CB5
:10183000F8D1B9F1000F05D04FF03009BC4201D208
:10184000202C2DD116F0100F1FD016F4806F2CD144
:101850005CB3744501D0BC4227D1B4F1010E23D052
:10186000BCF1100F46D1023C16F0200F28D1202CDD
:1018700028D04FF0780C05F804C00134202C21D07A
:101880004FF0300C05F804C00134202C1AD0B8F108
:10189000000F23D04FF02D0C05F804C0013412E0E6
:1018A00005F804900134C9E77446BCF1100FDBD091
:1018B000BCF1020FE2D1202C04D04FF0620CDAE729
:1018C000202C08D12024CDE90A76CDE90854BDE8C2
:1018D000F047FFF746BF4FF0580CCCE716F0040F67
:1018E00002D04FF02B0CD7E716F0080FEBD04FF0DB
:1018F000200CD1E7BCF1020F7446C1D1DDE72DE920
:10190000F04391B0189D1A9E1D9F0DB927F0100746
:101910007C0500D515B317F0200F14BF4FF0410E12
:101920004FF0610EAC4600250DF12008AEF10A0E15
:10193000BCFBF6F906FB19C95FFA89F4B9F1090F86
:1019400094BF30347444E4B2B44508F8014B05F157
:101950000105BCFBF6F401D3202D10D11C9C069789
:1019600005941B9CCDE903649DF86440CDE90154C6
:1019700008AC0094FFF739FF11B0BDE8F083A4462E
:10198000D6E72DE9F04F95B0269ECDE90A23DDE993
:101990001E74DDE9229B57EA040308BF26F01006F7
:1019A0007205CDE9080102D557EA040337D016F0D5
:1019B000200F14BF4123612300250DF1300AA3F14C
:1019C0000A0821464A465B46384606F081FDD2B2F7
:1019D000092A94BF303242444F45D2B274EB0B0413
:1019E00005F101050AF8012B01D3202D14D1259B07
:1019F00006960593249BDDE90801CDE903939DF844
:101A00008030CDE901530CAB0093DDE90A23FFF7E9
:101A1000ECFE15B0BDE8F08F07460C46D1E7002577
:101A2000E5E70000000000002DE9F04F93B09DEDC8
:101A30001C7BCDE90C32DDE91E630E9353EC172BB2
:101A4000CDE90801104619468DED067B209DFFF774
:101A500013FE80B9DDE906014FF0FF320E4BFFF7B0
:101A60006BFE40B9DDE906014FF0FF326FF48013E1
:101A7000FFF726FE90B1DDE908019DED067B0E9B88
:101A80008DED1C7BCDE91E63DDE90C32209513B092
:101A9000BDE8F04F00F090B9FFFFEF7F0022DDE9D5
:101AA00006010023FFF70CFE002800F04581DDE968
:101AB00006A303F1004B15F4806308BF06260F93BD
:101AC0005AEA0B03D046D94600F03981CBF30A50CD
:101AD000A0F2FF30FFF788FDB3A3D3E90023FFF79F
:101AE0000FFDB3A3D3E90023FFF7E2FCCBF313030D
:101AF000CDE90A0143F07F510022A54B504641F445
:101B00004011FFF7E9FC96A3D3E90023FFF7F8FCA7
:101B100002460B46DDE90A01FFF7CAFCFFF788FD24
:101B20000446FFF761FD90A3D3E900238046894670
:101B3000FFF7E6FC0022974BFFF7BAFCFFF778FDB2
:101B40008BA3D3E90023074649464046FFF7D8FC5C
:101B5000804638468946FFF747FD87A3D3E900232F
:101B6000FFF7CEFC02460B4640464946FFF7B4FC61
:101B700002460B46CDE90A23FFF7C2FCDDE90A2342
:101B80008046894610461946FFF792FC0022CDE9AF
:101B90001001814B40464946FFF7D8FC00227F4B9D
:101BA000FFF786FC02460B4640464946FFF7CEFC4F
:101BB00000227B4BFFF77CFC02460B464046494621
:101BC000FFF7C4FCDDE90A238046894600204FF078
:101BD0008041FFF781FC02460B4640464946FFF72D
:101BE00067FC02460B46DDE91001FFF7AFFC07F288
:101BF000FF3700226B4BFFF75BFC00223B05FFF732
:101C00007FFC52465B4680468946FFF795FD40B112
:101C1000404649460022614BFFF798FC80468946C2
:101C2000013C04F16303C62B8CBF0527042729055B
:101C300021D558EA090311D051A3D3E90023504616
:101C40005946FFF765FD00287CD04FA3D3E9002358
:101C500050465946FFF734FD002873D0A642D8BF3E
:101C600000244FF00007C4BF341B04F1FF342646A4
:101C70003C4645F480650E9B9F422CBF0023DB1B36
:101C80000A9315F002030F9304D0002F0A9B18BF8C
:101C900000230A933CB15046594642464B46FFF753
:101CA00055FC82468B46DDE9060100220023FFF742
:101CB00007FD10B10BF100439B46DDE9080125F457
:101CC000006304930A9BCDE900ABCDE90263DDE933
:101CD0000C3200F071F8024657B315F0200F0C9B40
:101CE00000F1010509990CBF65204520089EB04709
:101CF000DDE908010523002205930A23002CCDE924
:101D0000023207F1FF374FEAD473B8BF64422A4664
:101D1000019304970C9B0094FFF7F1FD0F9B024683
:101D200033B10D9BC41A0D9B1A190E9BA34210D8F8
:101D3000104613B0BDE8F08FDDE906ABBBE600242A
:101D4000042774E7002E96D00F9B002B93D0013E02
:101D500091E720200C9B0999089DA8470134E2E7F0
:101D600061436F63A787D23F71A379094F930A40FC
:101D70001655B5BBB16B0240EF39FAFE422EE63F75
:101D80002D431CEBE2361A3F0000000080842E41F8
:101D90000000F83F0000E03F00002C40000024401D
:101DA000000018400000F03FFB799F501344D33FE0
:101DB000B3C8608B288AC63F2DE9F04F97B0DDE9A4
:101DC00020ABCDE90501DDE92247CDE907235046E7
:101DD00052465B465946249EFFF74EFC70B10323E2
:101DE000CDE922762193AE4B2093DDE90501DDE9B3
:101DF000072317B0BDE8F04FFFF7B3BC4FF0FF3239
:101E00006FF4801350465946FFF75AFC28B104235B
:101E1000CDE922762193A34BE6E74FF0FF325046FF
:101E20005946A14BFFF788FC50B170074CBF042204
:101E30000322CDE922764CBF9C4B9D4B2192D3E7E8
:101E4000504693A3D3E900235946FFF775FC38B9F0
:101E500091A3D3E9002350465946FFF731FC68B1FE
:101E6000DDE90723DDE90501CDE92376CDE920ABE6
:101E7000229417B0BDE8F04FFFF7D6BD0022002333
:101E800050465946FFF71CFCB8B15B46524600204D
:101E90000021FFF721FB012382468B46099316F4AC
:101EA000806F08BF0624302123460EAAA4F1200922
:101EB000092B04D89946E41A07E00990EFE7013BA3
:101EC0004B4502F8011BF3D1202459465046FFF739
:101ED000AFFB784B054603EBC90393ED007B8DED1B
:101EE0000A7BFFF781FB02460B4650465946FFF737
:101EF000F3FADDE90A23FFF703FB02460B46CDE9BF
:101F00000C23FFF7A7FB8046FFF780FB02460B463A
:101F1000DDE90C01FFF7E0FA02460B46CDE90C23A0
:101F20000022654BFFF708FCC8B108F101084046E4
:101F3000FFF76CFB02460B46DDE90A01FFF7D4FB15
:101F400010B14FF000080135B9F1000F18D00A2187
:101F50000EAB2344202C4BD13022A1445CE0002264
:101F6000DDE90C01544BFFF7ABFB0028ECD1B8F1D5
:101F7000000F02D018F0010FE6D008F10108E3E7E6
:101F80002846FFF731FB02460B4650465946FFF7FD
:101F9000A3FA0022484B80468946FFF791FB48B9D7
:101FA000002240464946444BFFF7C6FB10B90135B5
:101FB00025F001050A210EAB1A19202C0AD095FB39
:101FC000F1F001FB1055303502F8015B0134054694
:101FD0000028F2D106F00302012A3FD1002F3DD0A4
:101FE000099A12B916F00C0F00D0013F302224E0FC
:101FF000B8FBF1F001FB1082B8F1090F02F13002D9
:1020000009F1FF3904F1010403F8012BA4D980463A
:10201000A0E70EA90A551C46202CCBD04C4504F154
:102020000103F6D104F158020DEB02042E2204F84C
:10203000202C1C46BEE71A550134A7420ED9202C8D
:10204000F9D1CDE90034DDE90501DDE90723CDE96A
:102050000276FFF786FB17B0BDE8F08F202CF0D09A
:10206000099A3AB12D2104F158026A4402F8201C61
:102070000134E6E7710704D504F158022B216A44C4
:10208000F4E73207DDD504F1580220216A44EDE778
:102090000000000065CDCD410000000065CDCDC140
:1020A000198600101D860010FFFFEF7F10860010BC
:1020B00015860010F08600100000E03F08B100F027
:1020C0003EBC70472DE9F04F90469B46AF4AB04B5F
:1020D00091B01A600B1E0A93AE4B14BF814699460D
:1020E00000251A9E9BF8000070B9454538BF2A4666
:1020F00043464FF000000A9928BF08F1FF32C84755
:10210000284611B0BDE8F08F25280BF1010B06D051
:102110002A4643460A996C1CC8472546E2E7002335
:102120000CE02D2A1FD0302A05D0A2F1300009285A
:102130000ED8002729E043F001038B46594611F8D9
:10214000012B2B2A12D0ECD8202A12D0232A13D00C
:102150002A2A33D156F8047B8B46002FBCBF43F0AC
:1021600002037F4218E043F00203E6E743F0040372
:10217000E3E743F00803E0E743F01003DDE70A205C
:102180008B4600FB0722A2F13007594611F8012BBC
:10219000A2F130000928F2D99BF800202E2A44D160
:1021A0009BF801100BF10102A1F13000092843F462
:1021B000806331D800244FF00A0C06E00027EBE7DB
:1021C00002460CFB0411A1F13004104610F8011B6B
:1021D000A1F1300EBEF1090FF2D9114611F8010B31
:1021E0006C282CD024D8682830D06A2837D01146E3
:1021F0008B461BF8010B67285CD8572832D8452836
:1022000007D085D9462800F0E980472880D143F4DB
:10221000006343F02003F7E02A2907D156F8044B66
:102220000BF1020224EAE474D7E75A460024D4E70B
:10223000742801D07A28DAD143F48073D8E7507833
:102240006C28F9D143F44073911CD1E75078682889
:1022500002D043F08003CBE743F0C003F4E743F43C
:102260000073C5E7A0F158020F2A3FF651AF01A154
:1022700051F822F00B230010112100101121001041
:102280001121001011210010112100101121001046
:102290001121001011210010112100100B2300103A
:1022A000312400100B23001005240010E12300103E
:1022B00005240010A0F16901C9B20F293FF628AF2B
:1022C000012249F2410C8A4012EA0C0218D10A2973
:1022D00000F0EA8007297FF41BAF43F02103059348
:1022E0000823CDE903431023CDE9012356F8043B2D
:1022F0002A460093484643460A99FFF700FB7FE0D1
:102300006F2840F0358108220BE0582810D0622851
:1023100000F02C8123F0100364284FF00A0200F033
:102320002F8123F00C032BE17828F3D11022F8E75A
:1023300043F02003FAE7D90506F1040A01D5316814
:1023400002E058060CD53178CDE90224CDE90473BA
:1023500000294FEAD1730193B8BF4942009126E0AA
:102360001906ECD5B6F90010EEE7A9B1CDE907736F
:102370000023CDE9042306F1070A2AF0070A069490
:102380000293FAE80223CDE900231EE1C5200010E4
:102390005410002061170010D80506F1040A0DD56D
:1023A000CDE90473CDE902240191336800934346DB
:1023B0002A4648460A99FFF7A2FA0CE1590607D5C2
:1023C0003178CDE904730023CDE902240193C5E7F8
:1023D000316813F0800F18BF89B2F2E743F0200391
:1023E000CDE90373073626F007060294F6E80223C8
:1023F0004846CDE900230A9943462A46FFF7DCFC0C
:1024000005466FE6672810D0CDE90373073626F03E
:1024100007060294F6E802234846CDE900230A990C
:1024200043462A46FFF700FBEAE743F40063EBE785
:1024300013F0020423D04FF0010A6B1C0B932A46C1
:1024400043460A9916F8040BC8475CB354460B9AE6
:102450001EE0434620200A99C84705EB0A020AF10C
:10246000010A5745F5D8002F07F1FF3308BF0023B5
:1024700007F1010A1D4408BF4FF0020ADDE7A2463A
:10248000EBE7551C434620200A99C8472A460134E9
:10249000A742F6D8A7EB0A03574538BF00230B9A8B
:1024A0001A440B920B9D1DE63246002C52F8046B29
:1024B00014BF21464FF0FF310B9232463144107861
:1024C00008B1914211D1A2EB060A13F480620D9279
:1024D00002D0A24528BFA24613F002030E931BD1DF
:1024E000AAEB05032A460C9308E00132E7E7531CE8
:1024F0000F93202043460A99C8470F9A0C9BD31884
:10250000BB42F4D3A7EB0A03574538BF00230AF1B7
:10251000010202EB030A1D44AB1B0C9304E01C46B2
:1025200043462A460A99C8470C9B9D1916F8010B89
:1025300028B10D9B002BF3D0631E002CEFD10E9B16
:1025400093B12A46AAEB050405E0561C4346202019
:102550000A99C847324613199F42F6D8A7EB0A03D7
:10256000574538BF00231D440B9EBBE50222D8E629
:102570003FF6DAAE692823F010037FF4CDAE0A22CD
:10258000590548BF23F00103692803F4007102D004
:1025900064287FF4EAAE00293FF4CDAE073626F07A
:1025A0000706B24670685AF8081BCDE90773002386
:1025B0000593C30F0028029306940B46049202DA97
:1025C0004B4260EB4000CDE9003043462A46484686
:1025D0000A99FFF7D6F90546564683E507B50093F5
:1025E00013460A4601460348FFF76CFD03B05DF849
:1025F00004FB00BF591700101FB5084A03461468B2
:1026000044B100914FF0FF32054803A9A0470120D3
:1026100004B010BD00F0A1F92046F9E754100020E5
:10262000BD2000100FB407B504A951F8040B0191A7
:10263000FFF7E2FF03B05DF804EB04B0704700BEA3
:10264000FDE70000064A0346106808B90548106017
:10265000054903448B4294BF13604FF0FF3070472D
:1026600050100020C4100020000008200346084637
:10267000114623B9034BD3E9002300F0FFB84FF014
:10268000FF307047908600100346013B012B10B5C8
:102690000846144606D801230022214600F0AAF875
:1026A000204610BD4FF0FF34FAE74FF0FF3070477F
:1026B0004FF0FF3070474FF0FF30704702288CBF5B
:1026C00000200120704708B5FFF7B9FF0C4607B599
:1026D000194652B1064BCDE9003202462346054861
:1026E000FFF7A0FF0120FFF7AAFF034B1A46F2E70E
:1026F000228600102F8600108B86001038B5FEF75A
:10270000C3FD044C044DAC4200D338BD54F8043B27
:102710009847F8E7288500102C85001003460846E6
:102720001B68114618470000437D2DE9F04104461F
:102730000D461646A3B101F1FF38002108468E422E
:1027400014DC86422EDD311A23682844984735442C
:1027500015F8013CA3F10D0253425341237523E0C8
:10276000036811462846BDE8F0411847C1B198F802
:102770000030A3F10D077B427B4118F8012F4F1C5D
:102780000A2A0BD153B9814203DD091A2368284470
:102790009847064802212368984738463946CEE7CD
:1027A000237DEAE7002ED2DCBDE8F08140870010EF
:1027B00010B5FEF7D9FB0A4A82184FF0FF3041F1FD
:1027C00000036FF00041904271EB030438BF0246F2
:1027D000BDE8104038BF0B46024805F081BE00BF7F
:1027E00040420F00080D0020014805F075BE00BFF3
:1027F000080D00202DE9F74F0C461D46074691466F
:10280000FFF7D6FF631C804603D1384603F064FE11
:1028100004464FF00A0B154B154EDFF85CA0002D57
:1028200018BF1E46134B1D6845B9B8F1000F01D003
:10283000FFF7DAFF204603B0BDE8F08F2B6893B1B5
:10284000DAF800300BB1AB420DD1224639462846AA
:10285000B047B9F1000F06D0012228460DF107015B
:102860008DF807B0B0472D69DEE700BF29270010BB
:102870001D270010441000204C1000202DE9F047C7
:1028800005460E4617461C46DFF85C80DFF85C9074
:10289000D8F800A0BAF1000F0DD1124A536A9C4239
:1028A00004D8926ABA4219D29C4217D10120002161
:1028B000FEF760FBECE7D9F8003023B1534502D0B6
:1028C000DAF810A0E6E7DAF80830002BF8D0314645
:1028D000284698470028F3DDBDE8F0876FF0010037
:1028E000FAE700BF00000B40441000204C1000200D
:1028F000094B1A6812B901B1186070471A68824210
:1029000005D10029F9D102691A600161704702F10D
:1029100010031269EEE700BF44100020044B10B50D
:102920001C6804B910BD636803B198472469F8E7CF
:102930004410002008B500F0E7F8012008BD01238D
:1029400013B504468DF80700002219460DF1070063
:10295000FFF750FF204602B010BD38B5054603F022
:10296000BBFD0123044601461A462846FFF742FFF5
:10297000FFF7D4FF204638BD054B1B6833B100215B
:10298000044A12689163044A10681847704700BFF0
:10299000141000209410002018100020024B1A6818
:1029A00093691B07FCD4704794100020F8B5184FAA
:1029B000184D3B68184EAB4214BF21252225044612
:1029C0003268B0B1A2B9154B30601960284614497D
:1029D000FDF7D4FD01212846FDF7A2FD50223B68FA
:1029E0009A6353F8342F02F0380203F580531A60CB
:1029F000F8BD002AFCD0986301462846FDF790FDFB
:102A000028460749FDF7E0FD044B34601C60EFE702
:102A1000941000200080074014100020181000209F
:102A200079290010002210B50F4B1B688A4202DA88
:102A30009C69E40611D50D49096841B1502199639B
:102A400053F8341F01F0380103F580531960002A50
:102A500014BF10466FF0020010BD9C69E406FCD460
:102A60001C6884540132E1E7941000201410002007
:102A70000F4BF0B51B680F4C0D271A1B54425441E5
:102A800000220D4E8A4200DBF0BD855C36F914C091
:102A9000AC4505D1D3F818C01CF0200FFAD11F6047
:102AA000D3F818C01CF0200FFAD11D600132E9E7FD
:102AB00094100020008007409810002070B5104E40
:102AC0000D463060101E1C4606DB10F0020F0CBFD6
:102AD00002210B21FDF76CFC002C07DB14F0020F28
:102AE0000CBF02210B212046FDF762FC294630680D
:102AF000FEF7A4FABDE8704001210248FFF7F8BED6
:102B0000941000201C060020064B00221B78064B68
:102B10004FF4E1311B78054B05481B780123FFF783
:102B2000CDBF00BF188B0010148B0010108B00104D
:102B3000000007400FB407B5044805A90191FDF74F
:102B40002BFC03B05DF804EB04B0704789860010DD
:102B500008B5FDF721FCBDE808400148EAE700BFE1
:102B6000898600100FB407B504A951F8040B019130
:102B7000FFF7EEFF03B05DF804EB04B070470CB450
:102B800007B504AB53F8042B0193FDF70FFC03B01A
:102B90005DF804EB02B07047FDF708BC38B5A1FB47
:102BA000021434BB00F032F8054630B350F8042C60
:102BB00022F00302043A242A0CD8132A0FD91B2A24
:102BC000C0E9004412D9242AC0E9024418D000F117
:102BD000100205E0214603F0BDFA284638BD024642
:102BE00000232846C2E90033936038BD00F1080293
:102BF000F6E703F09FFB0C2303600025284638BD51
:102C000000F11802C0E90444EAE700BF01F10B0338
:102C1000162B2DE9F04F074683B023D8102900F278
:102C2000AF8000F0AFFA102518230220BA4E3344CB
:102C30005C68A3F10802944200F05681636838464C
:102C400023F00303D4E902122344CA6091605A6856
:102C5000083442F001025A6000F09AFA204603B0AC
:102C6000BDE8F08F002B23F00705C0F28980A94250
:102C700000F2868000F086FAB5F5FC7FC0F07B821A
:102C80006B0A00F08480042B00F26281AB0903F12F
:102C9000390003F1380EC3009F4E3344A3F1080CF2
:102CA0005C68A44507D10DE0002AE16880F2168136
:102CB0008C450C4606D0636823F003035A1B0F2A89
:102CC000F2DD7046DFF868823469444500F0F28036
:102CD000636823F0030CACEB05030F2B00F3748146
:102CE000002BC6E9048880F26381BCF5007FD6F82A
:102CF00004E080F0FF804FEADC0301224FEA5C1C15
:102D0000013302FA0CF256F833104EEA020E06EBCB
:102D1000C302083AC6F804E0C4E9021246F8334098
:102D2000CC6083104FF0010C0CFA03FCF44534D84E
:102D30001CEA0E0F07D120F003004FEA4C0C0430C0
:102D40001CEA0E0FF9D006EBC00A8146D646DEF823
:102D50000C300BE05A681C46DB6822F00302511B62
:102D60000F2900F30181002980F215819E45F1D1E0
:102D700009F101090EF1080E19F0030FE7D158E12E
:102D80000C233B600024204603B0BDE8F08F4FF4D5
:102D9000007340204FF03F0E7EE7B468636823F075
:102DA0000309A945A9EB050302D30F2B00F3858086
:102DB0005A4B08201B6803F1100804EB0903009329
:102DC00003F0C6FA564AA84483461368013305D077
:102DD00008F1FF384342804403EA08084146384678
:102DE00003F080FAB0F1FF3F82464D4A00F00781C0
:102DF00004EB0903834200F200814A4B0BF1FF3CD4
:102E000018684044186000F064811168013100F0D6
:102E10006C8104EB0902AAEB020202441A601AF068
:102E20000702CDE9002300F02781C2F108023846ED
:102E300092445A44D04408EA0C01521A02EA0C0B9C
:102E4000594603F04FFA421C019B00F06A81A0EB47
:102E50000A0000EB0B08186848F00102B442C6F8FB
:102E600008A05844CAF80420186017D0B9F10F0F11
:102E700040F23E816168A9F10C024FF0050C22F08E
:102E8000070201F0010111430F2A616004EB020106
:102E9000C1E901CC00F24D81DAF80420224B5446FE
:102EA0001968814238BF1860204B1968814238BFC9
:102EB0001860A6E0D6F804E033E7621945F0010592
:102EC00043F00103083444F8045C3846B2605360B0
:102ED00000F05EF9204603B0BDE8F08FA2682344FD
:102EE0003846D1608A60B2E6DC68A3427FF4A6AEC1
:102EF0000230E7E6BCF5206F4FEA5C2276D3142A55
:102F000000F2CD8002F15C035B32DB00F118F35874
:102F10000839994211D1A5E040060020D40E0020C6
:102F200034060020A40E0020CC0E0020D00E00207D
:102F3000480600209B68994204D05A6822F0030298
:102F40006245F7D8D968C4E902318C60DC60E8E6F4
:102F5000142B63D9542B00F2AB802B0B03F16F00C1
:102F600003F16E0EC30097E6D4F808C0384667191F
:102F700045F001056560CCF80C30C3F808C041F09D
:102F80000103C6E90477C7E902887B60A1500834D1
:102F900000F0FEF8F7E622443846516841F001019E
:102FA000516054F8082FD3609A6000F0F1F8EAE617
:102FB000A44438460834DCF8043043F00103CCF86C
:102FC000043000F0E5F8DEE6621943F0010145F057
:102FD000010538466560C6E90422C2E902885160ED
:102FE00044F80C30083400F0D3F8CCE64FEA9C12D9
:102FF00002F139033832DB0088E7B44262D0B468AA
:10300000626822F00308A845A8EB050302D30F2B42
:103010003FF753AF384600F0BBF8B3E603F15C006E
:1030200003F15B0EC30037E65AF80839534540F008
:10303000A08010F0030F00F1FF30F5D1736823EA90
:103040000C0373604FEA4C0C0CF1FF329A4204D32C
:10305000A3E64FEA4C0C09F104091CEA030FF8D06F
:10306000484670E692104FF0010C0CFA02F24EEA5C
:10307000020EC6F804E066E70AEB0802384602EAE8
:103080000C02ABEB020B0BEA0C0B594603F02AF9CE
:10309000431C019B7FF4DBAEDDF800B0DBE6542A75
:1030A0002AD84FEA1C3202F16F036E32DB002DE7A3
:1030B000B3F5AA7F2AD8EB0B03F1780003F1770E62
:1030C000C300E9E52E4B0BF1FF3C18684044186043
:1030D0009BE61AEA0C0F7FF498AEC844D6F808A015
:1030E00048F00102CAF80420D8E6C2F800A096E62B
:1030F0000123CAF804308DE7B2F5AA7F24D84FEA3D
:10310000DC3202F178037732DB00FFE640F2545202
:10311000934224D8AB0C03F17D0003F17C0EC30075
:10312000BAE5009A4FF0000B083A9044A8EB0A0861
:1031300091E6384604F10801009304F027FB009B58
:10314000D6F808A01868A7E640F254539A420CD863
:103150004FEA9C4202F17D037C32DB00D6E64FF45D
:103160007E737F204FF07E0E96E54FF47E737E22B5
:10317000CCE6736866E7E80805F1080356E500BF8A
:10318000A40E0020014803F0DFB800BF9C0E002011
:10319000014803F0DBB800BF9C0E00202DE9F04F82
:1031A000164683B0002900F09E800C4606F10B0500
:1031B0008046FFF7E7FF54F8040C162DA4F1080928
:1031C00020F0030762D8102200231546B542C0F054
:1031D000A280002B40F09F80974261DADFF82CB389
:1031E00009EB0701DBF80830D1F804C08B4200F08E
:1031F0009A802CF001030B445B68DB0768D42CF049
:10320000030C07EB0C03934245DAC30712D454F8BE
:10321000083CA9EB030ADAF8043023F003008444E5
:103220000CEB070B5A4540F3018107EB000B5A45A5
:1032300040F3D78031464046FFF7E8FC06460028B9
:1032400000F02C8154F8043CA0F1080223F00103A3
:103250004B44934200F0B4803A1F242A00F2E280EB
:10326000132A00F2B38003462246116819605168A0
:10327000596092689A602146404604F087FA4046B9
:10328000FFF786FF304603B0BDE8F08F25F0070555
:103290002A46EB0F9AE71F46D1E90223D3609A60D2
:1032A000781BD9F8043009EB07020F2803F001035B
:1032B0001FD83B43C9F80430536843F001035360FF
:1032C00026464046FFF764FF304603B0BDE8F08F66
:1032D000C307AFD454F8083CA9EB030ADAF804306A
:1032E00023F00300A1E7114603B0BDE8F04FFFF75C
:1032F0008DBC2B4309EB050140F00100C9F80430F7
:10330000083141F8040C4046536843F00103536010
:1033100004F03CFAD4E70C23C8F80030002630460D
:1033200003B0BDE8F08F2CF0030C05F110010CEB9D
:1033300007038B4280F29280C0073FF57BAF54F8C1
:10334000083CA9EB030ADAF8043023F003008444B4
:103350000CEB070399423FF768AF3A1F5646DAF87D
:103360000C1056F8080F242AC160886000F2B08063
:10337000132A40F2AB8021681B2ACAF80810616842
:10338000CAF80C1000F2AB8008340AF11002216870
:10339000116061685160A16891605B1B0AEB0502D6
:1033A000404643F00103CBF808205360DAF80430BC
:1033B00003F001032B43CAF80430FFF7E9FE83E76B
:1033C00050F8043C23F003031F4469E723681B2AD9
:1033D00003606368436036D804F1080200F1080313
:1033E00043E73A1F5646DAF80C30242A56F8081FED
:1033F000CB60996022D8132A1ED923681B2ACAF8E9
:1034000008306368CAF80C303CD808340AF110035D
:1034100022681A6062685A60A2689A6034465F4601
:10342000D1463DE7214602F017FE24E7D1E9021319
:103430003A1FCB609960D5E73346E9E7214630462D
:1034400002F00AFEEAE7A368242A8360E368C36007
:1034500028D004F1100200F1100306E75B1B09EB12
:1034600005024046264643F00103CBF8082053608E
:1034700054F8043C03F001032B4344F8043CFFF7E9
:1034800087FE21E7A368242ACAF81030E368CAF847
:10349000143010D010340AF11803B9E74046FFF792
:1034A00077FE3BE7236904F1180203616369436116
:1034B00000F11803D9E623691834CAF8183054F813
:1034C000043CCAF81C300AF12003A1E732465EE74B
:1034D00021463046019302F0BFFD019B5DE7A168E4
:1034E000242ACAF81010E168CAF8141003D0103466
:1034F0000AF118024BE722691834CAF8182054F868
:10350000042CCAF81C200AF1200240E740060020E3
:103510002DE9F04FDFB01C4682460A910DF1B80844
:103520000C92129302F09CFE036818461A9302F064
:10353000D3FF082219900021404602F00BFEBAF199
:10354000000F04D0DAF83430002B01F0FC810A9B24
:103550005A6EB3F90C30D00740F13881990400F16C
:10356000478743F400530A9922F400528B811BB21F
:103570004A661D0740F1BC800A9A1269002A00F0D1
:10358000B78003F01A020A2A00F0C1800023CDF8A8
:1035900020A09E46CDE9333335ABCDF86CE0CDF8B5
:1035A00070E01C463293CDF834E0CDF854E09FED46
:1035B000927BCDE91DEE8DED167B0C9E089F904B06
:1035C000D3F8E45002F046FE324603462AA93846B4
:1035D000CDF80080A8470028034600F0B780C0F26D
:1035E000AD802A9A252A01D01E44E8E70C9B0546A7
:1035F000F71A40F0AF8000234FF0FF32751C96F8A9
:1036000001908DF89F300E930B9207930135A9F12D
:1036100020035A2B00F2F680DFE813F09704F40041
:10362000F4008F04F400F400F4006D04F400F400DE
:1036300052036403F4005D03AB04F400A3045B00D5
:103640005B005B005B005B005B005B005B005B00A2
:10365000F400F400F400F400F400F400F400650158
:10366000F40096021604650165016501F400F4009A
:10367000F400F4000E04F400F400D703F400F400A6
:10368000F400BE02F4004F04F400F4009808F400C3
:10369000F400F400F400F400F400F400F400650118
:1036A000F4009602BC016501650165014304BC019B
:1036B000B501F4003704F400C70396036A03B501AB
:1036C000F400BE02B2010703F400F400C608F400DF
:1036D000B201A9F13003002202EB820215F8019B2E
:1036E00003EB4202A9F13003092BF5D90E928EE7C4
:1036F0000A9D5046294602F02FFC002841F0D88749
:10370000B5F90C3003F01A020A2A7FF43FAF0A9988
:10371000B1F90E20002AFFF639AF4A6ED20702D463
:103720009F0541F1688323460C9A0A99504602F09E
:1037300051F80D900D985FB0BDE8F08F0822002180
:10374000404602F007FD01231E4438E70C9B054666
:10375000F71A11D00C9B339AC4E900370132349B1D
:10376000072A3B443392349312DC08340D9B3B44CC
:103770000D93002D7FF43FAF349BDDF820A0002B8C
:1037800041F02F8300220A9B3392B3F90C3011E0F1
:1037900032AA0A99089802F05FF840B935ACE5E71B
:1037A000DA460F9B1BB10F99504603F0EFFF0A9BBF
:1037B000B3F90C300A9A526ED40740F1D7805A06FA
:1037C00000F12F820D985FB0BDE8F08F9F0540F1AA
:1037D00018829E047FF5C5AE95047FF5CAAE0A9B9C
:1037E0009B899E0500F11D820A9B986D02F0AEFD3B
:1037F00017E200BFAFF300800000000000000000EF
:10380000540A00200C95B9F1000FB5D00023012215
:1038100045AF8DF814918DF89F300F9310920B9354
:1038200018930992CDE91333079B349D13F0840359
:10383000AE4600F0E9809DF89F20EAB1339800265B
:10384000013001220135626007280DF19F02CDE9A8
:103850003305226000F35F8408346EB13398013081
:1038600028AA0235226007284FF00202CDE933056D
:10387000626000F35D840834802B00F097830B9B1B
:10388000109A9E1A002E00F3D080079BDB0500F1F2
:103890000481109B27601D446360339B3495013382
:1038A000072B339300F3E5830834079B5E0705D5A8
:1038B0000E9B099A9E1A002E00F348840999DDE9AF
:1038C0000D328A42ACBF9B185B180D93002D40F05F
:1038D000AA83002333930F9B1BB10F99089803F021
:1038E00055FF35AC69E6129B4FF0FF320C9507335C
:1038F00023F00701A34BB1EC027B57EC176B12913D
:1039000027F000418DED207A2191DDE920AB8DED8E
:10391000167B50465946FDF7AFFE002840F014864E
:103920004FF0FF32974B50465946FDF7DDFE0546F6
:10393000002840F00986079B00223046394623F0D4
:10394000800307930023FDF7BBFE002841F0C683E8
:10395000B9F1470F9DF89F30CCBF8B4F8B4F002B99
:1039600041F0688503220F93109258E799053FF5BF
:1039700026AF0A9CA06D02F0E9FCB4F90C301EE7FA
:1039800095F8009042E6079B95F8009043F02003DD
:1039900007933BE607990C95880640F1B285129B88
:1039A0000791073323F007031A465B6852F8085B58
:1039B0001E461292002BC0F259820B9A002AC0F2C6
:1039C0004981079B23F08003079355EA060340F0E3
:1039D0004181131E18BF0123002A40F03B811A4683
:1039E0000F939DF89F305EAF349D191E079BAE4626
:1039F0000B9218BF012113F08403109209911892C1
:103A0000CDE913227FF417AF0E9A0999561A002EAA
:103A100000F3B8849DF89F20002A7FF40FAF0B9B22
:103A2000109A9E1A002E7FF730AF102E339ADFF8CF
:103A300060A123DD29461023DDF820B00A9D02E0B5
:103A4000103E102E19DD013210315148072AC4E909
:103A50000003CDE9332104F10804F1DD32AA29463F
:103A6000584635AC01F0F8FE00287FF499AE103EC0
:103A70001023102EDDE93321E5DC0D4601323544FB
:103A8000C4F800A0072A6660CDE9332500F3A484BA
:103A9000079B0834DB057FF5FCAEB9F1650F40F3F9
:103AA000F28200220023DDE91601FDF7F7FD002870
:103AB00000F08D83339B0135364A01333495226003
:103AC0000122072B3393626000F35C870834299B43
:103AD000159A934280F29084199B1A9A1D44C4E966
:103AE0000023339B34950133072B339300F38D86EA
:103AF0000834159B5E1E002E7FF7D7AE102E339B29
:103B0000DFF88CA040F3AB821027DDF82090DDF8C1
:103B100028B003E0103E102E40F3A182013310358F
:103B2000072BC4E900A7CDE9333504F10804F1DD22
:103B300032AA5946484601F08FFE002840F000871F
:103B400035ACDDE93335E5E7129BB9F1430F0C9550
:103B500003F1040500F08586079BDE0600F18186EF
:103B6000129B45AF1B688DF8143101230993109304
:103B7000002312958DF89F300F930B931893CDE986
:103B8000133351E6FFFFEF7F64870010608700105A
:103B9000C8880010A0870010129E00230C9556F8CC
:103BA000047B8DF89F30002F00F04B86B9F1530F46
:103BB00000F0F486079B13F01003139340F0EE8699
:103BC0000B9B002BC1F2FF801A461399384602F076
:103BD000CDFB9DF89F300F90002801F001840F9AD3
:103BE000D21B109222EAE27209920BB101320992C1
:103BF000139B4FF0730912960B93189314930F9322
:103C000012E60A9DA86D02F09FFBB5F90C306A6EB2
:103C100098047FF5A6AC91047FF5ABACD7077FF590
:103C2000DEAD4FF0FF330D93CCE507990C958F0671
:103C300040F14784129B002207338DF89F2023F028
:103C400007035E6853F8085B12930B9B934280F264
:103C5000D98307910A2D76F1000380F0FC860B9B37
:103C600030359DF89FC00DF27717012B8DF87751F5
:103C7000B8BF01230993002313930123109300235A
:103C80000F93BCF1000F02D0099B01330993139BE2
:103C9000002B01F07E85099B02330993079BDDE928
:103CA000330513F08403AE46024600F0C881BCF130
:103CB000000F40F08582CDF860C0CDE913CCCEE591
:103CC000129B53F8042B002A0E9280F2A6830E9AC0
:103CD000129352420E92079B95F8009043F0040312
:103CE000079393E42B2395F800908DF89F308DE493
:103CF000002212990C9547F630030B9D51F8040BE6
:103D00009542ADF8A0308DF89F200346C0F24F8554
:103D1000079D25F0800545F002050795002840F035
:103D20000E870B98002840F00A874FF0780912910F
:103D3000079A00239DF89FC05EAF02F0020209932C
:103D4000109313920B939AE707980C95810640F114
:103D5000A783129B073323F007031A46596852F8CA
:103D6000083B129200228DF89F200B9A002A3EDB1E
:103D700020F4906207920B9A002A3BD153EA010289
:103D800014BF0122002235D110F00101099100F089
:103D9000498330230DF277170B928DF8773110910C
:103DA0000F921892CDE913223EE5079A129B9206D4
:103DB0000C9503F1040140F1B6831B680D9A1A605B
:103DC000D2175A601291FFF7F8BB079B0C959D061E
:103DD00043F01000BDD4129B1A1D129B00211292B9
:103DE00000221B688DF89F200B9A002AC0DA20F46D
:103DF000806207925EAF03F00702DB08384643EAB1
:103E000041733032C90807F8012D53EA0105F2D198
:103E1000302A03D0079BDD0700F189845EAB0B9A43
:103E2000DB1B9A421093B8BF1A46099200230F93E6
:103E30001893CDE91333F7E4079B95F8009043F00E
:103E400008030793FFF7E2BB079B0C959D0643F021
:103E500010013FF5A4AD129B1A1D129B07911D681E
:103E60001292EE173346002BBFF6A7AD2D236D42FD
:103E70008DF89F3066EB46060B9B002BFFF6EAAEF3
:103E8000079B23F080030793E4E695F80090079BD7
:103E9000B9F16C0F00F0C58443F010030793FFF7EE
:103EA000B5BB95F80090079BB9F1680F00F0C1848D
:103EB00043F040030793FFF7A9BB079B0C9543F022
:103EC00010019B063FF5B6AE129B1A1D0026129BF1
:103ED0000B981B68B0428DF89F601D46C1F2FB80B5
:103EE00021F0800112920791002B7FF4B3AE0028DD
:103EF0003FF41EAFAEE6089F384602F0B1F94368C2
:103F000018461C9302F0E8FA1E900646384602F066
:103F1000A7F9836895F800901D93002E3FF476ABC7
:103F2000002B3FF473AB1B78002B3FF46FAB079B68
:103F300043F480630793FFF769BB079B95F80090F4
:103F400043F001030793FFF761BB9DF89F3095F89D
:103F50000090002B7FF45AAB20238DF89F30FFF7A1
:103F600055BB079B95F8009043F080030793FFF73C
:103F70004DBB294611F8019BB9F12A0F01F0B68318
:103F8000A9F13003092B01F28781002202EB8202A2
:103F900011F8019B03EB4202A9F13003092BF5D97B
:103FA00042EAE2730D460B93FFF731BB0E9B099A71
:103FB0009E1A002E7FF763AC102E339ADFF838A6D6
:103FC00025DD294610235546DDF828B0DDF820A070
:103FD00002E0103E102E18DD01321031072AC4E92C
:103FE0000053CDE9332104F10804F2DD32AA594629
:103FF000504601F031FC00287FF4D3AB103E35ACC5
:104000001023102EDDE93321E6DCAA460D460132ED
:104010003544C4F800A0072A6660CDE9332500F3D3
:10402000E88308342BE432AA0A99089801F014FCBA
:1040300000283FF44EACDDF820A0FFF7B2BB0E9E87
:1040400009991893761A002ECDE9133300F35381A2
:10405000BCF1000F3FF403AC0226FFF7F1BB0133C4
:104060003544C4F800A0072B6660CDE933357FF7EF
:104070001BAC32AA0A99089801F0EEFB0028DAD1AD
:10408000349D35AC11E4159B0135339E04F10809CC
:10409000012B06F1010640F315810123072E27604D
:1040A0006360CDE9336500F31184199B01361A9AD8
:1040B0001D44072EC9E90023CDE9336500F3F883D9
:1040C00009F10809159B00225C1E0023DDE9160199
:1040D000FDF7E4FA002840F0578101360137254406
:1040E000C9F80440072EC9F80070CDE9336500F324
:1040F000F58009F108091B9B01361D44C9F80430FD
:10410000072E2CABCDE93365C9F80030B1DC09F1DD
:104110000804FFF7CABB32AA0A9908981F9301F056
:104120009BFB002887D1349D35AC1F9BFFF795BBC7
:1041300032AA0A9908981F9301F08EFB00287FF499
:104140007AAF349D35AC1F9BFFF796BB102E339B87
:10415000DFF8A8A420DD1027DDF82090DDF828B0D6
:1041600002E0103E102E17DD01331035072BC4E995
:1041700000A7CDE9333504F10804F2DD32AA59462F
:10418000484601F069FB002840F0DA83103E35AC68
:10419000102EDDE93335E7DC01333544072BC4E964
:1041A00000A6CDE933357FF789AB32AA0A99089882
:1041B00001F052FB00287FF43EAF349DFFF77EBB39
:1041C000002202261892CDE91322FFF739BB299964
:1041D000002940F33181139B159A9342A8BF1346DF
:1041E000002B99460ADD1D44C4E90073339B3495C6
:1041F0000133072B339300F3A1870834139EB9F1E1
:10420000000FA8BFA6EB0906002E00F3AF84079AA3
:10421000139B50053B4400F1AE86299E159A9642A9
:1042200003DB0799C90740F1AD85199A1A9915441E
:10423000C4E90012339A34950132072A339201F30C
:1042400006800834159A1744961BFF1AB742A8BF78
:104250003746002F0ADD23603D44339B67600133FE
:104260003495072B339301F322800834002FA8BF25
:10427000F61B002E7FF719AB102E339BDFF878A3C7
:104280007FF7EDAE1027DDF82090DDF828B003E0D1
:10429000103E102E7FF7E3AE01331035072BC4E933
:1042A00000A7CDE9333504F10804F1DD32AA5946FF
:1042B000484601F0D1FA002840F0428335ACDDE9F0
:1042C0003335E5E7079BDB073FF5E7AE0123072E14
:1042D00027606360CDE933657FF70DAF32AA0A9995
:1042E000089801F0B9FA00287FF4A5AE0DF1D409C1
:1042F000DDE93365FFE60223102E7146DFF8FCA2EC
:104300002ADD1F935346A446BA461025DDF820B097
:104310000A9C1F4602E0103E102E18DD01321031BB
:10432000072ACCE90075CDE933210CF1080CF2DD48
:1043300032AA2146584601F08FFA0DF1D40C00281C
:104340007FF42EAA103E102EDDE93321E6DC38463C
:10435000644657461F9B8246501C7518C4F800A03F
:1043600007286660CDE9330500F3D4829DF89F20CD
:104370000834002A40F09080002B3FF480AA1346B6
:10438000FFF76DBA339AB7E7159B012B7FF7B3AEF2
:10439000112BDFF864A240F3DC831027DDF820B096
:1043A00003E0103C102C40F3D48301361035072E67
:1043B000C9E900A7CDE9336509F10809F1DD32AAA1
:1043C0000A99584601F048FA00287FF4E9A90DF14E
:1043D000D409DDE93365E4E732AA0A99089801F0C7
:1043E0003BFA00287FF427AE349D35ACFFF74DBA79
:1043F00092047FF5BEA814E4079BDF077FF555AA5A
:10440000FFF76ABB21F080020792002B7FF422ACF9
:1044100055EA06033FF48CAC1CE495F80090129327
:10442000FFF7F4B8099A5EAF0B92109218920F92B0
:10443000CDE91322FFF7F8B9339B01356B4A0133FD
:10444000349522600122072B3393626000F35A8671
:104450000834159B0B4300F0E786199B1A9A1D44FC
:10446000C4E90023339B34950133072B339300F3C6
:10447000808604F108020029C0F2328715990133C1
:1044800017600D44072B5160CDE933353FF7F1AD8F
:1044900002F10804FFF709BA1E460023FFF7D0B95E
:1044A0000799129A11F0100152F8043B41F048812B
:1044B000079D15F0400000F093839BB228461292AE
:1044C00050E40799129A11F0100652F8043B7FF459
:1044D000FDAC079810F0400100F08D839DB20B9B5E
:1044E0008DF89F60002BC0F2678420F0800112924B
:1044F0000791002B7FF4AEAB002D3FF419ACFFF712
:10450000A9BB079B129AD90652F8045B01F11B81E3
:10451000079B5B0640F1888345F3C03612922DB2AB
:104520003346FFF747BA079BDB0600F10C83079B76
:104530005F0600F13384079B9E0540F10483129BC4
:104540000D9A1B681A703DE4DDE9160102460B4620
:10455000FDF792F80646002840F0768729F0200BF8
:10456000BBF1410F40F06B833023B9F1610F8DF83F
:10457000A03014BF582378238DF8A1300B9B632BF8
:1045800000F34484DDE91612002AC0F2058745AF26
:104590001F900F909DED167B8DED247B29AADDE900
:1045A000240101F0C7FF00224FF07F53FCF7A8FF62
:1045B00002460B46CDE9102300220023FDF76EF8DA
:1045C00008B101232993B9F1610FCDF84C903E4613
:1045D000BB460CBF064B074B09930B9BDDF824A091
:1045E000591E0B948946DDE9104513E0A0870010A1
:1045F0007087001084870010C8880010D8880010C9
:104600000022002309F1FF37FDF748F8002840F0A9
:104610007C87B9460022B44B20462946FCF770FF40
:104620000D460446FDF704F80746FCF7DDFF024699
:104630000B4620462946FCF74FFF1AF80730B9F120
:10464000FF3F324604460D4606F8013BD8D192465C
:10465000A64B0022DDF84C90CDE910453D460B9C61
:104660005F46FDF769F840B90022A04BDDE9100173
:10467000FDF714F8D8B1EB0719D5099B3246CDF8F0
:10468000C0A0D97B16F8013C8B4209D1302002F83A
:10469000010C309A531E309312F8013C8B42F6D035
:1046A000392B00F0F2870133DBB202F8013C079BA3
:1046B000299A43F00201F31B159309F10F038DF8BA
:1046C000B030531E002B2993C0F2B6872B22092B42
:1046D0008DF8B12000F3FC830DF1B202303302F803
:1046E000013B2CABD31A1B93159B1B9A012B1A442D
:1046F000109240F34C86109B199A1344109321F4A6
:10470000806301F0020243F4807313920793109BBD
:1047100023EAE37309931F9B002B00F032864FF0CE
:104720002D0C00238DF89FC00B93FFF7ADBA3023FB
:1047300002380B9A07F8013C5EAB07461B1A9A42F7
:104740001093B8BF1A460992FFF770BB68480C95E2
:10475000079B129913F0200200F09B80073121F093
:1047600007014A6851F8083B53EA0205079E14BF47
:1047700001250025F60702D5002D40F0E98000262E
:104780008DF89F600B9E002EC0F2B880079E26F425
:10479000906607960B9E002E40F0EC80002D40F0B6
:1047A000E9801291FFF7C4BA52480C95D0E70798F8
:1047B000944612914FF0780940F0020002210790D0
:1047C0004C4813915EAF03F00F011B09415C43EAB3
:1047D0000273120907F8011D53EA0201F3D15EAB1F
:1047E0000B9ADB1B9A421093B8BF1A460992FFF747
:1047F00046BA32AA0A99089801F02EF800287FF4E8
:104800001AAC349D35ACFFF73AB832AA0A99089829
:1048100001F022F800287FF40EAC349D35ACFFF790
:1048200068B943F0200395F8019001350793FEF72E
:10483000EDBE43F4007395F8019001350793FEF740
:10484000E5BE0B9B3A460B97062B1296189228BF93
:104850000623CDE91322CDE90F730993264FFEF706
:10486000E3BF0822002130A845AF01F073FC129A83
:1048700030AB08981268394603F078FC0346109074
:10488000013300F00687109B23EAE3730993FFF7D7
:104890006FB9079D51F8043B15F010057FF464AF24
:1048A000079A12F0400600F093819BB22A465BE71C
:1048B00032AA0A99089800F0CFFF00287FF4BBAB1A
:1048C0000DF1D409DDE93365FFF7FCBB32AA0A9983
:1048D000089800F0C1FF00287FF4ADAB0DF1D409BA
:1048E000DDE93365FFF7E1BB000030400000E03F49
:1048F000848700107087001098870010079D25F4AA
:104900008065079512914FF0000C079901F00201A4
:10491000139157E732AA0A9908981F9300F09CFF59
:1049200000287FF488AB9DF89F20349D1F9B002AB0
:1049300000F046811E4635AC03463398FEF780BF33
:10494000CA46FEF72EBF504601F0FEF8FEF7FFBD47
:1049500030258DF8A1908DF8A05000258DF89F503E
:104960000B9D002DC0F20083079D25F4906545F056
:1049700002050795129107999DF89FC001F0020169
:1049800013911FE732AA0A99089800F065FF0028E2
:104990007FF451AB349D35ACFFF799B80DF1C00AE7
:1049A000082200212B97504601F0D4FB0B9B002BD3
:1049B000C0F28283002509940F969B462C46089EE0
:1049C0000EE045A9304603F0D1FB421C05F1040579
:1049D000204400F0EB84584507DC00F0FB840446DB
:1049E0002B9A53465259002AEBD110940F9E099CE2
:1049F000109B002B00F09383632B40F39384591C8E
:104A00000898FEF703F90746002800F0B9860F90D2
:104A100008220021504601F09DFB109D2BAA39462B
:104A20002B460898CDF800A003F0C6FB854240F065
:104A30009F86109900237B5421EAE1719DF89F2005
:104A40000991002A40F042840B9212961892CDE907
:104A50001322FEF7E9BE079B002209945EA903F426
:104A60008063CDF83C90DFF89CB396461C46DDF899
:104A7000749023E0AB19AA463046394643F100034F
:104A8000ABFB032C2CF0030202EB9C029B1A4FF0B1
:104A9000CC32EB1A66F1000602FB03F2BAF10A0F00
:104AA000A3FB0B530BFB06224FEA550570F10000E8
:104AB000134445EAC3754FEA53062BD3AB190EF1E5
:104AC000010E01F1FF3743F10003ABFB032020F09F
:104AD000030202EB90029B1AEB1AA3FB0B3266F166
:104AE00000005B080BFB002243EAC27303EB830365
:104AF000A5EB4303303301F8013C002CBAD099F800
:104B00000030FF2BB6D07345B4D10A2D76F10003E7
:104B100080F0408300225EAB099CDB1B13920B9A52
:104B2000CDF874909A42DDF83C909DF89FC0B8BFD4
:104B30001A46CDF854E010930992FFF7A0B8B04898
:104B40004FF0780916E7129B0D9A1B681A60FFF761
:104B500039B901362544C9F800A0072EC9F8044028
:104B6000CDE933657FF7C5AAFFF7B8BB102E339B9D
:104B7000DFF894A240F3F78051462A46BA464FF038
:104B80001009DDF820B00F460A9D03E0103E102EFC
:104B900040F3E58001331032072BC4E90079CDE9F9
:104BA000333204F10804F1DD32AA2946584600F0F8
:104BB00053FE00287EF4F4AD35ACDDE93332E5E791
:104BC000002B00F0DC801346339835ACFEF747BE6F
:104BD000079A12F400723FF4C7ADDBB23246C3E568
:104BE000079D15F4007100F0EA800146DBB228460B
:104BF0001292FFF7B7B8079810F4007640F0D4800F
:104C00000B991D468DF89F600029C0F2D58007984A
:104C1000129220F080000790002B7FF41BA800293F
:104C20003FF486A8FFF716B8079B12929F0540F144
:104C3000B18045F3C0166DB23346FEF7BBBE0B9A8A
:104C4000079B551C43F4807ADDE916010B4600F002
:104C5000F2801AB9BBF1470F00F0A684002BC0F216
:104C60008C8400239DED167B1F938DED227BB9F183
:104C7000650F00F0FB8200F3F580B9F1450F00F0FD
:104C8000F582B9F1460F40F0F1800B9B1593032399
:104C9000009330AB159D04932BAB0195039329AB87
:104CA00008980293DDE9222301F016FDBBF1460FBF
:104CB0000746054440F04D843B78302B00F03984A2
:104CC000299B1D4400220023DDE92201FCF7E6FCBC
:104CD000002840F0B483309B9D4240F2698530212A
:104CE0005A1C30921970309BAB42F9D3299ADB1BC6
:104CF000BBF1470F1392159300F0D180BBF1460F23
:104D000040F0D580079B139903F001030B9A00290B
:104D100043EA020340F3F684002B40F08383139BA5
:104D20004FF066091093079B5B0500F1B883109B59
:104D300023EAE37309931F9B002B00F09C82099BDD
:104D4000CDF81CA00133099300231A460F932D239D
:104D50000B928DF89F3018921492FEF765BD1546A0
:104D60003A465746924601333544C4F800A0072B13
:104D70006660CDE9333569DC0834FFF748BA35ACF5
:104D8000FEF77DBD1744961BFF1AB742A8BF3746F2
:104D9000FFF76CBAEE173346FEF70CBE129B0D9A66
:104DA0001B681A80FFF70EB8DDB20B9B0E468DF81C
:104DB0009F10002BBFF699AB1292FEF74BBF0798DE
:104DC0001292FEF7CFBF384601F086FB9DF89F3068
:104DD00020EAE07210900992002B3EF409AFFEF732
:104DE00005BF32AA0A99504600F036FD00283EF46D
:104DF000C9ACFEF7DCBC886D01F0A8FAFEF793BCE5
:104E000070870010CDCCCCCCC8880010591C0898F5
:104E1000FDF7FCFE0746002800F03B84DDE9161292
:104E2000002AC0F2CD831F960F909DED167B8DED6D
:104E3000247BFFF7B3BB0029C0F2CB8306231F9668
:104E40009DED167B0B938DED227B10E732AA0A991C
:104E5000089800F001FD00287FF4EDA8349D35ACE2
:104E6000FFF7D5B9B9F1660F3FF40FAF0B9B089868
:104E7000019330AB04932BAB039329AB0293022332
:104E80000093DDE9222301F027FC079B0746DE079C
:104E900000F14D82309B1B1A1593299B1393139B92
:104EA000DD1C02DB0B9A934242DDA9F10209139B40
:104EB0008DF8B090013B002B2993C0F2A0822B22E9
:104EC000092B8DF8B12040F3A382002207990F929D
:104ED0000DF1C70CDFF8F0E46546AEFB032A1E4671
:104EE0002846013D4FEADA0A632E0AEB8A02A3EB59
:104EF0004202534602F1300200F8012CEDDC30335F
:104F000005F8013C831E634580F016840DF1B10263
:104F100013F8015B634502F8015FF9D103F5BC7337
:104F20002CAA6B44C43B1B1A9B1A1B93FFF7DCBBD8
:104F3000139B159A9342C0F20A82079B13F0010F4C
:104F4000139B00F09982199A13441093079B5905FB
:104F500003D5139B002B00F3A082109B4FF0670931
:104F600023EAE3730993E6E6079D25F4806545F09F
:104F700002050795C6E4149A18990A43159A00F099
:104F8000E983B8188B46224629461C46DFF840A420
:104F9000DDF8749003461E9D1F97BBF1000F32DCB5
:104FA000149809F1FF39013814901C982944C2E97A
:104FB0000005339834910130072833904DDC0832D6
:104FC0001F1B99F800000B938742A8BF0746002FCC
:104FD0000BDD339839440130349107283390C2E90E
:104FE00000475ADC083299F80000002FACBFC61BFE
:104FF0000646002E0ADC044414980028CDDCBBF1E0
:10500000000F40F3F5820BF1FF3BCEE7102E3398F3
:1050100040F3EB8210941027344613950A9E089DA6
:10502000CDF860A01D9302E0103C102C22DD013071
:1050300010310728C2E900A7CDE9330102F10802C7
:10504000F2DD32AA3146284600F006FC002840F086
:105050009E8035AADDE93301E6E732AA0A9908986D
:105060000B9300F0F9FB00287EF4E5AF349935AAE4
:105070000B9BA5E72646139D109CDDF860C01D9B89
:1050800001303144C2F800C007285660CDE9330131
:1050900060DC083299F80000ADE732AA0A99089856
:1050A000109300F0D9FB00287EF4C5AF99F80000FA
:1050B00035AA3499109B98E700232BAA0898194623
:1050C000CDF800A003F078F803461090013300F00B
:1050D0006C832B978CE41292FEF7BBBD2D23B9F1A4
:1050E000470F8DF89F3000F3DC8003222B46B54F2D
:1050F0000F95109204220B9318930992CDE9133364
:10510000FEF792BB32AA0A99089800F0A5FB002886
:105110007EF491AF299935AC349DFFF79AB99DF88B
:105120009F301296003B18BF01230993109B0B93ED
:1051300018930F93CDE91333FEF776BB32AA0A9981
:10514000089800F089FB00287EF475AF349D35ACDB
:10515000FFF754B832AA0A990898109300F07CFB24
:1051600000287EF468AF99F8000035AA3499109BA6
:1051700041E732AA0A99089800F06EFB00287EF4F5
:105180005AAF299935AADDE93335FFF774B9AA4634
:10519000FEF707BB1E9A1C99A7EB020A504601F0C6
:1051A00027F899F801300BB109F10109AB19864ACA
:1051B0004FF0CC314FF0010E43F100030AF1FF37FD
:1051C000A2FB030C2CF0030000EB9C001B1AEB1A53
:1051D00066F1000603FB01F1A3FB023002FB06119E
:1051E00023FA0EF3014443EAC17521FA0EF6AB1916
:1051F00043F10003A2FB031020F0030101EB900137
:105200005B1AEB1AA3FB023166F1000023FA0EF3DE
:1052100002FB001243EAC27303EB8303A5EB4303D3
:1052200030330AF8013C6AE4079BDE077EF53DABAC
:10523000199B1A9A1D44C4E90023339B349501330A
:10524000072B339395DC04F10802FFF717B932AA54
:105250000A9908980B9300F0FFFA00287EF4EBAE51
:10526000299E35AC349D0B9BFEF7ECBF0B9B0133A5
:10527000159302230CE59DF89F30002B00F0D3819D
:10528000099A1F9B0132CDF81CA00F9309920B9332
:1052900018931493FEF7C8BA00230D460B93FEF73C
:1052A000B6B903222B46494F0F95109222E732AA36
:1052B0000A99089800F0D0FA00287EF4BCAE299E26
:1052C00035AC159B349D9E1BFEF7D0BF099A0B93FE
:1052D0000132129618930992CDE91333FEF7A4BA5E
:1052E0004E421031DFF8E8A03EDAB94610245746A6
:1052F00002E0103E102E35DD01331035072BC2E9D8
:105300000074CDE9333502F10802F2DD32AA0A99C0
:10531000089800F0A1FA00287EF48DAE35AADDE9E8
:105320003335E6E7002345AF0F93FFF771BB0B9BC7
:105330000022C5180023DDE92201FCF7AFF900289F
:1053400040F09C80309B9D423FF6C9ACCEE4159B5B
:10535000199A9A18139B002B109240F394804FF0E7
:105360006709E0E4BA464F4601333544C2F800A06D
:10537000072B5660CDE9333500F309810832FFF77A
:105380007DB81F9B9DF89FC00B93FEF77ABCC807A2
:105390007FF5B5A9FFF7AFB902F1004345AF2491FE
:1053A00025932D230F901F93FFF7F8B8B2460A9B61
:1053B0000022B3F90C300F9243F040030A9A938114
:1053C000FEF7EFB960870010CDCCCCCC648700101D
:1053D000C88800100B9B099C0F9E1093FFF708BB19
:1053E0001296002B00F044810B9B4FF073090B9039
:1053F0005A1C1093189009921490FEF715BA139B3B
:105400002D22C3F101038DF8B120092B3FF75DADCB
:10541000302207998DF8B22000220F920DF1B302CD
:10542000FFF75CB91346199A4FF0660913440B4411
:10543000109378E400230322CDE90F325AE6EB1BE8
:105440001593299B13935DE4079B23F08003079337
:10545000179B13F00043139300F0F8802D230322D1
:10546000B9F1470F8DF89F304FF00003CDE90F32AF
:1054700040F30981AD4F3DE6109367E5299B1393F7
:105480000B9B15930BE5C3F101034FF067091A4419
:1054900022EAE273109209934DE44FF067091D99D7
:1054A0000B78FF2B00F052810025139A284603E069
:1054B00001300131FF2B08D0934206DAD21A4B7823
:1054C000002BF5D10B780135F4E713921D91149060
:1054D0001895189A149B1E991344109A01FB0323E4
:1054E000109323EAE37309931F9B002B00F08C8039
:1054F000099BCDF81CA0013309932D238DF89F3013
:1055000000230F930B93FEF78FB949460B9CDDF8F0
:105510004C905F460029FFF6CAA84A1C334630204B
:10552000324403F8010B9342FBD131444E1CFFF788
:10553000BEB800220023DDE92201FCF7AFF8002805
:1055400000F0C480299B1393EB18DB1B1593FFF726
:10555000D9BB00220023DDE92201FCF79FF828B91E
:10556000309B9D423FF6BBABDB1B1593299BBBF1E8
:10557000470F13937FF49BAC91E4DDE9161202F11F
:105580000043229123932D231F93FFF770BB32AA70
:105590000A99089800F060F900287EF44CAD35AA0D
:1055A000DDE93335FEF76ABF0029C0F2958001239B
:1055B0001F969DED167B0B938DED227BFFF757BB5E
:1055C00002F1004324910F9025932D231F93FEF7A2
:1055D000E5BFDDE9161202F10043229123932D234A
:1055E0001F9306230B93FFF742BBDFF848C147E543
:1055F00023461F9F14460D46CDF874900B9A934294
:1056000028BF1346FEF709BE9DF89F30002B00F01F
:10561000C580099A1F9B0132CDF81CA00F930992F7
:105620000B93FEF701B91F9BCDF81CA00F930B93B2
:1056300018931493FEF7F8B8C2F101032D22092B39
:105640008DF8B1203FF744ACFFF746B8B9F1470FEA
:105650009DF89F30CCBF354F354F002B7DD10322B5
:105660000B931893109214930F930992FEF7DCB8E2
:105670000B9B4FF07309109309930F9B189314938E
:105680000B93FEF7D1B82A4F34E5099B9B7AFFF7BD
:105690000CB80A98B0F90C30426E43F04001D607BE
:1056A00081813EF5BEAA98053EF5BBAAFEF761B919
:1056B0000A9A536ED8073EF5B4AA938999053EF528
:1056C000B0AA906D00F042FEFEF7ABBA159BC3F195
:1056D00001032993FFF7F5BA01F1004322902393C8
:1056E0002D231F9301230B93FFF7C1BA129B95F84B
:1056F00001900D4653F8042B42EAE27212930B928A
:10570000FDF784BF33B901234FF066090993109365
:10571000FFF711BB199B4FF066090B9A01331A442E
:1057200022EAE27310920993FFF705BB6C87001021
:1057300068870010C888001002231B93FEF7D4BFAF
:105740000798FEF74ABB1946FEF787BB002318935C
:105750001493BEE6BA180B9250E70322002310926E
:1057600004220B930992189314930F93FEF75CB8DD
:105770000A9BDDF820A0B3F90C3043F040031DE68E
:105780000A9BDDF820A0B3F90C300F9043F04003E2
:1057900014E6139B18931493FEF746B81F9BCDF89D
:1057A0001CA00F930B93FEF73FB8DDF820A0FEE599
:1057B000DB1B1593299B1393FFF7A4BA10B4044C79
:1057C00013460A46014620685DF8044BFDF7A0BE6B
:1057D000C00B00202DE9F04198468B89ADF58D6D09
:1057E000164623F00203074616A80D46ADF80C3006
:1057F0001AAB6C46009304934FF4806302930593B5
:105800004B6E1993CB89ADF80E30CB6907934B6A79
:1058100009930023069300F093FD32464346694600
:105820003846FDF775FE061E07DB6946384600F070
:10583000BDF8002818BF4FF0FF36A3895B0603D5DB
:10584000AB8943F04003AB81A06D00F07BFD304697
:105850000DF58D6DBDE8F081936810B514461BB948
:1058600018460023636010BD00F098F90023A36080
:105870000023636010BD00BFB1F90C202DE9F04199
:1058800015070C4680464ED4496842F4006300294F
:10589000A38163DDA66A002E42D0002112F480525B
:1058A000D8F80050C8F8001065D10123E1694046DE
:1058B000B0470246501C6CD0B4F90C30A66A5907A8
:1058C00005D56368D21A236B0BB1E36BD21A0023A0
:1058D000E1694046B047421CB4F90C304DD1D8F8CC
:1058E00000101D2940D8304ACA40D7073CD523F4C0
:1058F0000062DE04A2814FF0000262602269226031
:1059000001D5002943D0216BC8F8005041B104F102
:105910004003994202D0404601F038FF0023236340
:105920000020BDE8F0810E69002EF9D092070D68C5
:105930000E600CBF4B690023AD1B8B600BE02B4648
:105940003246E1694046676AB847B0F1000CA5EB02
:105950000C05664406DD002DF1DCE1E7E16B002972
:1059600098DCDDE7B4F90C3043F040034FF0FF3032
:10597000A381BDE8F081226DA1E723F40062DB047E
:10598000A2814FF00002626022692260BBD52065CF
:10599000B9E7D8F80030002B8ED01D2B01D0162B84
:1059A000E0D1C8F80050BBE70100402038B50546FB
:1059B0000C4608B1436B03B3B4F90C0088B1636EB5
:1059C000DB0701D481050FD528462146FFF754FF98
:1059D000636E0546DA0702D4A3899B0508D52846DD
:1059E00038BD0546284638BDA06D00F0ADFCEBE79C
:1059F000A06D00F0ABFC284638BD00F0A5F8DBE751
:105A0000024A0349034800F03BBA00BF480A00209D
:105A1000D1810010C80B00200C4B4168994210B591
:105A2000044601D002F0D4FBA168094B994202D090
:105A3000204602F0CDFBE168064B994204D0204697
:105A4000BDE8104002F0C4BB10BD00BFD80E00205E
:105A5000400F0020A80F00202DE9F843314A00250F
:105A6000314C04233149DFF8D89004F15C00DFF8B1
:105A7000D4802F4F2F4E116029460822256065667D
:105A8000C4E90335C4E90155C4E9055500F062FBDA
:105A900004F15800E662C4E90749C4E9098700F047
:105AA0004FFC254B2946082204F1C4006367256793
:105AB000C4F8CC50C4F88050C4E91A55C4E91E5546
:105AC00000F048FB04F1680304F1C000C4F884301E
:105AD000C4E92298C4E9247600F032FC174B294629
