:020000041000EA
:10000000002008205D0100101B0100101D010010E0
:100010001101001011010010110100101101001058
:100020001901001019010010190100101F01001022
:10003000110100101901001021010010230100100E
:100040001101001011010010110100101101001028
:100050001101001011010010110100101101001018
:100060001101001011010010110100101101001008
:1000700011010010110100101101001011010010F8
:1000800011010010110100101101001011010010E8
:1000900011010010110100101101001011010010D8
:1000A00011010010110100101101001011010010C8
:1000B00011010010110100101101001011010010B8
:1000C00011010010110100101101001011010010A8
:1000D0001101001011010010110100101101001098
:1000E0001101001011010010110100101101001088
:1000F0001101001011010010110100101101001078
:100100001101001011010010110100101101001067
:10011000EFF30580103800BE00BE00BE00BE00BE7A
:1001200000BE00BEF2EB887114AE001034AE0010B9
:10013000A001001090A31AE7D3DEFFFF42012110B7
:10014000FF01000024C00000793512AB4FF0000021
:100150001E49086006C881F3088810474FF05040D8
:10016000006810B14FF00000F2E70DA40ECC00299A
:1001700002D000F012F8F9E71549164A002000E015
:1001800001C19142FCD11449884714498847144958
:10019000884700BEFDE701C901C29A42FBD3704700
:1001A00034AE001010010020381400205CC1001093
:1001B00000000820000008205CC10010001008208A
:1001C00000100820000000007047000008ED00E06B
:1001D00038140020E82100205D26001045020010A0
:1001E00027260010F8B500BF064B0749C91A891029
:1001F00048BF0131491003D0044B0BB101481847E7
:10020000704700BF381400203814002000000000A0
:1002100008B5054B1BB105490548AFF30080BDE8A3
:100220000840FFF7E1BF00BF0000000018200020D9
:10023000E8A5001013460A46014904F086BC00BF39
:10024000E8A500102DE9F34100261F4D1F4C204F5B
:10025000DFF894802E60266000F048F81D4804F016
:10026000A9FC3E7088F800601B4E3B7873B1226891
:1002700029681A480A4404F09DFC2468FCB918480F
:1002800004F098FC204602B0BDE8F08164226FF0D3
:10029000630101A80196FFF7CDFF3222642101A876
:1002A000FFF7C8FF012398F800203B7082EA0301A2
:1002B0002B680B442B60236813442360D5E709485F
:1002C00004F078FC0124DDE7CC150020C8150020DF
:1002D0008D2000200BA6001078AA001023A6001085
:1002E00036A600104EA600108C20002002F0D2BAD4
:1002F000034B0A461B680146D86807F09FBA00BF47
:10030000E812002002F01AB90FB407B5049C0748A0
:1003100002F0D0FA3CB105A92046019102F01CF987
:10032000034802F0C7FA012002F039F967A600106D
:1003300000A80010EFF3108072B6064BD3E8CF1F71
:1003400001220029FAD1C3E8412F0029F6D1BFF3D9
:100350005F8F70479C2000200023034AC2E88F3F34
:1003600080F31088704700BF9C200020CB08C05C41
:10037000012301F007018B401840003818BF01200D
:100380007047F8B505460C461746FFF7D3FF2146E0
:1003900006462846FFF7EAFF18B121463846FFF720
:1003A000B3FF0123E208A95C04F00704A3400B4358
:1003B000AB543046BDE8F840FFF7CEBFF8B5144661
:1003C00005460E461F46FFF7B5FF0246BC4202D95E
:1003D0004FF0FF340CE021462846FFF7C7FF80B9F5
:1003E0000123E10804F007008340685C03436B5479
:1003F0001046FFF7B1FF002C05DA26B10698FFF78B
:1004000083FF0134E2E72046F8BD0000044A10787B
:10041000431CDBB2182B28BF10231370704700BF9A
:10042000C00C002007B5054B0146009318221F237E
:100430000348FFF7C3FF03B05DF804FB77A6001085
:10044000CC1B00204FF0E022936843F000539360F0
:100450007047000000231A4603481918C1E88F2F7F
:100460000133202BF9D1704791200020064B10302A
:100470009B6843F82010BFF35F8F00230349C1E856
:100480008F3F82F31088704700ED00E09A20002033
:100490004FF08030044B054A1946043393420860FC
:1004A000FAD162B6704700BF00E400E034E400E037
:1004B0000122430900F01F00824041B19B0003F17B
:1004C000604303F56143C3F880211A607047024915
:1004D000203341F82320704700E100E0064B420939
:1004E00053F82220012300F01F0003FA00F010400F
:1004F000003818BF0120704700E100E001224309E5
:10050000034900F01F008240403341F82320704728
:1005100000E100E0024B10309B6853F82000704768
:1005200000ED00E008B5FFF7F5FF034BC01A2F28D8
:100530008CBF0020012008BDC40C002070B505460A
:100540000C46EFF3108672B60D4BD3E8CF1F012295
:100550000029FAD1C3E8412F0029F6D1BFF35F8FFC
:10056000FFF7D8FF074B984203D0A04201D000F01C
:1005700037FE324621462846BDE87040FFF776BF79
:100580009A200020110100102DE9F74F80468A467D
:100590009146EFF3108372B60193674BD3E8CF1FF8
:1005A00001220029FAD1C3E8412F0029F6D1BFF377
:1005B0005F8FDFF8A0B19BF90030002B01DA00F06B
:1005C0000FFE4FF00C0C9BF900605C4D08F110021F
:1005D0000CFB06539B7906EB46048BF80030584B16
:1005E000A7009B6805EB840453F822104B1B2F2BAC
:1005F00022D9544B994201D000F0F2FD0C234FF464
:1006000021417343EA18E9524F4B02372F44043B10
:10061000DB1BC3F34A036FEAC3436FEAD343538040
:100620004BF601539380FF2382F807909371C2F831
:1006300008A044F0010140E021F00100034600223F
:1006400093F807E0CE453FD8DFF80CC1002A46D02A
:1006500092F906E002F1040BBEF1000F3DDB6FF0F2
:1006600007009388C01B5B0542BF03F5FF1303F52A
:10067000FF531F335B1502330BEB4303401B034453
:10068000C3F34A036FEAC3436FEAD343043CA4EBCA
:100690000B04C4F34A046FEAC4440C206FEAD44448
:1006A0007043948096712A1845F800C0938082F8B0
:1006B00006E082F80790C2F808A04046019A03B00D
:1006C000BDE8F04FFFF7D2BE93F906E01A46BEF13F
:1006D000000FB9DB0CFB0E53B2E71C4BD6E74AF612
:1006E000AA2103465B1B5B415943090D0C235E4362
:1006F0004FF42143144AAB53BB1C2B44043AD21A87
:10070000134BC2F34A0205EB060E1A43AEF8022061
:100710006FF00702D21B521B0244C2F34A021A4373
:10072000AEF804208EF806108EF80790CEF808A0D8
:10073000C0F800C07DE700BF9A200020C40C002054
:1007400000ED00E011010010F40C002001BDFFFFDE
:1007500000E0FFFFCA21002001488047F0B5EFF319
:100760000586F6B2EFF3108772B6214CD4E8CF2F8E
:100770000123002AFAD1C4E8423F002AF6D1BFF390
:100780005F8F4AF6AA2301461A4A891A49414B4308
:100790001B0D59B2184B40F00105D3F808C05CF8A6
:1007A00026C0AC4525460DD19B68144A43F8262047
:1007B000134B1A78197082710023C5E88F3F87F3B5
:1007C0001088F0BD1446002394F906608E4208D1CB
:1007D0000C2404FB0323FF229A714BF601529A80EA
:1007E000E6E70133042B04F10C04EDD1E0E700BF90
:1007F0009A200020C40C002000ED00E01101001040
:10080000CA21002007B5074B0146009300220523AB
:100810000548FFF7D3FD0028A8BFC0F1330003B09F
:100820005DF804FB92A60010E7210020014B0B4469
:10083000036070479120002010B50446FFF7E6FDE5
:1008400001462046FFF7F2FFFF232371BFF35F8FBE
:1008500010BD10B50446FFF7D9FD01462046FFF74D
:10086000E5FFFF23A380BFF35F8F10BD38B50848B5
:10087000084DA84200D338BD044654F8083B1BB1CC
:10088000FFF7E7FF2046F4E7FFF7D6FFFAE700BFE0
:10089000301400203814002010B504460120FFF762
:1008A000C1FD034B03442360BFF35F8F10BD00BF46
:1008B00091200020024B0B440360BFF35F8F704711
:1008C000912000200D4B10B51A68EFF3108172B61D
:1008D000D2E8CF4F0120002CFAD1C2E8440F002CFF
:1008E000F6D1BFF35F8F1A680023C2E88F3F81F310
:1008F000108840BF0020002110BD00BF58200020FC
:100900002DE9F04F2DED028B85B0EFF30582D2B2C9
:10091000A34B103A9108A34D18BF1D46E81A434255
:1009200002F00302434102EB830301929E4A9FEDD2
:100930009A8B52F823400123019A93400293029A22
:1009400005F541535A60029BEB63B4F90830002B64
:10095000009352DB18265E436769284607EB0608BA
:10096000D8E902A900F0A4FA504571EB090144DB73
:10097000B9F1000F6FDBD8E9043B8C4A934255D1A3
:100980005846DBF810309847002864D0DBE9003B7C
:1009900053EA0B025FD0BBF1000F53DABAEB03004E
:1009A00069EB0B0137F906C0C8E90201BCF1000F81
:1009B00023DB4FF0180BD4F814900BFB0C93D3E906
:1009C0000223904271EB030317DBA6462EF808CFF3
:1009D0000BFB0CFA09EB0A08D8E90223904271EBF1
:1009E000030305DB39F90AC0C646BCF1000FEFDA94
:1009F000009B27F806C0AEF80030A388190446D53E
:100A0000A37943B10023A371B4F9083004F10806B7
:100A10005A1C40F08180B4F90820002A80F29780A7
:100A200040BF05B0BDEC028BBDE8F08FB8F80220E6
:100A3000B4F9080092B2594642EA0040984703468A
:100A40008B46A5E72846039300F032FA039BC018B3
:100A50004BEB0101A6E7BB5B23812369EFF3108217
:100A600072B6D3E8CF0F01210028FAD1C3E8401FA6
:100A70000028F6D1BFF35F8F63880021BB53009B32
:100A800063802369C3E88F1F82F31088B5E7236969
:100A9000EFF3108172B6D3E8CF0F01220028FAD10C
:100AA000C3E8402F0028F6D1BFF35F8F4FF6FF72E7
:100AB000A3880020A2801BB22269C2E88F0F81F3B5
:100AC0001088182704F10809002B99DBCE4607FB94
:100AD00003F06269B4F908C01118D1E902BABCF197
:100AE000000F0FDBBEF9001001EB410102EBC10862
:100AF000D8F80C600096D8F80860B345009E7AEBF1
:100B0000060605DAAEF80030135E22F800C0DBE717
:100B1000C64632F931C0E2E7616903EB430001EBFD
:100B2000C002B2F802C031F930701CF4004F0CD092
:100B3000B4F908C082ED028B634504D03780228966
:100B400021F8302023813B4662E71646FBE7182157
:100B5000636901FB0233D3E90267B7F1FF3F08BFC6
:100B6000B6F1FF3F0FD0019BA96A05EB8302136921
:100B7000701A5B1A984205D301230198296A8340B1
:100B80000B4200D11661284600F092F9B042B941FB
:100B9000BFF6D9AE44E700BFFFFFFFFFFFFFFFFF37
:100BA00000800B4000000B4038200020010900109D
:100BB000F8B504461646C1601F460D46FFF726FCF1
:100BC0004FF0504226701268184B62704FF6FF7259
:100BD00003442361BBB26381013B2281A280638015
:100BE00000221823BA4218D1114F1249EB1B5F4261
:100BF0005F41114B06EB870743F82740012404FAB5
:100C000006F638462E62FFF799FC05F50155214698
:100C10003846FFF74DFC2E60F8BD03FB02F160691A
:100C200002F1FF3C20F801C00132DBE791200020F7
:100C300000800B40010900103820002010B5094C3D
:100C400023694BB90321084800F020F9102303223F
:100C500020460549FFF7ACFFBDE810400A210348D4
:100C6000FFF7E4BD0C0D002000000B4058200020D1
:100C7000074A536A994206D8926A824205D2C81A34
:100C800018BF01207047002070470120704700BF47
:100C900000000B40004870470C0D00200146F0B5E5
:100CA0000069EFF3108E72B6D0E8CF5F0124002DFB
:100CB000FAD1C0E8454F002DF6D1BFF35F8FB1F9EF
:100CC00002504E6905EB45044FEAC40C002DA8BF45
:100CD00036F80C004FF00007A8BF488006EBC404AC
:100CE0000869C0E88F7F8EF31088BD4231DB05981C
:100CF000C4E90223206106980B69606160880130B5
:100D0000C0F30E00012838BF0120608040EA054092
:100D1000EFF3108272B6D3E8CFEF0124BEF1000FDB
:100D2000F9D1C3E84E4FBEF1000FF4D1BFF35F8F8E
:100D30008B8826F80C308D800B69C3E88F7F82F397
:100D4000108801220B789A40CB6803F501535A6052
:100D5000F0BD4FF0FF30FBE72DE9F0479DF828701C
:100D60000646DDE9088915461C4647B12A46234652
:100D70003046CDE90889BDE8F047FFF78FBF00F0A6
:100D8000C1F8854264EB01010029EFDA3846BDE87D
:100D9000F0870346408970B5B0EB214F4FEA2142FE
:100DA00001DC002070BD1824586904FB02001A6998
:100DB000EFF3108472B6D2E8CF6F0125002EFAD17E
:100DC000C2E8465F002EF6D1BFF35F8F428889B23A
:100DD00092B28A4214D142F40042428001209871BA
:100DE00000221969C1E88F2F84F310880028D8D019
:100DF00001221978DB688A4003F501535A60D1E774
:100E00000020EDE7407870472DE9F04304460D4699
:100E100085B0EFF30587FFB227B105B0BDE8F04319
:100E2000FFF726BF174ED6F80C9096F8008048467C
:100E300000F03EF808F1040859F82830221AA3EB14
:100E4000000365EB01019A4271F1000103DB20BF51
:100E500020462946E1E70C4B3046009322462B46BC
:100E6000CDE90177FFF778FF061E29462046D4DD3D
:100E7000FFF7FEFE00B920BF31460248FFF789FFA9
:100E8000E6E700BF0C0D0020C508001010B4054BAC
:100E9000054C064AA04214BF1846581C5DF8044B86
:100EA000FFF76FBAC821002000800B40ADA60010EC
:100EB0000346416A0A46986A596A8A42FAD17047DB
:100EC000416A9942FCD3994202D1816A914200D38E
:100ED0007047416AF7E72DE9F04116461D46044682
:100EE000FFF7E6FF821951EB05034FF0000728BF1B
:100EF000012717B14FF0FF3213462046BDE8F041FD
:100F0000FFF7DEBF0148FFF7D3BF00BF00000B4073
:100F100002460B460148FFF7DEBF00BF00000B4052
:100F2000F0B50C24444304F1804404F58034059E5C
:100F300094466268071FB242FFB238BF6660012F55
:100F400004F5405224D8012922D103251560A26856
:100F5000D207FCD5226804F5805582EA4C1202F0D3
:100F6000E002012F2A6009D822684A4002F00302F9
:100F70002A6001228A40A1681142FCD04FF400612E
:100F800004F5005211600B4A666042F82030F0BD53
:100F90004FF400651560074D55F82020002AD9D080
:100FA0006D69B5FBF2F5013505EB4505033DFDD255
:100FB000D0E700BFD01B002013B54FF4803400945D
:100FC000FFF7AEFF02B010BD014B53F82000704791
:100FD000D01B002070B51D4CB4FBF1F4B2FBF4F251
:100FE000049C240344EA03430468002C0EDA0468DA
:100FF00004F03F048C4209D18468C4F30B0494428A
:1010000004D1C46804F4EE249C421DD0104D012488
:10101000A84214BF0E250F25AC400E4D0E4E2C607D
:1010200005F580552C60B56834EA0505FBD10160F3
:101030002121826000F540520432116001680029CC
:10104000FCDAC3600823136070BD00BF001BB7004B
:10105000008005400020024000000240024B1A6858
:10106000024B5A60704700BF1020002000800D40E6
:101070004FF08043114A10B5114C136003F5D03383
:101080009C604FF0E06403F5402329B11C6028B94F
:101090004FF000421A6010BD1460F8E74FF47A7305
:1010A0006FF07F425843074B904294BF18601A601C
:1010B000FFF7D4FF4FF08042034BEBE700B00D4049
:1010C000F3FFFF011020002000A00D4010B40346E4
:1010D0004FF0804410460A4A146004F558246BB15E
:1010E000084A43F00103E261074A5A402262616202
:1010F000A36200215DF8044BFFF7BABFE361F8E794
:1011000000B00D40D3C007B02D3FF84F0C2358431B
:10111000012300F1804000F58410416003607047B6
:10112000002370B5DB8A05460E46002242E800F235
:10113000520254BF1021042144F252209847044621
:1011400033462A46A446BDE870400A214FF4817018
:1011500060470023DB8A002242E800F2520254BFBB
:1011600010210421184708B50B46011E02DB22B9E5
:1011700043F020031846FFF7D3FF43F03003F9E7AD
:10118000034AD2F82838002BFBD0BFF35F8F70479B
:1011900000000E400021044B044ABFF35F8F43F868
:1011A000041B9342F9D170470C080E402C080E40E6
:1011B000FFF7F0BF4FF42A62054B06491A604FF45F
:1011C0008D72DA60044A11605A68002AFCDA7047AE
:1011D0000080044000B0FA0000A004407047000006
:1011E00008B50148FFF790F8CFA6001038B5044CB9
:1011F000044DAC4200D338BD54F8043B9847F8E79F
:10120000A0A50010E0A50010054B064A06491A608B
:10121000064B074A13608A6833EA0202FBD1704723
:10122000002002407F3BEFEF00000240F6FFF30397
:1012300000300240044BDB6CB3F5004F02BF4FF4AB
:101240008022024BDA6470470000115000201150D8
:101250004FF0E022044BD2F8881D0B43C2F8883DC2
:1012600010EE3004704700BF030330006FF060429F
:10127000044B1A60044A9368DB4333F06043FAD1AD
:10128000704700BF003002400000024010B545F238
:101290005320FFF75EFFBDE81040034604201847C7
:1012A00010B545F25320FFF754FFBDE81040034648
:1012B00001201847FFF7CEB810B50B490B4C0C486E
:1012C000641AA410442C224628BF4422920007F03E
:1012D000CDF8074B074A432C02D9074A936010BD4B
:1012E00043F824200134F6E700000010100100103C
:1012F000000000201101001000ED00E0002373B594
:10130000294DC5F88430FFF755FF0122274BDA63DA
:101310006A6C012AFCD103221A63AC6B012CFCD14C
:101320000226052521460523214A22480096FFF77B
:1013300051FE2B462146204A20480095FFF74AFEE1
:101340000022314604201E4BFFF736FE2146284678
:1013500000221C4BFFF730FE0022082011461A4BDA
:10136000FFF72AFE002209201146174BFFF724FE43
:10137000002206201146134BFFF71EFE0022072015
:101380001146104BFFF718FE0420FFF71DFE0F4D0E
:101390000024B0FBF5F5E0B229460134FFF7B6FEB4
:1013A000062CF8D102B070BD0000014000300140B1
:1013B000002F685900000540008C864700800540DA
:1013C000001BB70080D1F008006CDC0240420F0027
:1013D00086B003B451FC0804CDE9020151FC0904B4
:1013E000CDE9040151EC0A04CDE9060103BCF04744
:1013F000BDE800504EEC00C4BDE800504EEC01C406
:10140000BDE800504EEC02C400BD000000B5FFF77F
:10141000DFFF02E010FE30F4F8D441EC100443EC9E
:10142000112400EE010410EE010480EE200451ECC2
:101430001004704700B5FFF7CBFF02E010FE30F458
:10144000F8D441EC100443EC112400EE010410EE3A
:10145000210480EE200451EC3004704700B5FFF702
:10146000B7FF02E010FE30F4F8D410B541EC1004E0
:1014700043EC112451EC040453EC0524A0FB024C72
:101480005FF0000EE0FB03CEE1FB02CE4CEC20440B
:101490000024E1FB03E444EC30E480EE200451EC52
:1014A0005004BDE81040704700B5FFF791FF02E01F
:1014B00010FE30F4F8D441EC100443EC112451EC4C
:1014C0002104A0FB01126FEA820252FB100052FBC2
:1014D00012F252FB1000A0EBD07C53EC04245CFB16
:1014E00013F153EC1524A1FB022001FB030053EC84
:1014F0004424A2EB000050FB1CF24FEA111312EB44
:10150000017043EBE27140EA515020EA915020F023
:10151000070053EC7524A0FB023C53EC752400FB40
:1015200003CC01FB02CC53EC0424ACEB824C40EA2C
:101530005C70A0F1010041EC400480EE200451EC0D
:101540007004704700B5FFF743FF02E010FE30F46F
:10155000F8D440EC700400EE010410EE210480EE9B
:10156000200451EC3004704700B5FFF731FF02E072
:1015700010FE30F4F8D440EC600400EE010410EEEC
:10158000210480EE200451EC3004704700B5FFF7D1
:101590001FFF02E010FE30F4F8D441EC800400EEAE
:1015A000010410EE010480EE400410EE13047047B5
:1015B00000B5FFF70DFF02E010FE30F4F8D441EC67
:1015C000800400EE010410EE010480EE400410EEF1
:1015D0003304704700B5FFF7FBFE02E010FE30F465
:1015E000F8D441EC100443EC112400EE010410EE99
:1015F0003004C0F30070704700B5FFF7E9FE02E069
:1016000010FE30F4F8D441EC100443EC112400EE49
:10161000010410EE3004C0F38070704700B5FFF78E
:10162000D7FE02E010FE30F4F8D443EC102441EC75
:10163000110400EE010410EE30F48CBF01200020F4
:10164000704700BF00B5FFF7C3FE02E010FE30F4A4
:10165000F8D443EC102441EC110400EE010410EE28
:1016600030F42CBF01200020704700BF00B5FFF709
:10167000AFFE02E010FE30F4F8D441EC100443EC6D
:10168000112400EE010410EE30F42CBF01200020E4
:10169000704700BF00B5FFF79BFE02E010FE30F47C
:1016A000F8D441EC100443EC112400EE010410EED8
:1016B00030F48CBF01200020704700BF9A4238BF31
:1016C0008854704770472DE9F84F9846DDE90B497B
:1016D0000D9B15469A0706460F4623D02A460A9BBD
:1016E00003EB040A1444A24220D10D9B9B0705D5AD
:1016F000A2EB050AD14505EB0A0420D82046BDE837
:10170000F88F434639462020B0470AF1010ACA45FE
:101710000AEB0B02F5D3A9EB04024C4588BF00226B
:101720002A44DCE7A246A5EB040BF0E702F1010B2B
:10173000434639461AF8010DB0475A46D3E74346A7
:10174000224639462020B0470AF1010AD2E72DE9A6
:10175000F047DDE90D7616F0020F9DF82880DDE9EF
:101760000854DDE90BCE1FD106F001094FB1B9F1E4
:10177000000F06D0B8F1000F02D116F00C0F00D008
:10178000013F4FF0300A02E005F804A00134A645FD
:1017900001D9202CF8D1B9F1000F05D04FF0300954
:1017A000BC4201D2202C2DD116F0100F1FD016F400
:1017B000806F2CD15CB3744501D0BC4227D1B4F109
:1017C000010E23D0BCF1100F46D1023C16F0200FC1
:1017D00028D1202C28D04FF0780C05F804C0013413
:1017E000202C21D04FF0300C05F804C00134202CFF
:1017F0001AD0B8F1000F23D04FF02D0C05F804C01B
:10180000013412E005F804900134C9E77446BCF1D4
:10181000100FDBD0BCF1020FE2D1202C04D04FF02E
:10182000620CDAE7202C08D12024CDE90A76CDE934
:101830000854BDE8F047FFF746BF4FF0580CCCE71F
:1018400016F0040F02D04FF02B0CD7E716F0080F5C
:10185000EBD04FF0200CD1E7BCF1020F7446C1D1A0
:10186000DDE72DE9F04391B0189D1A9E1D9F0DB93B
:1018700027F010077C0500D515B317F0200F14BF13
:101880004FF0410E4FF0610EAC4600250DF12008DF
:10189000AEF10A0EBCFBF6F906FB19C95FFA89F432
:1018A000B9F1090F94BF30347444E4B2B44508F878
:1018B000014B05F10105BCFBF6F401D3202D10D13D
:1018C0001C9C069705941B9CCDE903649DF864401D
:1018D000CDE9015408AC0094FFF739FF11B0BDE821
:1018E000F083A446D6E72DE9F04F95B0269ECDE9CA
:1018F0000A23DDE91E74DDE9229B57EA040308BFD1
:1019000026F010067205CDE9080102D557EA040356
:1019100037D016F0200F14BF4123612300250DF1AD
:10192000300AA3F10A0821464A465B46384608F0C9
:101930001BFED2B2092A94BF303242444F45D2B284
:1019400074EB0B0405F101050AF8012B01D3202DDE
:1019500014D1259B06960593249BDDE90801CDE96A
:1019600003939DF88030CDE901530CAB0093DDE982
:101970000A23FFF7ECFE15B0BDE8F08F07460C46D2
:10198000D1E70025E5E700002DE9F04F93B09DED8C
:101990001C7BCDE90C32DDE91E630E9353EC172B53
:1019A000CDE90801104619468DED067B209DFFF715
:1019B00015FE80B9DDE906014FF0FF320E4BFFF74F
:1019C0006DFE40B9DDE906014FF0FF326FF4801380
:1019D000FFF728FE90B1DDE908019DED067B0E9B27
:1019E0008DED1C7BCDE91E63DDE90C32209513B033
:1019F000BDE8F04F00F090B9FFFFEF7F0022DDE976
:101A000006010023FFF70EFE002800F04581DDE906
:101A100006A303F1004B15F4806308BF06260F935D
:101A20005AEA0B03D046D94600F03981CBF30A506D
:101A3000A0F2FF30FFF78AFDB3A3D3E90023FFF73D
:101A400011FDB3A3D3E90023FFF7E4FCCBF31303A9
:101A5000CDE90A0143F07F510022A54B504641F4E5
:101A60004011FFF7EBFC96A3D3E90023FFF7FAFC44
:101A700002460B46DDE90A01FFF7CCFCFFF78AFDC1
:101A80000446FFF763FD90A3D3E90023804689460F
:101A9000FFF7E8FC0022974BFFF7BCFCFFF77AFD4D
:101AA0008BA3D3E90023074649464046FFF7DAFCFB
:101AB000804638468946FFF749FD87A3D3E90023CE
:101AC000FFF7D0FC02460B4640464946FFF7B6FCFE
:101AD00002460B46CDE90A23FFF7C4FCDDE90A23E1
:101AE0008046894610461946FFF794FC0022CDE94E
:101AF0001001814B40464946FFF7DAFC00227F4B3C
:101B0000FFF788FC02460B4640464946FFF7D0FCEB
:101B100000227B4BFFF77EFC02460B4640464946BF
:101B2000FFF7C6FCDDE90A238046894600204FF016
:101B30008041FFF783FC02460B4640464946FFF7CB
:101B400069FC02460B46DDE91001FFF7B1FC07F224
:101B5000FF3700226B4BFFF75DFC00223B05FFF7D0
:101B600081FC52465B4680468946FFF797FD40B1AF
:101B7000404649460022614BFFF79AFC8046894661
:101B8000013C04F16303C62B8CBF052704272905FC
:101B900021D558EA090311D051A3D3E900235046B7
:101BA0005946FFF767FD00287CD04FA3D3E90023F7
:101BB00050465946FFF736FD002873D0A642D8BFDD
:101BC00000244FF00007C4BF341B04F1FF34264645
:101BD0003C4645F480650E9B9F422CBF0023DB1BD7
:101BE0000A9315F002030F9304D0002F0A9B18BF2D
:101BF00000230A933CB15046594642464B46FFF7F4
:101C000057FC82468B46DDE9060100220023FFF7E0
:101C100009FD10B10BF100439B46DDE9080125F4F5
:101C2000006304930A9BCDE900ABCDE90263DDE9D3
:101C30000C3200F071F8024657B315F0200F0C9BE0
:101C400000F1010509990CBF65204520089EB047A9
:101C5000DDE908010523002205930A23002CCDE9C4
:101C6000023207F1FF374FEAD473B8BF64422A4605
:101C7000019304970C9B0094FFF7F3FD0F9B024622
:101C800033B10D9BC41A0D9B1A190E9BA34210D899
:101C9000104613B0BDE8F08FDDE906ABBBE60024CB
:101CA000042774E7002E96D00F9B002B93D0013EA3
:101CB00091E720200C9B0999089DA8470134E2E791
:101CC00061436F63A787D23F71A379094F930A409D
:101CD0001655B5BBB16B0240EF39FAFE422EE63F16
:101CE0002D431CEBE2361A3F0000000080842E4199
:101CF0000000F83F0000E03F00002C4000002440BE
:101D0000000018400000F03FFB799F501344D33F80
:101D1000B3C8608B288AC63F2DE9F04F97B0DDE944
:101D200020ABCDE90501DDE92247CDE90723504687
:101D300052465B465946249EFFF750FC70B1032380
:101D4000CDE922762193AE4B2093DDE90501DDE953
:101D5000072317B0BDE8F04FFFF7B5BC4FF0FF32D7
:101D60006FF4801350465946FFF75CFC28B10423FA
:101D7000CDE922762193A34BE6E74FF0FF325046A0
:101D80005946A14BFFF78AFC50B170074CBF0422A3
:101D90000322CDE922764CBF9C4B9D4B2192D3E789
:101DA000504693A3D3E900235946FFF777FC38B98F
:101DB00091A3D3E9002350465946FFF733FC68B19D
:101DC000DDE90723DDE90501CDE92376CDE920AB87
:101DD000229417B0BDE8F04FFFF7D6BD00220023D4
:101DE00050465946FFF71EFCB8B15B4652460020EC
:101DF0000021FFF723FB012382468B46099316F44B
:101E0000806F08BF0624302123460EAAA4F12009C2
:101E1000092B04D89946E41A07E00990EFE7013B43
:101E20004B4502F8011BF3D1202459465046FFF7D9
:101E3000B1FB784B054603EBC90393ED007B8DEDB9
:101E40000A7BFFF783FB02460B4650465946FFF7D5
:101E5000F5FADDE90A23FFF705FB02460B46CDE95B
:101E60000C23FFF7A9FB8046FFF782FB02460B46D7
:101E7000DDE90C01FFF7E2FA02460B46CDE90C233F
:101E80000022654BFFF70AFCC8B108F10108404683
:101E9000FFF76EFB02460B46DDE90A01FFF7D6FBB2
:101EA00010B14FF000080135B9F1000F18D00A2128
:101EB0000EAB2344202C4BD13022A1445CE0002205
:101EC000DDE90C01544BFFF7ADFB0028ECD1B8F174
:101ED000000F02D018F0010FE6D008F10108E3E787
:101EE0002846FFF733FB02460B4650465946FFF79C
:101EF000A5FA0022484B80468946FFF793FB48B974
:101F0000002240464946444BFFF7C8FB10B9013553
:101F100025F001050A210EAB1A19202C0AD095FBD9
:101F2000F1F001FB1055303502F8015B0134054634
:101F30000028F2D106F00302012A3FD1002F3DD044
:101F4000099A12B916F00C0F00D0013F302224E09C
:101F5000B8FBF1F001FB1082B8F1090F02F1300279
:101F600009F1FF3904F1010403F8012BA4D98046DB
:101F7000A0E70EA90A551C46202CCBD04C4504F1F5
:101F80000103F6D104F158020DEB02042E2204F8ED
:101F9000202C1C46BEE71A550134A7420ED9202C2E
:101FA000F9D1CDE90034DDE90501DDE90723CDE90B
:101FB0000276FFF788FB17B0BDE8F08F202CF0D039
:101FC000099A3AB12D2104F158026A4402F8201C02
:101FD0000134E6E7710704D504F158022B216A4465
:101FE000F4E73207DDD504F1580220216A44EDE719
:101FF0000000000065CDCD410000000065CDCDC1E1
:102000002BA700102FA70010FFFFEF7F22A70010C3
:1020100027A7001068A800100000E03F08B100F0FA
:102020003BBC70472DE9F04F90469B46AF4AB04B02
:1020300091B01A600B1E0A93AE4B14BF81469946AD
:1020400000251A9E9BF8000070B9454538BF2A4606
:1020500043464FF000000A9928BF08F1FF32C847F5
:10206000284611B0BDE8F08F25280BF1010B06D0F2
:102070002A4643460A996C1CC8472546E2E70023D6
:102080000CE02D2A1FD0302A05D0A2F130000928FB
:102090000ED8002729E043F001038B46594611F87A
:1020A000012B2B2A12D0ECD8202A12D0232A13D0AD
:1020B0002A2A33D156F8047B8B46002FBCBF43F04D
:1020C00002037F4218E043F00203E6E743F0040313
:1020D000E3E743F00803E0E743F01003DDE70A20FD
:1020E0008B4600FB0722A2F13007594611F8012B5D
:1020F000A2F130000928F2D99BF800202E2A44D101
:102100009BF801100BF10102A1F13000092843F402
:10211000806331D800244FF00A0C06E00027EBE77B
:1021200002460CFB0411A1F13004104610F8011B0B
:10213000A1F1300EBEF1090FF2D9114611F8010BD1
:102140006C282CD024D8682830D06A2837D0114683
:102150008B461BF8010B67285CD8572832D84528D6
:1021600007D085D9462800F0E980472880D143F47C
:10217000006343F02003F7E02A2907D156F8044B07
:102180000BF1020224EAE474D7E75A460024D4E7AC
:10219000742801D07A28DAD143F48073D8E75078D4
:1021A0006C28F9D143F44073911CD1E7507868282A
:1021B00002D043F08003CBE743F0C003F4E743F4DD
:1021C0000073C5E7A0F158020F2A3FF651AF01A1F5
:1021D00051F822F06B2200107120001071200010C5
:1021E000712000107120001071200010712000106B
:1021F0007120001071200010712000106B2200105F
:10220000912300106B220010652300104123001061
:1022100065230010A0F16901C9B20F293FF628AF6C
:10222000012249F2410C8A4012EA0C0218D10A2913
:1022300000F0EA8007297FF41BAF43F021030593E8
:102240000823CDE903431023CDE9012356F8043BCD
:102250002A460093484643460A99FFF702FB7FE06F
:102260006F2840F0358108220BE0582810D06228F2
:1022700000F02C8123F0100364284FF00A0200F0D4
:102280002F8123F00C032BE17828F3D11022F8E7FB
:1022900043F02003FAE7D90506F1040A01D53168B5
:1022A00002E058060CD53178CDE90224CDE904735B
:1022B00000294FEAD1730193B8BF4942009126E04B
:1022C0001906ECD5B6F90010EEE7A9B1CDE9077310
:1022D0000023CDE9042306F1070A2AF0070A069431
:1022E0000293FAE80223CDE900231EE12520001025
:1022F0000C200020C5160010D80506F1040A0DD5E3
:10230000CDE90473CDE9022401913368009343467B
:102310002A4648460A99FFF7A4FA0CE1590607D560
:102320003178CDE904730023CDE902240193C5E798
:10233000316813F0800F18BF89B2F2E743F0200331
:10234000CDE90373073626F007060294F6E8022368
:102350004846CDE900230A9943462A46FFF7DCFCAC
:1023600005466FE6672810D0CDE90373073626F0DF
:1023700007060294F6E802234846CDE900230A99AD
:1023800043462A46FFF700FBEAE743F40063EBE726
:1023900013F0020423D04FF0010A6B1C0B932A4662
:1023A00043460A9916F8040BC8475CB354460B9A87
:1023B0001EE0434620200A99C84705EB0A020AF1AD
:1023C000010A5745F5D8002F07F1FF3308BF002356
:1023D00007F1010A1D4408BF4FF0020ADDE7A246DB
:1023E000EBE7551C434620200A99C8472A4601348A
:1023F000A742F6D8A7EB0A03574538BF00230B9A2C
:102400001A440B920B9D1DE63246002C52F8046BC9
:1024100014BF21464FF0FF310B9232463144107801
:1024200008B1914211D1A2EB060A13F480620D9219
:1024300002D0A24528BFA24613F002030E931BD17F
:10244000AAEB05032A460C9308E00132E7E7531C88
:102450000F93202043460A99C8470F9A0C9BD31824
:10246000BB42F4D3A7EB0A03574538BF00230AF158
:10247000010202EB030A1D44AB1B0C9304E01C4653
:1024800043462A460A99C8470C9B9D1916F8010B2A
:1024900028B10D9B002BF3D0631E002CEFD10E9BB7
:1024A00093B12A46AAEB050405E0561C43462020BA
:1024B0000A99C847324613199F42F6D8A7EB0A0378
:1024C000574538BF00231D440B9EBBE50222D8E6CA
:1024D0003FF6DAAE692823F010037FF4CDAE0A226E
:1024E000590548BF23F00103692803F4007102D0A5
:1024F00064287FF4EAAE00293FF4CDAE073626F01B
:102500000706B24670685AF8081BCDE90773002326
:102510000593C30F0028029306940B46049202DA37
:102520004B4260EB4000CDE9003043462A46484626
:102530000A99FFF7D8F90546564683E507B5009393
:1025400013460A4601460348FFF76CFD03B05DF8E9
:1025500004FB00BFBD1600101FB5084A03461468EF
:1025600044B100914FF0FF32054803A9A047012074
:1025700004B010BD00F09EF92046F9E70C200020C1
:102580001D2000100FB407B504A951F8040B0191E8
:10259000FFF7E2FF03B05DF804EB04B0704700BE44
:1025A000FDE70000064A0346106808B905481060B8
:1025B000054903448B4294BF13604FF0FF307047CE
:1025C000081C0020E82100200000082003460846DF
:1025D000114623B9034BD3E9002300F0FFB84FF0B5
:1025E000FF30704708A800100346013B012B10B5CF
:1025F0000846144606D801230022214600F0AAF816
:10260000204610BD4FF0FF34FAE74FF0FF3070471F
:102610004FF0FF3070474FF0FF30704702288CBFFB
:1026200000200120704708B5FFF7B9FF0C4607B539
:10263000194652B1064BCDE9003202462346054801
:10264000FFF7A0FF0120FFF7AAFF034B1A46F2E7AE
:1026500034A7001041A7001001A8001038B5FEF7FC
:10266000C5FD044C044DAC4200D338BD54F8043BC6
:102670009847F8E7E0A50010E8A5001003460846D3
:102680001B68114618470000437D2DE9F0410446C0
:102690000D461646A3B101F1FF38002108468E42CF
:1026A00014DC86422EDD311A2368284498473544CD
:1026B00015F8013CA3F10D0253425341237523E069
:1026C000036811462846BDE8F0411847C1B198F8A3
:1026D0000030A3F10D077B427B4118F8012F4F1CFE
:1026E0000A2A0BD153B9814203DD091A2368284411
:1026F0009847064802212368984738463946CEE76E
:10270000237DEAE7002ED2DCBDE8F081B8A80010F6
:1027100010B5FEF7F7FB0A4A82184FF0FF3041F17F
:1027200000036FF00041904271EB030438BF024692
:10273000BDE8104038BF0B46024807F025BF00BF78
:1027400040420F0030140020014807F011BF00BFC5
:10275000301400202DE9F74F0C461D4607469146E0
:10276000FFF7D6FF631C804603D1384605F0F4FE20
:1027700004464FF00A0B154B154EDFF85CA0002DF8
:1027800018BF1E46134B1D6845B9B8F1000F01D0A4
:10279000FFF7DAFF204603B0BDE8F08F2B6893B156
:1027A000DAF800300BB1AB420DD12246394628464B
:1027B000B047B9F1000F06D0012228460DF10701FC
:1027C0008DF807B0B0472D69DEE700BF89260010FD
:1027D0007D260010F81B0020041C00202DE9F04786
:1027E00005460E4617461C46DFF85C80DFF85C9015
:1027F000D8F800A0BAF1000F0DD1124A536A9C42DA
:1028000004D8926ABA4219D29C4217D10120002101
:10281000FEF77EFBECE7D9F8003023B1534502D038
:10282000DAF810A0E6E7DAF80830002BF8D03146E5
:10283000284698470028F3DDBDE8F0876FF00100D7
:10284000FAE700BF00000B40F81B0020041C00202A
:10285000094B1A6812B901B1186070471A688242B0
:1028600005D10029F9D102691A600161704702F1AE
:1028700010031269EEE700BFF81B0020044B10B5EF
:102880001C6804B910BD636803B198472469F8E770
:10289000F81B002000F060B9012313B504468DF841
:1028A0000700002219460DF10700FFF753FF2046ED
:1028B00002B010BD38B5054605F04EFE01230446B2
:1028C00001461A462846FFF745FFFFF7D7FF204687
:1028D00038BD70470022014B1A707047CB21002091
:1028E0004B79FF2B0BD1887948B9CB79012B07D1D4
:1028F000082A05D98A78034B09201A7070470020EE
:10290000704700BFCB21002001207047012908B586
:102910001BD1104B91881B78994218D15378012B09
:102920000CD15188CB0548BF480AC1F3402258BF9B
:102930004FF0FF3001F07F01FEF715FC022B06D1AE
:10294000002164220846FEF7C1FB012008BD0020DB
:10295000FCE700BFCB2100200048704782A900108F
:102960000B46012B114609D15378012B08D19388CE
:10297000072B05D1A623034A01F022B90120704795
:1029800000207047DCA80010012303700048704746
:10299000BCA8001008B50B68B3F5966F05D10022EE
:1029A0004FF0FF301146FEF7DEFB08BD024B18600A
:1029B000024B1960704700BFC41B0020C81B0020D9
:1029C000164B70B51A681AB3EFF3108172B6D2E8DD
:1029D000CF4F0120002CFAD1C2E8440F002CF6D1D1
:1029E000BFF35F8F00220E48596002701B68C3E876
:1029F0008F2F81F3108800240A4E00253078FDF7D0
:102A00006DFD40B13078FDF779FD2046294670BD57
:102A10004FF47A74F0E700240025F6E73020002018
:102A2000CD210020CC210020014B1878FDF766BD98
:102A3000CC21002010B5FEF765FA114A82184FF03C
:102A4000FF3041F100036FF00041904271EB03044D
:102A50003CBF02460B460B4807F096FD70B14FF0A5
:102A6000FF30002100F02EFD002001F0B1F9002818
:102A7000F5D1BDE81040034807F07ABD10BD00BF96
:102A800040420F005C20002030B5002185B02C486A
:102A900007F07EFDB8B100214FF0FF3000F012FDCD
:102AA000002001F075F90446254807F061FD002C6F
:102AB00043D0244B1B68002B3FD0234A106805B03D
:102AC000BDE830401847214A1368002B35D0EFF39A
:102AD000108172B6D3E8CF5F0124002DFAD1C3E88C
:102AE000454F002DF6D1BFF35F8F0125184C516083
:102AF00023781268DBB22570C2E88F0F81F310884B
:102B0000DBB9FEF7C7F80446FEF7FCF910F57A7258
:102B10004FF0FF3041F100036FF00041904271EB44
:102B200003053CBF02460B4601200021CDE9011000
:102B3000084920460091FEF70FF905B030BD00BFEF
:102B40005C200020C41B0020C81B00203020002077
:102B5000CD210020C12900104FF0504330B585B081
:102B60001C68FEF797F8FEF74DF9A04202D000204E
:102B700005B030BD0021274B08461B7801F032FC20
:102B8000254803680BB9FDF757FE0120FDF73AFE13
:102B9000224C23492070C0B2FDF7D0FC20780121DF
:102BA000FDF786FC0E20FDF7BDFC88B10120FDF786
:102BB00039FC01461B48FDF77DFE00220E201A4914
:102BC000FDF7E2FC19480121FFF742FE0120CFE7A3
:102BD000144BC3E90000FEF75DF80446FEF792F9D6
:102BE00010F57A724FF0FF3041F100036FF00041B1
:102BF000904271EB03053CBF02460B4601200021C9
:102C0000CDE901100A4920460091FEF7A5F80028F9
:102C1000ADDBD7E730AE00105C200020CC210020D7
:102C2000892A001030200020292A0010240D0020BD
:102C3000C1290010002001F095B8000070B50446CD
:102C40000D46FFF7F7FF18B96FF00204204670BD7C
:102C5000002001F09DF80028F6D0FEF753F9164A3F
:102C600082184FF0FF3041F100036FF000419042B5
:102C700071EB03063CBF02460B46104807F084FC8C
:102C80000028E1D0FFF7D6FF80B1002001F080F8E6
:102C900060B121462A46002001F084F8044608B9B4
:102CA0006FF00204054807F063FCCFE700214FF006
:102CB000FF3000F007FCF3E740420F005C200020EB
:102CC0002DE9F84380460F46FEF71CF9304A82187A
:102CD0004FF0FF3041F100036FF00041904271EB83
:102CE00003043CBF02460B462A4807F04DFC00286F
:102CF0004CD0FFF79FFF002843D100200021264B36
:102D0000C3E9000138E0002001F0BEF87C1B8442DA
:102D1000A8BF0446B4B1224608EB0501002001F02B
:102D200097F8002104464FF0FF3000F0CBFB002065
:102D300001F04EF8FEF7E6F8C9E900012544AF427C
:102D4000E1DC19E021464FF0FF3000F0BBFB2046EC
:102D500001F03EF8FFF76EFF70B1204601F094F8E5
:102D60000028ECD1FEF7CEF8D9E900329B1942F1E8
:102D7000000283428A41E2D20648BDE8F84307F0E8
:102D8000F7BB0025DFF81090044ED8E7BDE8F883C4
:102D900040420F005C200020B815002020A1070051
:102DA000004870471CAA001000487047C8A90010CE
:102DB00010B504461348037813B9112100F042F806
:102DC00064B940F20942104B5A8001230133DBB24F
:102DD0000D485B0043F44073038010BD052C0ED8F2
:102DE0000A4B094953F824000023C25C0AB9DBB23C
:102DF000ECE70133132B21F8022FF6D1E6E7002090
:102E0000EBE700BFD621002064200020B0A900100D
:102E100000B545F247308BB0FEF79BF9012203461F
:102E2000092101A898470823054A05A911F8010DB1
:102E3000013B02F8010BF9D10BB05DF804FB00BFB8
:102E4000CE210020002230B50C4D0139914201D92C
:102E5000102A02D10023835430BDD4435308EB5CC5
:102E600004F00104A400234103F00F042346092CBD
:102E7000D4BF3033373383540132E7E7CE2100200B
:102E800000F07F03F0B51A4C5E0006EBD01504EBA2
:102E90004515C709A87087F00100687000202983D4
:102EA0009901E870EA761348DA00651877B10244B0
:102EB000AA6200203E4404EB4616B26810604BB98B
:102EC00004EB471463600C4BE360F0BD0432024432
:102ED000AA60EEE7013B094ADB001FB1214413441D
:102EE0004B62F2E704330C4413446360EDE700BF28
:102EF0000C1C0020800010500001105008001050E1
:102F0000038BC27E08493F33022A23F03F030A683D
:102F100008BF5B001344C260044A0B60934201D9AE
:102F2000FEF75EB9704700BF14200020FF0F10505D
:102F300010B500F0C3F80C23124CFF22A3670E203B
:102F40001149FDF721FB40220021104805F042F90C
:102F5000002240211046FFF793FF002240218020ED
:102F6000FFF78EFF07F008FB01204FF000534FF4EE
:102F700080322064E364064BC4F89030054BDA6479
:102F800010BD00BF000011501D0300200C1C0020CC
:102F900010D001000020115001210E20FDF788BA49
:102FA00000220248114600F0A9B800BF2C1C0020E6
:102FB000044B197021B14FF40032034BC3F8902039
:102FC000704700BF90200020002011500B785B0656
:102FD00006D14B78052B01BF4B88024ADBB2136048
:102FE000704700BF00001150CA7838B502F00302E4
:102FF000012A20D08D78898805F07F042846C1F306
:103000000A01FFF73DFFA4B1640004EBD5100B4C9F
:1030100004EB40142046FFF773FFE368E27E83F081
:10302000A04383F4801343EA8263626843F0004361
:103030001360012038BD0020FCE700BF0C1C0020FD
:1030400007F09ABA084608B5114600F07F02C00999
:1030500000EB42001A46034B03EB401000F04EF821
:10306000012008BD0C1C002011F07F0305D10029B0
:103070000CBF02200120064A9066C90901EB4300FB
:10308000044B4FF40062002103EB401007F078BAC4
:10309000002011500C1C002011F07F030BD00022E7
:1030A00005485B0003EBD11100EB41106FF40061A8
:1030B000C27007F065BA70470C1C002008B54FF0CD
:1030C00080530A4A136002F580521360084B9968D6
:1030D000C94311F08051FAD14FF48052054805F0F0
:1030E00079F80922044B5A6708BD00BF002002404E
:1030F000000002400000105000001150002310B5E5
:10310000C3820123828283760161044607F028FA94
:1031100020B14FF40032074BC3F89020204607F04F
:103120003BFA10B10123237710BD2046BDE81040C3
:1031300007F012BA002011502DE9F0410546002495
:10314000184E194FDFF870803278E3B2511C994263
:1031500010DA54220021154805F03CF81022FF2116
:10316000134805F037F8BDE8F0412022FF2111484F
:1031700005F030B89A420DD9D8F8002012EB43136D
:103180000BD14FF0E023D3F8F03DDB0700D500BEB4
:10319000BDE8F0819B1A07EB43132846DB6898478C
:1031A0000134D1E78E20002030AA0010B320002087
:1031B000B7200020C72000204817002070B50C461B
:1031C00005461646486900F02DFD324628466369DB
:1031D0000121BDE8704018477047704700207047D4
:1031E000002070477047704770477047024B58780F
:1031F000003818BF01207047B3200020024B187818
:10320000C0F38000704700BFB32000202DE9F047D5
:103210002C4F04463B780D46FF2B3FD149B94FF068
:10322000E023D3F8F03DDB0700D500BE0020BDE869
:10323000F08700215422244804F0CCFF0022234EC2
:10324000234B30461A70FDF7F7FA224B22481E60D6
:10325000224EFDF721FB304601F03FFC204B1E6063
:10326000204B23B12048FFF78FFB204B186000262E
:10327000DFF87480DFF87890DFF870A098F800200D
:10328000F3B2511C99420BDA294620463C70FFF7F5
:103290004FFE0028C3D02046FFF77EFE0120C6E780
:1032A0009A420AD9DAF8002012EB4313B7D05B68D0
:1032B0000136002BB3D09847E0E79B1A09EB431384
:1032C000F5E700BF580D0020B3200020E8180020CB
:1032D000C7210020F0180020500D00203C0D0020D8
:1032E000F4180020892900108E20002048170020A3
:1032F00030AA001038B58B780C4613F0700F08D048
:103300004FF0E023D3F8F03DDB0700D500BE0020EE
:1033100038BD074B20461D78064B997801F0D5F84B
:103320000028EDD021462846BDE83840FFF75CBEB6
:10333000580D0020B32000202DE9F0478146DDE93B
:1033400008670C4690469A460025A84501DC0120F6
:103350000AE06378052B09D04FF0E023D3F8F03D65
:10336000DB0700D500BE0020BDE8F087E37803F05E
:1033700003035345F0D121464846FFF7BBFF002821
:10338000EAD0A3780135DA0914BF3B703370237893
:103390001C44DAE7CB0901F07F02343303EB42032C
:1033A0000248034A1844116801F04EB8B3200020C7
:1033B000F0180020CB0901F07F02343303EB420305
:1033C0000248034A1844116801F064B8B320002091
:1033D000F018002038B5144C01F07F0504EB4504CB
:1033E00004EBD11494F834003034C00708D54FF002
:1033F000E023D3F8F03DDB0700D500BE002038BD48
:10340000207940F00100207108480078FFF71AFE8B
:103410000028F4D1227960F300022271227960F34E
:1034200082022271E3E700BFB3200020580D002084
:1034300010B50C460B4B1878FFF716FE0A4904F03E
:103440007F0301EB430101EBD41191F8343043F0D9
:10345000020381F8343091F8343043F0010381F8ED
:10346000343010BD580D0020B320002010B50C469C
:103470000B4B1878FFF710FE0A4904F07F0301EBAD
:10348000430101EBD41191F8343023F0020381F8A9
:10349000343091F8343023F0010381F8343010BD1A
:1034A000580D0020B3200020054B01F07F0203EBF4
:1034B000420303EBD11191F83400C0F34000704790
:1034C000B32000202DE9F04FA44B87B01B78FF2BD1
:1034D0004DD0DFF89492A24B1C686369EFF3108221
:1034E00072B6D3E8CF0F01210028FAD1C3E8401FFC
:1034F0000028F6D1BFF35F8FA261204603A901F037
:10350000F6F900236269C2E88F3FA36983F310884C
:1035100068B39DF80D30013B072B00F2F982DFE81C
:1035200013F008001300EE02D302DF021C008F022A
:10353000E7029DF80C00FFF7FFFD00F06BFB9DF824
:10354000103089F80230C6E79DF80C00FFF7F4FD53
:1035500000F060FBFFF747FEBDE7824A13784BB9E6
:103560004FF0E023D3F8F03DDC0700D500BE07B0F4
:10357000BDE8F08F1378013BDBB21370137803F0D2
:10358000FF00002BA7D1784C9DF80C50237843F016
:103590000103237094F8343060F3000384F834306E
:1035A00094F8343060F3820384F8343094F8353082
:1035B00060F3000384F8353094F8353060F382030B
:1035C00084F8353000F02EFB9DF8102002F06003E7
:1035D000602B07D14FF0E023D3F8F03DDD072AD56B
:1035E00000BE28E0402B0BD1604800F01BFB0121FE
:1035F000284604AAFFF7B4F900287FF46CAF1AE05C
:1036000002F01F02012A00F09281022A00F0C68116
:10361000002ADFD1202B25D19DF814300F2B0AD89A
:10362000534A23441B79127893420FD2514A1168AE
:1036300011EB431111D19DF80C000021FFF714FD8F
:1036400080219DF80C00FFF70FFD44E7511C9942C3
:10365000F1DB49499B1A01EB431104AA2846FFF705
:10366000ADFDC9E7002BB5D19DF81130092BB1D8BC
:1036700001A252F823F000BF0D390010FB380010F2
:10368000D5350010E7380010D5350010A1360010F0
:103690003F380010D5350010BB360010C53600107D
:1036A00004A800F0C5FA28469DF81210FFF778FC30
:1036B000237843F0020323700DE763788DF80A3016
:1036C00001232DE19DF8126063789E4241D063781A
:1036D0005BB100212846FFF76BFC2846FFF7B0FCE2
:1036E000A7782846FFF728FDA7706670002E00F027
:1036F000A380701EC0B2FFF757FB10B14378022BB6
:1037000010D04FF0E023D3F8F03DDB0700F19280BA
:103710004FF0E023D3F8F03DDF0700D500BE0023D3
:10372000637088E7C37900F10906C3F38012C3F31D
:1037300040131B0143EA4213227822F03002134364
:1037400023704388C3180093009BB34216D8FFF739
:1037500049FD284604A900F021FABCE6580D0020D6
:10376000F4180020C7210020B32000206129001098
:103770008E2000204817002030AA001073780B2BF1
:1037800002BF337896F803A0F618737818BF4FF08D
:10379000010A042BB5D14FF0000B009B9B1B9BB281
:1037A000B64A5FFA8BF817787A1C9045A9DC474532
:1037B0002BD9B34A176817EB4817A2D01A460193C2
:1037C00031463B692846984708280246019B2ED976
:1037D00083422CD3BAF1010F05D13969A94B994223
:1037E00008BF4FF0020A0021CBB29A4513D84346D6
:1037F0003146A548019200F097FEA04B019A1B7834
:103800001644013398459FDD7BE7A04AA8EB0707E4
:1038100002EB4717D2E7B0780131034454FA83F33F
:103820001879FF287FF46DAF83F80480DCE70BF193
:10383000010BB5E700BE6BE7FFF7D5FC89E7BDF8E4
:1038400012301A0AD8B2531E0E2B3FF6F4AE01A165
:1038500051F823F091380010B3380010CD38001023
:103860003736001037360010E1380010B33800103A
:103870003736001037360010373600103736001054
:10388000373600103736001037360010A9380010D0
:10389000FFF786FA024600283FF49CAE1223284622
:1038A00004A900F08DF9A7E6FFF756F8024640B9E3
:1038B000C1E6022A07D1FFF777FA024600283FF453
:1038C00089AE5388EBE7FFF78BFCEFE7BDF81410E8
:1038D000FFF76EFA024600283FF4ADAE0378DEE74C
:1038E000FFF77CFCF6E7BDF81230012B7FF4A3AEA6
:1038F000237843F0080323702BE7BDF81230012B27
:103900007FF499AE237823F00803F4E72378C3F318
:1039100040129B0803F002031343ADF80A30022360
:1039200028460DF10A0204A900F04AF9D3E59DF8F2
:1039300014300F2B3FF67FAE504A23441B79127888
:10394000934222D24E4A116811EB43113FF473AEF9
:10395000284604AAFFF732FC00287FF4BCAD9DF88E
:10396000103013F060047FF466AE9DF811300A3B0E
:10397000012B3FF660AE00F055F99DF811300A2B8F
:103980007FF4E7AE8DF80A409AE6511C9942FFF6A3
:1039900052AE3E499B1A01EB4311D9E79DF8141032
:1039A00011F0700F7FF416AE01F07F02334804EB84
:1039B000420202EBD112127D0078824213D23048CB
:1039C000066806EB4216DBB99DF8113003F0FD02E4
:1039D000012A19D0002B7FF4FDAD2846FFF764FDC6
:1039E000ADF80A009BE7461C9642C0F29A80274E2B
:1039F000121A06EB4216002BE6D0314604AA2DE639
:103A0000002E3FF418AEF8E7BDF8122022B9012BC2
:103A1000284612D1FFF72AFD002E3FF45CAD314657
:103A200004AA2846FFF7CAFB002000F0FBF894F830
:103A30003530DE073FF54FAD8BE6FFF7F9FCEBE7DE
:103A40009DF8101001F07F0409EB440202EBD11243
:103A500092F8343023F0010382F8343092F8343095
:103A600023F0040382F8343094B9059B9DF81120AB
:103A70009DF80C0000F0EAF82DE500BF8E20002034
:103A8000481700206D3F0010C720002030AA00100A
:103A9000264B127D1B789A420DD2254B1B6813EBE7
:103AA00042133FF45DAD9C699DF81120059B9DF884
:103AB0000C00A0470FE5581C9042FFF651ADD21AFA
:103AC0001C4B03EB4213EEE799F80030D8077FF563
:103AD00002AD99F80000C0F3C000FFF785FBFAE4DF
:103AE00099F80030D9077FF5F6ACFFF77EFBF2E4DA
:103AF000049B002B3FF4EFAC05989847EBE499F852
:103B00000330DA077FF5E7AC0498FFF766FBE2E4E1
:103B10004FF0E023D3F8F03DDB077FF5DCAC00BECF
:103B2000D9E4002B7FF487AD00264DE78E200020DE
:103B30004817002030AA0010124B70B59989DA8915
:103B400005468C1AA4B293F90000402C28BF4024EB
:103B500000280EDA914212D0996822460A4804F0F1
:103B600085FC8021084A23462846BDE87040FFF7BF
:103B700031BC91424FF00001F4D10A46F3E78021B5
:103B80000022F0E7D418002094180020C943002335
:103B900001F080011A46FFF71DBC000030B4074C4D
:103BA0000546224608680B46496803C2002228469B
:103BB000C4E9022230BC1978FFF7E8BFD41800200E
:103BC000F8B5134E0C463746054608684968B2609A
:103BD00003C70021F181E1888B4228BF0B46B381E6
:103BE00089B14BB142B94FF0E023D3F8F03DDB0788
:103BF00000D500BE002005E02846FFF79DFF002805
:103C0000F1D00120F8BD28462178FFF7BFFFF6E785
:103C1000D418002014220021014804F0DBBA00BFB0
:103C2000D4180020014B1861704700BFD418002041
:103C300010B50246044C00682346516803C30023B4
:103C4000C4E9023310BD00BFD418002070B5284C61
:103C50001E462378C909B1EBD31F054613D03EB1E8
:103C60004FF0E023D3F8F03DDB073FD4002070BDD8
:103C70002146FFF7ABF923691BB1224603212846F1
:103C800098470120F3E794F90030002B06DBA06889
:103C90000028EBD03246174904F0E8FBA268E3891C
:103CA00032443344A260E2889BB29A42E38101D05D
:103CB0003F2E17D8236933B928462178FFF766FFCE
:103CC0000028DED1CCE702212846094A9847014660
:103CD0000028F1D12846FFF7C7F980212846FFF7D1
:103CE000C3F9CEE72846FFF727FFE9E700BEBDE7A7
:103CF000D4180020941800202DE9F0410646FFF763
:103D000075FA48B3FFF77AFA054628BBC82474430E
:103D1000124B1F19FA78FAB110341C44204600F0F7
:103D2000D4FD3F2818D92846F978FFF733FB98B11E
:103D3000204600F0CAFD3F28F97808D9084A2846ED
:103D400002EBC6124023BDE8F041FFF743BB284613
:103D5000BDE8F041FFF72EBBBDE8F081CC17002095
:103D60004C17002010B50446FFF740FA08B90020B0
:103D700010BDFFF743FA0028F9D1C822034802FB1F
:103D80000400007900F00100F2E700BFCC1700202A
:103D9000C82208B5024B02FB003000F06CFD08BDE4
:103DA000DC17002038B54FF6FF739A4228BF1A4639
:103DB0000446C820054B92B200FB043000F0B6FD6B
:103DC00005462046FFF798FF284638BDDC1700203F
:103DD0002DE9F0418046FFF709FA60B3FFF70EFACC
:103DE000054640BBC82606FB08F6174C06F124071B
:103DF0002744384600F03FFDE8B134442846A17816
:103E0000FFF7C8FAB8B1114E402206EBC81631468A
:103E1000384600F08BFDA178044688B1034632464F
:103E20002846FFF7D7FA48B94FF0E023D3F8F03D22
:103E3000DB0700D500BE0020BDE8F0812046FBE78F
:103E4000FFF7B8FAF7E700BFCC1700208C17002067
:103E5000C82370B50B4D044603FB00554FF6FF73A6
:103E60009A4228BF1A46284692B200F0B1FD064693
:103E7000284600F000FD3F2802D92046FFF7A8FFA2
:103E8000304670BDF0170020C82208B5024B02FB77
:103E9000003000F01AFD08BDF0170020F7B500242F
:103EA000C8220021174804F095F9174B154F1C70D4
:103EB000FF237B714FF4E133BB60082307F1380126
:103EC000BB7340220123009407F1100000F0A6FC10
:103ED00001234022009307F1780107F1B80607F1AA
:103EE000240000F09BFC07F1C0053046FCF7A4FC61
:103EF0002846FCF7A1FCC7E90746C7E90C5403B004
:103F0000F0BD00BFCC1700208F200020074B1A6A9D
:103F1000196B12B10022DA61012211B10021C3E94B
:103F20000C110AB100221A6201207047CC17002040
:103F3000002310B50A480B4C036003712378DA079D
:103F400002D4103000F0C9FD23789B0702D4064844
:103F500000F0C3FDBDE810400121034800F0D8BDCA
:103F6000CC1700208F200020F0170020F7B54B79E8
:103F70000646022B0DD18B79022B0AD1234FBB7839
:103F8000002B3DD04FF0E023D3F8F03DDB0700D508
:103F900000BE0025284603B0F0BD23781D44ADB215
:103FA0001C446378242B1CD19542F6D96378042BEA
:103FB00013D163790A2B10D1154B27780193013364
:103FC0000093022330461A46E119FFF7B5F900289D
:103FD000D8D00E3517FA85F5ADB20020FFF78CFE6C
:103FE000D8E7052BE2D121463046FFF783F90028B8
:103FF000C8D0A3787B7023781D44ADB21C44D5E7AC
:104000008B7809253B700B78CC18CAE7CC170020B9
:10401000CE1700200B461146127870B502F06002F0
:10402000202A04D1284D8A882C7894423CD0002044
:1040300006E0012B05D10723244AFFF7C1FD01202B
:1040400070BD032BFBD1224B002BF8D000201F4961
:10405000FEF7A0FCF3E7012BF1D1ECE7012B02D135
:10406000FFF79CFDEBE7032BE9D14C88194804F0DE
:10407000010686F001012C7100F04AFD164B002B61
:10408000DDD031460020C4F34002AFF30080D6E714
:10409000012BE5D0032BD2D1104B002BCFD0002029
:1040A0004988AFF30080CAE74A78203A032ABED88D
:1040B00001A454F822F000BF334000105740001014
:1040C0005D40001091400010CC170020D417002054
:1040D00095290010F01700200000000000000000EB
:1040E0002DE9F843324C1D46E37880468B420F465B
:1040F0000CD0A3788B4216D04FF0E023D3F8F03DDC
:10410000DB0700D500BE0020BDE8F8832949AAB22C
:1041100004F1100000F05CFC274B4BB9274BEBB9C6
:104120000020FFF7E9FDA378BB421FD00120EBE799
:104130006379FF2BF2D01F4E06EB05094E45EDD0FB
:1041400016F8013B62799A42F8D11D4800F0A4FBB1
:104150000028F3D16179AFF30080EFE7184800F051
:104160009BFB0028DCD1AFF30080D9E7154B13B1DE
:104170000020AFF300800020FFF72AFE0028D5D1F1
:10418000114800F078FB0028D0D1002DCED015F0DA
:104190003F05CBD14046A178FFF7FCF80028C5D0F9
:1041A0002B462A464046A178FFF714F9BEE700BF28
:1041B000CC1700204C170020000000000000000079
:1041C000DC17002000000000F017002010B90249A1
:1041D00000F017BA002070477C190020F0B5144F8A
:1041E00085B04FF413720021114803F0F3FF07F577
:1041F000A67340264FF48075009300230D4C1A4699
:10420000194602940396019507F5947000F09EF903
:1042100007F128030093384600233444012219464D
:10422000CDE901540396043000F090F905B0F0BDDB
:1042300078190020F818002008B5054800F0ABF9FF
:10424000034BA3F5927000F0A6F9012008BD00BF52
:10425000A01A002038B50025064C04F5987025708A
:1042600000F03BFC04F10C0000F037FC84F829510D
:10427000657138BD781900202DE9F8434B798146E6
:10428000FF2B0E4650D00020BDE8F88323781C4455
:104290006378052B04D0BC42F8D3A01B80B2F3E7AF
:1042A000BC42FAD221464846FFF724F838B94FF00D
:1042B000E023D3F8F03DD807E5D500BEE3E7A378C7
:1042C000DB0917D0224800F008FCA3782A796B712B
:1042D000A3880020C3F30A03A3F500714B424B41AE
:1042E00063F341022A71FFF771FF237808F1010897
:1042F0001C4427E0174800F0F0FBA378484685F8F7
:104300002931A3881449C3F30A03A3F50072534269
:10431000534195F8282163F3410285F8282100F0E4
:10432000A7F90028E1D1C2E70C4D95F82931002BFF
:10433000A9D16B79002BA6D1984634783444A718BC
:10434000B2782A7032795FFA88F39A42A0D8A4E74B
:1043500084190020A81A0020A01A00207819002033
:1043600038B5054619481C4690F829318B4204D0CF
:1043700043798B4218D0002038BDB0F8343133B1C6
:10438000D0F82C11A2B200F5987000F021FB104B70
:1043900023B100200F49A2B2AFF3008028460E4996
:1043A00000F066F90120E7E70C4B1BB10020A1B239
:1043B000AFF3008028460A4900F023F90028F1D124
:1043C00022462846064900F0E8F8EBE77819002075
:1043D00000000000F8180020A01A002000000000D3
:1043E0007C1900200B4613B599B90124184601A980
:1043F000ADF80440FEF70AFF40B94FF0E023D3F8D0
:10440000F03DDA0700D500BE02B010BD0D4B1C70A8
:10441000FAE7012801D80B7843B94FF0E023D3F82D
:10442000F03DDB0700D500BE0020EDE7054C012B79
:10443000235401D00120E7E7FEF7E8FE0028F9D178
:10444000EBE700BFB1200020F8B50478054614F072
:1044500001040E461CD103785A07C3F3800713D416
:104460004FF0FF31304606F073F82C7814F0010459
:104470000CD12B785B0704D401242B7843F0040380
:104480002B70304606F074F82046F8BD3C46F8E73D
:104490000024F9E770B50D4604464FF0FF31284679
:1044A00006F056F82378C3F380065B0708D5237817
:1044B00013F0010211BF0026237862F382032370F8
:1044C000284606F055F8304670BD8388C078C3F39F
:1044D0000A0300F00300022814D003281CD001288E
:1044E0000ED1022940F2FF3208BF4FF480629A4297
:1044F0000ED24FF0E023D3F8F03DDB0700D500BE2D
:1045000000207047022904D1B3F5007FF1D10120CA
:104510007047402BFBD9ECE7022914BF40224FF42F
:1045200080629A42F3D2E4E730B50A44914200D364
:1045300030BD4C78052C06D18C7804F07F0500EB5B
:104540004505E4092B550C782144EFE7F7B51546EE
:104550000278089FBDF8246061F3000204463946E2
:1045600000F8082B00933246012300F057F957B1A9
:104570004EB104F11C063046FCF75EF90DB135462C
:104580000026C4E9055601200A9B6360BDF82C3063
:10459000638003B0F0BD01207047F8B505460846BA
:1045A00010F8083B0C4613F0020F0CBF40274FF4E5
:1045B0000077164600F05FF908B10020F8BD002E24
:1045C000FBD0013F3742F8D12378DA07F5D42846EB
:1045D0006178FEF7DFFE0028EFD0237813F00103A7
:1045E00007D04FF0E023D3F8F03DDB07E5D500BE60
:1045F000E3E71A4628466178FEF7ECFE0028DDD195
:10460000EFE770B501F10805064628460C4600F0B4
:1046100032F9C0B12378DA0715D430466178FEF755
:10462000B9FE80B128466288616800F07FF923787E
:10463000054603F00103A0B13BB14FF0E023D3F8EE
:10464000F03DDB070BD4002070BD034662683046A6
:104650006178FEF7BFFE0028EFD02846F4E700BEE1
:10466000F1E7002BEFD130466178FEF7A3FEEAE7D1
:104670008A89F8B506460C460B78F2B9DD070DD4E9
:104680004978FEF787FE48B12378D90708D54FF05F
:10469000E023D3F8F03DDB0700D500BE0020F8BDD5
:1046A000638861783BB162683046FEF793FE00286C
:1046B000EDD06088F3E71A46F6E701F1080713F03A
:1046C000020F38460CBF40254FF4007500F0FDF88E
:1046D0008542E3D82378DA07E0D430466178FEF7E4
:1046E00059FE0028DAD0384600F0EFF823788542EA
:1046F00003F0010315D8002BC9D16D426388054032
:10470000ADB29D4228BF1D46617845B162682B4617
:104710003046FEF75FFE0028B9D02846BFE72A469C
:10472000F5E7002BBAD130466178FEF743FEB5E7D6
:104730000A4492B291424FEA400001D8824201DB22
:10474000121A92B21046704738B50546D41A084678
:10475000A988A4B29A423CBF04EB4104A4B2B4B10C
:10476000A14205D2914294BF521A521893B26B8162
:10477000994209D9EA882968C2F30E0202FB0311A3
:1047800003F074FE012038BD5B1A9BB2F0E72046AF
:10479000F9E72DE9F047BDF8204086881D1BADB232
:1047A000A3423CBF05EB4605ADB207468846F5B1CE
:1047B000AE4206D235469E4294BF9B1B9B199CB2CB
:1047C0004481954228BF1546A64213D9FA88A6EB24
:1047D000040939681FFA89F9C2F30E0A4D45524699
:1047E0000AFB041109D840466A4303F03FFE2846FD
:1047F000BDE8F087A41BA4B2E6E719FB0AF91FFA8B
:1048000089F94A464046AE1B03F030FEA21912FB5E
:104810000AF2396892B208EB0900E6E7B2F5004FF8
:10482000F8B504460F4616461D4622D8C06818B192
:104830004FF0FF3105F08CFE206918B14FF0FF31C9
:1048400005F086FE9DF81830C5F30E0545EAC33520
:104850000023E06863812760A680E580238108B19A
:1048600005F086FE206908B90120F8BD05F080FE3C
:10487000FAE70020F9E7024613895289808892B24C
:104880009BB2934236BFC2EB40029B1A9B189BB26D
:10489000984228BF184670470289438992B29BB25A
:1048A000D31A58425841704703894289818892B28D
:1048B0009BB2934236BFC2EB41029B1A9B189BB23C
:1048C00099428CBF0020012070470389418982886A
:1048D00089B29BB28B4236BFC1EB42015B1A5B18B7
:1048E0009BB29A4286BFD01A80B20020704738B57A
:1048F000044600690D4618B14FF0FF3105F028FE5F
:1049000022896389294692B220469BB2FFF71CFF99
:1049100061890246054689B2A088FFF709FF6081D8
:10492000206908B105F024FE284638BD73B5044659
:1049300000690D46164618B14FF0FF3105F008FE2C
:1049400023896289294692B20092204632469BB260
:10495000FFF71FFF61890246054689B2A088FFF76D
:10496000E7FE6081206908B105F002FE284602B02A
:1049700070BDF8B50446C0680F4618B14FF0FF315E
:1049800005F0E6FD26892046B6B2FFF78DFF10B18F
:10499000E579ED0913D03046A388834215D9E28822
:1049A0002368C2F30E02394602FB003003F05EFDBD
:1049B00001223146A088FFF7BBFE01252081E06877
:1049C00008B105F0D5FD2846F8BDC01A80B2E4E76D
:1049D0002DE9F84F05460E469046002A3FD0C068A4
:1049E00018B14FF0FF3105F0B3FDEB792F896989DC
:1049F000DB09AC88BFB289B234D18F4235BFC1EB7D
:104A00004403791ADB198BB238BF9BB2A34262D23E
:104A1000E31A9BB2434528BF43461FFA83F8B946C1
:104A2000A14540D2EA88A4EB090A28681FFA8AFA4D
:104A3000C2F30E0BC2450BFB090039D331460BFB09
:104A400008F203F013FD42463946A888FFF770FECE
:104A500044462881E86808B105F08AFDA046404632
:104A6000BDE8F88FA0450BD3002CF3D0EB88A8EB62
:104A70000408C3F30E0303FB08660F46A046CEE707
:104A80008F424FEA440236BF531A7B1ADB199BB29E
:104A900043449342C3DBA4EB0802204692B2FFF7E3
:104AA00047FE0746BBE7A9EB04091FFA89F9B7E7F8
:104AB0001AFB0BFA1FFA8AFA52463146A8EB040495
:104AC00003F0D4FC09EB040212FB0BF2286892B24B
:104AD00006EB0A01B5E70024BCE710B50446C06840
:104AE00018B14FF0FF3105F033FD206918B14FF0D8
:104AF000FF3105F02DFD0023E0686381238108B1BB
:104B000005F036FD206908B105F032FD012010BD29
:104B100038B50446C0680D4618B14FF0FF3105F0B6
:104B200017FD206918B14FF0FF3105F011FDE37951
:104B3000E06865F3C713E37108B105F019FD20695A
:104B400008B105F015FD012038BD0EB403B503AA68
:104B500052F8041B036801929B68984702B05DF805
:104B600004EB03B070470CB407B504AA52F8041B59
:104B7000036801929B68984703B05DF804EB02B0AC
:104B8000704700000FB407B5044805A90191FBF771
:104B9000AFFB03B05DF804EB04B07047FFA7001053
:104BA00008B5FBF7A5FBBDE808400148EAE700BFF0
:104BB000FFA700100FB407B504A951F8040B019129
:104BC000FFF7EEFF03B05DF804EB04B070470CB4E0
:104BD00007B504AB53F8042B0193FBF793FB03B029
:104BE0005DF804EB02B07047FBF78CBB08B50846D4
:104BF0001146FFF7D5FF002008BD044B586818B9CF
:104C00001846034A5B601A60704700BFC015002059
:104C100078AA00107047000038B5A1FB021434BB1D
:104C200000F032F8054630B350F8042C22F00302AD
:104C3000043A242A0CD8132A0FD91B2AC0E90044AD
:104C400012D9242AC0E9024418D000F1100205E06C
:104C5000214603F0BFFA284638BD02460023284605
:104C6000C2E90033936038BD00F10802F6E703F0B3
:104C7000A1FB0C2303600025284638BD00F1180273
:104C8000C0E90444EAE700BF01F10B03162B2DE94C
:104C9000F04F074683B023D8102900F2AF8000F010
:104CA000AFFA102518230220BA4E33445C68A3F1F2
:104CB0000802944200F056816368384623F00303EB
:104CC000D4E902122344CA6091605A68083442F061
:104CD00001025A6000F09AFA204603B0BDE8F08F56
:104CE000002B23F00705C0F28980A94200F28680DC
:104CF00000F086FAB5F5FC7FC0F07B826B0A00F00D
:104D00008480042B00F26281AB0903F1390003F1C6
:104D1000380EC3009F4E3344A3F1080C5C68A445D1
:104D200007D10DE0002AE16880F216818C450C461F
:104D300006D0636823F003035A1B0F2AF2DD704686
:104D4000DFF868823469444500F0F280636823F03C
:104D5000030CACEB05030F2B00F37481002BC6E9A9
:104D6000048880F26381BCF5007FD6F804E080F00F
:104D7000FF804FEADC0301224FEA5C1C013302FA98
:104D80000CF256F833104EEA020E06EBC302083A54
:104D9000C6F804E0C4E9021246F83340CC60831040
:104DA0004FF0010C0CFA03FCF44534D81CEA0E0F4A
:104DB00007D120F003004FEA4C0C04301CEA0E0F20
:104DC000F9D006EBC00A8146D646DEF80C300BE07F
:104DD0005A681C46DB6822F00302511B0F2900F3BE
:104DE0000181002980F215819E45F1D109F1010967
:104DF0000EF1080E19F0030FE7D158E10C233B60C8
:104E00000024204603B0BDE8F08F4FF4007340202B
:104E10004FF03F0E7EE7B468636823F00309A945AD
:104E2000A9EB050302D30F2B00F385805A4B082012
:104E30001B6803F1100804EB0903009303F0C8FAA0
:104E4000564AA84483461368013305D008F1FF3859
:104E50004342804403EA08084146384603F082FA98
:104E6000B0F1FF3F82464D4A00F0078104EB090391
:104E7000834200F200814A4B0BF1FF3C186840442A
:104E8000186000F064811168013100F06C8104EB5E
:104E90000902AAEB020202441A601AF00702CDE9E5
:104EA000002300F02781C2F10802384692445A4498
:104EB000D04408EA0C01521A02EA0C0B594603F0DE
:104EC00051FA421C019B00F06A81A0EB0A0000EB42
:104ED0000B08186848F00102B442C6F808A058440C
:104EE000CAF80420186017D0B9F10F0F40F23E81C4
:104EF0006168A9F10C024FF0050C22F0070201F0E5
:104F0000010111430F2A616004EB0201C1E901CCE8
:104F100000F24D81DAF80420224B54461968814290
:104F200038BF1860204B1968814238BF1860A6E06E
:104F3000D6F804E033E7621945F0010543F00103B8
:104F4000083444F8045C3846B260536000F05EF9FF
:104F5000204603B0BDE8F08FA26823443846D160F4
:104F60008A60B2E6DC68A3427FF4A6AE0230E7E6D0
:104F7000BCF5206F4FEA5C2276D3142A00F2CD8074
:104F800002F15C035B32DB00F118F35808399942F7
:104F900011D1A5E0680D0020081600205C0D00204E
:104FA000D81500200016002004160020700D0020E7
:104FB0009B68994204D05A6822F003026245F7D8F0
:104FC000D968C4E902318C60DC60E8E6142B63D94F
:104FD000542B00F2AB802B0B03F16F0003F16E0E2C
:104FE000C30097E6D4F808C03846671945F00105B4
:104FF0006560CCF80C30C3F808C041F00103C6E985
:105000000477C7E902887B60A150083400F0FEF8FD
:10501000F7E622443846516841F00101516054F8E6
:10502000082FD3609A6000F0F1F8EAE6A44438460D
:105030000834DCF8043043F00103CCF8043000F00D
:10504000E5F8DEE6621943F0010145F00105384656
:105050006560C6E90422C2E90288516044F80C3058
:10506000083400F0D3F8CCE64FEA9C1202F1390381
:105070003832DB0088E7B44262D0B468626822F05C
:105080000308A845A8EB050302D30F2B3FF753AF46
:10509000384600F0BBF8B3E603F15C0003F15B0EA9
:1050A000C30037E65AF80839534540F0A08010F0A5
:1050B000030F00F1FF30F5D1736823EA0C0373602E
:1050C0004FEA4C0C0CF1FF329A4204D3A3E64FEAAC
:1050D0004C0C09F104091CEA030FF8D0484670E6AD
:1050E00092104FF0010C0CFA02F24EEA020EC6F8D2
:1050F00004E066E70AEB0802384602EA0C02ABEB72
:10510000020B0BEA0C0B594603F02CF9431C019BD4
:105110007FF4DBAEDDF800B0DBE6542A2AD84FEA94
:105120001C3202F16F036E32DB002DE7B3F5AA7F6C
:105130002AD8EB0B03F1780003F1770EC300E9E501
:105140002E4B0BF1FF3C1868404418609BE61AEAAE
:105150000C0F7FF498AEC844D6F808A048F00102BE
:10516000CAF80420D8E6C2F800A096E60123CAF8DF
:1051700004308DE7B2F5AA7F24D84FEADC3202F181
:1051800078037732DB00FFE640F25452934224D892
:10519000AB0C03F17D0003F17C0EC300BAE5009A6D
:1051A0004FF0000B083A9044A8EB0A0891E6384605
:1051B00004F10801009304F029FB009BD6F808A035
:1051C0001868A7E640F254539A420CD84FEA9C4222
:1051D00002F17D037C32DB00D6E64FF47E737F2044
:1051E0004FF07E0E96E54FF47E737E22CCE6736818
:1051F00066E7E80805F1080356E500BFD81500206A
:10520000014803F0E1B800BFD0150020014803F0C9
:10521000DDB800BFD01500202DE9F04F164683B051
:10522000002900F09E800C4606F10B058046FFF732
:10523000E7FF54F8040C162DA4F1080920F0030729
:1052400062D8102200231546B542C0F0A280002B80
:1052500040F09F80974261DADFF82CB309EB070139
:10526000DBF80830D1F804C08B4200F09A802CF0B3
:1052700001030B445B68DB0768D42CF0030C07EBDD
:105280000C03934245DAC30712D454F8083CA9EB47
:10529000030ADAF8043023F0030084440CEB070B14
:1052A0005A4540F3018107EB000B5A4540F3D78084
:1052B00031464046FFF7E8FC0646002800F02C8106
:1052C00054F8043CA0F1080223F001034B4493423C
:1052D00000F0B4803A1F242A00F2E280132A00F280
:1052E000B38003462246116819605168596092687C
:1052F0009A602146404604F089FA4046FFF786FF4F
:10530000304603B0BDE8F08F25F007052A46EB0FC5
:105310009AE71F46D1E90223D3609A60781BD9F837
:10532000043009EB07020F2803F001031FD83B43A9
:10533000C9F80430536843F00103536026464046E1
:10534000FFF764FF304603B0BDE8F08FC307AFD46A
:1053500054F8083CA9EB030ADAF8043023F0030000
:10536000A1E7114603B0BDE8F04FFFF78DBC2B431A
:1053700009EB050140F00100C9F80430083141F89B
:10538000040C4046536843F00103536004F03EFAB6
:10539000D4E70C23C8F800300026304603B0BDE83F
:1053A000F08F2CF0030C05F110010CEB07038B427E
:1053B00080F29280C0073FF57BAF54F8083CA9EB20
:1053C000030ADAF8043023F0030084440CEB0703EB
:1053D00099423FF768AF3A1F5646DAF80C1056F874
:1053E000080F242AC160886000F2B080132A40F2BE
:1053F000AB8021681B2ACAF808106168CAF80C1033
:1054000000F2AB8008340AF1100221681160616873
:105410005160A16891605B1B0AEB0502404643F0B6
:105420000103CBF808205360DAF8043003F00103DD
:105430002B43CAF80430FFF7E9FE83E750F8043C39
:1054400023F003031F4469E723681B2A0360636892
:10545000436036D804F1080200F1080343E73A1F1D
:105460005646DAF80C30242A56F8081FCB609960AB
:1054700022D8132A1ED923681B2ACAF80830636869
:10548000CAF80C303CD808340AF1100322681A60BC
:1054900062685A60A2689A6034465F46D1463DE72A
:1054A000214602F019FE24E7D1E902133A1FCB602E
:1054B0009960D5E73346E9E72146304602F00CFE15
:1054C000EAE7A368242A8360E368C36028D004F174
:1054D000100200F1100306E75B1B09EB05024046D2
:1054E000264643F00103CBF80820536054F8043CEF
:1054F00003F001032B4344F8043CFFF787FE21E748
:10550000A368242ACAF81030E368CAF8143010D00F
:1055100010340AF11803B9E74046FFF777FE3BE77E
:10552000236904F1180203616369436100F1180300
:10553000D9E623691834CAF8183054F8043CCAF87C
:105540001C300AF12003A1E732465EE721463046CF
:10555000019302F0C1FD019B5DE7A168242ACAF80E
:105560001010E168CAF8141003D010340AF11802C0
:105570004BE722691834CAF8182054F8042CCAF8EA
:105580001C200AF1200240E7680D00200000000006
:105590002DE9F04FDFB01C4682460A910DF1B808A4
:1055A0000C92129302F09CFE036818461A9302F0C4
:1055B000D3FF082219900021404602F00BFEBAF1F9
:1055C000000F04D0DAF83430002B01F0FC810A9B84
:1055D0005A6EB3F90C30D00740F13881990400F1CC
:1055E000478743F400530A9922F400528B811BB27F
:1055F0004A661D0740F1BC800A9A1269002A00F031
:10560000B78003F01A020A2A00F0C1800023CDF807
:1056100020A09E46CDE9333335ABCDF86CE0CDF814
:1056200070E01C463293CDF834E0CDF854E09FEDA5
:10563000927BCDE91DEE8DED167B0C9E089F904B65
:10564000D3F8E45002F046FE324603462AA9384613
:10565000CDF80080A8470028034600F0B780C0F2CC
:10566000AD802A9A252A01D01E44E8E70C9B054606
:10567000F71A40F0AF8000234FF0FF32751C96F808
:1056800001908DF89F300E930B9207930135A9F18D
:1056900020035A2B00F2F680DFE813F09704F400A1
:1056A000F4008F04F400F400F4006D04F400F4003E
:1056B00052036403F4005D03AB04F400A3045B0035
:1056C0005B005B005B005B005B005B005B005B0002
:1056D000F400F400F400F400F400F400F4006501B8
:1056E000F40096021604650165016501F400F400FA
:1056F000F400F4000E04F400F400D703F400F40006
:10570000F400BE02F4004F04F400F4009808F40022
:10571000F400F400F400F400F400F400F400650177
:10572000F4009602BC016501650165014304BC01FA
:10573000B501F4003704F400C70396036A03B5010A
:10574000F400BE02B2010703F400F400C608F4003E
:10575000B201A9F13003002202EB820215F8019B8D
:1057600003EB4202A9F13003092BF5D90E928EE723
:105770000A9D5046294602F02FFC002841F0D887A8
:10578000B5F90C3003F01A020A2A7FF43FAF0A99E8
:10579000B1F90E20002AFFF639AF4A6ED20702D4C3
:1057A0009F0541F1688323460C9A0A99504602F0FE
:1057B00051F80D900D985FB0BDE8F08F08220021E0
:1057C000404602F007FD01231E4438E70C9B0546C6
:1057D000F71A11D00C9B339AC4E900370132349B7D
:1057E000072A3B443392349312DC08340D9B3B442C
:1057F0000D93002D7FF43FAF349BDDF820A0002BEC
:1058000041F02F8300220A9B3392B3F90C3011E050
:1058100032AA0A99089802F05FF840B935ACE5E77A
:10582000DA460F9B1BB10F99504603F0EFFF0A9B1E
:10583000B3F90C300A9A526ED40740F1D7805A0659
:1058400000F12F820D985FB0BDE8F08F9F0540F109
:1058500018829E047FF5C5AE95047FF5CAAE0A9BFB
:105860009B899E0500F11D820A9B986D02F0AEFD9A
:1058700017E200BFAFF3008000000000000000004E
:105880007C1100200C95B9F1000FB5D00023012246
:1058900045AF8DF814918DF89F300F9310920B93B4
:1058A00018930992CDE91333079B349D13F08403B9
:1058B000AE4600F0E9809DF89F20EAB133980026BB
:1058C000013001220135626007280DF19F02CDE908
:1058D0003305226000F35F8408346EB133980130E1
:1058E00028AA0235226007284FF00202CDE93305CD
:1058F000626000F35D840834802B00F097830B9B7B
:10590000109A9E1A002E00F3D080079BDB0500F151
:105910000481109B27601D446360339B34950133E1
:10592000072B339300F3E5830834079B5E0705D507
:105930000E9B099A9E1A002E00F348840999DDE90E
:105940000D328A42ACBF9B185B180D93002D40F0BE
:10595000AA83002333930F9B1BB10F99089803F080
:1059600055FF35AC69E6129B4FF0FF320C950733BB
:1059700023F00701A34BB1EC027B57EC176B12919C
:1059800027F000418DED207A2191DDE920AB8DEDEE
:10599000167B50465946FBF721FE002840F014863E
:1059A0004FF0FF32974B50465946FBF74FFE0546E6
:1059B000002840F00986079B00223046394623F034
:1059C000800307930023FBF72DFE002841F0C683D8
:1059D000B9F1470F9DF89F30CCBF8B4F8B4F002BF9
:1059E00041F0688503220F93109258E799053FF51F
:1059F00026AF0A9CA06D02F0E9FCB4F90C301EE75A
:105A000095F8009042E6079B95F8009043F020033C
:105A100007933BE607990C95880640F1B285129BE7
:105A20000791073323F007031A465B6852F8085BB7
:105A30001E461292002BC0F259820B9A002AC0F225
:105A40004981079B23F08003079355EA060340F042
:105A50004181131E18BF0123002A40F03B811A46E2
:105A60000F939DF89F305EAF349D191E079BAE4685
:105A70000B9218BF012113F0840310920991189220
:105A8000CDE913227FF417AF0E9A0999561A002E0A
:105A900000F3B8849DF89F20002A7FF40FAF0B9B82
:105AA000109A9E1A002E7FF730AF102E339ADFF82F
:105AB00060A123DD29461023DDF820B00A9D02E015
:105AC000103E102E19DD013210315148072AC4E969
:105AD0000003CDE9332104F10804F1DD32AA29469F
