:020000041000EA
:10000000002008205D0100101B0100101D010010E0
:100010001101001011010010110100101101001058
:100020001901001019010010190100101F01001022
:10003000110100101901001021010010230100100E
:100040001101001011010010110100101101001028
:100050001101001011010010110100101101001018
:100060001101001011010010110100101101001008
:1000700011010010110100101101001011010010F8
:1000800011010010110100101101001011010010E8
:1000900011010010110100101101001011010010D8
:1000A00011010010110100101101001011010010C8
:1000B00011010010110100101101001011010010B8
:1000C00011010010110100101101001011010010A8
:1000D0001101001011010010110100101101001098
:1000E0001101001011010010110100101101001088
:1000F0001101001011010010110100101101001078
:100100001101001011010010110100101101001067
:10011000EFF30580103800BE00BE00BE00BE00BE7A
:1001200000BE00BEF2EB887194870610B0870610FF
:10013000A001001090A31AE7D3DEFFFF42012110B7
:10014000FF01000004960600793512AB4FF0000065
:100150001E49086006C881F3088810474FF05040D8
:10016000006810B14FF00000F2E70DA40ECC00299A
:1001700002D000F012F8F9E71549164A002000E015
:1001800001C19142FCD11449884714498847144958
:10019000884700BEFDE701C901C29A42FBD3704700
:1001A000B0870610100100209C1000203C9706101C
:1001B00000000820000008203C97061000100820CE
:1001C00000100820000000007047000008ED00E06B
:1001D0009C10002088370220212B00105D020010A7
:1001E000EB2A0010F8B500BF064B0749C91A891061
:1001F00048BF0131491003D0044B0BB101481847E7
:10020000704700BF9C1000209C10002000000000E0
:1002100008B5054B1BB105490548AFF30080BDE8A3
:100220000840FFF7E1BF00BF0000000020170020DA
:10023000BCB6011013460A46014904F0E5BD00BFF3
:10024000C0B6011051430022594313460098914211
:1002500001DC0020704783540132F8E708B500F054
:10026000A9F800F065F9FCE770477047002330B546
:10027000D0F8BC4000F190029C4201D1002006E081
:1002800052F8045F8D4203D12A3350F8230030BD69
:100290000133F1E7014808F08FBB00BF04130020D1
:1002A0002DE9F04104460F4606460025D0F890801F
:1002B000A84501D100200BE0B369202B0AD13946B3
:1002C000F06919F007F828B91C2303FB0540043036
:1002D000BDE8F08101351C36EAE72029F0B507D0EA
:1002E00000231C25D0F8904000F11806A34201D14C
:1002F000002006E005FB03F2B758B94202D10432F0
:100300001044F0BD0133F1E720292DE9F041054605
:100310000F461446984607D11F4809F017F9BDE863
:10032000F0411E4809F012B903681B68984740B1B4
:100330001B4809F00BF939461A48BDE8F04109F0AD
:1003400005B9D5F890C0BCF1040F06D93946164856
:1003500009F0FCF805211548EFE74FF01C0E0FCC13
:100360000EFB0C5E0EF104060FC6D5F8BC3094E807
:10037000070086E807000CF10102CEF81870C5F8F6
:10038000902005EB83020133C2F89470C2F8A88074
:10039000C5F8BC30BDE8F081E3B6011014B7011018
:1003A00029B7011058B7011079B70110AAB7011089
:1003B0007047000070B5474B8CB01A68D20704D460
:1003C000012245481A6015F0EBFA444B444C454D68
:1003D0002360454B1A68D1189B582960CB1A1A889C
:1003E000042A0CD99A8812B18A58032A09D0032307
:1003F0003E493A480CB0BDE8704004F005BD00220B
:10040000F5E73B493B4A0B6813F001030AD1C2F8F8
:100410009030C2F8BC30012337480B601060374879
:1004200015F0BEFA05A804F061FA0121344B05AAC3
:100430003048FFF769FF05A803F08EFA0321314B1E
:1004400005AA2C48FFF760FF05A804F013F8042163
:100450002D4B05AA2748FFF757FF05A807F0D9FB42
:1004600016212A4B05AA2348FFF74EFF284E05A860
:1004700004F07AFC274B19211E4805AAFFF744FF18
:10048000336813F0010310D1CDE9023301934FF427
:1004900008330093174A204B2968204808F0C6F912
:1004A00001231F48336015F07BFA1C481D4D28605E
:1004B00008F09DFB014630B11B4920680CB0BDE837
:1004C000704004F0A1BC286808F03DFA174B186092
:1004D0000CB070BD3012002069020010A00900208D
:1004E0003812002040120020F8E60110BDB70110BC
:1004F0002812002044120020E4E60110B10300108D
:10050000E35A0010CF5700108D580010ED63001013
:100510002C120020715E00105C17002004130020D4
:10052000950200103412002004B801103C12002083
:1005300037B56022134B144C1B6811461B6900939E
:1005400020680123FFF77EFE18B11049206804F0EF
:100550005BFC0F4D286808F041FC18B10D4920687C
:1005600004F052FC0021286808F00FFA03692068A3
:1005700093F9002093F9011003B0BDE83040FFF774
:1005800059BE00BF3C120020381200201DB80110D7
:100590003412002033B80110034B0A461B68014691
:1005A000D86818F013B800BF480F002002F022BA34
:1005B0000FB407B5049C074802F0C6FB3CB105A97F
:1005C0002046019102F024FA034802F0BDFB01200D
:1005D00002F041FA42B8011047DC0110EFF310803D
:1005E00072B6064BD3E8CF1F01220029FAD1C3E827
:1005F000412F0029F6D1BFF35F8F70476737022084
:100600000023034AC2E88F3F80F31088704700BF81
:1006100067370220CB08C05C012301F007018B4043
:100620001840003818BF01207047F8B505460C4641
:100630001746FFF7D3FF214606462846FFF7EAFF95
:1006400018B121463846FFF7B3FF0123E208A95C41
:1006500004F00704A3400B43AB543046BDE8F84018
:10066000FFF7CEBF044A1078431CDBB2182B28BF1B
:1006700010231370704700BFA40900204FF0E02240
:10068000936843F0005393607047000000231A46BC
:1006900003481918C1E88F2F0133202BF9D1704777
:1006A0005C370220064B10309B6843F82010BFF3E4
:1006B0005F8F00230349C1E88F3F82F310887047A2
:1006C00000ED00E0653702204FF08030044B054A12
:1006D0001946043393420860FAD162B6704700BFEE
:1006E00000E400E034E400E00122430900F01F00D0
:1006F000824041B19B0003F1604303F56143C3F8BD
:1007000080211A6070470249203341F82320704746
:1007100000E100E0024B10309B6853F82000704766
:1007200000ED00E070B505460C46EFF3108672B69A
:100730000D4BD3E8CF1F01220029FAD1C3E8412F86
:100740000029F6D1BFF35F8FFFF7E4FF074B984214
:1007500003D0A04201D000F04BFC3246214628468F
:10076000BDE87040FFF79EBF653702201101001001
:10077000014B0B44036070475C37022010B5044600
:10078000FFF770FF01462046FFF7F2FFFF232371BA
:10079000BFF35F8F10BD10B50446FFF763FF01463E
:1007A0002046FFF7E5FFFF23A380BFF35F8F10BD57
:1007B00038B50848084DA84200D338BD044654F85F
:1007C000083B1BB1FFF7E7FF2046F4E7FFF7D6FF32
:1007D000FAE700BF941000209C1000200D4B10B5CC
:1007E0001A68EFF3108172B6D2E8CF4F0120002CC7
:1007F000FAD1C2E8440F002CF6D1BFF35F8F1A681C
:100800000023C2E88F3F81F3108840BF0020002101
:1008100010BD00BF581700202DE9F04F2DED028BC1
:1008200085B0EFF30582D2B2A34B103A9108A34DE5
:1008300018BF1D46E81A434202F00302434102EB8F
:10084000830301929E4A9FED9A8B52F82340012325
:10085000019A93400293029A05F541535A60029B14
:10086000EB63B4F90830002B009352DB18265E438B
:100870006769284607EB0608D8E902A900F09EFA46
:10088000504571EB090144DBB9F1000F6FDBD8E98A
:10089000043B8C4A934255D15846DBF810309847B8
:1008A000002864D0DBE9003B53EA0B025FD0BBF1C8
:1008B000000F53DABAEB030069EB0B0137F906C0FE
:1008C000C8E90201BCF1000F23DB4FF0180BD4F88C
:1008D00014900BFB0C93D3E90223904271EB0303BA
:1008E00017DBA6462EF808CF0BFB0CFA09EB0A081B
:1008F000D8E90223904271EB030305DB39F90AC002
:10090000C646BCF1000FEFDA009B27F806C0AEF830
:100910000030A388190446D5A37943B10023A371FD
:10092000B4F9083004F108065A1C40F08180B4F98B
:100930000820002A80F2978040BF05B0BDEC028BF2
:10094000BDE8F08FB8F80220B4F9080092B2594619
:1009500042EA0040984703468B46A5E728460393A2
:1009600000F02CFA039BC0184BEB0101A6E7BB5B20
:1009700023812369EFF3108272B6D3E8CF0F0121F0
:100980000028FAD1C3E8401F0028F6D1BFF35F8FDB
:1009900063880021BB53009B63802369C3E88F1FDA
:1009A00082F31088B5E72369EFF3108172B6D3E8BC
:1009B000CF0F01220028FAD1C3E8402F0028F6D13A
:1009C000BFF35F8F4FF6FF72A3880020A2801BB297
:1009D0002269C2E88F0F81F31088182704F10809F3
:1009E000002B99DBCE4607FB03F06269B4F908C01F
:1009F0001118D1E902BABCF1000F0FDBBEF90010EB
:100A000001EB410102EBC108D8F80C600096D8F860
:100A10000860B345009E7AEB060605DAAEF80030B2
:100A2000135E22F800C0DBE7C64632F931C0E2E7C8
:100A3000616903EB430001EBC002B2F802C031F977
:100A400030701CF4004F0CD0B4F908C082ED028B5A
:100A5000634504D03780228921F8302023813B462A
:100A600062E71646FBE71821636901FB0233D3E90D
:100A70000267B7F1FF3F08BFB6F1FF3F0FD0019B00
:100A8000A96A05EB83021369701A5B1A984205D3B1
:100A900001230198296A83400B4200D11661284640
:100AA00000F08CF9B042B941BFF6D9AE44E700BFBF
:100AB000FFFFFFFFFFFFFFFF00800B4000000B4028
:100AC0003817002019080010F8B504461646C16012
:100AD0001F460D46FFF7C6FD4FF0504226701268C4
:100AE000184B62704FF6FF7203442361BBB26381FF
:100AF000013B2281A280638000221823BA4218D1D0
:100B0000114F1249EB1B5F425F41114B06EB870708
:100B100043F82740012404FA06F638462E62FFF710
:100B200001FE05F5015521463846FFF7DDFD2E6033
:100B3000F8BD03FB02F1606902F1FF3C20F801C03F
:100B40000132DBE75C37022000800B4019080010FF
:100B50003817002010B5094C23694BB90321084808
:100B600000F01AF91023032220460549FFF7ACFFD5
:100B7000BDE810400A210348FFF7FABDA80900208C
:100B800000000B4058170020074A536A994206D8C4
:100B9000926A824205D2C81A18BF0120704700200D
:100BA00070470120704700BF00000B400146F0B5C0
:100BB0000069EFF3108E72B6D0E8CF5F0124002DEC
:100BC000FAD1C0E8454F002DF6D1BFF35F8FB1F9E0
:100BD00002504E6905EB45044FEAC40C002DA8BF36
:100BE00036F80C004FF00007A8BF488006EBC4049D
:100BF0000869C0E88F7F8EF31088BD4231DB05980D
:100C0000C4E90223206106980B69606160880130A5
:100C1000C0F30E00012838BF0120608040EA054083
:100C2000EFF3108272B6D3E8CFEF0124BEF1000FCC
:100C3000F9D1C3E84E4FBEF1000FF4D1BFF35F8F7F
:100C40008B8826F80C308D800B69C3E88F7F82F388
:100C5000108801220B789A40CB6803F501535A6043
:100C6000F0BD4FF0FF30FBE72DE9F0479DF828700D
:100C70000646DDE9088915461C4647B12A46234643
:100C80003046CDE90889BDE8F047FFF78FBF00F097
:100C9000BFF8854264EB01010029EFDA3846BDE870
:100CA000F0870346408970B5B0EB214F4FEA2142EF
:100CB00001DC002070BD1824586904FB02001A6989
:100CC000EFF3108472B6D2E8CF6F0125002EFAD16F
:100CD000C2E8465F002EF6D1BFF35F8F428889B22B
:100CE00092B28A4214D142F40042428001209871AB
:100CF00000221969C1E88F2F84F310880028D8D00A
:100D000001221978DB688A4003F501535A60D1E764
:100D10000020EDE72DE9F04304460D4685B0EFF3E2
:100D20000587FFB227B105B0BDE8F043FFF72CBF40
:100D3000174ED6F80C9096F80080484600F03EF822
:100D400008F1040859F82830221AA3EB000365EBD8
:100D500001019A4271F1000103DB20BF20462946C0
:100D6000E1E70C4B3046009322462B46CDE9017754
:100D7000FFF77AFF061E29462046D4DDFFF704FF61
:100D800000B920BF31460248FFF78BFFE6E700BFFE
:100D9000A8090020DD07001010B4054B054C064AD9
:100DA000A04214BF1846581C5DF8044BFFF73DBC29
:100DB0007C37022000800B4052B801100346416A84
:100DC0000A46986A596A8A42FAD17047416A99423A
:100DD000FCD3994202D1816A914200D37047416AA3
:100DE000F7E72DE9F04116461D460446FFF7E6FFFA
:100DF000821951EB05034FF0000728BF012717B1F7
:100E00004FF0FF3213462046BDE8F041FFF7DEBF4A
:100E10000148FFF7D3BF00BF00000B4002460B465E
:100E20000148FFF7DEBF00BF00000B40F0B50C2407
:100E3000444304F1804404F58034059E944662687E
:100E4000071FB242FFB238BF6660012F04F540525F
:100E500024D8012922D103251560A268D207FCD528
:100E6000226804F5805582EA4C1202F0E002012F5C
:100E70002A6009D822684A4002F003022A6001224F
:100E80008A40A1681142FCD04FF4006104F5005281
:100E900011600B4A666042F82030F0BD4FF40065E7
:100EA0001560074D55F82020002AD9D06D69B5FB93
:100EB000F2F5013505EB4505033DFDD2D0E700BF56
:100EC000E416002013B54FF480340094FFF7AEFF12
:100ED00002B010BD014B53F820007047E41600200B
:100EE00070B51D4CB4FBF1F4B2FBF4F2049C240386
:100EF00044EA03430468002C0EDA046804F03F045B
:100F00008C4209D18468C4F30B04944204D1C468B0
:100F100004F4EE249C421DD0104D0124A84214BFBD
:100F20000E250F25AC400E4D0E4E2C6005F580555C
:100F30002C60B56834EA0505FBD10160212182608F
:100F400000F540520432116001680029FCDAC360E8
:100F50000823136070BD00BF001BB7000080054070
:100F600000200240000002400C235843012300F1FE
:100F7000804000F584104160036070470023DB8AE5
:100F8000002242E800F2520254BF10210421184707
:100F9000034AD2F82838002BFBD0BFF35F8F70478D
:100FA00000000E400021044B044ABFF35F8F43F85A
:100FB000041B9342F9D170470C080E402C080E40D8
:100FC000FFF7F0BF4FF42A62054B06491A604FF451
:100FD0008D72DA60044A11605A68002AFCDA7047A0
:100FE0000080044000B0FA0000A0044070470000F8
:100FF00008B50148FFF7DCFA74B8011038B5044CA5
:10100000044DAC4200D338BD54F8043B9847F8E790
:1010100070B60110B0B60110054B064A06491A60B9
:10102000064B074A13608A6833EA0202FBD1704715
:10103000002002407F3BEFEF00000240F6FFF30389
:1010400000300240044BDB6CB3F5004F02BF4FF49D
:101050008022024BDA6470470000115000201150CA
:101060004FF0E022044BD2F8881D0B43C2F8883DB4
:1010700010EE3004704700BF030330006FF0604291
:10108000044B1A60044A9368DB4333F06043FAD19F
:10109000704700BF003002400000024010B545F22A
:1010A0005320FFF76BFFBDE81040034604201847AC
:1010B00010B545F25320FFF761FFBDE8104003462D
:1010C00001201847FFF7E2BA10B50B490B4C0C484A
:1010D000641AA410442C224628BF4422920018F01F
:1010E00017FA074B074A432C02D9074A936010BDF1
:1010F00043F824200134F6E700000010100100102E
:10110000000000201101001000ED00E0002373B585
:10111000294DC5F88430FFF755FF0122274BDA63CC
:101120006A6C012AFCD103221A63AC6B012CFCD13E
:101130000226052521460523214A22480096FFF76D
:10114000CFFE2B462146204A20480095FFF7C8FED7
:101150000022314604201E4BFFF7B4FE21462846EC
:1011600000221C4BFFF7AEFE0022082011461A4B4E
:10117000FFF7A8FE002209201146174BFFF7A2FE39
:10118000002206201146134BFFF79CFE0022072089
:101190001146104BFFF796FE0420FFF79BFE0F4D04
:1011A0000024B0FBF5F5E0B229460134FFF7DCFE80
:1011B000062CF8D102B070BD0000014000300140A3
:1011C000002F685900000540008C864700800540CC
:1011D000001BB70080D1F008006CDC0240420F0019
:1011E000C1F30A53A3F2FF335A1C30B505460C462F
:1011F00003DA002001F0004130BD07D101F00044C6
:1012000044F07F51002041F44011F5E7342BF3DA2C
:101210000122C3F13300C3F11301133B22FA03F39C
:1012200002FA01F1194302FA00F302225B1944EBBE
:101230000104C0F12005A0F1200122FA05F502FA0F
:1012400001F182402943524261EB410502EA030069
:1012500005EA0401D0E70000C1F30A52F0B50646E2
:101260000D461AB9104601F00041F0BDA2F2FF325E
:10127000002A05DA00294FF0000024DA1349F4E7C8
:10128000C2F13402002AF0DD0123A2F12000C2F1F4
:10129000200123FA01F103FA00F0934008435A1E9B
:1012A0004FEAD571A2FB012440F1FF3701FB07444F
:1012B000921944EB05045B4260EB400504EA05012A
:1012C00002EA0300D1E70021CFE700BF0000F0BF32
:1012D00086B003B451FC0804CDE9020151FC0904B5
:1012E000CDE9040151EC0A04CDE9060103BCF04745
:1012F000BDE800504EEC00C4BDE800504EEC01C407
:10130000BDE800504EEC02C400BD000000B5FFF780
:10131000DFFF02E010FE30F4F8D441EC100443EC9F
:10132000112400EE010410EE010480EE200451ECC3
:101330001004704700B5FFF7CBFF02E010FE30F459
:10134000F8D441EC100443EC112400EE010410EE3B
:10135000210480EE200451EC3004704700B5FFF703
:10136000B7FF02E010FE30F4F8D410B541EC1004E1
:1013700043EC112451EC040453EC0524A0FB024C73
:101380005FF0000EE0FB03CEE1FB02CE4CEC20440C
:101390000024E1FB03E444EC30E480EE200451EC53
:1013A0005004BDE81040704700B5FFF791FF02E020
:1013B00010FE30F4F8D441EC100443EC112451EC4D
:1013C0002104A0FB01126FEA820252FB100052FBC3
:1013D00012F252FB1000A0EBD07C53EC04245CFB17
:1013E00013F153EC1524A1FB022001FB030053EC85
:1013F0004424A2EB000050FB1CF24FEA111312EB45
:10140000017043EBE27140EA515020EA915020F024
:10141000070053EC7524A0FB023C53EC752400FB41
:1014200003CC01FB02CC53EC0424ACEB824C40EA2D
:101430005C70A0F1010041EC400480EE200451EC0E
:101440007004704700B5FFF743FF02E010FE30F470
:10145000F8D441EC100480EE220410EEB204704780
:1014600000B5FFF735FF02E010FE30F4F8D440EC91
:10147000700400EE010410EE210480EE200451EC13
:101480003004704700B5FFF723FF02E010FE30F490
:10149000F8D440EC600400EE010410EE210480EE6C
:1014A000200451EC3004704700B5FFF711FF02E053
:1014B00010FE30F4F8D441EC800400EE010410EE8C
:1014C000010480EE400410EE1304704700B5FFF7EE
:1014D000FFFE02E010FE30F4F8D441EC800400EE90
:1014E000010410EE010480EE400410EE3304704756
:1014F00000B5FFF7EDFE02E010FE30F4F8D441EC49
:10150000100443EC112400EE010410EE3004C0F38B
:101510000070704700B5FFF7DBFE02E010FE30F40C
:10152000F8D441EC100443EC112400EE010410EE59
:101530003004C0F38070704700B5FFF7C9FE02E0C9
:1015400010FE30F4F8D443EC102441EC110400EE0A
:10155000010410EE30F48CBF01200020704700BF62
:1015600000B5FFF7B5FE02E010FE30F4F8D443EC0E
:10157000102441EC110400EE010410EE30F42CBFF5
:1015800001200020704700BF00B5FFF7A1FE02E078
:1015900010FE30F4F8D441EC100443EC112400EEBA
:1015A000010410EE30F42CBF01200020704700BF72
:1015B00000B5FFF78DFE02E010FE30F4F8D441ECE8
:1015C000100443EC112400EE010410EE30F48CBF43
:1015D00001200020704700BF0022002950DA40425D
:1015E00061EB4101C9B1B1FA81F30B3B17D4D3F1DF
:1015F000200C30FA0CFC9840994051EA0C011A4436
:10160000524202F2324201EB025141F0004140F2FB
:10161000FE739A4238BF704721E011467EE003F125
:10162000210310FA03FCA3F1010301FA03FCC3F147
:10163000200320FA03F021FA03F140EA0C00A3EBA7
:10164000020202F2324214D050F1000041EB02518A
:1016500041F0004140F2FE739A4238BF70474FF0AC
:101660000001A8BFC7F6F0714FF0000070470021DD
:101670007047EBD350F1000020F00100E6E70022B4
:10168000B9B1B1FA81F30B3B16D4D3F1200C30FA87
:101690000CFC9840994051EA0C011A44524202F263
:1016A000324201EB025140F2FE739A4238BF70475A
:1016B00020E0114600F066B803F1210310FA03FCA4
:1016C000A3F1010301FA03FCC3F1200320FA03F0A4
:1016D00021FA03F140EA0C00A3EB020202F23242CB
:1016E00012D050F1000041EB025140F2FE739A42D9
:1016F00038BF70474FF00001A8BFC7F6F0714FF038
:101700000000704700217047EDD350F1000020F039
:101710000100E8E7002880F235804042B0FA80F30B
:101720000B3B11D4984001EB0302524202F21242E9
:1017300000EB025141F000414FF0000040F2FE7317
:101740009A4238BF704713E0C3F1000330FA03FC3C
:10175000C3F120029040A3EB010202F212420CEB13
:10176000025141F0004140F2FE739A4238BF704787
:101770004FF00041A8BFCFF6F0714FF00000704766
:101780000021704760B3B0FA80F30B3B0FD4984050
:1017900001EB0302524202F2124200EB02514FF0FF
:1017A000000040F2FE739A4238BF704710E05B427F
:1017B00030FA03FCC3F120029040A3EB010202F2D5
:1017C00012420CEB025140F2FE739A4238BF70474E
:1017D0004FF00001A8BFC7F6F0714FF0000070474E
:1017E000002170470022A2F232425FEA215CACF194
:1017F0000103A1EB03515B0513F5800F32D212EB0D
:10180000535210D40B2A36DA9140D2F1200330FA29
:1018100003F319439040BCF1000FA8BF704740424A
:1018200061EB4101704720320EDD01FA02F3D2F183
:101830002002D140D0401843BCF1000FA8BF704730
:10184000404261EB41017047524282F3050231FA96
:1018500002F00021BCF1000FA8BF7047404261EBCD
:101860004101704702D000200021704750EA013149
:1018700018BF4FF0000C6FF0004101EBDC716FEA14
:10188000EC70704700000000C11545D4852932DA9C
:10189000012262F3DF507E392AD400FA01F041F6CA
:1018A0009553C5F6554380FB03012BA292EC034AE6
:1018B000820D61F39A2200EE102ABBEEC00A60EEA0
:1018C000000AC1F3444220EE042A26A320EE201A87
:1018D00053F8222000EEA42A891501EE052A02EB16
:1018E000C15200EE102A00EE020A10EE100A7047F4
:1018F0004942C840D3E747F21822C4F2B1229042CD
:10190000C6D3B0F1FF4F02D950F48000704740F2C7
:101910000000C7F68070704711F17B0F0CDA0122CE
:1019200062F3DF50823105D54942C84040F10000E2
:101930004042B4E78840FBE74AF64F42CCF2AE2281
:101940009042ECD910F5000F02D950F48000704796
:101950004FF00000704700BF1872313FF0FD753E38
:101960004758633D0000803F87CD823FC3AA853F33
:101970000F98883FC2958B3F3AA48E3FD3C3913FC7
:10198000F0F4943FF037983F3A8D9B3F32F59E3FFD
:101990004370A23FD7FEA53F5BA1A93F3F58AD3F93
:1019A000F623B13FF304B53FAFFBB83FA408BD3FFA
:1019B0004D2CC13F2A67C53FBEB9C93F8C24CE3FDD
:1019C0001EA8D23FFD44D73FB8FBDB3FDFCCE03F52
:1019D00007B9E53FC7C0EA3FBAE4EF3F7D25F53FD1
:1019E000B383FA3F00000000B0F1FF4F3ED2C115B3
:1019F0003ED04FF0010262F3DF5038BF400026A313
:101A000093EC034AAFF21C0303EB104323F00703EC
:101A1000D3E9002300FB02F040EC103AFAEEC00AD2
:101A200020EEA01A61F17E0160EE811AC90521EE57
:101A3000012A40F6FC3221EE041AC5F6B90261EE25
:101A4000A41A51FB12F122EE052A03EE901A71EE50
:101A5000C21AFAEEC53A31EE611A70EEC10A30EEE2
:101A6000200A30EE230A10EE100A704705DC0BD076
:101A700010F1FF4F09D310F5000F40F4800003D898
:101A800040F20000CFF6C070704740F20000CFF681
:101A900080707047AFF300800000003FABAAAA3E01
:101AA0000000803E000000005501000001CB92BE06
:101AB00048010000C3C87DBE3B010000685F54BE02
:101AC0002F010000C7992CBE250100002C3C0ABE46
:101AD0001A0100002F1AC6BD11010000C2AC83BD5F
:101AE00008010000D814FCBC000100000000000048
:101AF000F8000000EC0A023DF10000008E51773D35
:101B0000EA0000009806B83DE40000003B39ED3DD6
:101B1000DD000000088B163ED800000003FA2D3EC1
:101B2000D2000000D7D24A3ECD000000DE7F633EE7
:101B3000C8000000E3C87C3EC3000000E65A8B3EAC
:101B4000BF00000084F7953EBA0000006E8CA33EF3
:101B5000B6000000EFADAE3EB2000000C40EBA3ECB
:101B6000AE000000CDB1C53EAB0000005F99CE3E97
:101B70009A4238BF8854704770472DE9F84F98460D
:101B8000DDE90B490D9B15469A0706460F4623D003
:101B90002A460A9B03EB040A1444A24220D10D9B5F
:101BA0009B0705D5A2EB050AD14505EB0A0420D811
:101BB0002046BDE8F88F434639462020B0470AF159
:101BC000010ACA450AEB0B02F5D3A9EB04024C4506
:101BD00088BF00222A44DCE7A246A5EB040BF0E70D
:101BE00002F1010B434639461AF8010DB0475A4637
:101BF000D3E74346224639462020B0470AF1010A7E
:101C0000D2E72DE9F047DDE90D7616F0020F9DF8D9
:101C10002880DDE90854DDE90BCE1FD106F001096B
:101C20004FB1B9F1000F06D0B8F1000F02D116F094
:101C30000C0F00D0013F4FF0300A02E005F804A07D
:101C40000134A64501D9202CF8D1B9F1000F05D0F7
:101C50004FF03009BC4201D2202C2DD116F0100FCC
:101C60001FD016F4806F2CD15CB3744501D0BC42F8
:101C700027D1B4F1010E23D0BCF1100F46D1023CA4
:101C800016F0200F28D1202C28D04FF0780C05F822
:101C900004C00134202C21D04FF0300C05F804C0D2
:101CA0000134202C1AD0B8F1000F23D04FF02D0CA6
:101CB00005F804C0013412E005F804900134C9E7C6
:101CC0007446BCF1100FDBD0BCF1020FE2D1202C26
:101CD00004D04FF0620CDAE7202C08D12024CDE9A3
:101CE0000A76CDE90854BDE8F047FFF746BF4FF04C
:101CF000580CCCE716F0040F02D04FF02B0CD7E7AE
:101D000016F0080FEBD04FF0200CD1E7BCF1020F1A
:101D10007446C1D1DDE72DE9F04391B0189D1A9EBC
:101D20001D9F0DB927F010077C0500D515B317F0DE
:101D3000200F14BF4FF0410E4FF0610EAC4600254E
:101D40000DF12008AEF10A0EBCFBF6F906FB19C92D
:101D50005FFA89F4B9F1090F94BF30347444E4B2E6
:101D6000B44508F8014B05F10105BCFBF6F401D3BD
:101D7000202D10D11C9C069705941B9CCDE9036473
:101D80009DF86440CDE9015408AC0094FFF739FF99
:101D900011B0BDE8F083A446D6E72DE9F04F95B029
:101DA000269ECDE90A23DDE91E74DDE9229B57EA70
:101DB000040308BF26F010067205CDE9080102D51C
:101DC00057EA040337D016F0200F14BF41236123D4
:101DD00000250DF1300AA3F10A0821464A465B4668
:101DE000384619F035FCD2B2092A94BF3032424449
:101DF0004F45D2B274EB0B0405F101050AF8012B33
:101E000001D3202D14D1259B06960593249BDDE953
:101E10000801CDE903939DF88030CDE901530CAB67
:101E20000093DDE90A23FFF7ECFE15B0BDE8F08F63
:101E300007460C46D1E70025E5E70000000000005A
:101E40002DE9F04F93B09DED1C7BCDE90C32DDE91F
:101E50001E630E9353EC172BCDE90801104619466B
:101E60008DED067B209DFFF747FB80B9DDE906017C
:101E70004FF0FF320E4BFFF79FFB40B9DDE9060143
:101E80004FF0FF326FF48013FFF75AFB90B1DDE99A
:101E900008019DED067B0E9B8DED1C7BCDE91E633D
:101EA000DDE90C32209513B0BDE8F04F00F090B999
:101EB000FFFFEF7F0022DDE906010023FFF740FB73
:101EC000002800F04581DDE906A303F1004B15F47D
:101ED000806308BF06260F935AEA0B03D046D94603
:101EE00000F03981CBF30A50A0F2FF30FFF7BCFAC3
:101EF000B3A3D3E90023FFF735FAB3A3D3E9002353
:101F0000FFF708FACBF31303CDE90A0143F07F5141
:101F10000022A54B504641F44011FFF70FFA96A35B
:101F2000D3E90023FFF71EFA02460B46DDE90A015A
:101F3000FFF7F0F9FFF7BCFA0446FFF795FA90A314
:101F4000D3E9002380468946FFF70CFA0022974B1D
:101F5000FFF7E0F9FFF7ACFA8BA3D3E900230746BC
:101F600049464046FFF7FEF9804638468946FFF766
:101F70007BFA87A3D3E90023FFF7F4F902460B4667
:101F800040464946FFF7DAF902460B46CDE90A23F7
:101F9000FFF7E8F9DDE90A2380468946104619462D
:101FA000FFF7B8F90022CDE91001814B40464946C0
:101FB000FFF7FEF900227F4BFFF7ACF902460B4614
:101FC00040464946FFF7F4F900227B4BFFF7A2F9A0
:101FD00002460B4640464946FFF7EAF9DDE90A2387
:101FE0008046894600204FF08041FFF7A7F902465E
:101FF0000B4640464946FFF78DF902460B46DDE9A0
:102000001001FFF7D5F907F2FF3700226B4BFFF7FE
:1020100081F900223B05FFF7A5F952465B46804651
:102020008946FFF7C9FA40B1404649460022614B54
:10203000FFF7BEF980468946013C04F16303C62BD5
:102040008CBF05270427290521D558EA090311D09B
:1020500051A3D3E9002350465946FFF799FA0028C7
:102060007CD04FA3D3E9002350465946FFF768FAC6
:10207000002873D0A642D8BF00244FF00007C4BF89
:10208000341B04F1FF3426463C4645F480650E9B24
:102090009F422CBF0023DB1B0A9315F002030F9312
:1020A00004D0002F0A9B18BF00230A933CB150466E
:1020B000594642464B46FFF77BF982468B46DDE99F
:1020C000060100220023FFF73BFA10B10BF1004399
:1020D0009B46DDE9080125F4006304930A9BCDE9E2
:1020E00000ABCDE90263DDE90C3200F071F8024685
:1020F00057B315F0200F0C9B00F1010509990CBF97
:1021000065204520089EB047DDE90801052300222F
:1021100005930A23002CCDE9023207F1FF374FEA7D
:10212000D473B8BF64422A46019304970C9B009471
:10213000FFF7F1FD0F9B024633B10D9BC41A0D9BB7
:102140001A190E9BA34210D8104613B0BDE8F08FA9
:10215000DDE906ABBBE60024042774E7002E96D029
:102160000F9B002B93D0013E91E720200C9B0999F7
:10217000089DA8470134E2E761436F63A787D23F18
:1021800071A379094F930A401655B5BBB16B024054
:10219000EF39FAFE422EE63F2D431CEBE2361A3FA2
:1021A0000000000080842E410000F83F0000E03F66
:1021B00000002C4000002440000018400000F03FC8
:1021C000FB799F501344D33FB3C8608B288AC63F26
:1021D0002DE9F04F97B0DDE920ABCDE90501DDE950
:1021E0002247CDE90723504652465B465946249E76
:1021F000FFF782F970B10323CDE922762193AE4B2C
:102200002093DDE90501DDE9072317B0BDE8F04FB4
:10221000FFF7B3BC4FF0FF326FF4801350465946BE
:10222000FFF78EF928B10423CDE922762193A34B41
:10223000E6E74FF0FF3250465946A14BFFF7BCF995
:1022400050B170074CBF04220322CDE922764CBF67
:102250009C4B9D4B2192D3E7504693A3D3E9002397
:102260005946FFF7A9F938B991A3D3E9002350469D
:102270005946FFF765F968B1DDE90723DDE9050196
:10228000CDE92376CDE920AB229417B0BDE8F04F1D
:10229000FFF7D6BD0022002350465946FFF750F9FC
:1022A000B8B15B46524600200021FFF747F80123F2
:1022B00082468B46099316F4806F08BF06243021AE
:1022C00023460EAAA4F12009092B04D89946E41A42
:1022D00007E00990EFE7013B4B4502F8011BF3D102
:1022E000202459465046FFF7E3F8784B054603EBA8
:1022F000C90393ED007B8DED0A7BFFF7B5F802462D
:102300000B4650465946FFF719F8DDE90A23FFF757
:1023100029F802460B46CDE90C23FFF7DBF880468F
:10232000FFF7B4F802460B46DDE90C01FFF706F8AB
:1023300002460B46CDE90C230022654BFFF73CF922
:10234000C8B108F101084046FFF7A0F802460B4665
:10235000DDE90A01FFF708F910B14FF00008013577
:10236000B9F1000F18D00A210EAB2344202C4BD119
:102370003022A1445CE00022DDE90C01544BFFF760
:10238000DFF80028ECD1B8F1000F02D018F0010FEF
:10239000E6D008F10108E3E72846FFF765F80246B2
:1023A0000B4650465946FEF7C9FF0022484B80466F
:1023B0008946FFF7C5F848B9002240464946444BD4
:1023C000FFF7FAF810B9013525F001050A210EAB27
:1023D0001A19202C0AD095FBF1F001FB105530356D
:1023E00002F8015B013405460028F2D106F0030231
:1023F000012A3FD1002F3DD0099A12B916F00C0FD7
:1024000000D0013F302224E0B8FBF1F001FB108244
:10241000B8F1090F02F1300209F1FF3904F10104AA
:1024200003F8012BA4D98046A0E70EA90A551C4643
:10243000202CCBD04C4504F10103F6D104F1580215
:102440000DEB02042E2204F8202C1C46BEE71A5580
:102450000134A7420ED9202CF9D1CDE90034DDE9B1
:102460000501DDE90723CDE90276FFF786FB17B00A
:10247000BDE8F08F202CF0D0099A3AB12D2104F15B
:1024800058026A4402F8201C0134E6E7710704D5BB
:1024900004F158022B216A44F4E73207DDD504F138
:1024A000580220216A44EDE70000000065CDCD41CF
:1024B0000000000065CDCDC1C8B80110CCB8011036
:1024C000FFFFEF7FBFB80110C4B80110707D061088
:1024D0000000E03F08B100F029BC70472DE9F04F43
:1024E00090469B46AF4AB04B91B01A600B1E0A93C0
:1024F000AE4B14BF8146994600251A9E9BF80000FA
:1025000070B9454538BF2A4643464FF000000A9946
:1025100028BF08F1FF32C847284611B0BDE8F08F48
:1025200025280BF1010B06D02A4643460A996C1C5C
:10253000C8472546E2E700230CE02D2A1FD0302AA9
:1025400005D0A2F1300009280ED8002729E043F079
:1025500001038B46594611F8012B2B2A12D0ECD8D7
:10256000202A12D0232A13D02A2A33D156F8047BEA
:102570008B46002FBCBF43F002037F4218E043F0BC
:102580000203E6E743F00403E3E743F00803E0E770
:1025900043F01003DDE70A208B4600FB0722A2F17F
:1025A0003007594611F8012BA2F130000928F2D961
:1025B0009BF800202E2A44D19BF801100BF1010258
:1025C000A1F13000092843F4806331D800244FF092
:1025D0000A0C06E00027EBE702460CFB0411A1F110
:1025E0003004104610F8011BA1F1300EBEF1090FA6
:1025F000F2D9114611F8010B6C282CD024D8682888
:1026000030D06A2837D011468B461BF8010B67285B
:102610005CD8572832D8452807D085D9462800F0FD
:10262000E980472880D143F4006343F02003F7E0BA
:102630002A2907D156F8044B0BF1020224EAE4746C
:10264000D7E75A460024D4E7742801D07A28DAD193
:1026500043F48073D8E750786C28F9D143F4407381
:10266000911CD1E75078682802D043F08003CBE773
:1026700043F0C003F4E743F40073C5E7A0F1580248
:102680000F2A3FF651AF01A151F822F02327001085
:1026900029250010292500102925001029250010C2
:1026A00029250010292500102925001029250010B2
:1026B0002925001023270010492800102327001087
:1026C0001D280010F92700101D280010A0F1690135
:1026D000C9B20F293FF628AF012249F2410C8A40C6
:1026E00012EA0C0218D10A2900F0EA8007297FF4C7
:1026F0001BAF43F0210305930823CDE903431023C7
:10270000CDE9012356F8043B2A4600934846434648
:102710000A99FFF700FB7FE06F2840F0358108221F
:102720000BE0582810D0622800F02C8123F0100311
:1027300064284FF00A0200F02F8123F00C032BE1F4
:102740007828F3D11022F8E743F02003FAE7D905FF
:1027500006F1040A01D5316802E058060CD531783B
:10276000CDE90224CDE9047300294FEAD173019326
:10277000B8BF4942009126E01906ECD5B6F9001021
:10278000EEE7A9B1CDE907730023CDE9042306F1F3
:10279000070A2AF0070A06940293FAE80223CDE911
:1027A00000231EE1DD2400101C170020791B0010FF
:1027B000D80506F1040A0DD5CDE90473CDE902244C
:1027C00001913368009343462A4648460A99FFF729
:1027D000A2FA0CE1590607D53178CDE9047300233C
:1027E000CDE902240193C5E7316813F0800F18BFCB
:1027F00089B2F2E743F02003CDE90373073626F0F0
:1028000007060294F6E802234846CDE900230A9918
:1028100043462A46FFF7DCFC05466FE6672810D0E2
:10282000CDE90373073626F007060294F6E8022383
:102830004846CDE900230A9943462A46FFF700FBA4
:10284000EAE743F40063EBE713F0020423D04FF010
:10285000010A6B1C0B932A4643460A9916F8040B8F
:10286000C8475CB354460B9A1EE0434620200A99A1
:10287000C84705EB0A020AF1010A5745F5D8002FAF
:1028800007F1FF3308BF002307F1010A1D4408BF09
:102890004FF0020ADDE7A246EBE7551C4346202035
:1028A0000A99C8472A460134A742F6D8A7EB0A037B
:1028B000574538BF00230B9A1A440B920B9D1DE617
:1028C0003246002C52F8046B14BF21464FF0FF3102
:1028D0000B9232463144107808B1914211D1A2EBEB
:1028E000060A13F480620D9202D0A24528BFA246C8
:1028F00013F002030E931BD1AAEB05032A460C9397
:1029000008E00132E7E7531C0F93202043460A9961
:10291000C8470F9A0C9BD318BB42F4D3A7EB0A030A
:10292000574538BF00230AF1010202EB030A1D4498
:10293000AB1B0C9304E01C4643462A460A99C84741
:102940000C9B9D1916F8010B28B10D9B002BF3D0A1
:10295000631E002CEFD10E9B93B12A46AAEB05040F
:1029600005E0561C434620200A99C84732461319F1
:102970009F42F6D8A7EB0A03574538BF00231D44F2
:102980000B9EBBE50222D8E63FF6DAAE692823F0BB
:1029900010037FF4CDAE0A22590548BF23F001038E
:1029A000692803F4007102D064287FF4EAAE00299C
:1029B0003FF4CDAE073626F00706B24670685AF8E7
:1029C000081BCDE9077300230593C30F002802936A
:1029D00006940B46049202DA4B4260EB4000CDE9CC
:1029E000003043462A4648460A99FFF7D6F905467D
:1029F000564683E507B5009313460A460146034849
:102A0000FFF76CFD03B05DF804FB00BF711B001005
:102A10001FB5084A0346146844B100914FF0FF32D5
:102A2000054803A9A047012004B010BD00F08CF9AF
:102A30002046F9E71C170020D52400100FB407B575
:102A400004A951F8040B0191FFF7E2FF03B05DF810
:102A500004EB04B0704700BEFDE70000064A0346E1
:102A6000106808B905481060054903448B4294BFBB
:102A700013604FF0FF30704718170020883702208E
:102A800000000820002070474FF0FF307047000022
:102A900003460846114623B9034BD3E9002300F04F
:102AA000FFB84FF0FF307047107D06100346013B22
:102AB000012B10B50846144606D8012300222146F2
:102AC00000F0AAF8204610BD4FF0FF34FAE74FF0AF
:102AD000FF3070474FF0FF3070474FF0FF307047C6
:102AE00002288CBF00200120704708B5FFF7B3FF14
:102AF0000C4607B5194652B1064BCDE900320246E5
:102B000023460548FFF79AFF0120FFF7A4FF034B78
:102B10001A46F2E7D1B80110DEB8011048DC011006
:102B200038B5FEF76BFA044C044DAC4200D338BD07
:102B300054F8043B9847F8E7B0B60110BCB6011052
:102B4000034608461B68114618470000437D2DE9DF
:102B5000F04104460D461646A3B101F1FF380021AD
:102B600008468E4214DC86422EDD311A2368284442
:102B70009847354415F8013CA3F10D0253425341E7
:102B8000237523E0036811462846BDE8F041184745
:102B9000C1B198F80030A3F10D077B427B4118F8D2
:102BA000012F4F1C0A2A0BD153B9814203DD091AA8
:102BB00023682844984706480221236898473846E6
:102BC0003946CEE7237DEAE7002ED2DCBDE8F0816E
:102BD000C07D061010B5FEF71BF90A4A82184FF0A7
:102BE000FF3041F100036FF00041904271EB0304AC
:102BF00038BF0246BDE8104038BF0B46024818F007
:102C00002FBD00BF40420F0094100020014818F073
:102C100023BD00BF941000202DE9F74F0C461D4640
:102C200007469146FFF7D6FF631C804603D138461E
:102C300016F0E4FC04464FF00A0B154B154EDFF876
:102C40005CA0002D18BF1E46134B1D6845B9B8F196
:102C5000000F01D0FFF7DAFF204603B0BDE8F08F88
:102C60002B6893B1DAF800300BB1AB420DD122469C
:102C700039462846B047B9F1000F06D00122284650
:102C80000DF107018DF807B0B0472D69DEE700BFF1
:102C90004D2B0010412B00100C17002014170020A2
:102CA0002DE9F04705460E4617461C46DFF85C80C6
:102CB000DFF85C90D8F800A0BAF1000F0DD1124AED
:102CC000536A9C4204D8926ABA4219D29C4217D1E4
:102CD00001200021FEF7A2F8ECE7D9F8003023B17B
:102CE000534502D0DAF810A0E6E7DAF80830002BF6
:102CF000F8D03146284698470028F3DDBDE8F08734
:102D00006FF00100FAE700BF00000B400C17002035
:102D100014170020044B10B51C6804B910BD63687B
:102D200003B198472469F8E70C170020012313B575
:102D300004468DF80700002219460DF10700FFF741
:102D40006BFF204602B010BD38B5054616F056FCA4
:102D50000123044601461A462846FFF75DFFFFF7A8
:102D6000D9FF204638BD000000B545F247308BB092
:102D7000FEF704F901220346092101A89847082318
:102D8000054A05A911F8010D013B02F8010BF9D123
:102D90000BB05DF804FB00BF7E3702203C21836B43
:102DA00018472DE9F04FD1E90389C5686B4B0446FC
:102DB0001A682846A7B08B4605F0BFFC074650B9F5
:102DC000674B00933A2365692046664A6649A847DF
:102DD0004FF0010A9BE1654B594628461A6805F0F9
:102DE000ACFC0B9020B9624B009365693D23EBE787
:102DF000604B594628461A6805F0B4FC0A9020B981
:102E00005D4B009365694023DEE75C4B59462846DD
:102E10001A6805F0A7FC064698B1037F0F930A9B3A
:102E20003A7F1B7F9A420ED0CDE90223544B019387
:102E3000544B00934523656920464A4A5249A847A6
:102E4000C6E70F90EBE7531EDBB2082B05D840F224
:102E5000411121FA03F3DB0704D463694B4920468F
:102E60009847B5E70B9B012A1B7F04D1012B08D0A3
:102E700063694749F3E7072A01D1092BF7E7122BCA
:102E8000FBD1D7F814C0DCF80010042909D00423C2
:102E9000CDE902133F4B01933F4B009365695523E6
:102EA000CAE70B9B5B6918680993042808D0394B63
:102EB000CDE902010193394B009365695623BBE7C5
:102EC0000A9949690B68042B0C9308D0CDE90230AC
:102ED000304B0193324B009365695723ACE7DCF824
:102EE00004300D934B680E93DDE90D30834209D019
:102EF0000D9B039002932B4B01932B4B0093656921
:102F0000592399E7099BD3F810A0BAF1000F04DC0C
:102F1000264B009365695B2356E7DCF810E09EFBC7
:102F2000FAF00AFB10E048B10023CDE90203204B80
:102F30000193204B009365695C237DE7002E3DD013
:102F400070690068042839D00C9BCDE90203114B4D
:102F50000193194B0093656962236DE7347E061077
:102F600083B901100DB901106CB90110307E061043
:102F700094B90110287E0610A6B901102C7E061007
:102F8000D2B901109BCE0110B8B90110DFB9011000
:102F90005CBA01100FC60110ECBA0110FEBA0110A4
:102FA00011BB011024BB01103ABB01104FBB011033
:102FB00089CE011069BB011096BB01100D9B0869F9
:102FC0001093DCF80830092A1193DCF80C304FF02C
:102FD000010CCDE9123E099BCDF850C09B681593BA
:102FE000099BDB68CDE9163A0E9B18938B68C9687C
:102FF0001993CDE91A1001D0072A13D1514A099B20
:103000001268204603EB82035B684FEA830A51464D
:10301000A36B98475146C8F82400A36B20469847F5
:10302000C8F82800CDF818803B7F4A460593199BC5
:10303000594604931A9B20460393159B0293169BB3
:103040000193119B0093129B03F090FC8246002891
:103050005DD1397F092905D0072932D10F9B13F0A3
:10306000FB0F2ED1FB68D9F808005A421C920A9A2D
:103070000929D2681F90D9F804001D921E90D9F832
:1030800014002390D9F810002290D8F80400219061
:10309000D8F800002090D8F82C002490D8F8300000
:1030A000259024D118AB14AA10A91CA806F021FD64
:1030B0000028014640DD2046236C08F1380298477D
:1030C00020BB2B6828469B690A9998472B6839468C
:1030D00028469B6998472B6828469B690B99984717
:1030E000AEB12B68314628469B6998470FE093B1F3
:1030F0000022CDE90232144B0193144B00939E231E
:1031000065692046124A1349A84701208246504665
:1031100027B0BDE8F08F42B1CDE902230A4B0193FD
:103120000D4B009365699F23EBE718AB14AA10A918
:103130001CA806F027FCBBE74FF0FF33C8F8383077
:10314000BFE700BF247E061089CE0110A7BB011087
:103150000DB90110B8B9011063CB0110F0B51C46D0
:103160004B69A9B025930B692E9F24931369309E58
:103170005B421E9393691F938B6821934B68209346
:103180005368239313682293D36A2693136B279370
:10319000536A0893936A0993636859680E91996812
:1031A0000F91D9681B6910911193012379681293CB
:1031B0008D68CDE917331395CD6809691495CDE96C
:1031C000151373685D6819691A959D68DB68199114
:1031D000CDE91C310023916BCDE90A3399421B954F
:1031E00002DB436C98470A90236800242F993A68C1
:1031F00008683168CDE90C0406911AA905910CA95B
:10320000049116A9CDE9022112AACDE900321EA926
:103210000EAB08AA0AA806F06EFC29B0F0BD2DE995
:10322000F0411D464B69A8B025930B69309F24934C
:103230001369DDE92E845B421E9393691F938B68AB
:1032400021934B68696820935368239313682293F2
:10325000D36A2693136B2793536A0893936A09934F
:103260004B680E938B680F93CB6810930B69012109
:103270001193D8F8043012919E68CDE91711139676
:10328000DE681B691496CDE9153179684E680B69C3
:103290001A968E68C9681993CDE91C130023916BA7
:1032A000CDE90A3399421B9602DB436C98470A909A
:1032B0002B68D8F8002004B1246801203968CDE9D2
:1032C0000C4006911AA905910CA9049116A9CDE903
:1032D000022112AACDE900321EA90EAB08AA0AA843
:1032E00006F009FC28B0BDE8F0812DE9F0411D464B
:1032F0004B69A6B023930B692E9F22931369DDE9D6
:103300002C845B421C9393691D938B681F934B68BD
:1033100069681E935368219313682093D36A24939A
:10332000136B2593536A0893936A09934B680C9324
:103330008B680D93CB680E930B6901210F93D8F81E
:10334000043010919E68CDE915111196DE681B6955
:103350001296CDE9133179684E680B6918968E681C
:10336000C9681793CDE91A130023916BCDE90A338D
:103370009942199602DB436C98470A902B68D8F85B
:10338000002004B1246839680AA8069118A9CDE97B
:10339000044114A9CDE9022110AACDE900321CA9EB
:1033A0000CAB08AA06F01EFC26B0BDE8F0812DE9A2
:1033B000F0411D464B69A6B023930B692E9F2293C3
:1033C0001369DDE92C845B421C9393691D938B6820
:1033D0001F934B6869681E93536821931368209369
:1033E000D36A2493136B2593536A0893936A0993C2
:1033F0004B680C938B680D93CB680E930B6901217E
:103400000F93D8F8043010919E68CDE915111196EC
:10341000DE681B691296CDE9133179684E680B6935
:1034200018968E68C9681793CDE91A130023916B1B
:10343000CDE90A339942199602DB436C98470A900A
:103440002B68D8F8002004B1246839680AA80691CE
:1034500018A9CDE9044114A9CDE9022110AACDE9AA
:1034600000321CA90CAB08AA06F047FB26B0BDE849
:10347000F0812DE9FF41244B0D461A68064603F002
:10348000D8FE224B0746294630461A6803F0D1FE83
:103490002C6880464CB12368032B1FD11C4B294656
:1034A00030461A6803F0C5FE04461A4B29461A68CE
:1034B000304603F0C0FED5E90321034614B1207A5B
:1034C00002280DD1CDE9014330463B46CDF80080BE
:1034D000FFF7A5FE002004B0BDE8F0810024E4E77A
:1034E000042808D1CDE9014330463B46CDF80080A1
:1034F000FFF734FEEEE703F059F9227A0146064859
:1035000006F024F80120E6E7347E0610307E06102F
:103510002C7E0610287E0610C0BB01102DE9FF414D
:10352000174B0C461A68064603F083FE154B0746F8
:10353000214630461A6803F07CFE256880464DB16E
:103540002B68032B1AD1104B214630461A6803F022
:1035500070FE05460D4B21461A68304603F06BFE9F
:10356000CDE90150CDF800803046D4E903213B4637
:10357000FFF71DFF002004B0BDE8F0810025E9E75A
:10358000347E0610307E06102C7E0610287E061033
:103590002DE9FF41174B0C461A68064603F049FE19
:1035A000154B0746214630461A6803F042FE25684F
:1035B00080464DB12B68032B1AD1104B2146304663
:1035C0001A6803F036FE05460D4B21461A68304650
:1035D00003F031FECDE90150CDF800803046D4E94A
:1035E00003213B46FFF781FE002004B0BDE8F081D7
:1035F0000025E9E7347E0610307E06102C7E06108A
:10360000287E06102DE9F04F2DED068B9F4BCFB095
:103610001A688946054603F00CFE9D4B064649464E
:1036200028461A6803F005FED9F8004007464CB159
:103630002368032B25D1974B494628461A6803F087
:10364000F8FD0446944B49461A68284603F0F3FDFA
:103650008046307A98F80830984214D0CDE90203B9
:103660008E4B284601938E4B8E4A00936C694FF423
:10367000D1738D49A04701204FB0BDEC068BBDE84A
:10368000F08F0024DEE73B7AD9E9032198421AD073
:1036900007280ED1092B11D11CB1207A022840F045
:1036A0003E8133462846CDE901480097FFF7B7FD34
:1036B00033E1092802D1122B00F0288128466B69DA
:1036C0007A499847D7E701280FD0002800F03981C0
:1036D0000728E1D0092840F0348133462846CDE957
:1036E00001480097FFF701FE17E140A803F0E2F858
:1036F00031461DA803F0AEFD3368394624A80B936C
:1037000003F0A8FD3B6821462BA80C9303F0A2FD13
:1037100004B12468414632A803F09CFDD8F800307B
:10372000002139A80D9303F095FDBDF90A311E9AC9
:103730000E93BDF90C31DDED4C8A0F93BDF90E31BE
:103740009DED4D9A1093BDF910314FF00009119382
:10375000BDF90231DFED569A1293BDF9043113938E
:10376000339B9A42A8BF1A46369B1492259A9A42D6
:10377000A8BF1A461F9B09921593209B1693269B60
:103780001793279B1893289B0693069A219B93FBDC
:10379000F2F3099A92FBF3F31993349B1A93359B36
:1037A0001B93149B4B4540F3B880139B5B420893DB
:1037B0000023049310E0129B5B42079300230593C0
:1037C0001B9B059A934200F39F80049B0F9A013341
:1037D0000493089B134408931A9B049A9342EADCCF
:1037E00009F10109DDE7199B4FF0000A95FBF3F39E
:1037F0009FED2F8A069A089E53430A93179B5345C1
:103800002CDC002C7DD004EB8503D3ED007ADDE9C0
:10381000042338EE278AF4EEC88AF1EE10FA38FE57
:10382000888AB4EEC89AF1EE10FA0095494632A89B
:1038300048BFB0EE498A00F0DFF80D9B013503EB7D
:10384000800080ED008A099BAB42CCDC059B0E9A80
:1038500001330593079B13440793B1E74FF0000B27
:10386000079F189B5B4504DC119B0AF1010A1E446B
:10387000C4E757EA06033FD4169BBB423CDD159BC9
:10388000B34239DD4FF0000833E000BF347E06104C
:10389000307E06102C7E0610287E0610D2B901104C
:1038A0009BCE01100DB90110B8B901105CBA01101E
:1038B000000000000A9B32464344494600931DA87D
:1038C0003B4600F099F80B9B524603EB800090EDCD
:1038D00000AA5B46CDF80080294624A800F08CF8A9
:1038E0000C9B08F1010803EB8000D0ED007AAAEEF2
:1038F000278A069B4345DDDC109B0BF1010B1F441F
:10390000AFE7F0EE697A82E700259CE73346284668
:10391000CDE901480097FFF74AFD0020ACE60428F6
:1039200007D133462846CDE901480097FFF716FC3A
:10393000F3E702F03BFF227A0146054805F006FE58
:1039400099E602F033FF327A01460248F6E700BFFB
:10395000C0BB0110E1BB0110002313B50446CDE943
:103960000033044A044B054903F03EFC204602B0F4
:1039700010BD00BFA32D0010053600109D2D0010B6
:10398000002313B50446CDE90033044A044B05492E
:1039900003F02AFC204602B010BD00BFA32D00108A
:1039A0001D3500109D2D0010002313B50446CDE9F0
:1039B0000033044A044B054903F016FC204602B0CC
:1039C00010BD00BFA32D0010913500109D2D0010DB
:1039D000002313B50446CDE90033044A044B0549DE
:1039E00003F002FC204602B010BD00BFA32D001062
:1039F000733400109D2D001010B5846804FB012263
:103A0000C168006901FB0233029A00FB032010BD6C
:103A10003C21836B18472DE9F04FD1E9039BC66821
:103A2000674B04461A683046BDB08A4604F085FEEE
:103A3000074668B9634B0093462365692046624A8E
:103A40006249A8474FF0010A50463DB0BDE8F08FEB
:103A50005F4B514630461A6804F06FFE054620B9A8
:103A60005C4B009365694923E8E75B4B5146304660
:103A70001A6804F077FE804620B9584B00936569B8
:103A80004C23DBE73B7F027F93420CD0CDE902322F
:103A9000534B0193534B00934E23656920464A4A8A
:103AA0005149A847CEE75A1ED2B2082A05D840F29B
:103AB000411121FA02F2D20704D463694B4920462E
:103AC0009847BFE7012B2A7F04D1012A08D06369F8
:103AD0004749F4E7072B01D1092AF7E7122AFBD15E
:103AE0007A69092BD1689268089109926A69D1684C
:103AF0000A9191680B91D8F81410C86889680C90E5
:103B00000D9102D0072B40F0A1802968012909D02E
:103B10000123CDE90213374B0193374B00936569BD
:103B20006523BBE7072B17D1F96849B10023CDE91D
:103B30000213324B0193324B009365696923ADE761
:103B4000D8F80C0040B12D4BCDE9020101932D4B6B
:103B5000009365696A23A1E7696821B92A4B00933C
:103B6000656971236AE7086820B9284B0093656985
:103B7000722363E7D1F804C0BCF1000F04D1244BD9
:103B800000936569732359E7016801290BD0214827
:103B9000006802EB80004068814204D01E4B009315
:103BA000656974234AE7DCF8000081423AD01B4B78
:103BB000CDE9021001931A4B0093656978236DE7F4
:103BC000487E061083B90110FDBB01106CB90110CD
:103BD000447E061094B901103C7E0610A6B901106F
:103BE000D2B901109BCE0110B8B9011066BC01100A
:103BF000EDBC011087BD0110A1BD011089CE0110DF
:103C0000A7BB011063CB0110BBBD0110CFBD0110DC
:103C1000EABD0110387E06100ABE01108CBE0110EC
:103C2000B2BE01104E49204609680F9302EB810293
:103C30005168A26B89000E919047A26BC9F82400CD
:103C40000E99204690470F9BC9F82800CDE9053909
:103C50000D9B514604930C9B5A4603930B9B2046A5
:103C600002930A9B0193099B0093089B03F0D9F8E8
:103C7000824600287FF4E8AE3B7F092B47D13946C6
:103C80001CA802F0FBFD414623A802F0F7FD2946DF
:103C90002AA802F0F3FD1D99249B279A9942A8BFF8
:103CA00019462E9B0B989A42A8BF1A46099B109161
:103CB0001193089B18911293209B0D991393012344
:103CC000159019910A980C99CDE91602CDE91A12AE
:103CD000D9F80420287F3792D9F800200928369295
:103CE000DBF8182014933992DBF8142038921ED197
:103CF00018AB14AA10A931A806F03AF8002801461A
:103D000029DD2046236C09F13802984708BB336847
:103D1000414630469B6998473368394630469B692F
:103D200098473368294630469B6998478CE61228A5
:103D300006D118AB14AA10A931A805F0D5FFDDE70C
:103D400002F034FD2A7F0146064805F0FFFB0123FF
:103D50001846824678E64FF0FF33C9F83830D6E788
:103D6000387E0610D3BE0110F0B51D461646836995
:103D7000C3B03F934369DDE948473E930B695B421B
:103D800037938B69389383683B9343683A934B68C6
:103D90003D930B683C93CB6A40930B6B4193C36894
:103DA0001BA839934B6A09938B6A29460A9303F03F
:103DB00051FA314622A803F04DFA394629A803F0FA
:103DC00049FA30A8214603F045FA239B2A9A1F9806
:103DD0009342A8BF13462D9A0B939042A8BF10465A
:103DE000249A17930C92259A2B9B0D92269A18933E
:103DF0000E921C9A2C9B0F921D9ACDE919301092AD
:103E00001E9A0023CDE911200122CDE93033CDE9FE
:103E10001322CDE9152033682A6804B12468396873
:103E200030A8069117A9CDE9044113A9CDE90221D3
:103E30000FAACDE9003237A90BAB09AA06F034F876
:103E400043B0F0BD2DE9F0431E468B69C3B03F93EC
:103E50004B69DDE94A953E931369DDF830815B4299
:103E600037939369074638938B681BA83B934B683D
:103E700014463A9353683D9313683C93D36A409336
:103E8000136B4193CB6849463993536A0993936AFC
:103E90000A9303F0DFF9314622A803F0DBF941462B
:103EA00029A803F0D7F9294630A803F0D3F9239BBA
:103EB0002A9A2D999342A8BF13461F9A0B938A42C0
:103EC000A8BF0A46249917930C9125992B9B0D9115
:103ED000269918930E911C992C9B0F911D99CDE951
:103EE000193210911E990023CDE911120121CDE95B
:103EF0001311CDE91512A16BCDE93033994203DBE3
:103F000038467B6C984730903368D9F8002005B16B
:103F10002D68D8F8001030A8069117A9CDE90451F2
:103F200013A9CDE902210FAACDE9003237A90BABC5
:103F300009AA06F073F943B0BDE8F0832DE9F04318
:103F40001E468B69C3B03F934B69DDE94A953E93AA
:103F50001369DDF830815B423793936907463893E4
:103F60008B681BA83B934B6814463A9353683D9368
:103F700013683C93D36A4093136B4193CB684946D3
:103F80003993536A0993936A0A9303F063F93146AC
:103F900022A803F05FF9414629A803F05BF92946FE
:103FA00030A803F057F9239B2A9A2D999342A8BF72
:103FB00013461F9A0B938A42A8BF0A462499179367
:103FC0000C9125992B9B0D91269918930E911C9974
:103FD0002C9B0F911D99CDE9193210911E99002348
:103FE000CDE911120121CDE91311CDE91512A16B13
:103FF000CDE93033994203DB38467B6C98473090EB
:104000003368D9F8002005B12D68D8F8001030A821
:10401000069117A9CDE9045113A9CDE902210FAAF0
:10402000CDE9003237A90BAB09AA06F02FF943B04E
:10403000BDE8F0832DE9FF47D1E90398174B0C4603
:104040001A68054603F0F7F8154B21461A6807462B
:10405000284603F0EEF8134B0646214628461A6818
:1040600003F0E7F88246206840B10368032B13D1C0
:104070000D4B214628461A6803F0DBF8CDE901070D
:10408000334628464A464146CDF800A0FFF756FF82
:10409000002004B0BDE8F0870020EFE73C7E06106A
:1040A000487E0610447E0610407E06102DE9FF472C
:1040B000D1E90398174B0C461A68054603F0BBF884
:1040C000154B21461A680746284603F0B2F8134BF1
:1040D0000646214628461A6803F0ABF88246206857
:1040E00040B10368032B13D10D4B214628461A68B3
:1040F00003F09FF8CDE90107334628464A4641467A
:10410000CDF800A0FFF79EFE002004B0BDE8F087C8
:104110000020EFE73C7E0610487E0610447E061025
:10412000407E0610184B2DE9F347D1E903981A6831
:104130000C46054603F07FF8144B21461A680746E3
:10414000284603F076F8124B0646214628461A68A0
:1041500003F06FF88246206840B10368032B11D149
:104160000C4B214628461A6803F063F8CDE9000796
:104170005346404632464946FFF7F6FD002002B05E
:10418000BDE8F0870020F1E73C7E0610487E06106F
:10419000447E0610407E06102DE9F04FD1E903BAA7
:1041A0002DED068BAC4BCBB01A680F46814603F061
:1041B00042F8AA4B39461A688046484603F039F857
:1041C000A74B0546394648461A6803F032F83C6862
:1041D00006464CB12368032B69D1A24B39464846A9
:1041E0001A6803F026F80446287A072800F025818B
:1041F000092800F0FB80012840F028815A465146EA
:104200003AA802F0B1FD29461EA803F023F82B6856
:10421000314625A80D9303F01DF8336821462CA8DC
:104220000E9303F017F804B12468414633A803F055
:1042300011F8D8F800301F9A0F93BDF9F2304FF003
:1042400000081093BDF9F430DFED879A1193BDF9A2
:10425000F630DDED468A1293BDF9F8309DED479AB0
:104260001393BDF9EA301493BDF9EC301593BDF901
:10427000FA300B93349B9A42A8BF1A46209B1692A1
:104280001793219B1893229B1993279B1A93289B82
:104290001B93359B1C93369B1D93169B434540F304
:1042A000BC80159B5B420A930023079391E0002496
:1042B0009AE74FF0000B9FED6C8A09EB05030A9F0C
:1042C0000C931A9B5B4534DD4FF0000A099E28E0F1
:1042D00056EA070321D4189BB3421EDD179BBB424D
:1042E0001BDD059B3A46414600931EA83346FFF767
:1042F00083FB0D9B5A4603EB80000C9B90ED00AABC
:104300000021009325A85346FFF776FB0E9B03EB95
:104310008000D0ED007AAAEE278A129B0AF1010AEA
:104320001E441B9B5345D3DC139B0BF1010B1F4415
:10433000C7E7002C35D0089BD3ED007A38EE278AEA
:10434000F4EEC88AF1EE10FA38FE888AB4EEC89A04
:10435000F1EE10FA0C9B4146009333A8DDE90632DA
:1043600048BFB0EE498AFFF747FB0F9B09F10109EF
:1043700003EB800080ED008A089B043308930B9BBD
:104380004B4596DC059B013305930B9B1D44199B04
:10439000059A934208DD04EB85034FF0000908936A
:1043A000EDE7F0EE697AC9E7069B109A01330693B0
:1043B000099B134409931D9B069A934202DD002535
:1043C0000595E4E7079B119A013307930A9B134471
:1043D0000A931C9B079A934205DD149B5B42099349
:1043E00000230693E7E708F1010856E7307A092829
:1043F0000AD0122817D002F0D9F9327A01461B48A8
:1044000005F0A4F8012009E02B465A4651464846DB
:10441000CDE901480096FFF791FD00204BB0BDECBF
:10442000068BBDE8F08F2B465A4651464846CDE9EB
:1044300001480096FFF706FDEFE733462A46594646
:104440005046CDE90048FFF78FFCE6E702F0AEF9F1
:104450002A7A01460648D3E73C7E0610487E0610BD
:10446000447E0610407E061000000000D3BE0110FE
:10447000E1BB0110002313B50446CDE90033044A23
:10448000044B054902F0B0FE204602B010BD00BF4B
:10449000173A001099410010113A0010002313B58B
:1044A0000446CDE90033044A044B054902F09CFE62
:1044B000204602B010BD00BF173A00103540001072
:1044C000113A0010002313B50446CDE90033044A25
:1044D000044B054902F088FE204602B010BD00BF23
:1044E000173A001025410010113A0010002313B5AF
:1044F0000446CDE90033044A044B054902F074FE3A
:10450000204602B010BD00BF173A0010AD400010A9
:10451000113A00102421836B184710B50C4603F0A4
:10452000CCF818B94FF0FF32E3681A6210BD2DE9DC
:10453000F0438FB00746884603F0BFF8064688BBB5
:10454000FC68234B41461A68204604F0F6F8214BDC
:1045500005461A684146204604F004F92B7F81463F
:10456000092B01D0072B27D12946684602F086F98E
:10457000494607A802F082F90B9B04990A989942D0
:10458000A8BF19462B7F072B10D105F0D4FE0028B9
:104590000146D8F80C200CDD38463B6C2032984799
:1045A00050B1064630460FB0BDE8F08305F0C9FEB5
:1045B000EDE74FF0FF3313622368494620469B69BD
:1045C00098472368294620469B699847EAE700BF39
:1045D000507E06104C7E06102DE9F041A6B0DDF8A5
:1045E000B0800D460746194618A814461E4602F02C
:1045F00031FE41461FA802F02DFE1C9A239B1A99FA
:104600009A42A8BF1A46012307911B990693CDE948
:10461000081221990A930B9122990E93CDE90C125D
:10462000AA6813926A6812926268159222681492BC
:1046300022691692626917922A690F92EA68CDE997
:1046400010230023CDE90433216A994203DB384665
:104650007B6C98470490327AD8F800000AA9092A9E
:104660000EAA3368CDE90021029006AA12A904A877
:1046700004D105F056FF26B0BDE8F08105F067FED5
:10468000F9E71A4B2DE9F341D1E903871A6805468A
:104690000C4602F0CEFD164B06461A682146284607
:1046A00002F0C9FD0346307A01280BD1CDE9006341
:1046B0003A4643462146284603F0A6F8002002B0B9
:1046C000BDE8F081092801D0072807D100934246B0
:1046D000334639462846FFF77FFFEFE702F066F8DA
:1046E0000146044804F032FF0120E8E7507E06103E
:1046F0004C7E0610F6BE01100D4B2DE9F341D1E9B9
:1047000003871A6805460C4602F093FD094B0646DE
:1047100021461A68284602F08EFD33460090424634
:1047200028463946FFF758FF002002B0BDE8F08167
:10473000507E06104C7E0610DEE72DE9F041A6B053
:10474000DDF8B0800D460746194618A814461E46E7
:1047500002F080FD41461FA802F07CFD1C9A239BBD
:104760001A999A42A8BF1A46012307911B990693EA
:10477000CDE9081221990A930B9122990E93CDE964
:104780000C12AA6813926A681292626815922268E3
:10479000149222691692626917922A690F92EA6846
:1047A000CDE910230023CDE90433216A994203DBCC
:1047B00038467B6C98470490327AD8F800000AA9F2
:1047C000092A0EAA3368CDE90021029006AA12A98F
:1047D00004A804D106F0B5F826B0BDE8F08105F0D4
:1047E00086FFF9E71A4B2DE9F341D1E903871A68EF
:1047F00005460C4602F01DFD164B06461A6821467A
:10480000284602F018FD0346307A01280BD1CDE985
:1048100000633A4643462146284603F0EBF8002061
:1048200002B0BDE8F081092801D0072807D1009324
:104830004246334639462846FFF77FFFEFE701F04F
:10484000B5FF0146044804F081FE0120E8E700BFFF
:10485000507E06104C7E0610F6BE01100D4B2DE961
:10486000F341D1E903871A6805460C4602F0E1FCE2
:10487000094B064621461A68284602F0DCFC3346FE
:104880000090424628463946FFF757FF002002B005
:10489000BDE8F081507E06104C7E0610DEE7002356
:1048A00013B50446CDE90033034A044B044902F032
:1048B0009BFC204602B010BD2F450010F9460010A9
:1048C00015450010002313B50446CDE90033044A12
:1048D000044B054902F088FC204602B010BD00BF21
:1048E0002F4500103947001015450010002313B55F
:1048F0000446CDE90033044A044B054902F074FC38
:10490000204602B010BD00BF2F45001083460010A6
:1049100015450010002313B50446CDE90033044AC1
:10492000044B054902F060FC204602B010BD00BFF8
:104930001B4500105D48001015450010002313B5FD
:104940000446CDE90033044A044B054902F04CFC0F
:10495000204602B010BD00BF1B4500109D4800104E
:1049600015450010002313B50446CDE90033044A71
:10497000044B054902F038FC204602B010BD00BFD0
:104980001B450010E5470010154500104021836BC2
:1049900018477FB500220C46064602F04AFC214625
:1049A00005460022304602F046FC0368E1680293A7
:1049B0008B690193CB6800938B682868D1E90E124C
:1049C00006F0CEF9002004B070BD7FB500220C4681
:1049D000064602F02EFC214605460022304602F033
:1049E0002AFC0368E16802938B690193CB6800930A
:1049F0008B682868D1E90E1206F0BFF9002004B0D8
:104A000070BDF0B5002287B006460C4602F011FCDE
:104A1000214605460022304602F00DFCE46800689D
:104A2000E76AD4E90236D4E90E12A46A029004A817
:104A3000CDE900602868CDE9044706F0DDF80020E4
:104A400007B0F0BD2DE9F0430B6804460F4693B064
:104A500013B11B68012B11D00122CDE90232534B57
:104A60000193534B00932F2365692046514A5249C5
:104A7000A8470124204613B0BDE8F0834B6813B16A
:104A80001B68012B09D00122CDE90232474B01936B
:104A90004A4B009365693023E7E7D0F80C80002289
:104AA000404603F04AFE054640B9454B0093322389
:104AB000656920463F4A4349A847DAE743691B68CE
:104AC000002B04DC404B009365693323F1E700229F
:104AD0003946404603F046FE064620B93B4B00935C
:104AE00065693523E5E72B7F027F934208D0092BC8
:104AF00001D1072A11D06369354920469847B8E7A4
:104B0000013BDBB2082B05D840F2411222FA03F335
:104B1000DB0702D463692F49EFE7D7F80C90B9F1AE
:104B2000000F04D12C4B009365694223C1E7CDF8F7
:104B300000903B6932462946204603F04BFA29464D
:104B4000044604A801F09AFE31460BA801F096FE37
:104B500001200021049F04AB7A1E8F421BDC12ABA4
:104B600003EB820353F8342C53F8183C29469A423D
:104B7000D4BFC9F83C20C9F83C30D8F80030C9F897
:104B800038009B6940469847D8F800303146404687
:104B90009B6998476EE78A420CBF4FF0010CD3F82F
:104BA00004C001310CFB00F00433D6E7BABF01109A
:104BB00081BF01101FBF0110B8B9011091BF0110D2
:104BC00083B901106CB90110A2BF0110A6B9011080
:104BD000BCBF011056C00110D6C001102DE9F04F26
:104BE0002DED048B002297B00C46064602F021FB07
:104BF000054621460022304602F01DFBE6682C7A6D
:104C00000746D6E90E12D6E90230072C00F08E8056
:104C1000092C7BD0012C40F0968096ED007B294634
:104C200008A88DED047B02F015FB2B6839460FA810
:104C3000069302F00FFB0020089D3A68691E08AB3E
:104C4000854213DC002716AB03EB810353F8345C79
:104C500053F8183CB8469D42A8BF1D46A0450DDB41
:104C6000002017B0BDEC048BBDE8F08F81420CBF73
:104C700001265E68013074430433E1E7069B9FED33
:104C8000378A03EB870A51460023BE009D420EDCA3
:104C90001644B3464FF00009DFED318A4D4512DC72
:104CA00000239D422ADC08F101082F44D6E7F1ECED
:104CB000017AB4EEE78AF1EE10FA03F1010348BF7E
:104CC000B0EE678AE2E7DDE904010792BAEC019AE7
:104CD000FCF7BCFB39EE489A07EE900A69EE277A9A
:104CE00017EE900AFCF7D0FD07EE900A079A78EECF
:104CF000A78A4BF8040B09F10109CFE796ED007A7A
:104D0000C7EE287A0133E6EC017ACAE72C683D68E1
:104D10003F7AB669092F0090CDE90165204602D19E
:104D200006F01EF89CE706F028F899E7D6E90A6431
:104D3000CDE90F643C6802940FACCDE9000428680B
:104D400005F05AFF8CE7204601F030FD2A7A014633
:104D5000044804F0FBFB012083E700BFFFFF7FFF57
:104D600000000000E1BB0110002313B50446CDE9AB
:104D70000033044A044B054902F036FA204602B0DB
:104D800010BD00BF454A0010DD4B00108D490010DA
:104D9000002313B50446CDE90033044A044B05490A
:104DA00002F022FA204602B010BD00BF454A0010B2
:104DB000934900108D490010002313B50446CDE936
:104DC0000033044A044B054902F00EFA204602B0B3
:104DD00010BD00BF454A0010CB4900108D4900109E
:104DE000002313B50446CDE90033044A044B0549BA
:104DF00002F0FAF9204602B010BD00BF454A00108B
:104E0000034A00108D4900100EB403B503AA52F8EE
:104E1000041B036801929B68984702B05DF804EB9D
:104E200003B070470CB407B504AA52F8041B03681A
:104E300001929B68984703B05DF804EB02B070479D
:104E400020B1431E5842584140007047012070472E
:104E500070B5064614461846049A21B90B49FFF767
:104E6000D3FF012070BD0D68B5EB960F06D8221F49
:104E700001EB8505A94203D10020F3E70449EEE7E1
:104E800051F8043F42F8043FF4E700BFF1C00110BD
:104E90001FC10110F8B5064614461846069A21B9F6
:104EA0000B49FFF7B1FF0120F8BD0D68B5EBD60F38
:104EB00007D82246043904EBC505AA4203D10020D5
:104EC000F2E70449EDE7F1E90267E2E80267F4E797
:104ED000F1C001101FC1011073B505460846114607
:104EE000094A1E462B6800921B6802464020FFF7C5
:104EF000D1FF044628B12B68324604491868FFF7F1
:104F000083FF204602B070BD60C101106EC1011068
:104F10002DE9F34DDDE90CAB0E46DDE90A850746C8
:104F2000144619469BB11B688BB102681068D5B94D
:104F3000114B3246009303462046FFF7ABFF58B1B2
:104F40003B6842460D491868FFF75EFF12E024F007
:104F500007043444B44203D1002002B0BDE8F08D10
:104F6000E6E802ABF6E79D42E2D0424604490095EE
:104F7000FFF74AFF0120F0E788C101106EC1011060
:104F8000A0C1011003685B68184708B503461046C6
:104F9000142B38D8DFE803F0110B191D2125271534
:104FA000291F132B232D2F1B17310F3335000A23F5
:104FB00000200B7008BD1323FAE70123F8E70B2349
:104FC000F6E70723F4E71123F2E70223F0E71023C3
:104FD000EEE70323ECE70923EAE70423E8E70D23E0
:104FE000E6E70523E4E70623E2E70823E0E70C23EE
:104FF000DEE70E23DCE70F23DAE71223D8E71423DA
:10500000D6E71523D4E700220A701A460249FFF7B3
:10501000FBFE0120CEE700BFFCC10110002070475D
:105020000020704700207047002070470020704724
:105030000020704700207047002070470020704714
:105040000020704700207047002070470020704704
:1050500000207047002070470020704700207047F4
:1050600000207047002070470020704700207047E4
:1050700000207047002070470020704700207047D4
:1050800000207047002070470020704700207047C4
:1050900000207047002070470020704700207047B4
:1050A00000207047002070470020704700207047A4
:1050B0000020704700207047002070470020704794
:1050C0000020704700207047002070470020704784
:1050D0000020704700207047002070470020704774
:1050E0000020704700207047002070470020704764
:1050F0000020704700207047002070470020704754
:1051000000207047002070470020704708B5104607
:105110000249FFF779FE012008BD00BF20C201103F
:10512000F8B505461E461046136804221B68114652
:105130009847002704460760284601F0CDFA672803
:1051400008D1284601F0A2FA20B13A46042101F024
:10515000B1FA206000203460F8BDF8B505461E465F
:105160001046136804221B6811469847002704461E
:105170000760284601F0B0FA5E2808D1284601F001
:1051800085FA20B13A46042101F094FA206000200B
:105190003460F8BDF8B51F4613680546082110466F
:1051A0001B680422984700260446C0E9006628468A
:1051B00001F092FA17280FD1284601F067FA054648
:1051C00050B13246042101F075FA324620600621C2
:1051D000284601F06FFA606000203C60F8BDF8B529
:1051E0001F4613680546082110461B68042298478D
:1051F00000260446C0E90066284601F06DFA5C28E6
:105200000FD1284601F042FA054650B1324604213A
:1052100001F050FA324620600621284601F04AFA91
:10522000606000203C60F8BDF8B51F461368054675
:10523000082110461B680422984700260446C0E94E
:105240000066284601F048FA3B280FD1284601F0B5
:105250001DFA054650B13246042101F02BFA3246C0
:1052600020600621284601F025FA606000203C609D
:10527000F8BDF8B505461E461046136804221B68A3
:1052800011469847002704460760284601F024FA93
:10529000132808D1284601F0F9F920B13A46042133
:1052A00001F008FA206000203460F8BDF8B505462A
:1052B0001E461046136804221B68114698470027B3
:1052C00004460760284601F007FA232808D128463B
:1052D00001F0DCF920B13A46042101F0EBF920603D
:1052E00000203460F8BDF8B505461E461046136828
:1052F00004221B6811469847002704460760284689
:1053000001F0EAF94F2808D1284601F0BFF920B191
:105310003A46042101F0CEF9206000203460F8BD47
:10532000F8B51F4613680546082110461B6804227D
:10533000984700260446C0E90066284601F0CCF9EB
:1053400040280FD1284601F0A1F9054650B1324658
:10535000042101F0AFF9324620600621284601F011
:10536000A9F9606000203C60F8BDF8B51F461368DD
:105370000546082110461B6804229847002604466B
:10538000C0E90066284601F0A7F95D280FD128463C
:1053900001F07CF9054650B13246042101F08AF94A
:1053A000324620600621284601F084F96060002022
:1053B0003C60F8BDF8B51F46136806460321104649
:1053C0001B680122984700250446057045708570CA
:1053D000304601F081F965281ED1304601F056F9BA
:1053E0000646C8B12A46042101F06DF9401B18BFDA
:1053F00001202A4606212070304601F064F9401B46
:1054000018BF01202A4660700821304601F05BF980
:10541000401B18BF0120A07000203C60F8BDF8B50B
:105420001F4613680546022110461B680122984753
:105430000026044606704670284601F04DF966289D
:1054400015D1284601F022F9054680B132460421E3
:1054500001F039F9801B18BF012032462070062167
:10546000284601F030F9801B18BF01206070002031
:105470003C60F8BDF8B505461E461046136801228B
:105480001B6811469847002704460770284601F01C
:1054900023F91B280BD1284601F0F8F838B13A4619
:1054A000042101F010F9C01B18BF0120207000205A
:1054B0003460F8BDF8B51F46136805460221104652
:1054C0001B6801229847002604460670467028464D
:1054D00001F002F90F2815D1284601F0D7F805464A
:1054E00080B13246082101F0EEF8801B18BF012080
:1054F000324620700A21284601F0E5F8801B18BFCB
:105500000120607000203C60F8BDF8B51F461368AC
:105510000546022110461B680122984700260446D2
:1055200006704670284601F0D7F84A2815D128465B
:1055300001F0ACF8054680B13246042101F0C3F811
:10554000801B18BF0120324620700621284601F03A
:10555000BAF8801B18BF0120607000203C60F8BDC5
:1055600070B51E46136805461B68104618210422B4
:10557000984718220021044613F022FD284601F026
:10558000ABF820282AD1284601F080F8054628B338
:105590000022042101F08EF8002206212060284616
:1055A00001F088F8002208216060284601F082F8A6
:1055B00000220A21A060284601F07CF800220C217C
:1055C000E060284601F076F8002220610E2128468E
:1055D00001F079F8003818BF0120207500203460F0
:1055E00070BDF8B51E4613680546022110461B68BB
:1055F000012298470027044607704770284601F0AB
:105600006BF80B2817D1284601F040F8054690B1F9
:105610003A46042101F06CF8C2B2531E042B88BF35
:105620003A46062122702846012201F04CF8C01BA0
:1056300018BF0120607000203460F8BD2DE9F843E8
:10564000164698461368012205461B680F463046E9
:10565000114698474FF00009044680F8009028460C
:1056600001F03AF8282805D00025C8F8004028465F
:10567000BDE8F883284601F009F80028F4D04A462E
:10568000042101F035F83A462146FFF77EFC054635
:105690000028E9D021463046FFF774FCE7E72DE902
:1056A000F843164698461368012205461B680F46C4
:1056B0003046114698474FF00009044680F80090A4
:1056C000284601F009F8392805D00025C8F800401F
:1056D0002846BDE8F883284600F0D8FF0028F4D01B
:1056E0004A46042101F004F83A462146FFF74DFCF2
:1056F00005460028E9D021463046FFF743FCE7E79E
:105700002DE9F843154698461368074601221B68A1
:105710000E462846022198474FF00009044680F8BB
:10572000009080F80190384600F0D6FF252804D07C
:105730000020C8F80040BDE8F883384600F0A6FF16
:1057400007460028F4D04A46042100F0D1FF324633
:105750002146FFF71AFC024648B90621384600F0F8
:10576000C7FF3246611CFFF710FC0028E0D0284636
:105770002146FFF707FC0120DDE7F8B51F46136857
:105780000546082110461B68042298470026044657
:1057900006600671284600F09FFF0A2814D12846AB
:1057A00000F074FF054678B13246062100F0A0FFF4
:1057B000C2B2531E042B88BF3246042122712846F0
:1057C000324600F077FF206000203C60F8BD2DE9F4
:1057D000F04717469846136805461B6804228A4618
:1057E00038461C2198471C220021044613F0E8FB90
:1057F000284600F071FF0128814605D00025C8F831
:1058000000402846BDE8F087284600F03FFF0546E7
:105810000028F3D00022042100F06AFFFFF710FBFC
:10582000002206212070284600F044FF00220821B3
:105830006060284600F03EFF00220A21A060284652
:1058400000F056FFC6B2731E042B88BF00264A46DE
:105850000C212846267300F02DFF4A460E212061B8
:10586000284600F027FF002210216061284600F042
:105870003FFF524604F11801FFF787FB0546002859
:10588000BCD021463846FFF77DFBBAE770B51E460F
:10589000136805461B6810461C21042298471C22E9
:1058A0000021044613F08CFB284600F015FF022867
:1058B00034D1284600F0EAFE054678B300220421E0
:1058C00000F016FFFFF7BCFA0022062120702846E0
:1058D00000F0F0FE002208216060284600F0EAFE99
:1058E00000220A21A060284600F0E4FE00220C21DC
:1058F000E060284600F0FCFEC0B2431E042B88BFC7
:10590000002001220E212074284600F0D3FE01223F
:1059100060611021284600F0CDFEA06100203460B7
:1059200070BDF8B505461E461046136801221B6877
:1059300011469847002704460770284600F0CCFE21
:105940001D280DD1284600F0A1FE48B13A46042199
:1059500000F0CEFEC2B2531E042B88BF3A4622701E
:1059600000203460F8BD2DE9F047174699461368CA
:10597000054601221B6888463846052198470026BF
:10598000044606600671284600F0A6FE08288246F6
:105990003DD1284600F07AFE0546C0B332460421C8
:1059A00000F0A6FEC3B25A1E042A88BF3346324610
:1059B00023705146284600F086FE801B18BF012048
:1059C00032460A21A070284600F07DFE801B18BFD9
:1059D000012032460C21E070284600F089FE424644
:1059E000211DFFF7D2FA024650B90621284600F0E1
:1059F0007FFE58B1012809D040460749FFF704FA55
:105A000038462146FFF7BEFA012003E0607000200F
:105A1000C9F80040BDE8F08793C20110F8B505460B
:105A20001E461046136801221B681146984700273E
:105A300004460770284600F04FFE0C280DD128467A
:105A400000F024FE48B13A46042100F051FEC2B2F3
:105A5000531E042B88BF3A46227000203460F8BDE4
:105A6000F8B505461E461046136801221B6811460C
:105A70009847002704460770284600F02DFE4D2861
:105A80000AD1284600F002FE30B13A46042100F067
:105A90002FFEFFF7D5F9207000203460F8BDF8B56F
:105AA00005461E461046136801221B68114698479A
:105AB000002704460770284600F00EFE15280DD179
:105AC000284600F0E3FD48B13A46042100F010FEFC
:105AD000C2B2531E042B88BF3A46227000203460A5
