:020000041000EA
:10000000002008205D0100101B0100101D010010E0
:100010001101001011010010110100101101001058
:100020001901001019010010190100101F01001022
:10003000110100101901001021010010230100100E
:100040001101001011010010110100101101001028
:100050001101001011010010110100101101001018
:100060001101001011010010110100101101001008
:1000700011010010110100101101001011010010F8
:1000800011010010110100101101001011010010E8
:1000900011010010110100101101001011010010D8
:1000A00011010010110100101101001011010010C8
:1000B00011010010110100101101001011010010B8
:1000C00011010010110100101101001011010010A8
:1000D0001101001011010010110100101101001098
:1000E0001101001011010010110100101101001088
:1000F0001101001011010010110100101101001078
:100100001101001011010010110100101101001067
:10011000EFF30580103800BE00BE00BE00BE00BE7A
:1001200000BE00BEF2EB88713C2E07105C2E07105B
:10013000A001001090A31AE7D3DEFFFF42012110B7
:10014000FF01000034440700793512AB4FF0000086
:100150001E49086006C881F3088810474FF05040D8
:10016000006810B14FF00000F2E70DA40ECC00299A
:1001700002D000F012F8F9E71549164A002000E015
:1001800001C19142FCD11449884714498847144958
:10019000884700BEFDE701C901C29A42FBD3704700
:1001A0005C2E071010010020201800206C4507105D
:1001B00000000820000008206C45071000100820EF
:1001C00000100820000000007047000008ED00E06B
:1001D0002018002084430220313000102505001033
:1001E000FB2F0010F8B500BF064B0749C91A89104C
:1001F00048BF0131491003D0044B0BB101481847E7
:10020000704700BF201800202018002000000000C8
:1002100008B5054B1BB105490548AFF30080BDE8A3
:100220000840FFF7E1BF00BF00000000F83F0220D8
:10023000680702107047002330B5D0F8E04000F1A5
:10024000AC029C4201D1002006E052F8045F8D42CE
:1002500003D1323350F8230030BD0133F1E72DE9EB
:10026000F04104460F4606460025D0F8AC80A8456C
:1002700001D100200BE0B369202B0AD13946F06987
:100280001EF0C4F828B91C2303FB05400430BDE868
:10029000F08101351C36EAE72029F0B507D00023AC
:1002A0001C25D0F8AC4000F11806A34201D1002073
:1002B00006E005FB03F2B758B94202D104321044FC
:1002C000F0BD0133F1E7000020292DE9F04105469A
:1002D0000F461446984607D11F480CF063FBBDE853
:1002E000F0411E480CF05EBB03681B68984740B1A4
:1002F0001B480CF057FB39461A48BDE8F0410CF09A
:1003000051BBD5F8ACC0BCF1050F06D9394616482B
:100310000CF048FB06211548EFE74FF01C0E0FCC00
:100320000EFB0C5E0EF104060FC6D5F8E03094E823
:10033000070086E807000CF10102CEF81870C5F836
:10034000AC2005EB83020133C2F8B070C2F8C8805C
:10035000C5F8E030BDE8F08170070210A107021077
:10036000B6070210E507021006080210370802104F
:100370002DE9F04300248BB0354A364B814603A863
:10038000136082F8AC4082F8AD4082F8AE4082F84B
:10039000AF4082F8E04082F8E14082F8E24082F823
:1003A000E34007F0C9F903AA09212B4B2848FFF7BE
:1003B0008BFF03A805F092FE03AA0321274B2448D4
:1003C000FFF782FF03A806F017FC03AA0421244BC1
:1003D0001F48FFF779FF03A807F00AFE03AA1921B7
:1003E000204B1B48FFF770FF03A807F0C3FB03AACD
:1003F00001211D4B1648FFF767FF03A80AF035FEE1
:100400001A4F03AA1A4B16211148FFF75DFF4FF44C
:10041000073118480CF00EFE3E46174B2146D3F824
:100420000080054646F8040B98440CF047FC2B4628
:100430004146CDE90009064A30460BF058FC3046EB
:10044000C7F8D4500BF0FFFD38460BB0BDE8F08381
:100450006C400220F4420210B78B00101F8A00107B
:10046000DD8A0010C1900010338D00105041022031
:100470003D96001020180020106702102DE9F0476B
:100480001D1D81460F46284600211646DDF82080B6
:100490000BF085FC38B3036900248269A24224DC96
:1004A0004FF000094C46B94524DB00F0A5F807EEF3
:1004B000904A0128B8EEE77A38BF0120DFED167ABE
:1004C00027EE277A07EE900AF8EE677AC7EE276ADA
:1004D000FCEEE67A22463146BDE8F04717EE903A48
:1004E0000E480CF05FBA0346D6E719F90410195507
:1004F0000134D3E740460CF0CBFB28460BF09AFEC4
:10050000012802D106480CF04DFA40460CF0DFFA03
:1005100009F101090444C6E700007A4459080210B1
:100520004A08021070B5ADF5A03D84B000F06EF839
:100530000021284B04AC44F8083D0DF540400DF572
:1005400040434FF4004210300C3319601DF0D4FDCD
:10055000214920460CF08CFA06462046FFF708FF9A
:100560000546314620460CF0A7FA20460CF0C4FAA6
:100570001A480CF017FA2B460121194A1948009421
:10058000FFF77CFF20460CF0B7FA14480CF00AFA8B
:100590002B460121144A15480094FFF76FFF2046AF
:1005A0000CF0AAFA0D480CF0FDF92B460A21104A6E
:1005B0000C480094FFF762FF08480CF0F3F92B4653
:1005C0000A210C4A09480094FFF758FF03480CF031
:1005D000E9F9ADE720280710720802106B35021008
:1005E0008C08021030FD0610A808021010430210FB
:1005F000C2080210DF0802100048704740420F0096
:10060000014B986A704700BF00000B4002F02CBEFF
:10061000034B0A461B680146D8681DF073B800BF3B
:10062000D016002002F06EBC0FB407B5049C07483A
:1006300002F02AFE3CB105A92046019102F070FCAF
:10064000034802F021FE012002F08DFCFA0802109E
:100650006A350210EFF3108072B6064BD3E8CF1F55
:1006600001220029FAD1C3E8412F0029F6D1BFF3B6
:100670005F8F7047364202200023034AC2E88F3F53
:1006800080F31088704700BF36420220CB08C05C60
:10069000012301F007018B401840003818BF0120EA
:1006A0007047F8B505460C461746FFF7D3FF2146BD
:1006B00006462846FFF7EAFF18B121463846FFF7FD
:1006C000B3FF0123E208A95C04F00704A3400B4335
:1006D000AB543046BDE8F840FFF7CEBFF8B514463E
:1006E00005460E461F46FFF7B5FF0246BC4202D93B
:1006F0004FF0FF340CE021462846FFF7C7FF80B9D2
:100700000123E10804F007008340685C03436B5455
:100710001046FFF7B1FF002C05DA26B10698FFF767
:1007200083FF0134E2E72046F8BD0000044A107858
:10073000431CDBB2182B28BF10231370704700BF77
:10074000A810002007B5054B0146009318221F236F
:100750000348FFF7C3FF03B05DF804FB0A0902106A
:10076000AC3B02204FF0E022936843F000539360CB
:100770007047000000231A4603481918C1E88F2F5C
:100780000133202BF9D170472B420220064B103049
:100790009B6843F82010BFF35F8F00230349C1E833
:1007A0008F3F82F31088704700ED00E03442022052
:1007B0004FF08030044B054A1946043393420860D9
:1007C000FAD162B6704700BF00E400E034E400E014
:1007D0000122430900F01F00824041B19B0003F158
:1007E000604303F56143C3F880211A6070470249F2
:1007F000203341F82320704700E100E0064B420916
:1008000053F82220012300F01F0003FA00F01040EB
:10081000003818BF0120704700E100E001224309C1
:10082000034900F01F008240403341F82320704705
:1008300000E100E0024B10309B6853F82000704745
:1008400000ED00E008B5FFF7F5FF034BC01A2F28B5
:100850008CBF0020012008BDAC10002070B50546FB
:100860000C46EFF3108672B60D4BD3E8CF1F012272
:100870000029FAD1C3E8412F0029F6D1BFF35F8FD9
:10088000FFF7D8FF074B984203D0A04201D000F0F9
:1008900037FE324621462846BDE87040FFF776BF56
:1008A00034420220110100102DE9F74F80468A469C
:1008B0009146EFF3108372B60193674BD3E8CF1FD5
:1008C00001220029FAD1C3E8412F0029F6D1BFF354
:1008D0005F8FDFF8A0B19BF90030002B01DA00F048
:1008E0000FFE4FF00C0C9BF900605C4D08F11002FC
:1008F0000CFB06539B7906EB46048BF80030584BF3
:10090000A7009B6805EB840453F822104B1B2F2B88
:1009100022D9544B994201D000F0F2FD0C234FF440
:1009200021417343EA18E9524F4B02372F44043BED
:10093000DB1BC3F34A036FEAC3436FEAD34353801D
:100940004BF601539380FF2382F807909371C2F80E
:1009500008A044F0010140E021F00100034600221C
:1009600093F807E0CE453FD8DFF80CC1002A46D007
:1009700092F906E002F1040BBEF1000F3DDB6FF0CF
:1009800007009388C01B5B0542BF03F5FF1303F507
:10099000FF531F335B1502330BEB4303401B034430
:1009A000C3F34A036FEAC3436FEAD343043CA4EBA7
:1009B0000B04C4F34A046FEAC4440C206FEAD44425
:1009C0007043948096712A1845F800C0938082F88D
:1009D00006E082F80790C2F808A04046019A03B0EA
:1009E000BDE8F04FFFF7D2BE93F906E01A46BEF11C
:1009F000000FB9DB0CFB0E53B2E71C4BD6E74AF6EF
:100A0000AA2103465B1B5B415943090D0C235E433E
:100A10004FF42143144AAB53BB1C2B44043AD21A63
:100A2000134BC2F34A0205EB060E1A43AEF802203E
:100A30006FF00702D21B521B0244C2F34A021A4350
:100A4000AEF804208EF806108EF80790CEF808A0B5
:100A5000C0F800C07DE700BF34420220AC10002087
:100A600000ED00E011010010DC10002001BDFFFFCF
:100A700000E0FFFF6443022001488047F0B5EFF338
:100A80000586F6B2EFF3108772B6214CD4E8CF2F6B
:100A90000123002AFAD1C4E8423F002AF6D1BFF36D
:100AA0005F8F4AF6AA2301461A4A891A49414B43E5
:100AB0001B0D59B2184B40F00105D3F808C05CF883
:100AC00026C0AC4525460DD19B68144A43F8262024
:100AD000134B1A78197082710023C5E88F3F87F392
:100AE0001088F0BD1446002394F906608E4208D1A8
:100AF0000C2404FB0323FF229A714BF601529A80C7
:100B0000E6E70133042B04F10C04EDD1E0E700BF6C
:100B100034420220AC10002000ED00E01101001072
:100B20006443022007B5074B0146009300220523CA
:100B30000548FFF7D3FD0028A8BFC0F1330003B07C
:100B40005DF804FB2509021081430220014B0B4490
:100B5000036070472B42022010B50446FFF7E6FD04
:100B600001462046FFF7F2FFFF232371BFF35F8F9B
:100B700010BD10B50446FFF7D9FD01462046FFF72A
:100B8000E5FFFF23A380BFF35F8F10BD38B5084892
:100B9000084DA84200D338BD044654F8083B1BB1A9
:100BA000FFF7E7FF2046F4E7FFF7D6FFFAE700BFBD
:100BB000181800202018002010B504460120FFF767
:100BC000C1FD034B03442360BFF35F8F10BD00BF23
:100BD0002B420220024B0B440360BFF35F8F704730
:100BE0002B4202200D4B10B51A68EFF3108172B63C
:100BF000D2E8CF4F0120002CFAD1C2E8440F002CDC
:100C0000F6D1BFF35F8F1A680023C2E88F3F81F3EC
:100C1000108840BF0020002110BD00BF38400220D6
:100C20002DE9F04F2DED028B85B0EFF30582D2B2A6
:100C3000A34B103A9108A34D18BF1D46E81A434232
:100C400002F00302434102EB830301929E4A9FEDAF
:100C50009A8B52F823400123019A93400293029AFF
:100C600005F541535A60029BEB63B4F90830002B41
:100C7000009352DB18265E436769284607EB060897
:100C8000D8E902A900F0A4FA504571EB090144DB50
:100C9000B9F1000F6FDBD8E9043B8C4A934255D180
:100CA0005846DBF810309847002864D0DBE9003B59
:100CB00053EA0B025FD0BBF1000F53DABAEB03002B
:100CC00069EB0B0137F906C0C8E90201BCF1000F5E
:100CD00023DB4FF0180BD4F814900BFB0C93D3E9E3
:100CE0000223904271EB030317DBA6462EF808CFD0
:100CF0000BFB0CFA09EB0A08D8E90223904271EBCE
:100D0000030305DB39F90AC0C646BCF1000FEFDA70
:100D1000009B27F806C0AEF80030A388190446D51A
:100D2000A37943B10023A371B4F9083004F1080694
:100D30005A1C40F08180B4F90820002A80F2978084
:100D400040BF05B0BDEC028BBDE8F08FB8F80220C3
:100D5000B4F9080092B2594642EA00409847034667
:100D60008B46A5E72846039300F032FA039BC01890
:100D70004BEB0101A6E7BB5B23812369EFF31082F4
:100D800072B6D3E8CF0F01210028FAD1C3E8401F83
:100D90000028F6D1BFF35F8F63880021BB53009B0F
:100DA00063802369C3E88F1F82F31088B5E7236946
:100DB000EFF3108172B6D3E8CF0F01220028FAD1E9
:100DC000C3E8402F0028F6D1BFF35F8F4FF6FF72C4
:100DD000A3880020A2801BB22269C2E88F0F81F392
:100DE0001088182704F10809002B99DBCE4607FB71
:100DF00003F06269B4F908C01118D1E902BABCF174
:100E0000000F0FDBBEF9001001EB410102EBC1083E
:100E1000D8F80C600096D8F80860B345009E7AEBCD
:100E2000060605DAAEF80030135E22F800C0DBE7F4
:100E3000C64632F931C0E2E7616903EB430001EBDA
:100E4000C002B2F802C031F930701CF4004F0CD06F
:100E5000B4F908C082ED028B634504D03780228943
:100E600021F8302023813B4662E71646FBE7182134
:100E7000636901FB0233D3E90267B7F1FF3F08BFA3
:100E8000B6F1FF3F0FD0019BA96A05EB83021369FE
:100E9000701A5B1A984205D301230198296A83408E
:100EA0000B4200D11661284600F092F9B042B941D8
:100EB000BFF6D9AE44E700BFFFFFFFFFFFFFFFFF14
:100EC00000800B4000000B4018400220210C001055
:100ED000F8B504461646C1601F460D46FFF726FCCE
:100EE0004FF0504226701268184B62704FF6FF7236
:100EF00003442361BBB26381013B2281A2806380F2
:100F000000221823BA4218D1114F1249EB1B5F423D
:100F10005F41114B06EB870743F82740012404FA91
:100F200006F638462E62FFF799FC05F50155214675
:100F30003846FFF74DFC2E60F8BD03FB02F16069F7
:100F400002F1FF3C20F801C00132DBE72B42022016
:100F500000800B40210C00101840022010B5094CF5
:100F600023694BB90321084800F020F9102303221C
:100F700020460549FFF7ACFFBDE810400A210348B1
:100F8000FFF7E4BDF410002000000B4038400220C1
:100F9000074A536A994206D8926A824205D2C81A11
:100FA00018BF01207047002070470120704700BF24
:100FB00000000B4000487047F41000200146F0B5D7
:100FC0000069EFF3108E72B6D0E8CF5F0124002DD8
:100FD000FAD1C0E8454F002DF6D1BFF35F8FB1F9CC
:100FE00002504E6905EB45044FEAC40C002DA8BF22
:100FF00036F80C004FF00007A8BF488006EBC40489
:101000000869C0E88F7F8EF31088BD4231DB0598F8
:10101000C4E90223206106980B6960616088013091
:10102000C0F30E00012838BF0120608040EA05406F
:10103000EFF3108272B6D3E8CFEF0124BEF1000FB8
:10104000F9D1C3E84E4FBEF1000FF4D1BFF35F8F6B
:101050008B8826F80C308D800B69C3E88F7F82F374
:10106000108801220B789A40CB6803F501535A602F
:10107000F0BD4FF0FF30FBE72DE9F0479DF82870F9
:101080000646DDE9088915461C4647B12A4623462F
:101090003046CDE90889BDE8F047FFF78FBF00F083
:1010A000C1F8854264EB01010029EFDA3846BDE85A
:1010B000F0870346408970B5B0EB214F4FEA2142DB
:1010C00001DC002070BD1824586904FB02001A6975
:1010D000EFF3108472B6D2E8CF6F0125002EFAD15B
:1010E000C2E8465F002EF6D1BFF35F8F428889B217
:1010F00092B28A4214D142F4004242800120987197
:1011000000221969C1E88F2F84F310880028D8D0F5
:1011100001221978DB688A4003F501535A60D1E750
:101120000020EDE7407870472DE9F04304460D4676
:1011300085B0EFF30587FFB227B105B0BDE8F043F6
:10114000FFF726BF174ED6F80C9096F80080484659
:1011500000F03EF808F1040859F82830221AA3EBF1
:10116000000365EB01019A4271F1000103DB20BF2E
:1011700020462946E1E70C4B3046009322462B4699
:10118000CDE90177FFF778FF061E29462046D4DD1A
:10119000FFF7FEFE00B920BF31460248FFF789FF86
:1011A000E6E700BFF4100020E50B001010B4054B7B
:1011B000054C064AA04214BF1846581C5DF8044B63
:1011C000FFF76FBA6243022000800B404009021013
:1011D0000346416A0A46986A596A8A42FAD17047B8
:1011E000416A9942FCD3994202D1816A914200D36B
:1011F0007047416AF7E72DE9F04116461D4604465F
:10120000FFF7E6FF821951EB05034FF0000728BFF7
:10121000012717B14FF0FF3213462046BDE8F041D9
:10122000FFF7DEBF0148FFF7D3BF00BF00000B4050
:1012300002460B460148FFF7DEBF00BF00000B402F
:10124000F0B50C24444304F1804404F58034059E39
:1012500094466268071FB242FFB238BF6660012F32
:1012600004F5405224D8012922D103251560A26833
:10127000D207FCD5226804F5805582EA4C1202F0B0
:10128000E002012F2A6009D822684A4002F00302D6
:101290002A6001228A40A1681142FCD04FF400610B
:1012A00004F5005211600B4A666042F82030F0BD30
:1012B0004FF400651560074D55F82020002AD9D05D
:1012C0006D69B5FBF2F5013505EB4505033DFDD232
:1012D000D0E700BFB03B022013B54FF48034009438
:1012E000FFF7AEFF02B010BD014B53F8200070476E
:1012F000B03B022070B51D4CB4FBF1F4B2FBF4F22C
:10130000049C240344EA03430468002C0EDA0468B6
:1013100004F03F048C4209D18468C4F30B04944266
:1013200004D1C46804F4EE249C421DD0104D012465
:10133000A84214BF0E250F25AC400E4D0E4E2C605A
:1013400005F580552C60B56834EA0505FBD10160D0
:101350002121826000F540520432116001680029A9
:10136000FCDAC3600823136070BD00BF001BB70028
:10137000008005400020024000000240024B1A6835
:10138000024B5A60704700BFF03F022000800D40C2
:101390004FF08043114A10B5114C136003F5D03360
:1013A0009C604FF0E06403F5402329B11C6028B92C
:1013B0004FF000421A6010BD1460F8E74FF47A73E2
:1013C0006FF07F425843074B904294BF18601A60F9
:1013D000FFF7D4FF4FF08042034BEBE700B00D4026
:1013E000F3FFFF01F03F022000A00D4010B40346C0
:1013F0004FF0804410460A4A146004F558246BB13B
:10140000084A43F00103E261074A5A4022626162DE
:10141000A36200215DF8044BFFF7BABFE361F8E770
:1014200000B00D40D3C007B02D3FF84F0C235843F8
:10143000012300F1804000F5841041600360704793
:10144000002370B5DB8A05460E46002242E800F212
:10145000520254BF1021042144F2522098470446FE
:1014600033462A46A446BDE870400A214FF48170F5
:1014700060470023DB8A002242E800F2520254BF98
:1014800010210421184708B50B46011E02DB22B9C2
:1014900043F020031846FFF7D3FF43F03003F9E78A
:1014A000034AD2F82838002BFBD0BFF35F8F704778
:1014B00000000E400021044B044ABFF35F8F43F845
:1014C000041B9342F9D170470C080E402C080E40C3
:1014D000FFF7F0BF4FF42A62054B06491A604FF43C
:1014E0008D72DA60044A11605A68002AFCDA70478B
:1014F0000080044000B0FA0000A0044070470000E3
:1015000008B50148FFF790F86209021038B5044C9D
:10151000044DAC4200D338BD54F8043B9847F8E77B
:101520002007021060070210054B064A06491A60A0
:10153000064B074A13608A6833EA0202FBD1704700
:10154000002002407F3BEFEF00000240F6FFF30374
:1015500000300240044BDB6CB3F5004F02BF4FF488
:101560008022024BDA6470470000115000201150B5
:101570004FF0E022044BD2F8881D0B43C2F8883D9F
:1015800010EE3004704700BF030330006FF060427C
:10159000044B1A60044A9368DB4333F06043FAD18A
:1015A000704700BF003002400000024010B545F215
:1015B0005320FFF75EFFBDE81040034604201847A4
:1015C00010B545F25320FFF754FFBDE81040034625
:1015D00001201847FFF7CEB810B50B490B4C0C484B
:1015E000641AA410442C224628BF442292001DF005
:1015F0002BF8074B074A432C02D9074A936010BDCA
:1016000043F824200134F6E7000000101001001018
:10161000000000201101001000ED00E0002373B570
:10162000294DC5F88430FFF755FF0122274BDA63B7
:101630006A6C012AFCD103221A63AC6B012CFCD129
:101640000226052521460523214A22480096FFF758
:1016500051FE2B462146204A20480095FFF74AFEBE
:101660000022314604201E4BFFF736FE2146284655
:1016700000221C4BFFF730FE0022082011461A4BB7
:10168000FFF72AFE002209201146174BFFF724FE20
:10169000002206201146134BFFF71EFE00220720F2
:1016A0001146104BFFF718FE0420FFF71DFE0F4DEB
:1016B0000024B0FBF5F5E0B229460134FFF7B6FE91
:1016C000062CF8D102B070BD00000140003001408E
:1016D000002F685900000540008C864700800540B7
:1016E000001BB70080D1F008006CDC0240420F0004
:1016F000C1F30A53A3F2FF335A1C30B505460C461A
:1017000003DA002001F0004130BD07D101F00044B0
:1017100044F07F51002041F44011F5E7342BF3DA17
:101720000122C3F13300C3F11301133B22FA03F387
:1017300002FA01F1194302FA00F302225B1944EBA9
:101740000104C0F12005A0F1200122FA05F502FAFA
:1017500001F182402943524261EB410502EA030054
:1017600005EA0401D0E70000C1F30A52F0B50646CD
:101770000D461AB9104601F00041F0BDA2F2FF3249
:10178000002A05DA00294FF0000024DA1349F4E7B3
:10179000C2F13402002AF0DD0123A2F12000C2F1DF
:1017A000200123FA01F103FA00F0934008435A1E86
:1017B0004FEAD571A2FB012440F1FF3701FB07443A
:1017C000921944EB05045B4260EB400504EA050115
:1017D00002EA0300D1E70021CFE700BF0000F0BF1D
:1017E00086B003B451FC0804CDE9020151FC0904A0
:1017F000CDE9040151EC0A04CDE9060103BCF04730
:10180000BDE800504EEC00C4BDE800504EEC01C4F1
:10181000BDE800504EEC02C400BD000000B5FFF76B
:10182000DFFF02E010FE30F4F8D441EC100443EC8A
:10183000112400EE010410EE010480EE200451ECAE
:101840001004704700B5FFF7CBFF02E010FE30F444
:10185000F8D441EC100443EC112400EE010410EE26
:10186000210480EE200451EC3004704700B5FFF7EE
:10187000B7FF02E010FE30F4F8D410B541EC1004CC
:1018800043EC112451EC040453EC0524A0FB024C5E
:101890005FF0000EE0FB03CEE1FB02CE4CEC2044F7
:1018A0000024E1FB03E444EC30E480EE200451EC3E
:1018B0005004BDE81040704700B5FFF791FF02E00B
:1018C00010FE30F4F8D441EC100443EC112451EC38
:1018D0002104A0FB01126FEA820252FB100052FBAE
:1018E00012F252FB1000A0EBD07C53EC04245CFB02
:1018F00013F153EC1524A1FB022001FB030053EC70
:101900004424A2EB000050FB1CF24FEA111312EB2F
:10191000017043EBE27140EA515020EA915020F00F
:10192000070053EC7524A0FB023C53EC752400FB2C
:1019300003CC01FB02CC53EC0424ACEB824C40EA18
:101940005C70A0F1010041EC400480EE200451ECF9
:101950007004704700B5FFF743FF02E010FE30F45B
:10196000F8D441EC100480EE220410EEB20470476B
:1019700000B5FFF735FF02E010FE30F4F8D440EC7C
:10198000700400EE010410EE210480EE200451ECFE
:101990003004704700B5FFF723FF02E010FE30F47B
:1019A000F8D440EC600400EE010410EE210480EE57
:1019B000200451EC3004704700B5FFF711FF02E03E
:1019C00010FE30F4F8D441EC800400EE010410EE77
:1019D000010480EE400410EE1304704700B5FFF7D9
:1019E000FFFE02E010FE30F4F8D441EC800400EE7B
:1019F000010410EE010480EE400410EE3304704741
:101A000000B5FFF7EDFE02E010FE30F4F8D441EC33
:101A1000100443EC112400EE010410EE3004C0F376
:101A20000070704700B5FFF7DBFE02E010FE30F4F7
:101A3000F8D441EC100443EC112400EE010410EE44
:101A40003004C0F38070704700B5FFF7C9FE02E0B4
:101A500010FE30F4F8D443EC102441EC110400EEF5
:101A6000010410EE30F48CBF01200020704700BF4D
:101A700000B5FFF7B5FE02E010FE30F4F8D443ECF9
:101A8000102441EC110400EE010410EE30F42CBFE0
:101A900001200020704700BF00B5FFF7A1FE02E063
:101AA00010FE30F4F8D441EC100443EC112400EEA5
:101AB000010410EE30F42CBF01200020704700BF5D
:101AC00000B5FFF78DFE02E010FE30F4F8D441ECD3
:101AD000100443EC112400EE010410EE30F48CBF2E
:101AE00001200020704700BF0022002950DA404248
:101AF00061EB4101C9B1B1FA81F30B3B17D4D3F1CA
:101B0000200C30FA0CFC9840994051EA0C011A4420
:101B1000524202F2324201EB025141F0004140F2E6
:101B2000FE739A4238BF704721E011467EE003F110
:101B3000210310FA03FCA3F1010301FA03FCC3F132
:101B4000200320FA03F021FA03F140EA0C00A3EB92
:101B5000020202F2324214D050F1000041EB025175
:101B600041F0004140F2FE739A4238BF70474FF097
:101B70000001A8BFC7F6F0714FF0000070470021C8
:101B80007047EBD350F1000020F00100E6E700229F
:101B9000B9B1B1FA81F30B3B16D4D3F1200C30FA72
:101BA0000CFC9840994051EA0C011A44524202F24E
:101BB000324201EB025140F2FE739A4238BF704745
:101BC00020E0114600F066B803F1210310FA03FC8F
:101BD000A3F1010301FA03FCC3F1200320FA03F08F
:101BE00021FA03F140EA0C00A3EB020202F23242B6
:101BF00012D050F1000041EB025140F2FE739A42C4
:101C000038BF70474FF00001A8BFC7F6F0714FF022
:101C10000000704700217047EDD350F1000020F024
:101C20000100E8E7002880F235804042B0FA80F3F6
:101C30000B3B11D4984001EB0302524202F21242D4
:101C400000EB025141F000414FF0000040F2FE7302
:101C50009A4238BF704713E0C3F1000330FA03FC27
:101C6000C3F120029040A3EB010202F212420CEBFE
:101C7000025141F0004140F2FE739A4238BF704772
:101C80004FF00041A8BFCFF6F0714FF00000704751
:101C90000021704760B3B0FA80F30B3B0FD498403B
:101CA00001EB0302524202F2124200EB02514FF0EA
:101CB000000040F2FE739A4238BF704710E05B426A
:101CC00030FA03FCC3F120029040A3EB010202F2C0
:101CD00012420CEB025140F2FE739A4238BF704739
:101CE0004FF00001A8BFC7F6F0714FF00000704739
:101CF000002170470022A2F232425FEA215CACF17F
:101D00000103A1EB03515B0513F5800F32D212EBF7
:101D1000535210D40B2A36DA9140D2F1200330FA14
:101D200003F319439040BCF1000FA8BF7047404235
:101D300061EB4101704720320EDD01FA02F3D2F16E
:101D40002002D140D0401843BCF1000FA8BF70471B
:101D5000404261EB41017047524282F3050231FA81
:101D600002F00021BCF1000FA8BF7047404261EBB8
:101D70004101704702D000200021704750EA013134
:101D800018BF4FF0000C6FF0004101EBDC716FEAFF
:101D9000EC70704700000000C11545D4852932DA87
:101DA000012262F3DF507E392AD400FA01F041F6B5
:101DB0009553C5F6554380FB03012BA292EC034AD1
:101DC000820D61F39A2200EE102ABBEEC00A60EE8B
:101DD000000AC1F3444220EE042A26A320EE201A72
:101DE00053F8222000EEA42A891501EE052A02EB01
:101DF000C15200EE102A00EE020A10EE100A7047DF
:101E00004942C840D3E747F21822C4F2B1229042B7
:101E1000C6D3B0F1FF4F02D950F48000704740F2B2
:101E20000000C7F68070704711F17B0F0CDA0122B9
:101E300062F3DF50823105D54942C84040F10000CD
:101E40004042B4E78840FBE74AF64F42CCF2AE226C
:101E50009042ECD910F5000F02D950F48000704781
:101E60004FF00000704700BF1872313FF0FD753E23
:101E70004758633D0000803F87CD823FC3AA853F1E
:101E80000F98883FC2958B3F3AA48E3FD3C3913FB2
:101E9000F0F4943FF037983F3A8D9B3F32F59E3FE8
:101EA0004370A23FD7FEA53F5BA1A93F3F58AD3F7E
:101EB000F623B13FF304B53FAFFBB83FA408BD3FE5
:101EC0004D2CC13F2A67C53FBEB9C93F8C24CE3FC8
:101ED0001EA8D23FFD44D73FB8FBDB3FDFCCE03F3D
:101EE00007B9E53FC7C0EA3FBAE4EF3F7D25F53FBC
:101EF000B383FA3F00000000B0F1FF4F3ED2C1159E
:101F00003ED04FF0010262F3DF5038BF400026A3FD
:101F100093EC034AAFF21C0303EB104323F00703D7
:101F2000D3E9002300FB02F040EC103AFAEEC00ABD
:101F300020EEA01A61F17E0160EE811AC90521EE42
:101F4000012A40F6FC3221EE041AC5F6B90261EE10
:101F5000A41A51FB12F122EE052A03EE901A71EE3B
:101F6000C21AFAEEC53A31EE611A70EEC10A30EECD
:101F7000200A30EE230A10EE100A704705DC0BD061
:101F800010F1FF4F09D310F5000F40F4800003D883
:101F900040F20000CFF6C070704740F20000CFF66C
:101FA00080707047AFF300800000003FABAAAA3EEC
:101FB0000000803E000000005501000001CB92BEF1
:101FC00048010000C3C87DBE3B010000685F54BEED
:101FD0002F010000C7992CBE250100002C3C0ABE31
:101FE0001A0100002F1AC6BD11010000C2AC83BD4A
:101FF00008010000D814FCBC000100000000000033
:10200000F8000000EC0A023DF10000008E51773D1F
:10201000EA0000009806B83DE40000003B39ED3DC1
:10202000DD000000088B163ED800000003FA2D3EAC
:10203000D2000000D7D24A3ECD000000DE7F633ED2
:10204000C8000000E3C87C3EC3000000E65A8B3E97
:10205000BF00000084F7953EBA0000006E8CA33EDE
:10206000B6000000EFADAE3EB2000000C40EBA3EB6
:10207000AE000000CDB1C53EAB0000005F99CE3E82
:102080009A4238BF8854704770472DE9F84F9846F8
:10209000DDE90B490D9B15469A0706460F4623D0EE
:1020A0002A460A9B03EB040A1444A24220D10D9B4A
:1020B0009B0705D5A2EB050AD14505EB0A0420D8FC
:1020C0002046BDE8F88F434639462020B0470AF144
:1020D000010ACA450AEB0B02F5D3A9EB04024C45F1
:1020E00088BF00222A44DCE7A246A5EB040BF0E7F8
:1020F00002F1010B434639461AF8010DB0475A4622
:10210000D3E74346224639462020B0470AF1010A68
:10211000D2E72DE9F047DDE90D7616F0020F9DF8C4
:102120002880DDE90854DDE90BCE1FD106F0010956
:102130004FB1B9F1000F06D0B8F1000F02D116F07F
:102140000C0F00D0013F4FF0300A02E005F804A068
:102150000134A64501D9202CF8D1B9F1000F05D0E2
:102160004FF03009BC4201D2202C2DD116F0100FB7
:102170001FD016F4806F2CD15CB3744501D0BC42E3
:1021800027D1B4F1010E23D0BCF1100F46D1023C8F
:1021900016F0200F28D1202C28D04FF0780C05F80D
:1021A00004C00134202C21D04FF0300C05F804C0BD
:1021B0000134202C1AD0B8F1000F23D04FF02D0C91
:1021C00005F804C0013412E005F804900134C9E7B1
:1021D0007446BCF1100FDBD0BCF1020FE2D1202C11
:1021E00004D04FF0620CDAE7202C08D12024CDE98E
:1021F0000A76CDE90854BDE8F047FFF746BF4FF037
:10220000580CCCE716F0040F02D04FF02B0CD7E798
:1022100016F0080FEBD04FF0200CD1E7BCF1020F05
:102220007446C1D1DDE72DE9F04391B0189D1A9EA7
:102230001D9F0DB927F010077C0500D515B317F0C9
:10224000200F14BF4FF0410E4FF0610EAC46002539
:102250000DF12008AEF10A0EBCFBF6F906FB19C918
:102260005FFA89F4B9F1090F94BF30347444E4B2D1
:10227000B44508F8014B05F10105BCFBF6F401D3A8
:10228000202D10D11C9C069705941B9CCDE903645E
:102290009DF86440CDE9015408AC0094FFF739FF84
:1022A00011B0BDE8F083A446D6E72DE9F04F95B014
:1022B000269ECDE90A23DDE91E74DDE9229B57EA5B
:1022C000040308BF26F010067205CDE9080102D507
:1022D00057EA040337D016F0200F14BF41236123BF
:1022E00000250DF1300AA3F10A0821464A465B4653
:1022F00038461EF0F5F9D2B2092A94BF3032424472
:102300004F45D2B274EB0B0405F101050AF8012B1D
:1023100001D3202D14D1259B06960593249BDDE93E
:102320000801CDE903939DF88030CDE901530CAB52
:102330000093DDE90A23FFF7ECFE15B0BDE8F08F4E
:1023400007460C46D1E70025E5E700000000000045
:102350002DE9F04F93B09DED1C7BCDE90C32DDE90A
:102360001E630E9353EC172BCDE908011046194656
:102370008DED067B209DFFF747FB80B9DDE9060167
:102380004FF0FF320E4BFFF79FFB40B9DDE906012E
:102390004FF0FF326FF48013FFF75AFB90B1DDE985
:1023A00008019DED067B0E9B8DED1C7BCDE91E6328
:1023B000DDE90C32209513B0BDE8F04F00F090B984
:1023C000FFFFEF7F0022DDE906010023FFF740FB5E
:1023D000002800F04581DDE906A303F1004B15F468
:1023E000806308BF06260F935AEA0B03D046D946EE
:1023F00000F03981CBF30A50A0F2FF30FFF7BCFAAE
:10240000B3A3D3E90023FFF735FAB3A3D3E900233D
:10241000FFF708FACBF31303CDE90A0143F07F512C
:102420000022A54B504641F44011FFF70FFA96A346
:10243000D3E90023FFF71EFA02460B46DDE90A0145
:10244000FFF7F0F9FFF7BCFA0446FFF795FA90A3FF
:10245000D3E9002380468946FFF70CFA0022974B08
:10246000FFF7E0F9FFF7ACFA8BA3D3E900230746A7
:1024700049464046FFF7FEF9804638468946FFF751
:102480007BFA87A3D3E90023FFF7F4F902460B4652
:1024900040464946FFF7DAF902460B46CDE90A23E2
:1024A000FFF7E8F9DDE90A23804689461046194618
:1024B000FFF7B8F90022CDE91001814B40464946AB
:1024C000FFF7FEF900227F4BFFF7ACF902460B46FF
:1024D00040464946FFF7F4F900227B4BFFF7A2F98B
:1024E00002460B4640464946FFF7EAF9DDE90A2372
:1024F0008046894600204FF08041FFF7A7F9024649
:102500000B4640464946FFF78DF902460B46DDE98A
:102510001001FFF7D5F907F2FF3700226B4BFFF7E9
:1025200081F900223B05FFF7A5F952465B4680463C
:102530008946FFF7C9FA40B1404649460022614B3F
:10254000FFF7BEF980468946013C04F16303C62BC0
:102550008CBF05270427290521D558EA090311D086
:1025600051A3D3E9002350465946FFF799FA0028B2
:102570007CD04FA3D3E9002350465946FFF768FAB1
:10258000002873D0A642D8BF00244FF00007C4BF74
:10259000341B04F1FF3426463C4645F480650E9B0F
:1025A0009F422CBF0023DB1B0A9315F002030F93FD
:1025B00004D0002F0A9B18BF00230A933CB1504659
:1025C000594642464B46FFF77BF982468B46DDE98A
:1025D000060100220023FFF73BFA10B10BF1004384
:1025E0009B46DDE9080125F4006304930A9BCDE9CD
:1025F00000ABCDE90263DDE90C3200F071F8024670
:1026000057B315F0200F0C9B00F1010509990CBF81
:1026100065204520089EB047DDE90801052300221A
:1026200005930A23002CCDE9023207F1FF374FEA68
:10263000D473B8BF64422A46019304970C9B00945C
:10264000FFF7F1FD0F9B024633B10D9BC41A0D9BA2
:102650001A190E9BA34210D8104613B0BDE8F08F94
:10266000DDE906ABBBE60024042774E7002E96D014
:102670000F9B002B93D0013E91E720200C9B0999E2
:10268000089DA8470134E2E761436F63A787D23F03
:1026900071A379094F930A401655B5BBB16B02403F
:1026A000EF39FAFE422EE63F2D431CEBE2361A3F8D
:1026B0000000000080842E410000F83F0000E03F51
:1026C00000002C4000002440000018400000F03FB3
:1026D000FB799F501344D33FB3C8608B288AC63F11
:1026E0002DE9F04F97B0DDE920ABCDE90501DDE93B
:1026F0002247CDE90723504652465B465946249E61
:10270000FFF782F970B10323CDE922762193AE4B16
:102710002093DDE90501DDE9072317B0BDE8F04F9F
:10272000FFF7B3BC4FF0FF326FF4801350465946A9
:10273000FFF78EF928B10423CDE922762193A34B2C
:10274000E6E74FF0FF3250465946A14BFFF7BCF980
:1027500050B170074CBF04220322CDE922764CBF52
:102760009C4B9D4B2192D3E7504693A3D3E9002382
:102770005946FFF7A9F938B991A3D3E90023504688
:102780005946FFF765F968B1DDE90723DDE9050181
:10279000CDE92376CDE920AB229417B0BDE8F04F08
:1027A000FFF7D6BD0022002350465946FFF750F9E7
:1027B000B8B15B46524600200021FFF747F80123DD
:1027C00082468B46099316F4806F08BF0624302199
:1027D00023460EAAA4F12009092B04D89946E41A2D
:1027E00007E00990EFE7013B4B4502F8011BF3D1ED
:1027F000202459465046FFF7E3F8784B054603EB93
:10280000C90393ED007B8DED0A7BFFF7B5F8024617
:102810000B4650465946FFF719F8DDE90A23FFF742
:1028200029F802460B46CDE90C23FFF7DBF880467A
:10283000FFF7B4F802460B46DDE90C01FFF706F896
:1028400002460B46CDE90C230022654BFFF73CF90D
:10285000C8B108F101084046FFF7A0F802460B4650
:10286000DDE90A01FFF708F910B14FF00008013562
:10287000B9F1000F18D00A210EAB2344202C4BD104
:102880003022A1445CE00022DDE90C01544BFFF74B
:10289000DFF80028ECD1B8F1000F02D018F0010FDA
:1028A000E6D008F10108E3E72846FFF765F802469D
:1028B0000B4650465946FEF7C9FF0022484B80465A
:1028C0008946FFF7C5F848B9002240464946444BBF
:1028D000FFF7FAF810B9013525F001050A210EAB12
:1028E0001A19202C0AD095FBF1F001FB1055303558
:1028F00002F8015B013405460028F2D106F003021C
:10290000012A3FD1002F3DD0099A12B916F00C0FC1
:1029100000D0013F302224E0B8FBF1F001FB10822F
:10292000B8F1090F02F1300209F1FF3904F1010495
:1029300003F8012BA4D98046A0E70EA90A551C462E
:10294000202CCBD04C4504F10103F6D104F1580200
:102950000DEB02042E2204F8202C1C46BEE71A556B
:102960000134A7420ED9202CF9D1CDE90034DDE99C
:102970000501DDE90723CDE90276FFF786FB17B0F5
:10298000BDE8F08F202CF0D0099A3AB12D2104F146
:1029900058026A4402F8201C0134E6E7710704D5A6
:1029A00004F158022B216A44F4E73207DDD504F123
:1029B000580220216A44EDE70000000065CDCD41BA
:1029C0000000000065CDCDC1C0090210C40902108D
:1029D000FFFFEF7FB7090210BC090210902107101A
:1029E0000000E03F08B100F041BC70472DE9F04F16
:1029F00090469B46AF4AB04B91B01A600B1E0A93AB
:102A0000AE4B14BF8146994600251A9E9BF80000E4
:102A100070B9454538BF2A4643464FF000000A9931
:102A200028BF08F1FF32C847284611B0BDE8F08F33
:102A300025280BF1010B06D02A4643460A996C1C47
:102A4000C8472546E2E700230CE02D2A1FD0302A94
:102A500005D0A2F1300009280ED8002729E043F064
:102A600001038B46594611F8012B2B2A12D0ECD8C2
:102A7000202A12D0232A13D02A2A33D156F8047BD5
:102A80008B46002FBCBF43F002037F4218E043F0A7
:102A90000203E6E743F00403E3E743F00803E0E75B
:102AA00043F01003DDE70A208B4600FB0722A2F16A
:102AB0003007594611F8012BA2F130000928F2D94C
:102AC0009BF800202E2A44D19BF801100BF1010243
:102AD000A1F13000092843F4806331D800244FF07D
:102AE0000A0C06E00027EBE702460CFB0411A1F1FB
:102AF0003004104610F8011BA1F1300EBEF1090F91
:102B0000F2D9114611F8010B6C282CD024D8682872
:102B100030D06A2837D011468B461BF8010B672846
:102B20005CD8572832D8452807D085D9462800F0E8
:102B3000E980472880D143F4006343F02003F7E0A5
:102B40002A2907D156F8044B0BF1020224EAE47457
:102B5000D7E75A460024D4E7742801D07A28DAD17E
:102B600043F48073D8E750786C28F9D143F440736C
:102B7000911CD1E75078682802D043F08003CBE75E
:102B800043F0C003F4E743F40073C5E7A0F1580233
:102B90000F2A3FF651AF01A151F822F0332C00105B
:102BA000392A0010392A0010392A0010392A001059
:102BB000392A0010392A0010392A0010392A001049
:102BC000392A0010332C0010592D0010332C00101E
:102BD0002D2D0010092D00102D2D0010A0F16901E0
:102BE000C9B20F293FF628AF012249F2410C8A40B1
:102BF00012EA0C0218D10A2900F0EA8007297FF4B2
:102C00001BAF43F0210305930823CDE903431023B1
:102C1000CDE9012356F8043B2A4600934846434633
:102C20000A99FFF700FB7FE06F2840F0358108220A
:102C30000BE0582810D0622800F02C8123F01003FC
:102C400064284FF00A0200F02F8123F00C032BE1DF
:102C50007828F3D11022F8E743F02003FAE7D905EA
:102C600006F1040A01D5316802E058060CD5317826
:102C7000CDE90224CDE9047300294FEAD173019311
:102C8000B8BF4942009126E01906ECD5B6F900100C
:102C9000EEE7A9B1CDE907730023CDE9042306F1DE
:102CA000070A2AF0070A06940293FAE80223CDE9FC
:102CB00000231EE1ED290010EC3F022089200010C6
:102CC000D80506F1040A0DD5CDE90473CDE9022437
:102CD00001913368009343462A4648460A99FFF714
:102CE000A2FA0CE1590607D53178CDE90473002327
:102CF000CDE902240193C5E7316813F0800F18BFB6
:102D000089B2F2E743F02003CDE90373073626F0DA
:102D100007060294F6E802234846CDE900230A9903
:102D200043462A46FFF7DCFC05466FE6672810D0CD
:102D3000CDE90373073626F007060294F6E802236E
:102D40004846CDE900230A9943462A46FFF700FB8F
:102D5000EAE743F40063EBE713F0020423D04FF0FB
:102D6000010A6B1C0B932A4643460A9916F8040B7A
:102D7000C8475CB354460B9A1EE0434620200A998C
:102D8000C84705EB0A020AF1010A5745F5D8002F9A
:102D900007F1FF3308BF002307F1010A1D4408BFF4
:102DA0004FF0020ADDE7A246EBE7551C4346202020
:102DB0000A99C8472A460134A742F6D8A7EB0A0366
:102DC000574538BF00230B9A1A440B920B9D1DE602
:102DD0003246002C52F8046B14BF21464FF0FF31ED
:102DE0000B9232463144107808B1914211D1A2EBD6
:102DF000060A13F480620D9202D0A24528BFA246B3
:102E000013F002030E931BD1AAEB05032A460C9381
:102E100008E00132E7E7531C0F93202043460A994C
:102E2000C8470F9A0C9BD318BB42F4D3A7EB0A03F5
:102E3000574538BF00230AF1010202EB030A1D4483
:102E4000AB1B0C9304E01C4643462A460A99C8472C
:102E50000C9B9D1916F8010B28B10D9B002BF3D08C
:102E6000631E002CEFD10E9B93B12A46AAEB0504FA
:102E700005E0561C434620200A99C84732461319DC
:102E80009F42F6D8A7EB0A03574538BF00231D44DD
:102E90000B9EBBE50222D8E63FF6DAAE692823F0A6
:102EA00010037FF4CDAE0A22590548BF23F0010379
:102EB000692803F4007102D064287FF4EAAE002987
:102EC0003FF4CDAE073626F00706B24670685AF8D2
:102ED000081BCDE9077300230593C30F0028029355
:102EE00006940B46049202DA4B4260EB4000CDE9B7
:102EF000003043462A4648460A99FFF7D6F9054668
:102F0000564683E507B5009313460A460146034833
:102F1000FFF76CFD03B05DF804FB00BF81200010DB
:102F20001FB5084A0346146844B100914FF0FF32C0
:102F3000054803A9A047012004B010BD00F0A4F982
:102F40002046F9E7EC3F0220E52900100FB407B551
:102F500004A951F8040B0191FFF7E2FF03B05DF8FB
:102F600004EB04B0704700BEFDE70000064A0346CC
:102F7000106808B905481060054903448B4294BFA6
:102F800013604FF0FF307047E83B0220844302207B
:102F900000000820002070474FF0FF30704700000D
:102FA00003460846114623B9034BD3E9002300F03A
:102FB000FFB84FF0FF307047302107100346013B48
:102FC000012B10B50846144606D8012300222146DD
:102FD00000F0AAF8204610BD4FF0FF34FAE74FF09A
:102FE000FF3070474FF0FF3070474FF0FF307047B1
:102FF00002288CBF00200120704708B5FFF7B3FFFF
:103000000C4607B5194652B1064BCDE900320246CF
:1030100023460548FFF79AFF0120FFF7A4FF034B63
:103020001A46F2E7C9090210D60902106B350210E0
:1030300038B5FEF76BFA044C044DAC4200D338BDF2
:1030400054F8043B9847F8E760070210680702103D
:10305000034608461B68114618470000437D2DE9CA
:10306000F04104460D461646A3B101F1FF38002198
:1030700008468E4214DC86422EDD311A236828442D
:103080009847354415F8013CA3F10D0253425341D2
:10309000237523E0036811462846BDE8F041184730
:1030A000C1B198F80030A3F10D077B427B4118F8BD
:1030B000012F4F1C0A2A0BD153B9814203DD091A93
:1030C00023682844984706480221236898473846D1
:1030D0003946CEE7237DEAE7002ED2DCBDE8F08159
:1030E000E021071010B5FEF79DF80A4A82184FF04C
:1030F000FF3041F100036FF00041904271EB030497
:1031000038BF0246BDE8104038BF0B4602481DF0EC
:10311000F7BA00BF40420F001818002001481DF008
:10312000E3BA00BF181800202DE9F74F0C461D46E2
:1031300007469146FFF7D6FF631C804603D1384609
:103140001BF0F8FA04464FF00A0B154B154EDFF84A
:103150005CA0002D18BF1E46134B1D6845B9B8F181
:10316000000F01D0FFF7DAFF204603B0BDE8F08F73
:103170002B6893B1DAF800300BB1AB420DD1224687
:1031800039462846B047B9F1000F06D0012228463B
:103190000DF107018DF807B0B0472D69DEE700BFDC
:1031A0005D30001051300010D83B0220E43B02207B
:1031B0002DE9F04705460E4617461C46DFF85C80B1
:1031C000DFF85C90D8F800A0BAF1000F0DD1124AD8
:1031D000536A9C4204D8926ABA4219D29C4217D1CF
:1031E00001200021FEF724F8ECE7D9F8003023B1E4
:1031F000534502D0DAF810A0E6E7DAF80830002BE1
:10320000F8D03146284698470028F3DDBDE8F0871E
:103210006FF00100FAE700BF00000B40D83B02202E
:10322000E43B0220094B1A6812B901B118607047DB
:103230001A68824205D10029F9D102691A60016138
:10324000704702F110031269EEE700BFD83B02207D
:10325000044B10B51C6804B910BD636803B19847EE
:103260002469F8E7D83B022000F060B9012313B5C8
:1032700004468DF80700002219460DF10700FFF7FC
:1032800053FF204602B010BD38B505461BF052FA78
:103290000123044601461A462846FFF745FFFFF77B
:1032A000D7FF204638BD70470022014B1A70704787
:1032B000654302204B79FF2B0BD1887948B9CB7934
:1032C000012B07D1082A05D98A78034B09201A70E7
:1032D00070470020704700BF6543022001207047FF
:1032E000012908B51BD1104B91881B78994218D140
:1032F0005378012B0CD15188CB0548BF480AC1F344
:10330000402258BF4FF0FF3001F07F01FEF7BBF8BD
:10331000022B06D1002164220846FEF767F801203F
:1033200008BD0020FCE700BF65430220004870474D
:10333000AA2207100B46012B114609D15378012B05
:1033400008D19388072B05D1A623034A01F022B99F
:1033500001207047002070470422071001230370EA
:1033600000487047E421071008B50B68B3F5966F65
:1033700005D100224FF0FF301146FEF784F808BD5A
:10338000024B1860024B1960704700BFA43B02203B
:10339000A83B0220164B70B51A681AB3EFF31081E0
:1033A00072B6D2E8CF4F0120002CFAD1C2E8440F08
:1033B000002CF6D1BFF35F8F00220E4859600270D7
:1033C0001B68C3E88F2F81F3108800240A4E002564
:1033D0003078FDF713FA40B13078FDF71FFA204638
:1033E000294670BD4FF47A74F0E700240025F6E713
:1033F000104002206743022066430220014B1878E8
:10340000FDF70CBA6643022010B5FDF70BFF114A19
:1034100082184FF0FF3041F100036FF000419042FD
:1034200071EB03043CBF02460B460B481DF068F9E4
:1034300070B14FF0FF30002100F02EFD002001F0B0
:10344000B1F90028F5D1BDE8104003481DF04CB992
:1034500010BD00BF40420F003C40022030B50021AB
:1034600085B02C481DF054F9B8B100214FF0FF3061
:1034700000F012FD002001F075F9044625481DF00A
:1034800033F9002C43D0244B1B68002B3FD0234A38
:10349000106805B0BDE830401847214A1368002B7A
:1034A00035D0EFF3108172B6D3E8CF5F0124002D41
:1034B000FAD1C3E8454F002DF6D1BFF35F8F012548
:1034C000184C516023781268DBB22570C2E88F0F68
:1034D00081F31088DBB9FDF76DFD0446FDF7A2FE10
:1034E00010F57A724FF0FF3041F100036FF00041A8
:1034F000904271EB03053CBF02460B4601200021C0
:10350000CDE90110084920460091FDF7B5FD05B051
:1035100030BD00BF3C400220A43B0220A83B02205B
:103520001040022067430220953300104FF05043B3
:1035300030B585B01C68FDF73DFDFDF7F3FDA042F9
:1035400002D0002005B030BD0021274B08461B7873
:1035500001F032FC254803680BB9FDF7FDFA0120A4
:10356000FDF7E0FA224C23492070C0B2FDF776F94E
:1035700020780121FDF72CF90E20FDF763F988B1C1
:103580000120FDF7DFF801461B48FDF723FB002271
:103590000E201A49FDF788F919480121FFF742FE6C
:1035A0000120CFE7144BC3E90000FDF703FD0446FB
:1035B000FDF738FE10F57A724FF0FF3041F100034D
:1035C0006FF00041904271EB03053CBF02460B4691
:1035D00001200021CDE901100A4920460091FDF7A4
:1035E0004BFD0028ADDBD7E7582E07103C400220EA
:1035F000664302205D34001010400220FD330010AD
:103600000C11002095330010002001F095B8000047
:1036100070B504460D46FFF7F7FF18B96FF00204C6
:10362000204670BD002001F09DF80028F6D0FDF77F
:10363000F9FD164A82184FF0FF3041F100036FF098
:103640000041904271EB03063CBF02460B46104816
:103650001DF056F80028E1D0FFF7D6FF80B100201A
:1036600001F080F860B121462A46002001F084F87C
:10367000044608B96FF0020405481DF035F8CFE79D
:1036800000214FF0FF3000F007FCF3E740420F004D
:103690003C4002202DE9F84380460F46FDF7C2FD6D
:1036A000304A82184FF0FF3041F100036FF00041C3
:1036B000904271EB03043CBF02460B462A481DF0C2
:1036C0001FF800284CD0FFF79FFF002843D10020AF
:1036D0000021264BC3E9000138E0002001F0BEF8CC
:1036E0007C1B8442A8BF0446B4B1224608EB050106
:1036F000002001F097F8002104464FF0FF3000F061
:10370000CBFB002001F04EF8FDF78CFDC9E900016C
:103710002544AF42E1DC19E021464FF0FF3000F0D4
:10372000BBFB204601F03EF8FFF76EFF70B120466C
:1037300001F094F80028ECD1FDF774FDD9E90032CE
:103740009B1942F1000283428A41E2D20648BDE859
:10375000F8431CF0C9BF0025DFF81090044ED8E7ED
:10376000BDE8F88340420F003C400220A035022013
:1037700020A1070000487047442307100048704705
:10378000F022071010B504461348037813B911212D
:1037900000F042F864B940F20942104B5A8001230C
:1037A0000133DBB20D485B0043F44073038010BD6E
:1037B000052C0ED80A4B094953F824000023C25C9B
:1037C0000AB9DBB2ECE70133132B21F8022FF6D153
:1037D000E6E70020EBE700BF7043022044400220F0
:1037E000D822071000B545F247308BB0FDF741FEF7
:1037F00001220346092101A898470823054A05A983
:1038000011F8010D013B02F8010BF9D10BB05DF885
:1038100004FB00BF68430220002230B50C4D013983
:10382000914201D9102A02D10023835430BDD443E0
:103830005308EB5C04F00104A400234103F00F04DF
:103840002346092CD4BF3033373383540132E7E7A2
:103850006843022000F07F03F0B51A4C5E0006EBCF
:10386000D01504EB4515C709A87087F001006870F2
:10387000002029839901E870EA761348DA00651878
:1038800077B10244AA6200203E4404EB4616B268B7
:1038900010604BB904EB471463600C4BE360F0BD60
:1038A00004320244AA60EEE7013B094ADB001FB183
:1038B000214413444B62F2E704330C441344636025
:1038C000EDE700BFEC3B02208000105000011050DB
:1038D00008001050038BC27E08493F33022A23F0B0
:1038E0003F030A6808BF5B001344C260044A0B60D0
:1038F000934201D9FDF704BE704700BFF43F022098
:10390000FF0F105010B500F0C3F80C23124CFF222B
:10391000A3670E201149FCF7C7FF40220021104881
:103920001AF0EAFB002240211046FFF793FF002225
:1039300040218020FFF78EFF1CF0C2FE01204FF0D7
:1039400000534FF480322064E364064BC4F8903097
:10395000054BDA6410BD00BF000011501D030020AC
:10396000EC3B022010D001000020115001210E205C
:10397000FCF72EBF00220248114600F0A9B800BF94
:103980000C3C0220044B197021B14FF40032034B60
:10399000C3F89020704700BF2A4202200020115037
:1039A0000B785B0606D14B78052B01BF4B88024A8A
:1039B000DBB21360704700BF00001150CA7838B501
:1039C00002F00302012A20D08D78898805F07F0457
:1039D0002846C1F30A01FFF73DFFA4B1640004EBE0
:1039E000D5100B4C04EB40142046FFF773FFE3683F
:1039F000E27E83F0A04383F4801343EA826362682B
:103A000043F000431360012038BD0020FCE700BFF5
:103A1000EC3B02201CF054BE084608B5114600F0ED
:103A20007F02C00900EB42001A46034B03EB401033
:103A300000F04EF8012008BDEC3B022011F07F039E
:103A400005D100290CBF02200120064A9066C90951
:103A500001EB4300044B4FF40062002103EB4010E4
:103A60001CF04ABE00201150EC3B022011F07F03F5
:103A70000BD0002205485B0003EBD11100EB411095
:103A80006FF40061C2701CF037BE7047EC3B02203F
:103A900008B54FF080530A4A136002F58052136054
:103AA000084B9968C94311F08051FAD14FF4805204
:103AB00005481AF021FB0922044B5A6708BD00BFD4
:103AC0000020024000000240000010500000115091
:103AD000002310B5C38201238282837601610446EC
:103AE0001CF012FE20B14FF40032074BC3F89020B7
:103AF00020461CF0FDFD10B10123237710BD2046A8
:103B0000BDE810401CF0E4BD002011502DE9F0414B
:103B100005460024184E194FDFF870803278E3B262
:103B2000511C994210DA5422002115481AF0E4FA87
:103B30001022FF2113481AF0DFFABDE8F0412022DD
:103B4000FF2111481AF0D8BA9A420DD9D8F80020AE
:103B500012EB43130BD14FF0E023D3F8F03DDB071A
:103B600000D500BEBDE8F0819B1A07EB4313284641
:103B7000DB6898470134D1E7284202205823071018
:103B80004D42022051420220614202202837022089
:103B900070B50C4605461646486900F02DFD3246C4
:103BA000284663690121BDE8704018477047704797
:103BB000002070470020704770477047704770477B
:103BC000024B5878003818BF012070474D42022040
:103BD000024B1878C0F38000704700BF4D420220AE
:103BE0002DE9F0472C4F04463B780D46FF2B3FD183
:103BF00049B94FF0E023D3F8F03DDB0700D500BE14
:103C00000020BDE8F0870021542224481AF074FAFD
:103C10000022234E234B30461A70FCF79DFF224BA7
:103C200022481E60224EFCF7C7FF304601F03FFCE1
:103C3000204B1E60204B23B12048FFF78FFB204B09
:103C400018600026DFF87480DFF87890DFF870A045
:103C500098F80020F3B2511C99420BDA294620460D
:103C60003C70FFF74FFE0028C3D02046FFF77EFED2
:103C70000120C6E79A420AD9DAF8002012EB431372
:103C8000B7D05B680136002BB3D09847E0E79B1AAA
:103C900009EB4313F5E700BF401100204D4202201D
:103CA000C838022061430220D03802203811002099
:103CB00024110020D43802205D3300102842022055
:103CC000283702205823071038B58B780C4613F09C
:103CD000700F08D04FF0E023D3F8F03DDB0700D59C
:103CE00000BE002038BD074B20461D78064B997852
:103CF00001F0D5F80028EDD021462846BDE838402F
:103D0000FFF75CBE401100204D4202202DE9F04734
:103D10008146DDE908670C4690469A460025A8458D
:103D200001DC01200AE06378052B09D04FF0E02385
:103D3000D3F8F03DDB0700D500BE0020BDE8F087DA
:103D4000E37803F003035345F0D121464846FFF7DB
:103D5000BBFF0028EAD0A3780135DA0914BF3B7015
:103D6000337023781C44DAE7CB0901F07F02343347
:103D700003EB42030248034A1844116801F04EB8AD
:103D80004D420220D0380220CB0901F07F023433AB
:103D900003EB42030248034A1844116801F064B877
:103DA0004D420220D038022038B5144C01F07F0576
:103DB00004EB450404EBD11494F834003034C0070C
:103DC00008D54FF0E023D3F8F03DDB0700D500BE67
:103DD000002038BD207940F00100207108480078AB
:103DE000FFF71AFE0028F4D1227960F30002227155
:103DF000227960F382022271E3E700BF4D42022084
:103E00004011002010B50C460B4B1878FFF716FE3A
:103E10000A4904F07F0301EB430101EBD41191F84F
:103E2000343043F0020381F8343091F8343043F0F9
:103E3000010381F8343010BD401100204D420220B2
:103E400010B50C460B4B1878FFF710FE0A4904F02A
:103E50007F0301EB430101EBD41191F8343023F0DF
:103E6000020381F8343091F8343023F0010381F8F3
:103E7000343010BD401100204D420220054B01F0AE
:103E80007F0203EB420303EBD11191F83400C0F33E
:103E9000400070474D4202202DE9F04FA44B87B0FF
:103EA0001B78FF2B4DD0DFF89492A24B1C686369FE
:103EB000EFF3108272B6D3E8CF0F01210028FAD1B8
:103EC000C3E8401F0028F6D1BFF35F8FA2612046F0
:103ED00003A901F0F6F900236269C2E88F3FA369E4
:103EE00083F3108868B39DF80D30013B072B00F277
:103EF000F982DFE813F008001300EE02D302DF02BC
:103F00001C008F02E7029DF80C00FFF7FFFD00F098
:103F10006BFB9DF8103089F80230C6E79DF80C0065
:103F2000FFF7F4FD00F060FBFFF747FEBDE7824AB4
:103F300013784BB94FF0E023D3F8F03DDC0700D500
:103F400000BE07B0BDE8F08F1378013BDBB2137001
:103F5000137803F0FF00002BA7D1784C9DF80C508C
:103F6000237843F00103237094F8343060F30003A6
:103F700084F8343094F8343060F3820384F83430B9
:103F800094F8353060F3000384F8353094F8353018
:103F900060F3820384F8353000F02EFB9DF810208A
:103FA00002F06003602B07D14FF0E023D3F8F03D1F
:103FB000DD072AD500BE28E0402B0BD1604800F079
:103FC0001BFB0121284604AAFFF7B4F900287FF45F
:103FD0006CAF1AE002F01F02012A00F09281022A5F
:103FE00000F0C681002ADFD1202B25D19DF81430A6
:103FF0000F2B0AD8534A23441B79127893420FD2CD
:10400000514A116811EB431111D19DF80C000021A8
:10401000FFF714FD80219DF80C00FFF70FFD44E72A
:10402000511C9942F1DB49499B1A01EB431104AA47
:104030002846FFF7ADFDC9E7002BB5D19DF811303B
:10404000092BB1D801A252F823F000BFE1420010C1
:10405000CF420010A93F0010BB420010A93F001042
:104060007540001013420010A93F00108F4000104F
:104070009940001004A800F0C5FA28469DF81210D7
:10408000FFF778FC237843F0020323700DE7637891
:104090008DF80A3001232DE19DF8126063789E426D
:1040A00041D063785BB100212846FFF76BFC2846BE
:1040B000FFF7B0FCA7782846FFF728FDA7706670C9
:1040C000002E00F0A380701EC0B2FFF757FB10B1A6
:1040D0004378022B10D04FF0E023D3F8F03DDB07FC
:1040E00000F192804FF0E023D3F8F03DDF0700D5D8
:1040F00000BE0023637088E7C37900F10906C3F3AB
:104100008012C3F340131B0143EA4213227822F0CA
:104110003002134323704388C3180093009BB342BB
:1041200016D8FFF749FD284604A900F021FABCE69D
:1041300040110020D4380220614302204D42022069
:104140003533001028420220283702205823071058
:1041500073780B2B02BF337896F803A0F6187378A8
:1041600018BF4FF0010A042BB5D14FF0000B009B94
:104170009B1B9BB2B64A5FFA8BF817787A1C904566
:10418000A9DC47452BD9B34A176817EB4817A2D0CB
:104190001A46019331463B6928469847082802464B
:1041A000019B2ED983422CD3BAF1010F05D1396975
:1041B000A94B994208BF4FF0020A0021CBB29A45A1
:1041C00013D843463146A548019200F097FEA04B14
:1041D000019A1B781644013398459FDD7BE7A04A7E
:1041E000A8EB070702EB4717D2E7B0780131034489
:1041F00054FA83F31879FF287FF46DAF83F80480B5
:10420000DCE70BF1010BB5E700BE6BE7FFF7D5FC70
:1042100089E7BDF812301A0AD8B2531E0E2B3FF6AA
:10422000F4AE01A151F823F065420010874200105E
:10423000A14200100B4000100B400010B5420010CE
:10424000874200100B4000100B4000100B40001084
:104250000B4000100B4000100B4000100B400010F2
:104260007D420010FFF786FA024600283FF49CAE1C
:104270001223284604A900F08DF9A7E6FFF756F8A7
:10428000024640B9C1E6022A07D1FFF777FA024693
:1042900000283FF489AE5388EBE7FFF78BFCEFE78C
:1042A000BDF81410FFF76EFA024600283FF4ADAED9
:1042B0000378DEE7FFF77CFCF6E7BDF81230012B50
:1042C0007FF4A3AE237843F0080323702BE7BDF8F7
:1042D0001230012B7FF499AE237823F00803F4E722
:1042E0002378C3F340129B0803F002031343ADF895
:1042F0000A30022328460DF10A0204A900F04AF907
:10430000D3E59DF814300F2B3FF67FAE504A23447F
:104310001B791278934222D24E4A116811EB431155
:104320003FF473AE284604AAFFF732FC00287FF45E
:10433000BCAD9DF8103013F060047FF466AE9DF8BC
:1043400011300A3B012B3FF660AE00F055F99DF8A5
:1043500011300A2B7FF4E7AE8DF80A409AE6511C23
:104360009942FFF652AE3E499B1A01EB4311D9E741
:104370009DF8141011F0700F7FF416AE01F07F025B
:10438000334804EB420202EBD112127D00788242E4
:1043900013D23048066806EB4216DBB99DF811309F
:1043A00003F0FD02012A19D0002B7FF4FDAD284651
:1043B000FFF764FDADF80A009BE7461C9642C0F289
:1043C0009A80274E121A06EB4216002BE6D0314691
:1043D00004AA2DE6002E3FF418AEF8E7BDF812202F
:1043E00022B9012B284612D1FFF72AFD002E3FF4F7
:1043F0005CAD314604AA2846FFF7CAFB002000F056
:10440000FBF894F83530DE073FF54FAD8BE6FFF74C
:10441000F9FCEBE79DF8101001F07F0409EB440272
:1044200002EBD11292F8343023F0010382F83430D9
:1044300092F8343023F0040382F8343094B9059BA9
:104440009DF811209DF80C0000F0EAF82DE500BF62
:1044500028420220283702204149001061420220F0
:1044600058230710264B127D1B789A420DD2254BFC
:104470001B6813EB42133FF45DAD9C699DF811205E
:10448000059B9DF80C00A0470FE5581C9042FFF6D5
:1044900051ADD21A1C4B03EB4213EEE799F80030F2
:1044A000D8077FF502AD99F80000C0F3C000FFF710
:1044B00085FBFAE499F80030D9077FF5F6ACFFF7F1
:1044C0007EFBF2E4049B002B3FF4EFAC0598984789
:1044D000EBE499F80330DA077FF5E7AC0498FFF7CF
:1044E00066FBE2E44FF0E023D3F8F03DDB077FF515
:1044F000DCAC00BED9E4002B7FF487AD00264DE78D
:10450000284202202837022058230710124B70B58A
:104510009989DA8905468C1AA4B293F90000402CD7
:1045200028BF402400280EDA914212D09968224612
:104530000A481AF089F88021084A23462846BDE82F
:104540007040FFF731BC91424FF00001F4D10A46B0
:10455000F3E780210022F0E7B4380220743802200B
:10456000C943002301F080011A46FFF71DBC00007B
:1045700030B4074C0546224608680B46496803C21A
:1045800000222846C4E9022230BC1978FFF7E8BFB0
:10459000B4380220F8B5134E0C4637460546086875
:1045A0004968B26003C70021F181E1888B4228BFCE
:1045B0000B46B38189B14BB142B94FF0E023D3F838
:1045C000F03DDB0700D500BE002005E02846FFF7E0
:1045D0009DFF0028F1D00120F8BD28462178FFF783
:1045E000BFFFF6E7B438022014220021014819F079
:1045F00083BD00BFB4380220014B1861704700BF73
:10460000B438022010B50246044C006823465168B5
:1046100003C30023C4E9023310BD00BFB438022035
:1046200070B5284C1E462378C909B1EBD31F054647
:1046300013D03EB14FF0E023D3F8F03DDB073FD479
:10464000002070BD2146FFF7ABF923691BB122465C
:104650000321284698470120F3E794F90030002B06
:1046600006DBA0680028EBD03246174919F0ECFFB2
:10467000A268E38932443344A260E2889BB29A4242
:10468000E38101D03F2E17D8236933B9284621781A
:10469000FFF766FF0028DED1CCE702212846094A51
:1046A000984701460028F1D12846FFF7C7F9802135
:1046B0002846FFF7C3F9CEE72846FFF727FFE9E7CB
:1046C00000BEBDE7B4380220743802202DE9F04165
:1046D0000646FFF775FA48B3FFF77AFA054628BB96
:1046E000C8247443124B1F19FA78FAB110341C44D1
:1046F000204600F0D4FD3F2818D92846F978FFF766
:1047000033FB98B1204600F0CAFD3F28F97808D95C
:10471000084A284602EBC6124023BDE8F041FFF7E5
:1047200043BB2846BDE8F041FFF72EBBBDE8F08152
:10473000AC3702202C37022010B50446FFF740FAB0
:1047400008B9002010BDFFF743FA0028F9D1C822AC
:10475000034802FB0400007900F00100F2E700BF0B
:10476000AC370220C82208B5024B02FB003000F033
:104770006CFD08BDBC37022038B54FF6FF739A4276
:1047800028BF1A460446C820054B92B200FB0430ED
:1047900000F0B6FD05462046FFF798FF284638BDD5
:1047A000BC3702202DE9F0418046FFF709FA60B3DB
:1047B000FFF70EFA054640BBC82606FB08F6174C65
:1047C00006F124072744384600F03FFDE8B13444A1
:1047D0002846A178FFF7C8FAB8B1114E402206EB7F
:1047E000C8163146384600F08BFDA178044688B1E2
:1047F000034632462846FFF7D7FA48B94FF0E02380
:10480000D3F8F03DDB0700D500BE0020BDE8F08105
:104810002046FBE7FFF7B8FAF7E700BFAC37022006
:104820006C370220C82370B50B4D044603FB0055BE
:104830004FF6FF739A4228BF1A46284692B200F0FC
:10484000B1FD0646284600F000FD3F2802D920466B
:10485000FFF7A8FF304670BDD0370220C82208B548
:10486000024B02FB003000F01AFD08BDD0370220D9
:10487000F7B50024C8220021174819F03DFC174B5A
:10488000154F1C70FF237B714FF4E133BB6008238D
:1048900007F13801BB7340220123009407F1100097
:1048A00000F0A6FC01234022009307F1780107F1F4
:1048B000B80607F1240000F09BFC07F1C005304664
:1048C000FCF74AF92846FCF747F9C7E90746C7E964
:1048D0000C5403B0F0BD00BFAC37022029420220C7
:1048E000074B1A6A196B12B10022DA61012211B169
:1048F0000021C3E90C110AB100221A62012070479D
:10490000AC370220002310B50A480B4C036003713A
:104910002378DA0702D4103000F0C9FD23789B0712
:1049200002D4064800F0C3FDBDE810400121034851
:1049300000F0D8BDAC37022029420220D037022037
:10494000F7B54B790646022B0DD18B79022B0AD194
:10495000234FBB78002B3DD04FF0E023D3F8F03D40
:10496000DB0700D500BE0025284603B0F0BD237844
:104970001D44ADB21C446378242B1CD19542F6D95A
:104980006378042B13D163790A2B10D1154B277848
:10499000019301330093022330461A46E119FFF7D1
:1049A000B5F90028D8D00E3517FA85F5ADB200203C
:1049B000FFF78CFED8E7052BE2D121463046FFF702
:1049C00083F90028C8D0A3787B7023781D44ADB24A
:1049D0001C44D5E78B7809253B700B78CC18CAE7C7
:1049E000AC370220AE3702200B461146127870B564
:1049F00002F06002202A04D1284D8A882C78944243
:104A00003CD0002006E0012B05D10723244AFFF704
:104A1000C1FD012070BD032BFBD1224B002BF8D030
:104A200000201F49FEF7A0FCF3E7012BF1D1ECE7D2
:104A3000012B02D1FFF79CFDEBE7032BE9D14C885A
:104A4000194804F0010686F001012C7100F04AFDBE
:104A5000164B002BDDD031460020C4F34002AFF3EB
:104A60000080D6E7012BE5D0032BD2D1104B002BD1
:104A7000CFD000204988AFF30080CAE74A78203AB7
:104A8000032ABED801A454F822F000BF074A001040
:104A90002B4A0010314A0010654A0010AC37022042
:104AA000B437022069330010D03702200000000024
:104AB000000000002DE9F843324C1D46E3788046A3
:104AC0008B420F460CD0A3788B4216D04FF0E023D8
:104AD000D3F8F03DDB0700D500BE0020BDE8F88329
:104AE0002949AAB204F1100000F05CFC274B4BB935
:104AF000274BEBB90020FFF7E9FDA378BB421FD09D
:104B00000120EBE76379FF2BF2D01F4E06EB05097E
:104B10004E45EDD016F8013B62799A42F8D11D4816
:104B200000F0A4FB0028F3D16179AFF30080EFE738
:104B3000184800F09BFB0028DCD1AFF30080D9E7D8
:104B4000154B13B10020AFF300800020FFF72AFEC1
:104B50000028D5D1114800F078FB0028D0D1002DD5
:104B6000CED015F03F05CBD14046A178FFF7FCF839
:104B70000028C5D02B462A464046A178FFF714F9F5
:104B8000BEE700BFAC3702202C3702200000000037
:104B900000000000BC37022000000000D0370220D7
:104BA00010B9024900F017BA002070475C390220A2
:104BB000F0B5144F85B04FF413720021114819F06D
:104BC0009BFA07F5A67340264FF4807500930023E7
:104BD0000D4C1A46194602940396019507F59470F8
:104BE00000F09EF907F1280300933846002334446F
:104BF00001221946CDE901540396043000F090F9E2
:104C000005B0F0BD58390220D838022008B5054853
:104C100000F0ABF9034BA3F5927000F0A6F9012068
:104C200008BD00BF803A022038B50025064C04F5C7
:104C30009870257000F03BFC04F10C0000F037FC8C
:104C400084F82951657138BD583902202DE9F8439F
:104C50004B798146FF2B0E4650D00020BDE8F883EB
:104C600023781C446378052B04D0BC42F8D3A01BE6
:104C700080B2F3E7BC42FAD221464846FFF724F857
:104C800038B94FF0E023D3F8F03DD807E5D500BEA2
:104C9000E3E7A378DB0917D0224800F008FCA378EB
:104CA0002A796B71A3880020C3F30A03A3F500716E
:104CB0004B424B4163F341022A71FFF771FF2378A6
:104CC00008F101081C4427E0174800F0F0FBA37826
:104CD000484685F82931A3881449C3F30A03A3F58C
:104CE00000725342534195F8282163F3410285F83D
:104CF000282100F0A7F90028E1D1C2E70C4D95F872
:104D00002931002BA9D16B79002BA6D19846347894
:104D10003444A718B2782A7032795FFA88F39A423D
:104D2000A0D8A4E764390220883A0220803A022001
:104D30005839022038B5054619481C4690F82931E3
:104D40008B4204D043798B4218D0002038BDB0F894
:104D5000343133B1D0F82C11A2B200F5987000F0C4
:104D600021FB104B23B100200F49A2B2AFF300800A
:104D700028460E4900F066F90120E7E70C4B1BB10D
:104D80000020A1B2AFF3008028460A4900F023F9C1
:104D90000028F1D122462846064900F0E8F8EBE762
:104DA0005839022000000000D8380220803A022042
:104DB000000000005C3902200B4613B599B90124AC
:104DC000184601A9ADF80440FEF70AFF40B94FF0BC
:104DD000E023D3F8F03DDA0700D500BE02B010BDE5
:104DE0000D4B1C70FAE7012801D80B7843B94FF03E
:104DF000E023D3F8F03DDB0700D500BE0020EDE74F
:104E0000054C012B235401D00120E7E7FEF7E8FE13
:104E10000028F9D1EBE700BF4B420220F8B5047837
:104E2000054614F001040E461CD103785A07C3F35B
:104E3000800713D44FF0FF3130461BF045FC2C782F
:104E400014F001040CD12B785B0704D401242B78D7
:104E500043F004032B7030461BF046FC2046F8BD9F
:104E60003C46F8E70024F9E770B50D4604464FF0DC
:104E7000FF3128461BF028FC2378C3F380065B072C
:104E800008D5237813F0010211BF0026237862F3BE
:104E90008203237028461BF027FC304670BD8388B0
:104EA000C078C3F30A0300F00300022814D00328DB
:104EB0001CD001280ED1022940F2FF3208BF4FF466
:104EC00080629A420ED24FF0E023D3F8F03DDB0728
:104ED00000D500BE00207047022904D1B3F5007F41
:104EE000F1D101207047402BFBD9ECE7022914BF18
:104EF00040224FF480629A42F3D2E4E730B50A448C
:104F0000914200D330BD4C78052C06D18C7804F04A
:104F10007F0500EB4505E4092B550C782144EFE7AC
:104F2000F7B515460278089FBDF8246061F30002CA
:104F30000446394600F8082B00933246012300F05E
:104F400057F957B14EB104F11C063046FBF704FE89
:104F50000DB135460026C4E9055601200A9B636061
:104F6000BDF82C30638003B0F0BD01207047F8B568
:104F70000546084610F8083B0C4613F0020F0CBF1C
:104F800040274FF40077164600F05FF908B1002083
:104F9000F8BD002EFBD0013F3742F8D12378DA0765
:104FA000F5D428466178FEF7DFFE0028EFD023789D
:104FB00013F0010307D04FF0E023D3F8F03DDB07F7
:104FC000E5D500BEE3E71A4628466178FEF7ECFE19
:104FD0000028DDD1EFE770B501F108050646284647
:104FE0000C4600F032F9C0B12378DA0715D4304608
:104FF0006178FEF7B9FE80B128466288616800F0EA
:105000007FF92378054603F00103A0B13BB14FF0CF
:10501000E023D3F8F03DDB070BD4002070BD03463E
:10502000626830466178FEF7BFFE0028EFD0284660
:10503000F4E700BEF1E7002BEFD130466178FEF7D0
:10504000A3FEEAE78A89F8B506460C460B78F2B962
:10505000DD070DD44978FEF787FE48B12378D907DC
:1050600008D54FF0E023D3F8F03DDB0700D500BEB4
:105070000020F8BD638861783BB162683046FEF776
:1050800093FE0028EDD06088F3E71A46F6E701F1B9
:10509000080713F0020F38460CBF40254FF4007587
:1050A00000F0FDF88542E3D82378DA07E0D43046F3
:1050B0006178FEF759FE0028DAD0384600F0EFF8A4
:1050C0002378854203F0010315D8002BC9D16D4226
:1050D00063880540ADB29D4228BF1D46617845B149
:1050E00062682B463046FEF75FFE0028B9D028469E
:1050F000BFE72A46F5E7002BBAD130466178FEF7C4
:1051000043FEB5E70A4492B291424FEA400001D80B
:10511000824201DB121A92B21046704738B505463A
:10512000D41A0846A988A4B29A423CBF04EB4104B1
:10513000A4B2B4B1A14205D2914294BF521A5218FE
:1051400093B26B81994209D9EA882968C2F30E02A9
:1051500002FB031119F078FA012038BD5B1A9BB2EB
:10516000F0E72046F9E72DE9F047BDF820408688B2
:105170001D1BADB2A3423CBF05EB4605ADB20746D1
:105180008846F5B1AE4206D235469E4294BF9B1B7F
:105190009B199CB24481954228BF1546A64213D95B
:1051A000FA88A6EB040939681FFA89F9C2F30E0AD6
:1051B0004D4552460AFB041109D840466A4319F08E
:1051C00043FA2846BDE8F087A41BA4B2E6E719FB22
:1051D0000AF91FFA89F94A464046AE1B19F034FA1B
:1051E000A21912FB0AF2396892B208EB0900E6E74D
:1051F000B2F5004FF8B504460F4616461D4622D8B4
:10520000C06818B14FF0FF311BF05EFA206918B189
:105210004FF0FF311BF058FA9DF81830C5F30E051A
:1052200045EAC3350023E06863812760A680E580F6
:10523000238108B11BF058FA206908B90120F8BD94
:105240001BF052FAFAE70020F9E702461389528967
:10525000808892B29BB2934236BFC2EB40029B1A47
:105260009B189BB2984228BF184670470289438911
:1052700092B29BB2D31A584258417047038942896F
:10528000818892B29BB2934236BFC2EB41029B1A15
:105290009B189BB299428CBF002001207047038964
:1052A0004189828889B29BB28B4236BFC1EB4201F1
:1052B0005B1A5B189BB29A4286BFD01A80B200205C
:1052C000704738B5044600690D4618B14FF0FF31FC
:1052D0001BF0FAF922896389294692B220469BB2D3
:1052E000FFF71CFF61890246054689B2A088FFF7D7
:1052F00009FF6081206908B11BF0F6F9284638BD26
:1053000073B5044600690D46164618B14FF0FF31DB
:105310001BF0DAF923896289294692B2009220466D
:1053200032469BB2FFF71FFF61890246054689B2EC
:10533000A088FFF7E7FE6081206908B11BF0D4F96F
:10534000284602B070BDF8B50446C0680F4618B1D3
:105350004FF0FF311BF0B8F926892046B6B2FFF7AF
:105360008DFF10B1E579ED0913D03046A388834253
:1053700015D9E2882368C2F30E02394602FB0030D9
:1053800019F062F901223146A088FFF7BBFE012522
:105390002081E06808B11BF0A7F92846F8BDC01AC3
:1053A00080B2E4E72DE9F84F05460E469046002A04
:1053B0003FD0C06818B14FF0FF311BF085F9EB7991
:1053C0002F896989DB09AC88BFB289B234D18F4299
:1053D00035BFC1EB4403791ADB198BB238BF9BB2DE
:1053E000A34262D2E31A9BB2434528BF43461FFA49
:1053F00083F8B946A14540D2EA88A4EB090A286897
:105400001FFA8AFAC2F30E0BC2450BFB090039D30F
:1054100031460BFB08F219F017F942463946A888C5
:10542000FFF770FE44462881E86808B11BF05CF97C
:10543000A0464046BDE8F88FA0450BD3002CF3D022
:10544000EB88A8EB0408C3F30E0303FB08660F46C2
:10545000A046CEE78F424FEA440236BF531A7B1A6A
:10546000DB199BB243449342C3DBA4EB0802204602
:1054700092B2FFF747FE0746BBE7A9EB04091FFA04
:1054800089F9B7E71AFB0BFA1FFA8AFA5246314636
:10549000A8EB040419F0D8F809EB040212FB0BF294
:1054A000286892B206EB0A01B5E70024BCE710B504
:1054B0000446C06818B14FF0FF311BF005F92069B0
:1054C00018B14FF0FF311BF0FFF80023E068638153
:1054D000238108B11BF008F9206908B11BF004F919
:1054E000012010BD38B50446C0680D4618B14FF014
:1054F000FF311BF0E9F8206918B14FF0FF311BF0C4
:10550000E3F8E379E06865F3C713E37108B11BF0D2
:10551000EBF8206908B11BF0E7F8012038BD000066
:105520003C21836B18472DE9F04FD1E90389C56809
:105530006B4B04461A682846A7B08B4606F029FB39
:10554000074650B9674B00933A2365692046664A7F
:105550006649A8474FF0010A9BE1654B594628462A
:105560001A6806F016FB0B9020B9624B0093656930
:105570003D23EBE7604B594628461A6806F01EFBB0
:105580000A9020B95D4B009365694023DEE75C4BD0
:10559000594628461A6806F011FB064698B1037F63
:1055A0000F930A9B3A7F1B7F9A420ED0CDE90223CC
:1055B000544B0193544B00934523656920464A4A56
:1055C0005249A847C6E70F90EBE7531EDBB2082B02
:1055D00005D840F2411121FA03F3DB0704D46369D3
:1055E0004B4920469847B5E70B9B012A1B7F04D106
:1055F000012B08D063694749F3E7072A01D1092B3A
:10560000F7E7122BFBD1D7F814C0DCF800100429FF
:1056100009D00423CDE902133F4B01933F4B009384
:1056200065695523CAE70B9B5B69186809930428D1
:1056300008D0394BCDE902010193394B00936569DC
:105640005623BBE70A9949690B68042B0C9308D0D1
:10565000CDE90230304B0193324B009365695723FB
:10566000ACE7DCF804300D934B680E93DDE90D30A8
:10567000834209D00D9B039002932B4B01932B4B3C
:1056800000936569592399E7099BD3F810A0BAF1F3
:10569000000F04DC264B009365695B2356E7DCF8BA
:1056A00010E09EFBFAF00AFB10E048B10023CDE9C0
:1056B0000203204B0193204B009365695C237DE737
:1056C000002E3DD070690068042839D00C9BCDE9CC
:1056D0000203114B0193194B0093656962236DE737
:1056E000082407100A0B0210940A0210F30A021091
:1056F000042407101B0B0210FC2307102D0B0210B3
:1057000000240710590B0210BE2702103F0B021095
:10571000660B0210E30B0210F31D0210730C021053
:10572000850C0210980C0210AB0C0210C10C021078
:10573000D60C0210AC270210F00C02101D0D021046
:105740000D9B08691093DCF80830092A1193DCF8E6
:105750000C304FF0010CCDE9123E099BCDF850C042
:105760009B681593099BDB68CDE9163A0E9B18934D
:105770008B68C9681993CDE91A1001D0072A13D193
:10578000514A099B1268204603EB82035B684FEA8B
:10579000830A5146A36B98475146C8F82400A36B6F
:1057A00020469847C8F82800CDF818803B7F4A4625
:1057B0000593199B594604931A9B20460393159B06
:1057C0000293169B0193119B0093129B04F0F6F930
:1057D000824600285DD1397F092905D0072932D1B9
:1057E0000F9B13F0FB0F2ED1FB68D9F808005A422B
:1057F0001C920A9A0929D2681F90D9F804001D92B8
:105800001E90D9F814002390D9F810002290D8F8EF
:1058100004002190D8F800002090D8F82C002490A3
:10582000D8F83000259024D118AB14AA10A91CA8D0
:1058300007F0FBFE0028014640DD2046236C08F1FE
:105840003802984720BB2B6828469B690A999847DD
:105850002B68394628469B6998472B6828469B69E0
:105860000B999847AEB12B68314628469B699847FB
:105870000FE093B10022CDE90232144B0193144B97
:1058800000939E2365692046124A1349A8470120C8
:105890008246504627B0BDE8F08F42B1CDE90223E1
:1058A0000A4B01930D4B009365699F23EBE718ABFF
:1058B00014AA10A91CA807F001FEBBE74FF0FF33A4
:1058C000C8F83830BFE700BFF8230710AC27021034
:1058D0002E0D0210940A02103F0B021086240210B3
:1058E000F0B51C464B69A9B025930B692E9F2493F4
:1058F0001369309E5B421E9393691F938B682193BB
:105900004B6820935368239313682293D36A26939A
:10591000136B2793536A0893936A099363685968D2
:105920000E9199680F91D9681B6910911193012309
:10593000796812938D68CDE917331395CD6809699D
:105940001495CDE9151373685D6819691A959D68FA
:10595000DB681991CDE91C310023916BCDE90A3345
:1059600099421B9502DB436C98470A9023680024F8
:105970002F993A6808683168CDE90C0406911AA994
:1059800005910CA9049116A9CDE9022112AACDE92D
:1059900000321EA90EAB08AA0AA807F048FE29B0DB
:1059A000F0BD2DE9F0411D464B69A8B025930B6968
:1059B000309F24931369DDE92E845B421E93936923
:1059C0001F938B6821934B686968209353682393D6
:1059D00013682293D36A2693136B2793536A089311
:1059E000936A09934B680E938B680F93CB6810935F
:1059F0000B6901211193D8F8043012919E68CDE90A
:105A000017111396DE681B691496CDE91531796874
:105A10004E680B691A968E68C9681993CDE91C13F4
:105A20000023916BCDE90A3399421B9602DB436C4C
:105A300098470A902B68D8F8002004B12468012008
:105A40003968CDE90C4006911AA905910CA9049179
:105A500016A9CDE9022112AACDE900321EA90EAB8A
:105A600008AA0AA807F0E3FD28B0BDE8F0812DE9F7
:105A7000F0411D464B69A6B023930B692E9F2293DC
:105A80001369DDE92C845B421C9393691D938B6839
:105A90001F934B6869681E93536821931368209382
:105AA000D36A2493136B2593536A0893936A0993DB
:105AB0004B680C938B680D93CB680E930B69012197
:105AC0000F93D8F8043010919E68CDE91511119606
:105AD000DE681B691296CDE9133179684E680B694F
